:10000000D8000120510C00004D0C00004D0C0000E8
:100010004D0C00004D0C00004D0C000000000000D5
:100020000000000000000000000000004D0C000077
:100030004D0C0000000000004D0C00004D0C0000B5
:100040004D0C00004D0C00004D0C00004D0C00004C
:100050004D0C00004D0C00004D0C00004D0C00003C
:100060004D0C00004D0C00004D0C00004D0C00002C
:100070004D0C00004D0C00004D0C00004D0C00001C
:100080004D0C00004D0C00004D0C00004D0C00000C
:100090004D0C00004D0C00004D0C00004D0C0000FC
:1000A0004D0C00004D0C00004D0C00004D0C0000EC
:1000B0004D0C00004D0C00004D0C00004D0C0000DC
:1000C0004D0C00004D0C00004D0C00004D0C0000CC
:1000D0004D0C00004D0C00004D0C00004D0C0000BC
:1000E0004D0C00004D0C000000000000000000005E
:1000F00000000000E50400004D0C00004D0C000065
:100100004D0C00004D0C00004D0C00004D0C00008B
:100110004D0C00004D0C0000A90B0000150C000058
:100120001D0C0000250C00004D0C00004D0C0000C3
:100130004D0C00004D0C00004D0C00004D0C00005B
:100140004D0C00004D0C00004D0C00004D0C00004B
:100150004D0C00004D0C00004D0C00004D0C00003B
:100160004D0C00004D0C00004D0C00004D0C00002B
:100170004D0C00004D0C00004D0C00004D0C00001B
:100180004D0C00004D0C00004D0C00004D0C00000B
:100190004D0C00004D0C00004D0C00004D0C0000FB
:1001A0004D0C00004D0C00004D0C00004D0C0000EB
:1001B0004D0C00004D0C00004D0C00004D0C0000DB
:1001C0004D0C00004D0C00004D0C00004D0C0000CB
:1001D0004D0C00004D0C00004D0C00004D0C0000BB
:1001E0004D0C00004D0C00004D0C00007D13000074
:1001F0004D0C00004D0C00004D0C00004D0C00009B
:100200004D0C00004D0C00004D0C00004D0C00008A
:100210004D0C00004D0C00004D0C00004D0C00007A
:100220004D0C00004D0C00004D0C00004D0C00006A
:100230004D0C00004D0C00004D0C00004D0C00005A
:100240004D0C00004D0C00004D0C00004D0C00004A
:100250004D0C00004D0C00004D0C00004D0C00003A
:100260004D0C000010B5054C227832B9044B13B187
:100270000448AFF300800123237010BD000000206C
:10028000000000005C15000008B5034B1BB10349DA
:100290000348AFF3008008BD000000000400002008
:1002A0005C150000024A53680342FCD1704700BF4E
:1002B00000280040184938B54B68184D13F0010F5D
:1002C00011D10320A8470B789B0707D50B7803F0C3
:1002D000FD0303200B70A8470220A8470E4B012204
:1002E0001A700320A8470120A8470B490B7803F098
:1002F000EF030B700320A84700244C708C608C61C6
:100300000C634C63CC610C620B7843F002030B70FE
:100310000320A847204638BD00280040A502000061
:10032000F0B505681DB90F4BBDE8F0401847D1F88E
:1003300008C02C460026C2F1010ED4E901379342D1
:1003400095BFDB1973449B1ADB199C4507D92368B9
:10035000264613B9044B3046E6E71C46EDE7A542B6
:10036000E1D0F7E72D050000590500002DE9F04721
:10037000D0E90465037E0136DA07044606611FD41E
:10038000037E9B071CD4DFF84480DFF8449000F123
:100390001407CDB16B68AA68F31A934214D3384698
:1003A000C0472B7C012B04D16E603246294638466B
:1003B000C847D4F814A0EB68284698475546E8E7A4
:1003C000237E43F002032376BDE8F0876105000039
:1003D0002103000038B50D46044610B1081E18BFB1
:1003E00001203B220549064B9847064B29462046EB
:1003F0009847054B23600020206138BDFC130000A6
:100400006D050000311200006D0300001FB5038967
:10041000ADF804304FF40043ADF806300391054BBE
:10042000029201A9143814469847002808BF2046B4
:1004300004B010BD390A00001FB50389ADF80430BF
:1004400048F20103ADF806300391054B029201A971
:10045000143814469847002808BF204604B010BD41
:10046000390A000038B50446003818BF0120074B90
:100470000D465E2206499847064B29462046984776
:1004800018B9054BA361054B636138BD6D050000CC
:1004900013140000090A0000390400000D040000D4
:1004A0000A4A13889BB210B543F4A0631380084B2B
:1004B0009847084B9847084B9847084B9847BDE822
:1004C0001040074B40F6FF70184700BF0040004146
:1004D000D50C000073050000B10500007505000093
:1004E0002D0C00000B4A937882B0DBB20193019B84
:1004F000990705D5084B1B6813B1506802B018471F
:10050000019BDB0704D5044B5B680BB1014AF4E7A0
:1005100002B07047000002413C000020006800B9B2
:1005200070478842FAD101207047000038B5074B68
:100530000D460446984780F00100054B05493922D5
:10054000C0B2984723682B60256038BD1D050000A8
:100550006D0500002F14000003680B6001607047F8
:1005600003680BB11A6802601846704700B900BEF4
:10057000704770470C4B0D4A5A63DA6B12F0060F46
:10058000FBD14FF402629A63022283F83020064ABC
:10059000D36B9807FCD4044B1A6CD10702D41A6CA5
:1005A0009207F9D5704700BF001000404D0E0100C2
:1005B000014B01225A71704700080040C3690B4289
:1005C000FCD17047C3690B42FCD170470268034BF2
:1005D00022F0020202600321184700BFBD0500009F
:1005E0000268034B22F0020202600321184700BF99
:1005F000C505000070B50C4D06460FCD88B06C46A1
:100600000FC495E80F0084E80F006A46002352F8F3
:10061000041BB14202D1D8B208B070BD0133082B1F
:10062000F5D10020F8E700BF6814000008B5034BBF
:10063000984780002E3000F0FE0008BDF505000050
:100640004209012300F01F0003FA00F0014B43F8B8
:100650002200704700E100E04309012200F01F0082
:1006600002FA00F02033044A42F82300BFF34F8F10
:10067000BFF36F8F704700BF00E100E04309012224
:1006800000F01F0002FA00F06033024A42F8230033
:10069000704700BF00E100E008B5074B984703280A
:1006A00008D000200549064B40F2CE3298474FF063
:1006B000FF3008BD0020FCE7F50500004D140000E8
:1006C0006D0500004268034B42F440324260042151
:1006D000184700BFBD0500002DE9F0410E46144645
:1006E0000421564AD0F8008005469047438B16F007
:1006F000010F9BB2174664D09F0716D501220276E0
:10070000628892B242F480526280628803F00106ED
:1007100022F480721204C6F1FF26120C06F57F0641
:100720006280FC363046BDE8F08113F0040615D037
:100730006368002BC1BF63889BB243F4805363801E
:1007400063881E0401D53E4B9847638823F4807369
:100750001B041B0C63806FF00106E3E7638813F44E
:10076000806715D023880421DB0903F00607904732
:10077000436A03F480433B4343F0F10343620421A3
:100780009047638823F480631B041B0C6380C9E7D4
:1007900066684EB96388180402D5294B28469847E5
:1007A000638823F48073EFE7A3681B7883620421D6
:1007B0009047A3680133A3606368013B6360002630
:1007C000B0E716F00206ADD06268002A32D05907B1
:1007D00030D4013AC8F3C06162609AB9A9B16388A4
:1007E0001B0408D56B6823F480736B6004212846D2
:1007F000B847134B9847638823F480731B041B0C82
:1008000063800CE0012A0AD149B16B6843F480236C
:100810006B6004212846B8476368002BDFD00421B1
:100820002846B847A368AA6A591CA1601A70022317
:100830002B76C4E702232B768DE700BFBD050000B1
:10084000C50600002DE9F8430C46224BDFF89090D6
:10085000214D074608469847E36913F0010F5FFAF8
:1008600080F815D1182303FB0893032120465E6A04
:10087000A84723689B0706F01C0603D5174B98472B
:100880000221A84746F00106266003212046A8471A
:1008900020460121A847182202FB08920321566A2C
:1008A0002660A847936A63600421A847D36AE3607F
:1008B000C6F30163BB81636AC6F3406623F48043D9
:1008C00043EA863363620421A847538EFB810020EC
:1008D000BDE8F88399060000BD050000CD050000C5
:1008E0006814000038B51A4B04469847022805D012
:1008F0001849194B40F26B2200209847E369174DC5
:1009000013F0010F0ED103212046A84723689B074F
:1009100003D5134B98470221A847052323600321E1
:100920002046A84720460121A8470E4B23600321FB
:10093000A8474FF4403363601F21A8470A4BA360C8
:1009400000204FF61143A381A07384F8300038BD16
:10095000F50500004D1400006D050000C505000000
:10096000E105000004001040020070002DE9F34191
:100970000546003818BF0120144B0C46CB22144901
:100980009847144B204698470646D0B9124BAC61A5
:100990009C4208BF114BDFF8548008BF1D60204601
:1009A0000F4B104F104D9847002104466318D8B2E2
:1009B0000190C0470198B8470198A8470131042920
:1009C000F4D1304602B0BDE8F08100BF6D050000F3
:1009D0004D140000E5080000002001411C0000202B
:1009E0002D0600007D0600004106000059060000AB
:1009F000836999627047836901229A757047836998
:100A000002229A757047000070B5044600380D4602
:100A1000064B074918BF01204FF4A862984725618B
:100A200029462046034BBDE8704018476D0500007D
:100A30004D140000450800002DE9F0470446DFF89A
:100A4000609107690E464FF4BF6252490120C847C2
:100A500020695049003840F2F95218BF0120C847B8
:100A6000301E18BF01204B4940F2FA52C847638834
:100A7000D8057CD47388DFF82C819BB243F4807353
:100A8000738096E807007B6843F4807384E807006E
:100A90007B6004213846C04725693E49D5F800A04F
:100AA00040F2CD520120C8476368012B6B683BD1EF
:100AB0001AF0006F38D043F480236B60042128467D
:100AC000C047238859054FEA430230D56388DB07C6
:100AD00041BF63889BB243F4806363800421C047B5
:100AE0006B6A22F001025205520D03F480431A434F
:100AF00042F400426A6204212846C04722694FF44A
:100B00008033117E013BC9B201D08807F9D0284655
:100B10002246214DA847D0B1638823F480731B047B
:100B20001B0C6380BDE8F08723F48023C5E7042114
:100B3000B4F80290C0471FFA89F96B6AD2B209F083
:100B4000010942EA090203F480431A43D2E76388A9
:100B5000DA05E7D522694FF48033117E013BC9B233
:100B600008D08807F9D022463846A847EFE76FF04B
:100B70000500D7E773881B0402D5084B3846984711
:100B8000638823F480731B041B0C63806FF00400E4
:100B9000C8E700BF4D140000D9060000C5060000DC
:100BA0006D050000BD050000194B186810B584697B
:100BB000237EDA0708D5A37DDB0705D5012323753E
:100BC0000368BDE810401847237E990706D5A37D2A
:100BD0009A0703D5022323758368F2E7237E5B0718
:100BE0000CD5638B03F0370313B1FF23638310BD70
:100BF000A16A4368BDE81040C9B21847237EDB09EB
:100C0000F5D080232376C3689847638B9BB2EDE7CA
:100C10001C000020004B1847A90B0000004B184790
:100C2000A90B0000004B1847A90B0000C30707D50C
:100C3000044B054A1A6243F6FD7259681142FCD111
:100C4000704700BF001C004007010100FEE70000E4
:100C500008B5144A144B9A4202D014498B4218D357
:100C6000134B144A0021934218D3134A134B22F01A
:100C70007F029A60D3F8882042F47002C3F888207B
:100C8000BFF34F8FBFF36F8F0D4B98470D4B9847B6
:100C9000FEE752F8040B43F8040BDFE743F8041BAC
:100CA000E1E700BF5C15000000000020000000200C
:100CB00000000020D80000200000000000ED00E04F
:100CC000B5130000C90C000008B5014B9847FEE7BA
:100CD000D1110000064B42F28E329A8200229A75A0
:100CE000DA75DA6902F47C52DA6101221A7470470B
:100CF000001400404309DB0103F1824330B503F5E2
:100D0000004300F01F041D1903EB540395F8402025
:100D100002F0FE0242F0010285F84020CAB293F8C8
:100D2000301010F0010F1BBF01F00F0141EA02115A
:100D300001F0F001C9B208BF114383F8301030BD93
:100D4000054B4022C3F89020044A536943F4806362
:100D50005361034B184700BF001C004000080040CF
:100D6000CD100000064B4022C3F8DC204322C3F81C
:100D70008C20044A936943F400739361704700BF69
:100D8000001C00400008004010B5054C0549392002
:100D9000A04723460449BDE810403820184700BF4B
:100DA000F50C0000030039000300380013B5074BB1
:100DB000074C984700230093064A07490748102329
:100DC000A047074B02B0BDE810401847650D000072
:100DD0001110000020000020002001414C000020E4
:100DE000890D000070B50B4C0B4D94F856300B4933
:100DF00003F0FB0384F856301620A84794F85730C8
:100E0000074903F0FB0384F8573017202B46BDE851
:100E10007040184700800041F50C000002001600E9
:100E200002001700064B4022C3F8E0204322C3F81B
:100E30008C20044A936943F480639361704700BF38
:100E4000001C00400008004010B5054B9847054BBA
:100E5000054906489847BDE81040054B184700BFB4
:100E6000250E000065040000004001419C000020A8
:100E7000E50D000010B50D4B98470D4B98470D4BF5
:100E800098470D4B98470D4A536943F4804353618B
:100E90000B4B4022C3F8A4200A4B9847BDE81040F2
:100EA0000246094909480A4B184700BFA10400003F
:100EB000410D0000AD0D0000490E0000000800408B
:100EC000001C00407913000000380040BC000020E6
:100ED000D503000000238362C3690BB108381847AB
:100EE000704700238362436A0BB108381847704784
:100EF00070B50446054BA0F108052C309847236ACD
:100F00001BB12846BDE87040184770BD691100004C
:100F100070B50E461546044618B1D9B1101E18BF5B
:100F200001200F4B0F4940F23B129847B4F8442080
:100F3000B4F84C309A420FD10023A4F84430012376
:100F4000236304F10800084BA664A4F84C509847AA
:100F5000284670BD0846E4E76FF01B00F9E700BFC4
:100F60006D050000B1140000F7090000838FB0F890
:100F700044209A4210B504460AD0026C591C81875D
:100F8000D15C044B9847044B2046BDE810401847FD
:100F9000024BFAE7F1090000F7090000FF09000021
:100FA0002DE9F7430E461746044618B1E9B1101E65
:100FB00018BF01201049114BDFF850904FF4AC726C
:100FC000984734340E4B01A898470E4B204698475B
:100FD0000D4B804601A898470025A84501D0BD4289
:100FE00005D1284603B0BDE8F0830846E2E7711951
:100FF0002046C8470135F0E7B11400006D05000038
:1010000099130000AD110000A71300002911000082
:10101000F8B50D4616461F46044620B109B312B373
:10102000181E18BF01201249124B3A229847124B42
:101030003A46314604F134009847B0B90F4B29467F
:1010400004F10800984758B90D4B63600D4B2360BD
:101050000D4BA3600D4BE3600D4B23610D4B6361A2
:10106000F8BD0846DFE71046DDE76FF00C00F7E754
:10107000B11400006D050000ED1000006D090000C6
:10108000A10F0000110F00006D0F0000F10E000015
:10109000D50E0000E30E00000B4B30B45C6801215C
:1010A0000022914201D230BC70478D186D08FAD1F0
:1010B000844204D11B68002BF5D030BC18472CBFEC
:1010C000FF210122EDE700BF30000020044B05485E
:1010D00000224FF0FF31C3E90021034B184700BF46
:1010E0003000002099100000B502000070B50E46D7
:1010F0001446054618B189B1101E18BF01200849D1
:10110000084B28229847631E13EA040003BFC5E971
:101110000130E8602E606FF00C0070BD0846EEE70D
:10112000CE1400006D05000038B50D46044610B120
:10113000081E18BF01200A4B0A4940229847D4E9EB
:1011400002329A4209D0626813402268D35C2B7045
:10115000A3680133A360002038BD6FF00900FBE7EE
:101160006D050000CE14000038B50446003818BFE5
:1011700001200D460B4B0C4951229847E3686268E9
:1011800013402268D554D4E90121E368591A9142E9
:1011900088BF9A1A03F1010388BFA260E3600020B0
:1011A00038BD00BF6D050000CE14000010B5044628
:1011B000003818BF01200449044B67229847D4E93E
:1011C0000230C01A10BD00BFCE1400006D05000033
:1011D000004B1847750E000003690B42FCD17047A5
:1011E00070B5104D06460FCD88B06C460FC495E81B
:1011F0000F0084E80F006A46002052F8041BB14239
:1012000002D130B908B070BD01300828F5D10020F6
:10121000F8E700200449054B4FF49E7298474FF0C1
:10122000FF30EFE708150000F21400006D05000024
:101230002DE9F843484B814608460C469847474BF2
:101240004749C9F80C408D2206460120984723697A
:10125000444A13F0010F12D103212046904723681E
:101260009B0707D5236823F00203032123609047DF
:101270000221904701232360032120469047DFF895
:10128000F480142505FB06850121204690476F6AEE
:1012900027600321904795F82A30E37307F00C0785
:1012A0002B8DE380082F4FF0010323733CD1EB6AB1
:1012B000E361C021904700232362C021204690476C
:1012C00001236372284B9C4204BF284BC3F8009053
:1012D000142303FB0683B3F92230002B0DDB5A09DC
:1012E000012103F01F0301FA03F32032204941F8E2
:1012F0002230BFF34F8FBFF36F8F142000FB0686A1
:10130000B6F92230002B0CDB03F01F015B099B00B8
:1013100003F1604303F5614301228A40C3F8802151
:101320001A600020BDE8F8832FB9AB8DA383C021DC
:101330009047E783C1E7042FC2D195F82C3023777B
:10134000C021904700236377C021904795F82B3048
:10135000E3762021B2E700BFE11100006D05000037
:10136000F2140000D91100000038004038000020BD
:1013700000E100E00815000000207047054B1868E8
:10138000C3689A7AD20703D501229A720368184774
:10139000704700BF38000020EFF31083036072B67F
:1013A000BFF35F8F7047BFF35F8F036883F31088CD
:1013B0007047000070B50D4D0D4C641BA410002645
:1013C000A64209D10B4D0C4C00F0B8F8641BA410D8
:1013D0000026A64205D170BD55F8043B984701365A
:1013E000EEE755F8043B98470136F2E74815000050
:1013F00048150000481500004C1500002E2E2F68DF
:10140000616C2F7372632F68616C5F74696D6572B4
:101410002E63002E2E2F68616C2F7372632F68610C
:101420006C5F6932635F6D5F73796E632E63002E4C
:101430002E2F68616C2F7574696C732F7372632F14
:101440007574696C735F6C6973742E63002E2E2F34
:1014500068706C2F736572636F6D2F68706C5F734B
:101460006572636F6D2E63000030004000340040F1
:1014700000200141004001410000004300040043FE
:1014800000080043000C004303000000140020008B
:1014900000010000FF0000000000D7000004270743
:1014A000000000000000000000000000000000003C
:1014B000002E2E2F68616C2F7372632F68616C5F32
:1014C00075736172745F6173796E632E63002E2E83
:1014D0002F68616C2F7574696C732F7372632F752D
:1014E00074696C735F72696E676275666665722E89
:1014F00063002E2E2F68706C2F74632F68706C5FE2
:1015000074632E630000000000380040003C00407F
:1015100000A0014100C00141001400420018004237
:10152000001400430018004300006B000803000093
:1015300000000000973A000000000000F8B500BF6E
:10154000F8BC08BC9E46704789020000F8B500BF91
:0C155000F8BC08BC9E4670476502000015
:00000001FF
