:10000000086E0120790F0000750F0000750F0000C9
:10001000750F0000750F0000750F00000000000054
:10002000000000000000000000000000750F00004C
:10003000750F000000000000750F0000750F000034
:10004000750F0000750F0000750F0000750F0000A0
:10005000750F0000750F0000750F0000750F000090
:10006000750F0000750F0000750F0000750F000080
:10007000750F0000750F0000750F0000750F000070
:10008000750F0000750F0000750F0000750F000060
:10009000750F0000750F0000750F0000750F000050
:1000A000750F0000750F0000750F0000750F000040
:1000B000750F0000750F0000750F0000750F000030
:1000C000750F0000750F0000750F0000750F000020
:1000D000750F0000750F0000750F0000750F000010
:1000E000750F0000750F0000000000000000000008
:1000F00000000000711C0000750F0000750F00006B
:10010000750F0000750F0000750F0000750F0000DF
:10011000750F0000750F0000CD1E0000E11E0000ED
:10012000F51E0000091F0000750F0000750F00008C
:10013000750F0000750F0000750F0000750F0000AF
:10014000750F0000750F0000750F0000750F00009F
:10015000750F0000750F0000750F0000750F00008F
:10016000750F0000750F0000750F0000750F00007F
:10017000750F0000750F0000750F0000750F00006F
:10018000750F0000750F0000750F0000750F00005F
:10019000750F0000750F0000750F0000750F00004F
:1001A000750F0000750F0000750F0000750F00003F
:1001B000750F0000750F0000750F0000750F00002F
:1001C000750F0000750F0000750F0000750F00001F
:1001D000750F0000750F0000750F0000750F00000F
:1001E000750F0000750F0000750F000091210000D1
:1001F000750F0000750F0000750F0000750F0000EF
:10020000750F0000750F0000750F0000750F0000DE
:10021000750F0000750F0000750F0000750F0000CE
:10022000750F0000750F0000750F0000750F0000BE
:10023000750F0000750F0000750F0000750F0000AE
:10024000750F0000750F0000750F0000750F00009E
:10025000750F0000750F0000750F0000750F00008E
:10026000750F000010B5054C237833B9044B13B15A
:100270000448AFF300800123237010BD78000020F4
:10028000000000003C9A02000C4B43B10C480D49A1
:1002900010B5AFF300800C48036823B910BD0A48BD
:1002A000036833B97047094B002BF7D0BDE8104005
:1002B0001847064B002BF5D0184700BF0000000080
:1002C0003C9A02007C0000203C9A020000000000E2
:1002D00070B500BF8C4C1026A66132208B4DA8470C
:1002E000666100BF3220A847A6613220A84700BF40
:1002F000402666610A20A847A6610520A8476661D6
:10030000834B1B7823B9202262610122804B1A7033
:10031000012280498048814B98477B4C4025A5614C
:1003200014207A4B98476561794B1B7823B92022BA
:1003300062610122764B1A70012276497648774B2A
:100340009847714C4025A5611420704B9847656112
:100350006F4B1B7823B92022626101226C4B1A700B
:1003600001226C496C486D4B9847674C4025A5614C
:100370001420664B984765616561654B1B7823B90E
:10038000202262610122624B1A70E22261496248B6
:10039000624B98475C4B40229A615A615C4B1B78D8
:1003A0002BB12022584B9A610022594B1A702322FC
:1003B00058495948594B9847534B40229A615A61C2
:1003C000534B1B782BB120224F4B9A610022504B8C
:1003D0001A7002224F495048504B98474A4B4022CE
:1003E0009A615A614A4B1B782BB12022464B9A6185
:1003F0000022474B1A70542246494748474B9847BA
:10040000414B40229A615A61414B1B782BB9202203
:100410003D4B5A6101223E4B1A70E0223D493E4855
:100420003E4B9847384B40229A615A61384B1B78B3
:100430002BB12022344B9A610022354B1A700122D5
:1004400034493548354B98472F4C4025A5616420E9
:10045000334B984765612E4B1B7823B9202262618C
:1004600001222B4B1A70E0222A492B482B4B98472C
:10047000254B40229A615A61254B1B782BB12022D3
:10048000214B9A610022224B1A70032221492248F3
:10049000224B98471C4C4025A56101201B4B9847D7
:1004A00065611B4B1B7823B9202262610122184B26
:1004B0001A70012217491848184B9847124C4025CA
:1004C000A5610120114B98476561114B1B7823B939
:1004D0002022626101220E4B1A70E6220D490E485D
:1004E0000E4B9847084B40229A615A61084B1B7883
:1004F0002BB12022044B9A610022054B1A70042272
:10050000044905480EE000BF0080004121150000AD
:1005100000000020F7C3031C808000414110000050
:10052000011500008A4B98478A4B40229A615A6114
:10053000894B1B782BB12022864B9A610022864B77
:100540001A703A2285498648814B9847814B402250
:100550009A615A61804B1B782BB120227D4B9A61A6
:1005600000227D4B1A70B6227C497D48784B984713
:10057000784B40229A615A61774B1B782BB9202225
:10058000744B5A610122744B1A70B022734974483B
:100590006F4B98476F4B40229A615A616E4B1B78A4
:1005A0002BB120226B4B9A6100226B4B1A702822D0
:1005B0006A496B48664B9847664B40229A615A617C
:1005C000654B1B782BB12022624B9A610022624B53
:1005D0001A708022614962485D4B98475D4C402506
:1005E000A561604B9847604B9847421EC2F30722B3
:1005F0006561594B1B7823B12021A1610021564B25
:10060000197056495648524B9847524C4025A5619F
:10061000544B9847544B9847421ED2B265614E4B9B
:100620001B7823B12021A16100214B4B19704B494C
:100630004B48474B9847474C4025A561494B984745
:100640004A4B9847421EC2F307226561424B1B7812
:1006500023B12021A16100213F4B19703F4940483F
:100660003B4B98473B4C4025A5613E4B98473F4B41
:100670009847421ED2B26561374B1B7823B12021C7
:10068000A1610021344B197034493548304B9847EB
:10069000304B40229A615A612F4B1B782BB120229C
:1006A0002C4B9A6100222C4B1A7000222B492C48AB
:1006B000274B9847274B40229A615A61264B1B785B
:1006C0002BB92022234B5A610122234B1A70F022AE
:1006D000224923481E4B98471E4B40229A615A617B
:1006E0001D4B1B782BB120221A4B9A6100221A4B0A
:1006F0001A70032219491A48154B9847154B402286
:100700009A615A61144B1B782BB92022114B5A6104
:100710000122114B1A703A22104911480C4B98478C
:100720000C4B40229A615A610B4B1B782BB1202253
:10073000084B9A610022084B1A7055220749084855
:10074000034B9847034B40229A615A6110E000BF67
:10075000411000000080004100000020F7C3031C8E
:1007600080800041E10E0100ED0E0100150F010037
:100770008A4B1B782BB92022894B5A610122874B67
:100780001A70B42287498848884B9847844B402286
:100790009A615A61814B1B782BB12022804B9A6160
:1007A00000227E4B1A7002227E497F487F4B984779
:1007B0007B4B40229A615A61784B1B782BB12022E7
:1007C000774B9A610022754B1A700D227549764855
:1007D000764B9847724B40229A615A616F4B1B7857
:1007E0002BB120226E4B9A6100226C4B1A700022B2
:1007F0006C496D486D4B9847694B40229A615A612C
:10080000664B1B782BB12022654B9A610022634B0B
:100810001A702B2263496448644B9847604B40220E
:100820009A615A615D4B1B782BB120225C4B9A6117
:1008300000225A4B1A7028225A495B485B4B984752
:10084000574B40229A615A61544B1B782BB120229E
:10085000534B9A610022514B1A7000225149524861
:10086000524B98474E4B40229A615A614B4B1B7832
:100870002BB120224A4B9A610022484B1A70002269
:1008800048494948494B9847454B40229A615A612B
:10089000424B1B782BB12022414B9A6100223F4BE7
:1008A0001A7000223F494048404B98473C4B402239
:1008B0009A615A61394B1B782BB92022384B5A6107
:1008C0000122364B1A70B62236493748374B9847C3
:1008D000334B40229A615A61304B1B782BB1202256
:1008E0002F4B9A6100222D4B1A7001222D492E4860
:1008F0002E4B98472A4B40229A615A61274B1B780E
:100900002BB12022264B9A610022244B1A701D2203
:1009100024492548254B9847214B40229A615A612A
:100920001E4B1B782BB120221D4B9A6100221B4BC2
:100930001A7000221B491C481C4B9847184B402238
:100940009A615A61154B1B782BB12022144B9A6186
:100950000022124B1A700C2212491348134B98476D
:100960000F4B40229A615A610C4B1B782BB120220D
:100970000B4B9A610022094B1A70092209490A4857
:100980000A4B9847064B40229A615A61034B1B78E9
:100990008BB12022024B9A610AE000BF00000020C8
:1009A00000800041F7C3031C80800041411000001B
:1009B00000228B4B1A7000228A498B488B4B984738
:1009C0008B4B40229A615A61854B1B782BB12022B8
:1009D000874B9A610022824B1A700022814982481B
:1009E000824B9847824B40229A615A617C4B1B781C
:1009F0002BB920227E4B5A610122794B1A702A2290
:100A000078497948794B9847794B40229A615A61E5
:100A1000734B1B782BB12022754B9A610022704BCF
:100A20001A7000226F497048704B9847704B4022F3
:100A30009A615A616A4B1B782BB120226C4B9A61E8
:100A40000022674B1A70002266496748674B984737
:100A5000674B40229A615A61614B1B782BB120226F
:100A6000634B9A6100225E4B1A7001225D495E4819
:100A70005E4B98475E4B40229A615A61584B1B78F7
:100A80002BB120225A4B9A610022554B1A70DF225B
:100A900054495548554B9847554B40229A615A61E5
:100AA0004F4B1B782BB92022514B5A6101224C4BE2
:100AB0001A702B224B494C484C4B98474C4B4022C8
:100AC0009A615A61464B1B782BB12022484B9A61A0
:100AD0000022434B1A70002242494348434B984737
:100AE000434B40229A615A613D4B1B782BB1202227
:100AF0003F4B9A6100223A4B1A70002239493A481A
:100B00003A4B98473A4B40229A615A61344B1B78D2
:100B10002BB12022364B9A610022314B1A700122F0
:100B200030493148314B9847314B40229A615A61E4
:100B30002B4B1B782BB120222D4B9A610022284B86
:100B40001A700F2227492848284B9847284B4022E3
:100B50009A615A61224B1B782BB92022244B5A618F
:100B600001221F4B1A7029221E491F481F4B98470C
:100B70001F4B40229A615A61194B1B782BB92022D6
:100B80001B4B5A610122164B1A70BE22154916489A
:100B9000164B9847164B40229A615A61104B1B78AE
:100BA0002BB12022124B9A6100220D4B1A700622A3
:100BB0000C490D480D4B98470D4B40229A615A61E4
:100BC000074B1B782BB12022094B9A610022044B62
:100BD0001A70FF2203490448044B98470AE000BFFB
:100BE00000000020F7C3031C80800041411000007A
:100BF00000800041264B40229A615A61254B1B78A8
:100C00002BB12022224B9A610022224B1A70012222
:100C100021492248224B98471D4B40229A615A6134
:100C20001C4B1B782BB12022194B9A610022194BC7
:100C30001A70FF2218491948194B9847144B402243
:100C40009A615A61134B1B782BB12022104B9A6189
:100C50000022104B1A7000220F491048104B984781
:100C60000B4B40229A615A610A4B1B782BB1202210
:100C7000074B9A610022074B1A7001220649074868
:100C8000074B9847024B40229A619A6170BD00BFA2
:100C90000080004100000020F7C3031C8080004159
:100CA000411000002DE9F84FB1F90430002B0FDBA3
:100CB00081468A461546B1F90630002B08DBB1F9AA
:100CC0000040044B9847044B98470138844205DDA7
:100CD000BDE8F88FE10E0100ED0E0100BAF9024007
:100CE000944B9847944B984701388442F0DCBAF90A
:100CF000006026EAE676BAF9024024EAE474A346E4
:100D0000BAF904708B4B98478C4B9847013887424F
:100D100000F30A81BAF90470BAF90680854B984746
:100D2000854B98470138804500F31881BAF9068051
:100D30004022834B5A61834B1B782BB92022804B76
:100D40005A6101227F4B1A702A227F497F48804BCB
:100D500098477B4B40219961C6F307225961794B33
:100D60001B782BB12021764B99610021754B1970AE
:100D700075497648764B9847714B40229A615A6183
:100D8000704B1B782BB120226D4B9A6100226D4B6A
:100D90001A70F2B26C496D486D4B9847684B402110
:100DA0009961C7F307225961664B1B782BB120214B
:100DB000634B99610021634B197063496348644B2D
:100DC00098475F4B40219961FAB259615D4B1B789E
:100DD0002BB120215A4B996100215A4B19705A4965
:100DE0005A485B4B9847564B40229A615A61554B83
:100DF0001B782BB92022524B5A610122514B1A7099
:100E00002B2251495148524B98474D4B40219961F3
:100E1000CBF3072259614B4B1B782BB12021484B58
:100E200099610021474B197047494848484B9847FA
:100E3000434B40229A615A61424B1B782BB12022CE
:100E40003F4B9A6100223F4B1A70E2B23E493F4845
:100E50003F4B98473A4B40219961C8F307225961AB
:100E6000384B1B782BB12021354B99610021354B34
:100E7000197035493548364B9847314B40219961B7
:100E80005FFA88F259612F4B1B782BB120212C4B34
:100E9000996100212B4B19702B492C482C4B9847FA
:100EA000274B40229A615A61264B1B782BB920228E
:100EB000234B5A610122234B1A702C2222492348CA
:100EC000234B984740221E4B9A61BAF804300133F5
:100ED000BAF800209B1A9BB21A4A12782AB1202134
:100EE000174A91610021174A11704021144A51613B
:100EF000C6F101063E44B6B2D8450EDB5F00DFF80E
:100F000048B0DFF854A033462A4659460F48D04728
:100F10003D44013424B2A045F5DA4022084B9A61E1
:100F200048460C4B9847D3E6024B9847034B9847EB
:100F3000471EF1E6E10E0100150F0100ED0E010064
:100F40000080004100000020F7C3031C80800041A6
:100F500041100000AD0F010079100000034B9847CD
:100F6000034B984700F1FF38E2E600BFE10E0100B5
:100F7000150F0100FEE7000008B51C4B1C4A9A4201
:100F800010D01C4B194A9A420CD2013B9B1A23F0F9
:100F9000030304331344164951F8040B42F8040BBD
:100FA0009A42F9D1144B154A9A420AD2013B9B1A34
:100FB00023F0030304331344002142F8041B93423B
:100FC000FBD10F4B0F4A22F07F029A60D3F88820A2
:100FD00042F47002C3F88820BFF34F8FBFF36F8FC6
:100FE000094B9847094B9847FEE700BF00000020D7
:100FF0003C9A020074000020046E0020780000205B
:1010000000ED00E00000000095B40100B1210000F7
:1010100010B4530003F47C73540104F4703423437C
:1010200002F007042343520302F0E0521A4302EA9B
:101030000103836121EA020141615DF8044B7047BD
:1010400010B540240A4B5C610A4B9847082300BF47
:10105000013BFCD18022064B5A61082300BF013BB3
:10106000FCD1034B80229A6140229A6110BD00BFDF
:1010700000800041111000008BB12DE9F0410F46B6
:101080000646144602EB4305DFF8148034F8022BC1
:1010900039463046C047AC42F8D1BDE8F0817047D0
:1010A000411000002DE9F04F83B08B4600924001C3
:1010B000C3B201930026DFF8949165E009EBC713F2
:1010C0005D60AAB242F080429A622A0C42F040422D
:1010D0009A62009B1B78012B77D023B3022B00F080
:1010E0008480892257490020574B984724E009EB18
:1010F000C7125560ABB243F0804343F400339362B0
:101100002B0C43F0404343F400339362E1E709EBD7
:10111000C7139D60AAB242F080429A622A0C42F044
:1011200040429A62D5E709EBC713434493F8402045
:1011300002F0FB0283F84020009B5A686409B2F178
:10114000FF3F62D0E4B209EBC411414491F8403052
:1011500003F0FE0343F0010381F840301AF0010F61
:101160005ED109EBC41404EB580898F8303003F052
:10117000F00302F00F021A4388F8302009EBC7177A
:101180007D610136202E59D0F4B22BFA06F313F00C
:10119000010FF6D004F01F04019B1C445FFA84FA8F
:1011A0004FEA5A170AF01F08012505FA08F5009BB7
:1011B0005B78012B9BD0002B80D0022BA7D046223E
:1011C00020490020204B984783E7012303FA08F3C6
:1011D00009EBC712536002EB080090F8401041F091
:1011E000040180F840109361A6E7012303FA08F395
:1011F00009EBC712536002EB080090F8401041F071
:10120000040180F84010536196E7E4B209EBC4147E
:10121000A04498F8403003F0FE0388F84030ADE772
:1012200009EBC41404EB580898F8303003F00F03AE
:1012300043EA0212D2B288F830209FE703B0BDE83B
:10124000F08F00BF30B50100D519000000800041CB
:1012500070B582B00023009302238DF801304FF067
:10126000FF3301936A463F4901203F4B98473F4B6C
:1012700040269E603E4A9A624FF040429A6293F83E
:10128000461001F0FB0183F8461093F8461001F078
:10129000FE0183F8461010259D60364999629A62D6
:1012A00093F8441001F0FB0183F8441093F84410C4
:1012B00001F0FE0183F8441008249C602E499962D5
:1012C0009A6293F8431001F0FB0183F8431093F8FE
:1012D000431001F0FE0183F843102021996001F1D1
:1012E000804199629A6293F8451001F0FB0183F8FE
:1012F000451093F8451001F0FE0183F84510802059
:1013000098601E4999629A6293F8472002F0FB02A6
:1013100083F8472093F8472002F0FE0283F8472025
:101320004FF48072C3F8842101F500318031C3F895
:10133000A8111349C3F8A811C3F8842193F8C81160
:1013400041F0040183F8C811C3F8942193F8C8212F
:1013500002F0FE0283F8C8219E619D619C61986144
:1013600002B070BDF7C3031CA5100000008000414F
:101370004000004010000040080000408000004095
:10138000000002C07047000008B50649D1E90023FB
:10139000013243F10003C1E900230120024B9847C9
:1013A00008BD00BF980000204510010010B511488D
:1013B000114B9847114A536943F4804353614022CB
:1013C0000F4BC3F8A4200F4B98470F4C02460F4910
:1013D00020460F4B98470F4901230B610E4A4A6183
:1013E0000B76083120460D4B984720460C4B98470A
:1013F00010BD00BF10E000E0ED1400000008004048
:10140000001C00404B210000046C0020003800400C
:10141000491600009800002089130000C116000042
:101420008516000030B583B01F4B4022C3F8DC2086
:101430004322C3F88C201D4A936943F400739361DF
:101440001B4C0023009310231A4A1B4920461B4DB6
:10145000A8471B4B93F8D82002F0FE0242F001028D
:1014600083F8D82093F8BC2002F0F00242F0030287
:1014700083F8BC2093F8D92002F0FE0242F001026A
:1014800083F8D92093F8BC2002F00F0242F030021A
:1014900083F8BC2020460B4B98470C220A49204673
:1014A0000A4B984703B030BD001C004000080040C4
:1014B000206C0020B4000020002001411919000018
:1014C00000800041A919000004000020411500001F
:1014D000EFF31083036072B6BFF35F8F7047BFF303
:1014E0005F8F036883F310887047000008B5024BD4
:1014F0001860024B984708BDC4000020891B0000FB
:1015000010B5044B1C68044B984701462046034B1A
:10151000984710BDC4000020511B0000911B000023
:1015200010B5044B1C68044B984701462046034BFA
:10153000984710BDC4000020691B0000911B0000EB
:1015400070B50D461646044660B1081C18BF012050
:1015500034220549054B98472368324629462046E0
:10156000984770BD0020F3E74CB50100D519000085
:10157000F8B5844607682FB18D683C460026C2F155
:10158000010E0BE00E4B9847F8BD7344A06803446E
:10159000AB420AD22368264653B11C466368934285
:1015A000F3D8A06803449B1AF2E7A74204D034465C
:1015B0002046044B9847F8BD6046014B9847F8BD5C
:1015C000FD190000291A00002DE9F0474469076958
:1015D00001370761037E13F0010F13D1037E13F06F
:1015E000020F0FD154B36368FB1AA268934207D36A
:1015F000064600F11408DFF84890DFF848A012E032
:10160000BDE8F087037E43F002030376BDE8F08770
:101610007569E3682046984785B12C466B68FB1ACC
:10162000AA6893420AD34046C847237C012BEFD1D6
:1016300067603A4621464046D047E9E7BDE8F08773
:10164000311A00007115000038B50D46044678B116
:10165000081C18BF01203B220649074B9847294622
:101660002046064B984700202061054B236038BD7B
:101670000020F0E760B50100D51900007D1F0000D3
:10168000C915000010B5044653220949003018BF9F
:101690000120084B98472046074B984720B9204621
:1016A000064B9847002010BD6FF0100010BD00BF22
:1016B00060B50100D5190000392100002521000086
:1016C00070B582B00D46044618B3081C18BF01203F
:1016D0007A221E491E4B9847237E43F0010323764E
:1016E00004F11406294630461A4B984798B92369E5
:1016F0006B60226929463046174B9847237E03F0DA
:10170000FE032376237E13F0020F10D1002002B0D7
:1017100070BD0020DCE7237E03F0FE0323767F22EA
:101720000A4900200A4B98476FF01100EFE701A823
:101730000A4B9847237E03F0FD0323762046084B8F
:10174000984701A8074B98470020E0E760B50100E3
:10175000D5190000DB19000071150000D11400003C
:1017600051210000DF14000008B500238362C36923
:101770001BB1A0F108021046984708BD08B5002328
:101780008362436A1BB1A0F108021046984708BD66
:1017900038B50446A0F108052C30034B9847236A5E
:1017A0000BB12846984738BDD11A000070B50E46D7
:1017B00015460446E0B1E9B1101C18BF012040F203
:1017C0003B120F490F4B9847B4F84420B4F84C3003
:1017D0009A4211D1A664A4F84C500023A4F84430D6
:1017E0000123236304F10800074B9847284670BD86
:1017F0000020E4E70020E2E76FF01B0070BD00BFAF
:1018000078B50100D5190000BB1E000010B50446D4
:10181000838FB0F844209A4209D0026C591C81870A
:10182000D15C044B98472046034B984710BD034BAF
:10183000984710BDB51E0000BB1E0000C31E00006F
:101840002DE9F04782B00F4690460646A0B199B107
:10185000002A2DD14FF4AC7229490020294B98471A
:1018600001A8294B984706F13400284B984701A856
:10187000274B984700253EE04FF4AC7220490020EA
:10188000204B984701A8204B984706F1340A504650
:101890001E4B9847814601A81D4B9847B9F1000F90
:1018A00004D0B8F1000F19D1002524E0002522E072
:1018B0004FF4AC7212490120124B984701A8124B09
:1018C000984706F1340A5046104B9847814601A8C4
:1018D0000F4B98470025B9F1000F0CD000240D4E96
:1018E000601C85B239195046B04701344C4502D2CC
:1018F000A3B29845F4D8284602B0BDE8F08700BFEF
:1019000078B50100D5190000D1140000111B0000AA
:10191000DF1400008D1A0000F8B50D4616461F466C
:10192000044620B329B332B3181C18BF01203A2251
:101930001349144B98473A46314604F13400124B90
:101940009847D0B9294604F10800104B9847034640
:1019500058B90F4A62600F4A22600F4AA2600F4ACC
:10196000E2600F4A22610F4A62611846F8BD00200A
:10197000DDE70020DBE70020D9E76FF00C03F4E798
:1019800078B50100D51900003D1A00001D1E0000A9
:1019900041180000AD1700000D180000911700005D
:1019A000691700007D17000010B504466122064942
:1019B000003018BF0120054B984704F10800044B84
:1019C0009847002010BD00BF78B50100D519000070
:1019D000A11E000000B900BE704703684BB18B42E6
:1019E00009D01B681BB19942FBD101207047002030
:1019F00070470020704701207047000038B504464A
:101A00000D46064B984780F0010039220449C0B2C8
:101A1000044B984723682B60256038BDDB19000014
:101A200098B50100D519000003680B60016070478C
:101A300003680BB11A6802601846704770B50E460D
:101A40001546044678B181B1A2B1012028220D4982
:101A50000D4B98476B1E1D4209D163600020A060AA
:101A6000E060266070BD0020F0E70020EEE76FF038
:101A70000C0070BD282203490020034B98476B1EC1
:101A8000EBE700BFB8B50100D519000038B50D4629
:101A90000446A0B1081C18BF012040220A490B4B84
:101AA0009847A368E2689A420BD0626813402268A4
:101AB000D35C2B70A3680133A360002038BD0020E5
:101AC000EBE76FF0090038BDB8B50100D51900008B
:101AD00038B50D46044651220B49003018BF01208D
:101AE0000A4B9847E368626813402268D554E3685C
:101AF0006168A2689A1A8A4284BF591AA1600133A8
:101B0000E360002038BD00BFB8B50100D519000062
:101B100010B5044667220549003018BF0120044B68
:101B20009847E068A368C01A10BD00BFB8B50100AF
:101B3000D5190000430900F01F00012202FA00F04D
:101B40004033024A42F82300704700BF00E100E042
:101B5000C0EBC00000EB00100230024BA3FB0030D2
:101B600040087047ABAAAAAAC0EBC00000EB001067
:101B70000230044BA3FB003040084FF47A7303FBA0
:101B800000F07047ABAAAAAA70470000000000004E
:101B90000139FDD8704700BF08B5094A13889BB2C8
:101BA00043F4A0631380074B9847074B9847074BB4
:101BB0009847074B984740F6FF70064B984708BD7B
:101BC00000400041091C0000291C0000FD1B000012
:101BD0002D1C0000D91B000010F0010F08D0054A91
:101BE000054B1A62194643F6FD724B681342FCD14D
:101BF000704700BF07010100001C00400122014B9B
:101C00005A71704700080040064B42F28E329A82A9
:101C100000229A75DA75DA6902F47C52DA610122DF
:101C20001A74704700140040704700000E4A0F4BB2
:101C30005A631A46D36B13F0060FFBD10B4B4FF4CC
:101C400002629A63022283F830201A46D36B13F0A3
:101C5000020FFBD1054B1A6C12F0010F03D11A6C65
:101C600012F0020FF7D070474D0E01000010004037
:101C700000B583B00D4B9B78DBB20193019B13F051
:101C8000020F06D00A4B1B681BB1084A50689847E0
:101C900009E0019B13F0010F05D0054B5B6813B100
:101CA000024A5068984703B05DF804FB0000024107
:101CB000706C002070B489B006466C460D4D0FCD97
:101CC0000FC495E80F0084E80F00009BB3420DD0CD
:101CD000314601AB012053F8042B8A4207D0013072
:101CE0000828F8D1002009B070BC70470020C0B2AD
:101CF000F9E700BFDCB5010010B58469237E13F05D
:101D0000010F03D0A37D13F0010F12D1237E13F036
:101D1000020F03D0A37D13F0020F0FD1237E13F027
:101D2000040F15D0638B03F0370363B1FF23638384
:101D300010BD012323750368984710BD0223237546
:101D40008368984710BDA16A4368C9B2984710BD1F
:101D5000237EDB0900D110BD80232376C36898471A
:101D6000638B9BB26383F6E708B5034B984780000B
:101D70002E3000F0FE0008BDB51C000010B5044672
:101D8000214B9847022805D040F26B221F490020C2
:101D90001F4B9847E36913F0010F19D1E36913F062
:101DA000030FFBD1236813F0020F0BD0236823F03D
:101DB00002032360E36913F0030FFBD1E36913F01F
:101DC000020FFBD105232360E36913F0030FFBD15E
:101DD000E36913F0010FFBD10E4B2360E36913F0AD
:101DE000030FFBD14FF440336360E36913F01F0F1F
:101DF000FBD1094BA3604FF61143A3810020A073D0
:101E000084F8300010BD00BFB51C000014B60100FE
:101E1000D5190000040010400200700070B50D4696
:101E20000646CB221849003018BF0120174B9847AF
:101E30002846174B9847044608B1204670BDB56147
:101E4000144B9D4204BF144B1E602846134B984709
:101E5000011DC9B2012500F01F0205FA02F2430973
:101E60009B0003F1604303F56143C3F88020BFF397
:101E70004F8FBFF36F8FC3F880211A600130C0B25B
:101E80008142E8D1D9E700BF14B60100D51900009E
:101E90007D1D000000200141C8000020691D0000D8
:101EA0008269136843F002031360D36913F0030FD0
:101EB000FBD17047836999627047836901229A75E3
:101EC0007047836902229A757047000008B5024B7B
:101ED0001868024B984708BDC8000020F91C000094
:101EE00008B5024B1868024B984708BDC80000208F
:101EF000F91C000008B5024B1868024B984708BD52
:101F0000C8000020F91C000008B5024B1868024BFD
:101F1000984708BDC8000020F91C000070B588B0C3
:101F200006466C46124D0FCD0FC495E80F0084E8AD
:101F30000F00009BB3420BD0304601AA012352F898
:101F4000041B814205D00133082BF8D100200BE09F
:101F5000002313F0FF0F09D04FF49E7205490020B3
:101F6000054B98474FF0FF3008B070BD0020FBE7ED
:101F700030B6010064B60100D519000070B5064600
:101F80000C460846604B98470546F4608D225F4931
:101F900001205F4B9847236913F0010F19D1236982
:101FA00013F0030FFBD1236813F0020F0BD023684B
:101FB00023F002032360236913F0030FFBD123698D
:101FC00013F0020FFBD101232360236913F0030FE9
:101FD000FBD1236913F0010FFBD105EB85034D4ABB
:101FE00002EB83035A6A2260236913F0030FFBD1CB
:101FF00005EB8503474901EB830393F82A10E1734E
:102000001B8DE3800123237302F00C02082A48D0C1
:10201000002A58D105EB85033E4A02EB83039B8DD2
:10202000A383236913F0C00FFBD10023E38323694B
:1020300013F0C00FFBD101236372374B9C4204BFE6
:10204000364B1E6005EB8503324A02EB8303B3F97E
:102050002230002B23DB5A0903F01F03012101FA70
:1020600003F320322E4941F82230BFF34F8FBFF3E4
:102070006F8F05EB8505274B03EB8505B5F92230FE
:10208000002B0CDB590903F01F03012202FA03F3B2
:10209000234A01F1600042F8203042F8213000204C
:1020A00070BD05EB85031B4A02EB8303DB6AE3612A
:1020B000236913F0C00FFBD100232362236913F0BF
:1020C000C00FFBD1B7E7042AB5D105EB8503114A50
:1020D00002EB830393F82C302377236913F0C00FAE
:1020E000FBD100236377236913F0C00FFBD105EB0D
:1020F0008503084A02EB830393F82B30E3762369C8
:1021000013F0200FFBD196E71D1F000064B60100FD
:10211000D519000030B6010000380040CC00002086
:1021200000E100E0C268136843F002031360136922
:1021300013F0030FFBD17047C268136913F0030F4C
:10214000FBD11068C0F340007047002070470000CA
:1021500010B5C068094B9847044640F20F12084971
:102160000120084B984704EB8404074B03EB8404DD
:1021700094F82200054B984710BD00BF1D1F0000BA
:1021800064B60100D519000030B60100351B00000F
:1021900008B5064B1868C3689A7A12F0010F00D18F
:1021A00008BD01229A7203689847F9E7CC00002025
:1021B00008B5024B9847024CA047FDE7C521000037
:1021C0009922000030B58DB01E4B98471E4B9847A2
:1021D0001E4B98471E4B98471E4B98471E4B9847DF
:1021E0001E4B98471E4C4FF4965300221D49204623
:1021F0001D4DA84701A81D4B98471D4B0493029401
:1022000001A81C4B984700201B4B9847054600210E
:102210001A4B984704461A491A4B98470022114610
:102220002046194CA04700212846184B98470546E0
:1022300023225A21A04716492846164B98470DB02D
:1022400030BD00BF991B000025140000851300005D
:1022500051120000AD13000069280000D1020000F7
:1022600050260020D0000020710D0100110D01004A
:10227000A50C0000910D01004D2300006D98010098
:1022800078B60100119601003D34000005AB010055
:10229000E03B020005A8010008B50120024B984769
:1022A000024B984708BD00BF21150000CD37010043
:1022B000003018BF01207047F0B5C3B00546144682
:1022C0001C4B9847E5282CD8064602AF0246294603
:1022D0003846194B9847BD192023BB5528236B70EE
:1022E0003023AB707823EB70291D1C22134824FA8D
:1022F00002F303F00F0303441B7D01F8013B043A92
:1023000012F1040FF3D129232B7300236B7302AB5B
:1023100000930B4BBC220B4903200B4CA04743B04E
:10232000F0BD0095064BBF2206490320064CA0478E
:10233000F5E700BF1FB5010055260100EC3B020088
:10234000143C0200283C02005D22010008B1C06B71
:10235000704710B582B0084B984710B1C06B02B0FF
:1023600010BD064B0093064B2E2206490220064C58
:10237000A0470020F3E700BFE10E0100043E020089
:10238000303D0200D83D02005D22010008B1006C22
:10239000704710B582B0084B984710B1006C02B07E
:1023A00010BD064B0093064B4B2206490220064CFB
:1023B000A0470020F3E700BFE10E0100403E02000D
:1023C000443D0200D83D02005D22010008B1406C8E
:1023D000704710B582B0084B984710B1406C02B0FE
:1023E00010BD064B0093064B5C2206490220064CAA
:1023F000A0470020F3E700BFE10E01007C3E020091
:102400005C3D0200D83D02005D220100A0B138B55C
:1024100003460024094D93F8342002F02002002ADC
:1024200018BF1C461846A84703460028F3D114B12C
:102430002046034B984738BD704700BF7D2C0000F5
:10244000B53300002DE9F84F037D13F0010F2AD1B9
:1024500017468A460646C4684FF001090025DFF892
:10246000C480AB464AE0337D13F0100F00D1D5B9DC
:10247000B9F1000F17D03046D0470446002D35D0B3
:10248000D94646E0F368A3420DD093B11868C369FA
:10249000002217219847F36800220E2118681E4B6E
:1024A0009847012801D0BDE8F88FF36818681B4BE6
:1024B0009847F4602068C369002216219847F368A2
:1024C00000220D211868144B98470128EBD1F368BE
:1024D0001868134B9847F3681868104B984733698E
:1024E000002BE0D030469847BDE8F88F0028DAD0BE
:1024F0000546D9462068C0470028C3D0002CB2D07A
:10250000002D08BF254621463046B8470446A8425C
:10251000C9D0002CEED1F1E7CD2A00002133000014
:102520000D240000A531000008B518210148024B18
:10253000984708BDEC6D0020F91E010008B5024A5D
:102540000249034B984708BDBD1F0100A91F0100A8
:102550004524000008B5024A0249034B984708BDCC
:10256000E91F0100B31F01004524000038B50446EF
:10257000037DC3F3001543F01003037513F0080F38
:102580000CBF044B044B9847237D65F3041323755C
:1025900038BD00BF3D2500005525000000284FD064
:1025A000F0B583B005460C460746264B98470146D2
:1025B000A0B103689C4207D0234E3846B04701467D
:1025C00060B10B68A342F8D1204B0093204B7522D9
:1025D00020490120204CA04703B0F0BDA36B73B18C
:1025E00020461E4B984750B1A06B1D4B98471D4B82
:1025F0000093174B7F2217490120174EB047A56360
:102600002846194B98470646184B984758B1002E54
:10261000E2D0346028460B4B98478642DCD12846EE
:102620000F4B9847D8E70A4B0093852209490320AE
:10263000094CA047324600230D480E498847FEE763
:10264000704700BFA91F0100BD1F0100E83F020045
:10265000983F0200AC3F02005D220100F94F0000EC
:102660006D250000244002005D1F0100B122000022
:10267000D83F0200B92200002DE9F041D0F838809F
:10268000B8F1000F51D0D8F80C30002B4DD00546D2
:102690001B6898421ED046464046254B9847044644
:1026A000002842D003689D4209D0224F214630467F
:1026B000B8470446002838D023689D42F6D1214609
:1026C00040461D4B984720461C4B98470023AB6360
:1026D000BDE8F08198F8143013F0010F05D098F898
:1026E00014306FF3000388F814304046104B9847BD
:1026F000D8F80C3083420BD04046114B9847D8F89D
:102700000C301B689D4204BF0023C8F80C30C2E7A0
:1027100040460C4B9847D8F80C309842ECD10068F2
:10272000C369002217219847E9E7BDE8F08100BF9F
:10273000A91F0100BD1F010095200100C524010053
:102740006D250000B31F010018B1C3681BB11868E4
:102750007047002070470020704718B1007DC0F31B
:102760004000704700207047014B5868704700BF19
:1027700074260020F8B5B0B1034690F8502042F01E
:10278000020280F85020184A5268904204D039B1B1
:10279000DA6B914204D0F8BD0020134A1060F6E7CE
:1027A0000022DA63F8BD0C460020104B9847034620
:1027B0000028F0D00C4D00270C4E05E0DF631846D2
:1027C000B04703460028E6D093F8502042F00202BA
:1027D00083F850206A689A4208BF2F60002CEDD021
:1027E000DA6B9442EBD1E9E7742600202110010056
:1027F00008B500210846014B984708BD7527000021
:10280000014B1868704700BF742600202DE9F0477F
:102810008946904600F1040A5046114B9847E0B1B2
:1028200004461FFA89F61FFA88F50E4F238A3344AF
:102830002382638A2B446382A38A3344A382E38A7C
:102840002B44E382424649462046FFF7DFFF2146FC
:102850005046B84704460028E8D1BDE8F08700BFDD
:10286000A91F0100BD1F010030B585B0214B1B78A9
:10287000002B36D1204B9847204B9847204B984748
:10288000204B9847204B984710212048204CA047C8
:10289000204B02930193009302224FF01F014FF649
:1028A00000001D4DA8471D4B98471D4B98474FF4FE
:1028B000B8711C48A04760211B48A0471B4B984794
:1028C0001B4B984701201B4B98470120094B187060
:1028D000194B0093194BA22219491A4CA04705B075
:1028E00030BD194B0093154B782215490220154C29
:1028F000A047F4E77C260020BD230100ED35010050
:10290000791C01009D120100292500003C6D00206A
:10291000F91E010010000020496B0100D1410100A7
:10292000555E0000986C00208C6C0020F1270000A0
:10293000C1FF00002DF400001C48020058400200B6
:10294000DC4702005D2201000448020030B583B07C
:1029500004460D460C4B984738B194F8343065F373
:10296000C71384F8343003B030BD084B009340F2F5
:10297000945207490320074DA847224600230648E2
:1029800006498847FEE700BFB1220000B4400200BC
:10299000DC4702005D2201003C480200B922000031
:1029A00030B583B004460D460C4B984738B194F8C7
:1029B000343065F3000384F8343003B030BD084B85
:1029C00000934FF4B46207490320074DA8472246FD
:1029D0000023064806498847FEE700BFB1220000F1
:1029E000CC400200DC4702005D2201003C480200AE
:1029F000B92200002DE9F04186B0074615461E4673
:102A00000C4621B10846284B9847002833D0039440
:102A100000238DF810300593244B5B6803B10593B8
:102A2000224B03AA5A60D3F808809E60204B984737
:102A300018B183680BB12946984717B1294620463B
:102A4000B8471A4BC3F808805A6892685A609DF8D4
:102A50001030F3B90CB394F8343013F0400F1ED09B
:102A60002068F0B132462946124B9847012814BF1E
:102A7000002001200EE0104B00934FF4DB620F4961
:102A800003200F4DA847224600230E480E498847D1
:102A9000FEE7002006B0BDE8F0810120FAE7012042
:102AA000F8E70120F6E700BFB12200007C260020F5
:102AB00069270000CD2A00009C410200DC4702008B
:102AC0005D2201003C480200B9220000E8B170B567
:102AD00082B0044616460D460D4B984768B90D4B1B
:102AE000009340F2C4620C4903200C4DA8472246D3
:102AF00000230B480B498847FEE733462A46214608
:102B0000A069094CA04702B070BD0120704700BF0A
:102B1000B1220000B0410200DC4702005D2201004A
:102B20003C480200B9220000F529000030B583B00E
:102B300004460D46094B984710B1E56103B030BD1E
:102B4000074B009340F21B7206490320064DA8472D
:102B500022460023054806498847FEE7B1220000C7
:102B6000C0410200DC4702005D2201003C48020037
:102B7000B922000020B110B5C4691CB1A04710BD36
:102B800001207047012010BD30B583B004460D46CA
:102B9000094B984710B1256203B030BD074B009335
:102BA00040F2377206490320064DA847224600230B
:102BB000054806498847FEE7B1220000D8410200D7
:102BC000DC4702005D2201003C480200B9220000FF
:102BD00030B583B004460D460D4B984768B90D4B90
:102BE000009340F249720C4903200C4DA84722463D
:102BF00000230B480B498847FEE72946606A0A4BC9
:102C00009847034600B16062184603B030BD00BF6C
:102C1000B1220000F0410200DC4702005D22010009
:102C20003C480200B92200009928010030B583B069
:102C300004460C4B984768B90B4B009340F259720D
:102C40000A4903200A4DA8472246002309480A4999
:102C50008847FEE700226286E369062120469847FE
:102C600003B030BDB12200000C420200DC4702007C
:102C70005D2201003C480200B922000030B583B05B
:102C800004460A4B984710B1206803B030BD084B8A
:102C9000009340F29F7207490320074DA847224640
:102CA0000023064806498847FEE700BFB12200001E
:102CB00028420200DC4702005D2201003C4802007D
:102CC000B922000030B583B004460E4B984708B1D6
:102CD0000D4D0EE00D4B009340F26B720C4903203A
:102CE0000C4DA847224600230B480C498847FEE7B5
:102CF0001C462046A84703460028F9D1204603B0C9
:102D000030BD00BFB12200007D2C00003C4202001B
:102D1000DC4702005D2201003C480200B9220000AD
:102D20002DE9F04383B00446224B984780B12368D5
:102D30001BB12046204B984704462048204B98471B
:102D4000054660B3DFF878901E4EDFF8708012E021
:102D50001D4B009340F27F721C4903201C4DA84775
:102D6000224600231B481C498847FEE72946404667
:102D7000B047054698B105F130073846C8470146C7
:102D80000028F3D0844206D03846B04701460028D8
:102D9000ECD08C42F8D1284603B0BDE8F0830F4B4D
:102DA0000093094B4FF4F26208490220084CA047F7
:102DB0000025F0E7B1220000C52C0000986C00202F
:102DC000A91F0100BD1F010050420200DC470200A4
:102DD0005D2201003C480200B92200004C4802007C
:102DE00030B583B004460D460D4B984730B19DB1C8
:102DF0002946201D0B4B984703B030BD0A4B00936A
:102E000040F2AD7209490320094DA847224600232C
:102E1000084809498847FEE7201D084B9847EBE71B
:102E2000B1220000BD1F010060420200DC47020029
:102E30005D2201003C480200B9220000A91F0100E8
:102E400030B583B005460C460E4B984760B105F18E
:102E50000F0204F10800234612F8011F03F8011BBA
:102E60008342F9D103B030BD074B009340F6010215
:102E700006490320064CA0472A4600230548064978
:102E80008847FEE7B1220000D8420200DC4702007A
:102E90005D2201003C480200B922000030B583B039
:102EA00004460F4B984768B90E4B009340F6220238
:102EB0000D4903200D4DA847224600230C480D491B
:102EC0008847FEE720460C4B9847034628B1208AE6
:102ED0001B8AC01A00B203B030BDB4F91000FAE783
:102EE000B1220000EC420200DC4702005D2201003A
:102EF0003C480200B92200007D2C000030B583B0B0
:102F000004460F4B984768B90E4B009340F63602C3
:102F10000D4903200D4DA847224600230C480D49BA
:102F20008847FEE720460C4B9847034628B1608A45
:102F30005B8AC01A00B203B030BDB4F91200FAE7E0
:102F4000B1220000FC420200DC4702005D220100C9
:102F50003C480200B92200007D2C000030B583B04F
:102F600004460C4B984730B1A08A0130238AC01A1E
:102F700000B203B030BD084B009340F64A02074947
:102F80000320074DA84722460023064806498847E4
:102F9000FEE700BFB12200000C430200DC47020044
:102FA0005D2201003C480200B922000030B583B028
:102FB00004460C4B984730B1E08A0130638AC01A4E
:102FC00000B203B030BD084B009340F656020749EB
:102FD0000320074DA8472246002306480649884794
:102FE000FEE700BFB122000020430200DC470200E0
:102FF0005D2201003C480200B922000009B92830D6
:10300000704700B583B08DF80010002301936A4625
:103010000821044B984701280CBF0198002003B0F9
:103020005DF804FB752B00002DE9F84F80468A46B9
:1030300093461E461C481D4B9847002831D0054634
:10304000B0422ED0DFF86090194F09E0AB885B45A5
:1030500014D0BBF1FF0F11D01CB32546A64220D0DF
:1030600029464846B847044628684045F4D1A9791E
:103070005145EBD0BAF1FF0FEED1E7E70D4B984782
:103080000D4B9847A9880D4B9847002128460C4BBB
:103090009847294648460B4B984728460A4B98477D
:1030A000DAE7BDE8F88F00BF3C6D0020B31F0100D8
:1030B000E91F0100FD2F0000E7700000ED67000030
:1030C0002913010095200100C524010030B583B00B
:1030D00004460D460B4B984748B10B4B98470023CD
:1030E000FF2229462046094CA04703B030BD084BBB
:1030F0000093084B40F2924207490220074CA04738
:10310000F3E700BFFD2F0000F97000002930000038
:1031100098480200E4430200DC4702005D220100FF
:10312000F8B504681748184B984708B301460027BC
:10313000144E164D03E03046A847014678B18C4244
:10314000F9D00A6823689A42F5D14B6823F07F4290
:10315000636823F07F439A4208BF0127EBE73FB142
:10316000214608480A4B984720460A4B9847F8BD25
:10317000A1792068084B9847084B9847A188084BCD
:103180009847EDE73C6D0020A91F0100BD1F01001D
:1031900095200100C5240100FD2F0000E77000000C
:1031A000ED67000030B583B004460B4B984728B15B
:1031B00094F83400C0F3001003B030BD074B009307
:1031C00040F6412206490320064DA8472246002327
:1031D000054806498847FEE7B12200003444020052
:1031E000DC4702005D2201003C480200B9220000D9
:1031F0002DE9F04186B004460E463A4B984768B92F
:10320000394B00934FF4F07238490320384DA847EA
:1032100022460023374838498847FEE72046374B87
:10322000984710B106B0BDE8F0812046344B98476E
:103230000746344B98470546334B9847874209D099
:103240002846324B9847874204D02846304B98474F
:103250008742E7D1B4F9323004F10F0204F11700CC
:1032600002A912F8017F01F8017B8242F9D19BB2D9
:10327000BDF80820D21AADF80820BDF80A20D21AED
:10328000ADF80A20BDF80C201A44ADF80C20BDF8AA
:103290000E201344ADF80E3002AA314604A81D4B8F
:1032A00098470028BED020461B4B9847044698B14B
:1032B000DFF86080114F184E04F1100204A908468F
:1032C000C0470028AED02046B8470028AAD12046E3
:1032D000B04704460028EFD104A928460F4B984771
:1032E000A0E700BFB122000048440200DC47020012
:1032F0005D2201003C480200B9220000A531000017
:10330000C52C0000212D00004D2300008D2300005E
:10331000CD230000191501007D2C0000595E00002E
:1033200030B585B004461C4B984738B3B4F93230F9
:1033300004F10F0204F1170502A912F8010F01F8B8
:10334000010BAA42F9D19BB2BDF80820D21AADF800
:103350000820BDF80A20D21AADF80A20BDF80C20CA
:103360001A44ADF80C20BDF80E201344ADF80E3011
:1033700002A92046094B984705B030BD084B009381
:1033800040F20D2207490320074DA847224600239B
:10339000064807498847FEE7B1220000F1310000E6
:1033A00060440200DC4702005D2201003C4802004C
:1033B000B9220000F0B583B00546164B984768B9AE
:1033C000154B009340F2622214490320144CA0478D
:1033D0002A460023134814498847FEE72846134B22
:1033E00098470446061D3046114B984785420FD03A
:1033F0002046104FB84701232A46314630460E4E2C
:10340000B047E3692A460121204698472046B8473D
:1034100003B0F0BDB122000074440200DC4702009A
:103420005D2201003C480200B92200007D2C000012
:10343000A91F010021330000212101002DE9F047DF
:1034400084B004468A4617462D4B984700283ED044
:103450002668002E49D0338A228A9B1A53441FFAC9
:1034600083FA0FFA8AF8758A638AED1A3D44ADB281
:103470000FFA85F9B8F1000F02D1B9F1000F23D08E
:103480002046204FB84702A920461F4B9847238A61
:1034900053442382638A2B446382A38A5344A382C6
:1034A000E38A1D44E5824A4641462046174B984729
:1034B000E36902AA022120469847F36922460121C6
:1034C000304698472046B84704B0BDE8F087104B17
:1034D000009340F296220F4903200F4DA847224641
:1034E00000230E480E498847FEE70E4B0093084B19
:1034F0004FF4277207490220074CA047E4E700BFBA
:10350000B122000021330000412E00000D280000F0
:10351000A4440200DC4702005D2201003C48020096
:10352000B9220000D048020030B583B004460D46F1
:103530000D4B984768B90D4B00934FF433720C490B
:1035400003200C4DA847224600230B480B4988470F
:10355000FEE720460A4B9847024629462046094B7B
:10356000984703B030BD00BFB1220000B444020050
:10357000DC4702005D2201003C480200B922000045
:10358000FD2E00003D34000030B583B004460D46EA
:103590000D4B984768B90D4B00934FF436720C49A8
:1035A00003200C4DA847224600230B480B498847AF
:1035B000FEE720460A4B98472A4601462046094B1B
:1035C000984703B030BD00BFB1220000C4440200E0
:1035D000DC4702005D2201003C480200B9220000E5
:1035E0009D2E00003D3400002DE9F04385B00446D7
:1035F0000D4690461F46BDF930602C4B984768B980
:103600002B4B009340F26D322A4903202A4DA847E4
:103610002246002329482A498847FEE78DB12846DB
:10362000224B984790B9224B009340F271322149C6
:103630000320214CA0472A460023204820498847E0
:10364000FEE720461F4B98470546E8E703AB424696
:1036500004F1100105F11000DFF87090C847204612
:10366000184B9847B0F91230BDF80E203244BDF81F
:103670000C103944008A091A09B2ADF80C10D21A9C
:1036800012B2ADF80E2020460F4B984784F84880C0
:10369000A4F84470A4F84660256494F849306FF3A8
:1036A000410384F8493005B0BDE8F083B122000041
:1036B000D4440200DC4702005D2201003C480200C5
:1036C000B92200007D2C00003D34000025180100C7
:1036D0002DE9F04F85B081460E4692460393BDF921
:1036E00038B0A34B984768B9A24B009340F295328B
:1036F000A1490320A14CA0474A460023A048A14964
:103700008847FEE74846A04B9847054648469F4BEA
:103710009847044648469E4B984700EBD07040F3CC
:103720004F0848469B4B984700EBD07040F34F073B
:10373000EEB130468E4B9847F0B1BAF1140F39D83C
:10374000DFE81AF028005C0062006D0076007F0060
:103750008D009900A500B400BA00C500CE00D700C6
:10376000E500F100F70003010C012E013D01484680
:10377000894B98470646DCE77E4B009340F2A13226
:103780007D4903207D4CA047324600237C487D497B
:103790008847FEE730467E4B984700EBD070C8EB79
:1037A00060052DB230467B4B984700EBD070C7EBDD
:1037B000600424B24846784B9847318A039F3944C5
:1037C0002944038AC91A728A5A442244438AD21A63
:1037D00012B209B24846714B984789F848A0A9F837
:1037E0004470A9F846B0C9F8406099F8493043F0F0
:1037F000020389F8493005B0BDE8F08FC8F1000533
:103800002DB27C4224B2D5E73046614B984700EB9D
:10381000D070C8EB60052DB27C4224B2CAE73046B6
:103820005B4B9847A0EB080005B27C4224B2C1E78D
:10383000C8F100052DB23046564B9847C01B04B264
:10384000B8E73046524B984700EBD070C8EB6005A4
:103850002DB230464F4B9847C01B04B2AAE7304602
:103860004B4B9847A0EB080005B23046494B9847B0
:10387000C01B04B29EE7C8F100052DB23046454B8F
:10388000984700EBD070C7EB600424B292E7304653
:103890003F4B9847A0EB080005B230463D4B984798
:1038A00000EBD070C7EB600424B283E7C8F10005D9
:1038B0002DB27C4224B27DE73046354B984700EB71
:1038C000D070C8EB60052DB27C4224B272E730465E
:1038D0002F4B9847A0EB080005B27C4224B269E761
:1038E000C8F100052DB230462A4B9847C01B04B2E0
:1038F00060E73046264B984700EBD070C8EB600578
:103900002DB23046234B9847C01B04B252E73046D5
:103910001F4B9847A0EB080005B230461D4B984757
:10392000C01B04B246E7C8F100052DB27C4224B2A8
:1039300040E7C8F100052DB23046164B984700EB22
:10394000D070C7EB600424B234E7C8F100052DB293
:103950003046104B9847C01B04B22BE730460C4B47
:103960009847A0EB080005B27C4224B222E700BFD2
:10397000B1220000E4440200DC4702005D220100A5
:103980003C480200B92200009D2E0000FD2E0000E0
:103990005D2F0000AD2F00007D2C00003D340000A5
:1039A00030460D4B9847A0EB080005B230460B4B54
:1039B000984700EBD070C7EB600424B2FAE63046BB
:1039C000054B9847A0EB080005B23046034B9847DB
:1039D000C01B04B2EEE600BF5D2F0000AD2F00005B
:1039E00030B583B00446124B984790B194F84930F3
:1039F00013F0020FB4F9443094F84820B4F946109B
:103A00000091216C204614BF0A4C0B4CA04703B018
:103A100030BD0A4B009340F22A4209490320094D68
:103A2000A84722460023084808498847FEE700BF08
:103A3000B1220000D1360000E9350000F844020050
:103A4000DC4702005D2201003C480200B922000070
:103A50002DE9F041064600210D4B9847B0B10446D0
:103A60000C4D4FF000080A4F2046A847E369424634
:103A70000421204698472046A8472046FFF7E8FF44
:103A800021463046B84704460028EDD1BDE8F08114
:103A9000E12D00002133000030B583B005460C460F
:103AA000364B984798B1712C46D8702C23D2412CB4
:103AB0001BD8402C1FD2022C05D3072C1BD9A4F1F4
:103AC0001003082B17D928462D4B98472FE02D4B74
:103AD000009340F21D522C4903202C4CA0472A464B
:103AE00000232B482B498847FEE7532C21D8502C24
:103AF00001D24C2CE7D12846214B9847EB69002294
:103B0000042128469847152C09D3182C01D9FF2CDD
:103B100005D1286818B1C3690022012198472846B9
:103B2000174B9847FF2C24D014F4004F21D103B039
:103B300030BD5C2CC7D1DEE77F2C0CD948F2810365
:103B40009C4211D848F280039C42D4D2902CD2D00F
:103B5000FF2CB8D1CFE77E2CCDD2732CB3D3752CEC
:103B6000C9D97C2CAFD1C6E748F28E039C42AAD1BA
:103B7000C1E72846084B9847D9E700BFB1220000AB
:103B80002133000008450200DC4702005D220100ED
:103B90003C480200B9220000513A000010B504462A
:103BA000034B9847FF212046024B984710BD00BFAA
:103BB000CD300000993A00002DE9F84304460F4645
:103BC0000026DFF888803546DFF8849005E0FF2185
:103BD0003846C8470136402E22D0F1B23846C04799
:103BE0008646E8B101790029F4D090F805C00CF0C0
:103BF000060C0023DAB2BCF1060F04BF0132D2B2C8
:103C00008A423ABFDEF8000050F822202A46944249
:103C1000DDD0002CDBD00133DAB28A42EAD3D9E717
:103C200000213846084B9847054650B1064E2946B4
:103C30002046FFF7C1FF29463846B0470546002811
:103C4000F5D1BDE8F88300BFE12D0000FD2F000095
:103C5000993A00002DE9F047804600200F4B984725
:103C6000C8B18146DFF840A00D4F0E4E09F1300576
:103C70002846D047044640B121464046B847214631
:103C80002846B04704460028F6D14846034B9847DB
:103C900081460028EAD1BDE8F08700BFB90F0100D6
:103CA000B93B0000BD1F0100A91F0100F8B5044683
:103CB0000D4681790068424B9847424B9847A1884E
:103CC00001F00F03082B19DC45B9B4F908203E4B6D
:103CD0009847A18820683D4B9847F8BDFF2D0AD032
:103CE000B4F90820B4F90C309B1A05FB03F502EB7C
:103CF000252212B2EBE7B4F90C20E8E70B2B43DCEA
:103D0000002D05DDFE2D05DDA289314B9847E0E74A
:103D10002289FAE7EDB2C5F1FF02637BDB08667A20
:103D2000F60802FB06F605FB036303EB032703EB30
:103D3000C713C3F3C457A389C3F345132689C6F336
:103D4000451602FB06F605FB036303EB032603EBB4
:103D5000C613C3F3C556237B03F01F0394F808E092
:103D60000EF01F0E02FB0EF205FB032505EB0523EB
:103D700005EBC315ED0D4FF0000265F3040266F389
:103D80004A1267F3CF22C0E70D2B12DC002D05DDB0
:103D9000FE2D05DD227B0F4B98479AE7227AFAE742
:103DA000227A237B9B1A05FB03F502EB2522D2B274
:103DB000F1E77F2DD4BFA268E268074B984788E7F8
:103DC000FD2F0000E7700000E1680000993A000054
:103DD000256A0000696B0000996C000030B583B063
:103DE00004460A4B984710B1002003B030BD084B81
:103DF000009340F6B12207490320074DA847224609
:103E00000023064806498847FEE700BFB1220000AC
:103E1000D8450200DC4702005D2201003C48020058
:103E2000B9220000F0B583B00D46064688B19D4B1F
:103E30009847002840F064819B4B0093ED229B49FA
:103E400003209B4CA047324600239A489A49884752
:103E5000FEE79A4B984748B9994B0093924BCF2273
:103E600092490220924CA0473446F5E13030954B00
:103E7000984704468B4B984760B98B4B0093D422EC
:103E80008A4903208A4DA847224600238E488A4942
:103E90008847FEE7002C00F0DF814C2120468B4B49
:103EA000984794F835306FF3051384F83530884B14
:103EB000E361884B23620027A76127826782384627
:103EC000854B98470138A0823846844B9847013883
:103ED000E0824C21201D824B98470023638684F8A2
:103EE000303084F8313084F84830A4F84430A4F8F5
:103EF0004630236494F8492063F3000284F8492093
:103F0000A36394F8342002F07F0242F0010294F897
:103F10003510032060F3430184F83C3002F0C10205
:103F200063F3861284F8342041F0010184F83510DF
:103F300084F83D30636204F128073846694B98479E
:103F4000002D00F06C8105F128013846664B98473A
:103F500005F10F0204F1180104F1100312F8010F2A
:103F600003F8010B8B42F9D1B5F93230638695F82D
:103F7000303084F8303095F8313084F8313095F8AD
:103F8000483084F84830B5F94430A4F84430B5F9E5
:103F90004630A4F846302B6C236495F8492094F8F9
:103FA000493062F3000384F84930AB69A36195F8A6
:103FB0003430DB0994F8342063F3C71284F83420DA
:103FC00095F8342094F8343062F3000384F83430E8
:103FD00095F83430C3F3400394F8342063F341027E
:103FE00084F8342095F83530C3F3420394F8352033
:103FF00063F3430284F8352095F83430C3F380032B
:1040000094F8342063F3820284F8342095F8343035
:10401000C3F3C003D2B263F3C30284F8342095F82B
:104020003430C3F30013D2B263F3041284F83420A3
:1040300095F83430C3F34013D2B263F3451284F8D9
:10404000342095F83430C3F38013D2B263F3861270
:1040500084F8342095F83C3084F83C3095F83520CD
:1040600094F8353062F3000384F83530A86B10B152
:1040700021461E4B984728461D4B9847002800F0C4
:10408000D980002E00F0DF8028461A4B984707465B
:104090002846194B9847024639462046174B984701
:1040A000C9E000BFB1220000EC450200DC4702007D
:1040B0005D2201003C480200B9220000E10E01002F
:1040C00038490200111F0100D83F0200372B0100C0
:1040D000055A000029540000ED0E0100150F0100E3
:1040E000F91E0100E9640000697100009D250000CF
:1040F0007D2C00009D2E0000FD2E00003D340000B0
:10410000301D574B98470446564B9847002847D0D8
:10411000002C00F0A1804C212046534B984726608C
:1041200094F835306FF3051384F835304F4BE36165
:104130004F4B23620020A061B6F912306382778A68
:104140004C4B9847322303FB00F35033B3F5A07F69
:1041500033DA01233B44E3822046474B984701284A
:104160003AD0B6F910302382378A0020414B984765
:10417000642303FB00F35033B3F5A07F4DDB002035
:104180003C4B9847642303FB00F350333B4A82FBCC
:104190000312DB17C3EBA2139BB23B44A38298E646
:1041A000374B0093F02237490320374DA84722466A
:1041B0000023364836498847FEE700202D4B9847B4
:1041C000322303FB00F350332C4A82FB0312DB172C
:1041D000C3EBA2139BB2BDE7B6F91430A382B78A32
:1041E0000020244B9847642303FB00F35033B3F5BE
:1041F000A07F10DB00201F4B9847642303FB00F3D4
:1042000050331E4A82FB0312DB17C3EBA2139BB28F
:10421000FB1A23825DE60123FAE70123BDE726B1FD
:10422000022120461B4B984705E001212046194BEF
:10423000984708E03EB1F36922460121304698478D
:104240002046154B9847154B00930D4B40F28712B3
:104250000C4901200C4DA847204603B0F0BD00BF1B
:10426000111F0100B1220000372B0100055A000088
:10427000295400003D0F0100DD3D000067666666C1
:10428000EC450200DC4702005D220100D83F02003D
:10429000B9220000E94101002133000088490200F1
:1042A0002DE9F04184B004460D461646324B98473E
:1042B00068B9324B009340F2E52231490320314D79
:1042C000A84722460023304830498847FEE7204669
:1042D0002F4B9847A8423FD020462E4B984702A923
:1042E00020462D4B9847731E628A1344E382204672
:1042F0002A4B9847012835D06B1E228A1344A3828B
:10430000E36902AA0221204698472046244B984799
:1043100018B1C56922460121A847261D3046214B08
:104320009847054668B14FF003081F4FEB6902AA92
:1043300041462846984729463046B8470546002852
:10434000F4D12046134B984794F8493013F0010FED
:104350000ED104B0BDE8F0812046144B9847B0421E
:10436000BAD1F6E7C5F10103A28A13442382C7E755
:1043700020460F4B9847ECE7B122000010460200A0
:10438000DC4702005D2201003C480200B922000027
:104390005D2F000021330000412E0000DD3D0000B4
:1043A0007D2C0000A91F0100BD1F0100AD2F0000E2
:1043B000E139000030B583B004460D460D4B9847F7
:1043C00068B90D4B009340F227320C4903200C4D85
:1043D000A847224600230B480B498847FEE72046A2
:1043E0000A4B98472A4601462046094B984703B096
:1043F00030BD00BFB122000034460200DC4702009D
:104400005D2201003C480200B92200005D2F00003F
:10441000A142000030B583B004460D460C4B9847CE
:1044200038B194F83C301D4214BF0120002003B085
:1044300030BD084B009340F6D72207490320074DB3
:10444000A84722460023064806498847FEE700BFE2
:10445000B12200005C460200DC4702005D22010040
:104460003C480200B922000030B585B004460D4634
:10447000114B984728B13F2D11D894F83D0005B055
:1044800030BD0E4B009340F6DE220D4903200D4D4A
:10449000A847224600230C480C498847FEE78DF8C0
:1044A0000C5000238DF80D3003AA09212046084B3B
:1044B00098479DF80D00E2E7B12200007046020027
:1044C000DC4702005D2201003C480200B9220000E6
:1044D000752B00002DE9F04F85B0174660B30D46EF
:1044E0004FEA122B0646DFF88CA0DFF88C90DFF83D
:1044F0008C8006E0BDF90E0005B0BDE8F08F002508
:10450000DEB129463046D047019029463046C8479B
:1045100007EB002084B20DF10E0221460198C0473E
:104520000128E7D01BF0800F07D0002DE7D13046DF
:104530000F4B98470646E2E7144624F4FE44A4B223
:10454000222C0FD006D8032C0AD0072C0CD14FF404
:104550008070D1E7312C09D0C02C05D11020CBE7D9
:104560000620C9E7FF20C7E70020C5E70F20C3E703
:104570007D2C0000FD2F000069440000E572000062
:104580002DE9F04F85B0174648B30D464FEA122B80
:104590000646DFF86CA0DFF86C90DFF86C8004E072
:1045A000BDF80C0025E00025D6B129463046D0479D
:1045B000019029463046C84707EB002084B203AA81
:1045C00021460198C0470128EAD01BF0800F07D090
:1045D000002DE8D13046084B98470646E3E71446DD
:1045E00024F4FE44293C012C9ABF044BB3F8740612
:1045F000002005B0BDE8F08F7D2C0000584002007F
:10460000FD2F000069440000A97300002DE9F04F60
:1046100085B0174650B30D464FEA122B0646DFF819
:1046200074A0DFF87490DFF8748004E09DF80F0048
:1046300029E00025DEB129463046D04701902946C1
:104640003046C84707EB002084B20DF10F02214627
:104650000198C0470128E9D01BF0800F07D0002D3A
:10466000E7D130460A4B98470646E2E7144624F461
:10467000FE44A4B26D2C09D048F2AD039C4205D093
:104680002C2C03D0FF2005B0BDE8F08F0020FAE706
:104690007D2C0000FD2F0000694400006D740000B7
:1046A0002DE9F04F85B0174650B30D464FEA122B57
:1046B0000646DFF880A0DFF88090DFF8808005E014
:1046C000039805B0BDE8F08F0025D6B129463046E5
:1046D000D047019029463046C84707EB002084B2F6
:1046E00003AA21460198C0470128E9D01BF0800F9A
:1046F00007D0002DE8D130460B4B98470646E3E73C
:10470000144624F4FE44A4B2BE2C0AD048F28E0310
:104710009C4203D07E2C01D00020D2E7034B984767
:10472000CFE70348CDE700BF7D2C0000DD4101004D
:1047300000920200FD2F0000694400003175000066
:1047400070B50468A58805F00F03082B13DD0B2B4B
:1047500018DD0D2B1DDD2A46A1792068104B9847E6
:10476000A0600023A38023462A46A17920680D4E2D
:10477000B047A58070BD2A46A17920680A4B9847AA
:104780002081EEE72A46A1792068084B98472081CE
:10479000E7E72A46A1792068054B98472072E0E7B1
:1047A000A146000029300000D544000081450000EA
:1047B0000D46000090F83D308B4200F052822DE90A
:1047C000F04FA1B089468246AB4B984740B19AF86A
:1047D0003DB08AF83D9000230693A84DD846D2E11B
:1047E000A74B009340F23762A6490320A64CA0478E
:1047F00052460023A548A6498847FEE7737943F04F
:10480000040373718AF83D802246DDF80CB05946E6
:104810005046A84707468AF83D902246CDF80CB08E
:1048200059465046A847834673796FF382037371E4
:1048300087424AD08AF83D80224603995046A847CD
:1048400006468AF83D90024621460498914B9847C7
:10485000012C00F094809048904B98470746864B77
:104860009847002800F0A280002F2ED03E81A7F8A4
:104870000CB0C7F800A0BC809DF80C30BB7110A82C
:10488000874B98471097874B1193874B1293874B11
:10489000139300231693FF2317930A9B1893099BE6
:1048A0005B421993089A531ED01D14AA13F8011FD6
:1048B00002F8011B8342F9D19DF876306FF30003B3
:1048C0008DF8763010A87A4B9847059B10AA934232
:1048D00000F05481059B33F8024B0593002CF4D073
:1048E0000798744B984703995046734B9847064670
:1048F000724B9847049004F00F03082B7FF77EAFAC
:104900000B2B61DD0D2B00F3E980737943F0040379
:1049100073718AF83D802246DDF80CB05946504646
:10492000674FB8470B908AF83D902246CDF80CB0FF
:1049300059465046B847834673796FF382037371C3
:104940000B9B8342C1D08AF83D8022460399504692
:10495000B84706468AF83D90024621460498594BCE
:1049600098474D484D4B98470746434B984700287A
:1049700074D0002FA9D03E7287F80CB079E747F6C3
:10498000FF739E4200F04C819B457FF464AF50461C
:10499000DFF844B1D84700EBD07040F34F075046E2
:1049A000D84700EBD07040F34F0351E1464B0093E2
:1049B00040F6B26233490320334CA0473A46002305
:1049C000424833498847FEE7737943F00403737123
:1049D0008AF83D802246039950463D4FB8478346AA
:1049E0008AF83D90224603995046B847ADF82C000E
:1049F00073796FF3820373711FFA8BFB83B29B454C
:104A00003FF463AF8AF83D80224603995046B84789
:104A100083468AF83D900246214604982D4B9847DC
:104A20001D481E4B98470746134B984740B1002F2F
:104A30003FF44BAFA7F808B0BDF82C30BB8118E7A6
:104A4000214B009340F6C6620E4903200E4CA0474E
:104A50003A4600231D480E498847FEE71A4B00934B
:104A600040F6DB6207490320074CA0473A46002383
:104A7000164807498847FEE7B1220000D5440000E8
:104A8000D0460200DC4702005D2201003C480200E3
:104A9000B9220000E16800003C6D0020111F0100F8
:104AA000E5120100AD3C000041470000213100004B
:104AB000A113010035720000FD2F0000E770000017
:104AC0000D460000696B0000E4460200D83F02007A
:104AD00081450000256A00005D2F00008AF83D80B6
:104AE000737943F0040373712246DDF80CB0594624
:104AF00050465C4FB8470C908AF83D902246CDF85E
:104B00000CB059465046B847834620A941F8400D9D
:104B100073796FF38203737104220CA8524B984788
:104B200000283FF4D2AE8AF83D80224603995046D1
:104B3000B84706460C908AF83D90024621460498F4
:104B40004A4B98474A484B4B984707464A4B984729
:104B500030B1002F3FF4B9AEBE60C7F80CB088E6A4
:104B6000464B009340F6EF6245490320454CA04771
:104B70003A460023444845498847FEE7069B0133EF
:104B80000693402B45D09DF81830039319465046A4
:104B90003F4B9847079000283BD0437913F0080F0C
:104BA000ECD1B022039C21465046A8470A90B1227E
:104BB00021465046A8470990BE2221465046294B1F
:104BC00098470890B22221465046A847ADF83400D5
:104BD000B32221465046A847ADF83600B4222146FC
:104BE0005046A847ADF83800B52221465046A847A0
:104BF000ADF83A00B62221465046A847ADF83C0031
:104C0000B72221465046A847ADF83E000DAB0593AC
:104C100060E6FF2150461F4B984721B0BDE8F08F5A
:104C200050461D4EB04700EBD07040F34F07504642
:104C3000B04700EBD07040F34F035E1C7A1C9642E5
:104C4000A8BF164636B247F6FF7293457FF403AE0F
:104C500003F1010B0137BB45A8BFBB460FFA8BFB25
:104C6000F9E57047A1460000DDB40100996C000031
:104C70003C6D0020111F0100B1220000E44602003B
:104C8000DC4702005D220100D83F0200B92200008B
:104C9000FD2F0000993A00005D2F000030B583B071
:104CA00005460C460D4B984750B195F83D3043EA08
:104CB00004018B4202D02846094B984703B030BD0F
:104CC000084B009340F27E6207490320074CA0473F
:104CD0002A460023064807498847FEE7B12200001C
:104CE000B5470000F4460200DC4702005D220100E7
:104CF0003C480200B922000030B583B005460C469E
:104D00000D4B984750B195F83D3023EA04018B4292
:104D100002D02846094B984703B030BD084B00939A
:104D200040F28F6207490320074CA0472A46002320
:104D3000064807498847FEE7B1220000B547000052
:104D400008470200DC4702005D2201003C480200E7
:104D5000B922000030B583B004460A4B984710B121
:104D6000E06903B030BD084B009340F6F5220749D7
:104D70000320074DA84722460023064806498847D6
:104D8000FEE700BFB12200001C470200DC47020022
:104D90005D2201003C480200B922000030B583B01A
:104DA00004460A4B984710B1606A03B030BD084B07
:104DB000009340F61E3207490320074DA8472246BC
:104DC0000023064806498847FEE700BFB1220000DD
:104DD00060470200DC4702005D2201003C480200FF
:104DE000B922000030B583B004460A4B984710B191
:104DF000A06B03B030BD084B009340F66F320749FB
:104E00000320074DA8472246002306480649884745
:104E1000FEE700BFB122000084470200DC47020029
:104E20005D2201003C480200B92200002DE9F84350
:104E30000546002215213C4B984728463B4B984796
:104E4000074610B128463A4B984700212846394B6F
:104E500098470023FF2211462846374CA04705F10A
:104E600004084046354B9847044658B1DFF8E890AF
:104E700021464046C84706462046FFF7D7FF34463E
:104E8000002EF5D12E4B5B683BB101211A6895428B
:104E900008BF19719B68002BF8D10020294B984757
:104EA000044610B3DFF8B480DFF8B490254E0EE06E
:104EB00029462046C047E36B9D4204BF0023E363BD
:104EC000A36D9F420AD02046B047044668B1636B89
:104ED0009D42EDD0A36B9D42EDD1E9E7C8478542E5
:104EE000F1D129462046C047EDE7EB690022114683
:104EF000284698472846144B984760B12946043005
:104F0000124B9847686A08B1114B98472846104BD6
:104F10009847BDE8F88328460E4B9847294630301D
:104F20000A4B9847EEE700BFCD2A0000E54D000090
:104F3000792600002913010029300000A91F010073
:104F40007C260020211001007D2C0000952001000E
:104F5000C5240100212D0000BD1F010075270000A0
:104F60000128000070B582B00446194B984768B913
:104F7000184B009340F2931217490320174DA8478E
:104F800022460023164817498847FEE72046164B5D
:104F900098472046154B9847054640B12046144B8C
:104FA0009847EB6900220121284698470CE02046EB
:104FB000104B9847054638B1C66B20460C4B9847B6
:104FC000B44201D10023EB63002002B070BD00BFEA
:104FD000B122000098470200DC4702005D22010078
:104FE0003C480200B9220000213300007D2C000063
:104FF0002D4E0000212D000030B583B004460E4B2D
:10500000984748B1A06BA8B10C4B9847844214BF95
:105010000020012003B030BD094B00934FF43862EB
:1050200008490320084DA84722460023074808499D
:105030008847FEE70020EDE7B12200004927000085
:10504000C8470200DC4702005D2201003C48020024
:10505000B922000000B583B090F83030028AD21A2D
:10506000ADF80020828A1344ADF8043090F8313056
:10507000428AD21AADF80220C28A1344ADF8063033
:1050800000226846024B984703B05DF804FB00BF5E
:10509000B915010003687BB110B4021D012352F859
:1050A000044B1CB10133DBB2072BF8D140F82310BD
:1050B00001205DF8044B7047002340F823100120C5
:1050C000704700002DE9F04105460E4614460122C6
:1050D000A84B9847208048F20C0231462846A64B40
:1050E0009847052842D90746237B002B49D1237DC9
:1050F000002B76D1237F002B40F0988094F8363037
:10510000002B40F0B88094F82830052B00F2018184
:1051100094F84430052B00F23781F92F24D8BFB220
:10512000237B13FB07F3C3F307232373237D13FBB5
:1051300007F3C3F30723237594F8283013FB07F311
:10514000C3F3072384F8283094F8363013FB07F3B1
:10515000C3F3072384F8363094F8443013FB07F781
:10516000C7F3072784F84470BDE8F0810023237358
:10517000237584F8283084F8363084F84430BDE84C
:10518000F0812C22314628467B4B98472073052816
:10519000ADD9292231462846784B98476080232292
:1051A00031462846734B9847C0B2A07130B92022CF
:1051B000314628466F4B9847607398E72A2231465C
:1051C00028466E4B9847A080212231462846DFF8BA
:1051D000A481C0472081222231462846C0476081F1
:1051E000E5E7302231462846624B98472082002866
:1051F00080D03C22314628465F4B984720750528D1
:1052000006D83222314628465A4B9847607571E7D6
:10521000312231462846574B9847C0B26082392226
:1052200031462846554B9847E081EAE7402231460F
:105230002846504B9847208300283FF45FAF4C220C
:10524000314628464C4B98472077052806D84222FD
:1052500031462846474B984760774FE74122314611
:105260002846444B98476083492231462846434BA1
:105270009847E082EBE76E2231462846404B98473C
:10528000E06200283FF43FAF6C22314628463A4B9B
:10529000984784F8360005287FF635AF6D223146F1
:1052A0002846354B984784F8370061223146284616
:1052B000304B9847003018BF012094F8383060F325
:1052C000000384F83830E06A2E4B984702280BD050
:1052D00094F83730052B15D8602231462846254BE7
:1052E000984784F839000EE7692231462846234B57
:1052F0009847A08648F28E0231462846204B9847B0
:105300002063E9E76922314628461C4B9847A0866E
:10531000E2E7502231462846164B98472084002861
:105320003FF4F6AE5C2231462846134B984784F88A
:10533000280005287FF6ECAE512231462846DFF8DA
:105340003480C0476084522231462846C047A0843A
:10535000532231462846C047E08459223146284628
:10536000064B9847E083542231462846C04784F8CC
:105370002900CDE6D54400000D460000814500001F
:10538000A1460000699900007F2231462846224B41
:105390009847E06300283FF4C0AE7C22314628469F
:1053A0001E4B984784F8440005287FF6B6AE73225A
:1053B00031462846DFF86C80C047A4F848007422C4
:1053C00031462846C047A4F84A007922314628468B
:1053D000134B9847A4F846007E22314628460E4BD0
:1053E00098472064702231462846C047A4F84C00F4
:1053F000712231462846C047A4F84E007522314636
:105400002846C04784F85000722231462846C047DB
:1054100084F8510081E600BFA14600000D4600005F
:1054200081450000D54400002DE9F04198B00446C4
:105430000E46022A08D0002A6CD0012A00F0CC8047
:10544000002018B0BDE8F08100218E4B984708B1CC
:105450000320F6E70122002120468A4DA84707468F
:10546000042200212046A84780460522002120462C
:10547000A84704F10F0304F1170503AA13F8011F4D
:1054800002F8011B9D42F9D11FFA88F8BDF80C30D3
:10549000A3EB0803ADF80C30BDF810309844ADF81C
:1054A000108080B2BDF80E301B1AADF80E30BDF87A
:1054B00012301844ADF812003A4603A93046724B38
:1054C000984708B90220BCE72C22002120466F4BE8
:1054D0009847F92801D80220B3E72022002120466E
:1054E000684B9847C0B208B10220AAE732220021D7
:1054F0002046644B9847C0B208B10220A1E748F2A9
:105500000C0200212046614B9847FA2834BF022044
:10551000012096E703A85E4B9847332200212046DE
:10552000584B984710B100238DF8203003AA002172
:105530002046584B9847042200212046514DA84749
:105540008046052200212046A84704F1100704F1F7
:105550000F0304F1170501AA13F8011F02F8011B3C
:10556000AB42F9D11FFA88F8BDF80430A3EB080369
:10557000ADF80430BDF808309844ADF8088080B22A
:10558000BDF806301B1AADF80630BDF80A301844D5
:10559000ADF80A0003AA314601A83F4B9847022202
:1055A00000212046374B984708B9002049E71C20C6
:1055B0003A4B98470546012200212046314B984737
:1055C0000023024639462846354EB04704F5187187
:1055D0002846344B9847E8E702220021294B984798
:1055E00038B9332200212046264B984740B9002085
:1055F00027E704F518702C4B98472C4B9847F0E799
:1056000003A8234B984700278DF818708DF8427037
:105610008DF8347003AA394620461E4B9847042261
:1056200039462046174DA847804605223946204670
:10563000A84704F10F03173401AA13F8011F02F859
:10564000011BA342F9D11FFA88F3BDF80420D21A36
:10565000ADF80420BDF808201344ADF8083080B23E
:10566000BDF806301B1AADF80630BDF80A301844F4
:10567000ADF80A0003AA314601A8074B984700205D
:10568000DFE600BFD54400006D1701000D460000A5
:1056900069C20000C550000031C300003D2901006F
:1056A0002DC00000C1BD000091BE000071250100A9
:1056B000F8B505460E46144648F28C02264B98472C
:1056C0002072052800D8F8BD48F20C023146284661
:1056D000214B9847F92805D8237A13FB00F0C0F333
:1056E00007202072237A052BEDD948F28902314632
:1056F00028461A4B9847208048F2800231462846B7
:10570000174FB847A08148F2810231462846B84772
:10571000608148F2820231462846B847207648F236
:10572000830231462846B847607648F28E023146F9
:1057300028460C4B98476060E2894FF6FF739A4207
:10574000C1D0228A9A42BED048F28A023146284607
:10575000024B98472080B6E70D46000081450000C7
:10576000D5440000A146000070B505460E4614461B
:1057700048F2AC02214B98472070052800D870BD34
:1057800048F20C02314628461C4B9847F92805D8A8
:10579000237813FB00F0C0F3072020702378052B3B
:1057A000EDD9002363804FF480732381AB8A0133EA
:1057B0002A8A9B1A1BB203EBD3735B10A380EB8A7C
:1057C00001336A8A9B1A1BB203EBD3735B10E3802D
:1057D00048F2AD0231462846084B9847A07248F27D
:1057E000A90231462846064B9847A08148F2A002FC
:1057F00031462846034B9847A073C0E70D4600008A
:1058000081450000D54400002DE9F04F89B00446E1
:105810000E465022764B9847074668BB7F2231469A
:105820002046744B9847804630B17C223146204652
:10583000714B984705284CD84022314620466C4B86
:1058400098470546002840F0BF8004223146204694
:10585000DFF89C81C0470546052231462046C047F7
:10586000A842B8BF284600B20028C4BFC01907B27A
:10587000384609B0BDE8F08F5C22314620465E4BC9
:105880009847052801D80027C8E75322314620460B
:10589000574DA84707EBD77700EB67070137BFB233
:1058A000512231462046A8478046522231462046A2
:1058B000A8470028B8BF4042B8F1000FB8BFC8F1F0
:1058C00000084045ACBF3F18474438B220EAE077B3
:1058D000A4E7702231462046454DA84782467022F3
:1058E00031462046A84783467E2231462046414B1A
:1058F00098474FF00009CDF8089047F618430193F8
:10590000CDF800B053460246414604A8DFF8EC80CB
:10591000C047ADF81890ADF81A90BDF81030013BB3
:10592000ADF81C30BDF81230013BADF81E307522C9
:1059300031462046A8478146732231462046A84773
:105940008046742231462046A847054605AB5FFADB
:1059500089F206A904F11000DFF8A490C847BDF849
:10596000143043449BB2BDF816202A4492B2B4F9D5
:105970001000BDF81810194409B2401AB842B8BF57
:105980003846B4F91210BDF81A7017443FB2CF1B55
:1059900000B28742B8BF0746BDF81C0003441BB2E3
:1059A000B4F91400181A3BB28342B8BF0346BDF8DD
:1059B0001E00104400B2B4F91670C71B18B2B842EA
:1059C000B8BF384607B237E74C22314620460A4B6B
:1059D000984705287FF639AF412231462046044BCF
:1059E00098472844B842B8BF384607B22DE700BFF1
:1059F000D5440000A14600000D4600007D40010096
:105A00002518010008291AD010B50446072920D00E
:105A1000012923D0062927D0032930D0042939D0E1
:105A20000B293BD0A1F10D03DBB2012B3BD9162989
:105A30003ED0172951D0002954D0012010BD137831
:105A40001BB92830506001207047002353600120AB
:105A5000704726491046264B984710BD254B98475E
:105A600080F00100C0B210BD0021234B9847B4F96B
:105A700032309842B8BF18466086012010BD90F8B9
:105A8000493013F0010F01D1012010BD1B4B984785
:105A9000012010BD1A4B9847012010BD1021194B51
:105AA0009847012010BD1021174B9847012010BDC9
:105AB000164B9847164B984728B106212046114BA4
:105AC0009847012010BD022120460E4B9847042123
:105AD00020460D4B9847012010BD06210A4B9847E0
