S01800006535345F6766785F6C6561726E696E672E73726563EB
S214000000206E0120F50E0000F10E0000F10E00003B
S214000010F10E0000F10E0000F10E000000000000DE
S214000020000000000000000000000000F10E0000CC
S214000030F10E000000000000F10E0000F10E0000BE
S214000040F10E0000F10E0000F10E0000F10E0000AF
S214000050F10E0000F10E0000F10E0000F10E00009F
S214000060F10E0000F10E0000F10E0000F10E00008F
S214000070F10E0000F10E0000F10E0000F10E00007F
S214000080F10E0000F10E0000F10E0000F10E00006F
S214000090F10E0000F10E0000F10E0000F10E00005F
S2140000A0F10E0000F10E0000F10E0000F10E00004F
S2140000B0F10E0000F10E0000F10E0000F10E00003F
S2140000C0F10E0000F10E0000F10E0000F10E00002F
S2140000D0F10E0000F10E0000F10E0000F10E00001F
S2140000E0F10E0000F10E000000000000000000000D
S2140000F000000000211D0000F10E0000F10E0000BF
S214000100F10E0000F10E0000F10E0000F10E0000EE
S214000110F10E0000F10E0000D1250000E5250000DC
S214000120F92500000D260000F10E0000F10E00007B
S214000130F10E0000F10E0000F10E0000F10E0000BE
S214000140F10E0000F10E0000F10E0000F10E0000AE
S214000150F10E0000F10E0000F10E0000F10E00009E
S214000160F10E0000F10E0000F10E0000F10E00008E
S214000170F10E0000F10E0000F10E0000F10E00007E
S214000180F10E0000F10E0000F10E0000F10E00006E
S214000190F10E0000F10E0000F10E0000F10E00005E
S2140001A0F10E0000F10E0000F10E0000F10E00004E
S2140001B0F10E0000F10E0000F10E0000F10E00003E
S2140001C0F10E0000F10E0000F10E0000F10E00002E
S2140001D0F10E0000F10E0000F10E0000F10E00001E
S2140001E0F10E0000F10E0000F10E00009528000050
S2140001F0F10E0000F10E0000F10E0000F10E0000FE
S214000200F10E0000F10E0000F10E0000F10E0000ED
S214000210F10E0000F10E0000F10E0000F10E0000DD
S214000220F10E0000F10E0000F10E0000F10E0000CD
S214000230F10E0000F10E0000F10E0000F10E0000BD
S214000240F10E0000F10E0000F10E0000F10E0000AD
S214000250F10E0000F10E0000F10E0000F10E00009D
S214000260F10E000010B5054C237833B9044B13B1DA
S2140002700448AFF300800123237010BD78000020EF
S214000280000000003C0D02000C4B43B10C480D4929
S21400029010B5AFF300800C48036823B910BD0A48B8
S2140002A0036833B97047094B002BF7D0BDE8104000
S2140002B01847064B002BF5D0184700BF000000007B
S2140002C03C0D02007C0000203C0D020000000000F7
S2140002D070B58B4C1026A66132208A4DA847666101
S2140002E03220A847A6613220A84700BF4026666194
S2140002F00A20A847A6610520A8476661824B1B789E
S21400030023B923465E6101227F4B1A7001227F4982
S2140003107F48804B98477A4C4025A5611420794B3E
S21400032098476561784B1B7823B923465D610122A7
S214000330754B1A70012275497548764B9847704C74
S2140003404025A56114206F4B984765616E4B1B785E
S21400035023B923465D6101226B4B1A7001226B495B
S2140003606B486C4B9847664C4025A5611420654B3E
S21400037098476561644B1B7823B923465D6101226B
S214000380614B1A70E22261496148624B98475C4BA8
S21400039040229A615A615C4B1B7823B1584B9A6194
S2140003A00022594B1A70232258495948594B9847EE
S2140003B0534B40229A615A61534B1B7823B1504BE2
S2140003C09A610022504B1A70022250495048514BF5
S2140003D098474B4B40229A615A614B4B1B7823B18E
S2140003E0474B9A610022484B1A70542247494848A6
S2140003F0484B9847424B40229A615A61424B1B78C1
S21400040023B93F4B5A6101223F4B1A70E0223F4905
S2140004103F48404B98473A4B40229A615A613A4BC4
S2140004201B7823B1364B9A610022374B1A70012293
S21400043036493748374B9847314C4025A5616420EC
S214000440354B98476561304B1B7823B923465D6171
S21400045001222D4B1A70E0222C492D482D4B98472F
S214000460274B40229A615A61274B1B7823B1244BB5
S2140004709A610022244B1A70032224492448254BF3
S21400048098471F4C4025A56101201E4B9847656183
S2140004901D4B1B7823B923465D6101221A4B1A7047
S2140004A001221A491A481B4B9847154C4025A5614E
S2140004B00120144B98476561134B1B7823B92346DC
S2140004C05D610122104B1A70E62210491048114B4C
S2140004D098470B4B40229A615A610B4B1B7823B10D
S2140004E0074B9A610022084B1A70042207490848F5
S2140004F0084B9847024B40229A615A610EE000BFB3
S214000500008000413515000000000020F7C3031CE2
S21400051080800041BD0F000015150000874B1B783A
S21400052023B1874B9A610022844B1A703A22854980
S2140005308548864B9847824B40229A615A617F4B8A
S2140005401B7823B17E4B9A6100227C4B1A70B62230
S2140005507C497D487D4B9847794B40229A615A6189
S214000560764B1B7823B9764B5A610122734B1A706F
S214000570B02274497448754B9847714B40229A6173
S2140005805A616E4B1B7823B16D4B9A6100226B4B00
S2140005901A7028226B496C486C4B9847684B40226F
S2140005A09A615A61654B1B7823B1654B9A610022AC
S2140005B0624B1A70802263496348644B9847604CCC
S2140005C04025A561624B9847624B9847421E12121F
S2140005D065615A4B1B7823B123469D610021574B1A
S2140005E01970D2B257495848584B9847544C402532
S2140005F0A561574B9847574B9847421ED2B2656144
S2140006004E4B1B7823B123469D6100214B4B19703E
S2140006104C494D484D4B9847494C4025A5614C4B9D
S21400062098474D4B9847421E12126561434B1B7804
S21400063023B123469D610021404B1970D2B2414937
S2140006404148424B98473E4C4025A561404B984751
S214000650414B9847421ED2B26561384B1B7823B196
S21400066023469D610021354B197036493648374B75
S2140006709847334B40229A615A61304B1B7823B11E
S2140006802F4B9A6100222D4B1A7000222D492E48BE
S2140006902E4B98472A4B40229A615A61274B1B786B
S2140006A023B9274B5A610122244B1A70F0222549A0
S2140006B02548264B9847224B40229A615A611F4B89
S2140006C01B7823B11E4B9A6100221C4B1A70032222
S2140006D01C491D481D4B9847194B40229A615A6188
S2140006E0164B1B7823B9164B5A610122134B1A700E
S2140006F03A2214491448154B9847114B40229A61E8
S2140007005A610E4B1B7823B10D4B9A6100220B4B9E
S2140007101A7055220B490C480C4B9847084B402240
S2140007209A615A61054B1B7823B9054B5A61012221
S214000730024B1A70B422034910E000BF00000020EC
S21400074000800041F7C3031C80800041BD0F0000FD
S2140007508914010095140100BD1401008648874BDA
S2140007609847874B40229A615A61864B1B7823B183
S214000770834B9A610022834B1A70022282497E487C
S2140007807E4B98477E4B40229A615A617D4B1B7880
S21400079023B17B4B9A6100227A4B1A700D227A495C
S2140007A07548764B9847764B40229A615A61754B4E
S2140007B01B7823B1724B9A610022724B1A7000228A
S2140007C071496D486D4B98476D4B40229A615A614E
S2140007D06C4B1B7823B16A4B9A610022694B1A70E6
S2140007E02B2269496448654B9847654B40229A61BD
S2140007F05A61644B1B7823B1614B9A610022614BAE
S2140008001A70282260495C485C4B98475C4B402233
S2140008109A615A615B4B1B7823B1594B9A6100224F
S214000820584B1A70002258495348544B9847544B1B
S21400083040229A615A61534B1B7823B1504B9A6100
S2140008400022504B1A7000224F494B484B4B98479A
S2140008504B4B40229A615A614A4B1B7823B1484B56
S2140008609A610022474B1A70002247494248434B80
S2140008709847434B40229A615A61424B1B7823B9F2
S2140008803F4B5A6101223F4B1A70B6223E493A4806
S2140008903A4B98473A4B40229A615A61394B1B783B
S2140008A023B1374B9A610022364B1A700122364923
S2140008B03148324B9847324B40229A615A61314B4D
S2140008C01B7823B12E4B9A6100222E4B1A701D22E4
S2140008D02D492948294B9847294B40229A615A614D
S2140008E0284B1B7823B1264B9A610022254B1A70A1
S2140008F0002225492048214B9847214B40229A61E7
S2140009005A61204B1B7823B11D4B9A6100221D4B68
S2140009101A700C221C491848184B9847184B40224E
S2140009209A615A61174B1B7823B1154B9A610022C6
S214000930144B1A70092214490F48104B9847104B55
S21400094040229A615A610F4B1B7823B10C4B9A6177
S21400095000220C4B1A7000220B490748074B984799
S214000960074B40229A615A61064B1B7883B1044BB1
S2140009709A6100220AE000BF80800041BD0F00009F
S2140009800080004100000020F7C3031C864B1A704D
S214000990002286498648874B9847874B40229A61B3
S2140009A05A61814B1B7823B9834B5A6101227E4BD7
S2140009B01A702A227D497E487E4B98477E4B4022FD
S2140009C09A615A61784B1B7823B17B4B9A6100225F
S2140009D0754B1A70002275497548764B9847764BCA
S2140009E040229A615A61704B1B7823B1724B9A6110
S2140009F000226D4B1A7000226C496D486D4B98476B
S214000A006D4B40229A615A61674B1B7823B16A4B43
S214000A109A610022644B1A70012264496448654B4F
S214000A209847654B40229A615A615F4B1B7823B109
S214000A30614B9A6100225C4B1A70DF225B495C486E
S214000A405C4B98475C4B40229A615A61564B1B7828
S214000A5023B9594B5A610122534B1A702B22534922
S214000A605348544B9847544B40229A615A614E4B18
S214000A701B7823B1504B9A6100224B4B1A70002210
S214000A804A494B484B4B98474B4B40229A615A6118
S214000A90454B1B7823B1484B9A610022424B1A7093
S214000AA0002242494248434B9847434B40229A61B2
S214000AB05A613D4B1B7823B13F4B9A6100223A4B5B
S214000AC01A70012239493A483A4B98473A4B402225
S214000AD09A615A61344B1B7823B1374B9A610022D6
S214000AE0314B1A700F2231493148324B9847324BFE
S214000AF040229A615A612C4B1B7823B92E4B5A61BF
S214000B000122294B1A70292228492948294B98473F
S214000B10294B40229A615A61234B1B7823B9264BF6
S214000B205A610122204B1A70BE2220492048214BD0
S214000B309847214B40229A615A611B4B1B7823B180
S214000B401D4B9A610022184B1A7006221749184846
S214000B50184B9847184B40229A615A61124B1B78E3
S214000B6023B1154B9A6100220F4B1A70FF220F49D2
S214000B700F48104B9847104B40229A615A610A4B17
S214000B801B7823B10C4B9A610022074B1A70012286
S214000B9006490748074B9847074B40229A615A6117
S214000BA0014B1B787BB109E000000020F7C3031C53
S214000BB080800041BD0F000000800041184B9A6104
S214000BC00022184B1A70FF2217491848184B9847EE
S214000BD0134B40229A615A61124B1B7823B1104B7B
S214000BE09A6100220F4B1A7000220F490F48104BD3
S214000BF098470B4B40229A615A610A4B1B7823B1E7
S214000C00074B9A610022074B1A70012206490748D3
S214000C10074B9847024B40229A619A6170BD00BF0D
S214000C200080004100000020F7C3031C80800041C4
S214000C30BD0F00002DE9F84FB1F90430002B0FDB93
S214000C4081468A461546B1F90630002B08DBB1F915
S214000C500040934B9847934B98470138844201DDF8
S214000C60BDE8F88FBAF902408D4B98478E4B9847EF
S214000C7001388442F4DCBAF9006026EAE676BAF96E
S214000C80024024EAE474A346BAF90470844B9847F9
S214000C90844B98470138874200F31681BAF90470EE
S214000CA0BAF906807E4B98477F4B984701388045B7
S214000CB000F31081BAF9068040227C4B5A617C4BC7
S214000CC01B7823B9794B5A610122794B1A702A2274
S214000CD078497948794B9847744B4021996132128C
S214000CE05961734B1B7823B1704B99610021704B8F
S214000CF01970D2B26F497048704B98476B4B4021C1
S214000D009961F2B259616A4B1B7823B1674B9961BE
S214000D100021674B197067496748684B9847634BD3
S214000D20402199613A125961614B1B7823B15F4BA0
S214000D30996100215E4B1970D2B25E495E485F4BE6
S214000D4098475A4B40229A615A61594B1B7823B1F7
S214000D50564B9A610022564B1A70FAB255495648BD
S214000D60564B9847514B40229A615A61504B1B781C
S214000D7023B94E4B5A6101224D4B1A702B224D4916
S214000D804D484E4B9847494B402199614FEA2B22DC
S214000D905961474B1B7823B1444B99610021444B62
S214000DA01970D2B243494448444B98473F4B4021C0
S214000DB09961E2B259613E4B1B7823B13B4B996176
S214000DC000213B4B19703B493B483C4B9847374BFF
S214000DD0402199614FEA28225961354B1B7823B18F
S214000DE0324B99610021324B1970D2B231493248E8
S214000DF0324B98472D4B40229A615A612C4B1B78F8
S214000E0023B12A4B9A610022294B1A705FFA88F2A6
S214000E1028492948294B9847244B40229A615A6111
S214000E20234B1B7823B9214B5A610122204B1A70A1
S214000E302C2220492048214B984740221B4B9A6180
S214000E40BAF804300133BAF800209B1A9BB2184A4D
S214000E5012782AB14021154A91610021144A117076
S214000E604021124A5161C6F101063E44B6B2D84549
S214000E700EDB5F00DFF83CB0DFF848A033462A46BA
S214000E8059460D48D0473D44013424B2A045F5DA12
S214000E904022064B9A614846094B9847E0E600BF59
S214000EA08914010095140100BD1401000080004162
S214000EB000000020F7C3031C80800041BD0F000027
S214000EC055150100E90F0000064B9847064B98475A
S214000ED0471EE5E6034B9847044B984700F1FF385A
S214000EE0EAE600BF8914010095140100BD14010054
S214000EF0FEE7000008B51C4B1C4A9A4210D01C4B5B
S214000F00194A9A420CD2013B9B1A23F0030304337E
S214000F101344164951F8040B42F8040B9A42F9D1CF
S214000F20144B154A9A420AD2013B9B1A23F003033C
S214000F3004331344002142F8041B9342FBD10F4BA9
S214000F400F4A22F07F029A60D3F8882042F470029B
S214000F50C3F88820BFF34F8FBFF36F8F094B9847B6
S214000F60094B9847FEE700BF000000203C0D02003A
S214000F7074000020206E00207800002000ED00E0C5
S214000F8000000000C5AE0100B528000010B45300F4
S214000F9003F47C73540104F47034234302F0070412
S214000FA02343520302F0E0521A4302EA010383612C
S214000FB021EA020141615DF8044B7047F8B5074C21
S214000FC040256561064B9847802767610120054EDE
S214000FD0B047A7610120B047A561F8BD0080004179
S214000FE08D0F0000151500008BB12DE9F8431D4646
S214000FF090460F4606460024DFF8149042463946CF
S2140010003046C8470134AC42F8D1BDE8F883704793
S214001010BD0F00002DE9F04F83B08B4600924001D3
S214001020C3B201930026DFF8949165E009EBC7137D
S2140010305D60AAB242F080429A622A0C42F04042B8
S2140010409A62009B1B78012B77D023B3022B00F00B
S2140010508480892257490020574B984724E009EBA3
S214001060C7125560ABB243F0804343F4003393623B
S2140010702B0C43F0404343F400339362E1E709EB63
S214001080C7139D60AAB242F080429A622A0C42F0D0
S21400109040429A62D5E709EBC713434493F84020D1
S2140010A002F0FB0283F84020009B5A686409B2F104
S2140010B0FF3F62D0E4B209EBC411414491F84030DE
S2140010C003F0FE0343F0010381F840301AF0010FED
S2140010D05ED109EBC41404EB580898F8303003F0DE
S2140010E0F00302F00F021A4388F8302009EBC71706
S2140010F07D610136202E59D0F4B22BFA06F313F098
S214001100010FF6D004F01F04019B1C445FFA84FA1A
S2140011104FEA5A170AF01F08012505FA08F5009B42
S2140011205B78012B9BD0002B80D0022BA7D04622C9
S21400113020490020204B984783E7012303FA08F351
S21400114009EBC712536002EB080090F8401041F01C
S214001150040180F840109361A6E7012303FA08F320
S21400116009EBC712536002EB080090F8401041F0FC
S214001170040180F84010536196E7E4B209EBC4140A
S214001180A04498F8403003F0FE0388F84030ADE7FE
S21400119009EBC41404EB580898F8303003F00F033A
S2140011A043EA0212D2B288F830209FE703B0BDE8C7
S2140011B0F08F00BF60AF0100891A00000080004178
S2140011C070B582B00023009302238DF801308DF8AD
S2140011D000304FF0FF3301936A4643490120434BEA
S2140011E09847434B40229A60424E9E624FF04041E1
S2140011F099625A6093F8460040F0040083F846006F
S2140012005A6193F8460000F0FE0083F84600102569
S2140012109D603948986299625D6093F8440040F09A
S214001220040083F844005D6193F8440000F0FE007B
S21400123083F8440008249C603048986299625C6099
S21400124093F8430040F0040083F843005C6193F891
S214001250430000F0FE0083F843009A609E629962A5
S2140012605A6093F8460040F0040083F846005A613E
S21400127093F8460000F0FE0083F846008020986051
S21400128040369E629962586093F8471041F0040118
S21400129083F84710586193F8471001F0FE0183F871
S2140012A047104FF48071C3F8841106F50036803677
S2140012B0C3F8A861124EC3F8A861C3F8841193F866
S2140012C0C86146F0040683F8C861C3F8941193F821
S2140012D0C81101F0FE0183F8C8119A619D619C61F6
S2140012E0986102B070BD00BFF7C3031C1510000064
S2140012F00080004140000040100000400800004010
S214001300000002C008B51F4B4022C3F8E02043226D
S214001310C3F88C201C4A936943F4806393611B498D
S2140013201B481C4B98471C4B93F8562002F0FB02B8
S21400133083F8562093F8562002F0FE0242F001028F
S21400134083F8562093F83B2002F0F00242F00202A7
S21400135083F83B2093F8572002F0FB0283F85720CF
S21400136093F8572002F0FE0242F0010283F857205D
S21400137093F83B2002F00F0242F0200283F83B2055
S21400138008BD00BF001C00400008004000400141AE
S214001390006C0020B51500000080004108B5064925
S2140013A0D1E90023013243F10003C1E90023012003
S2140013B0024B984708BD00BF98000020ED150100BD
S2140013C010B51148114B9847114A536943F48043AE
S2140013D0536140220F4BC3F8A4200F4B98470F4C85
S2140013E002460F4920460F4B98470F4901230B61D1
S2140013F00E4A4A610B76083120460D4B9847204628
S2140014000C4B984710BD00BF10E000E0011500002F
S21400141000080040001C00404F280000206C002000
S21400142000380040FD160000980000209D130000C4
S214001430751700003917000030B583B01F4B4022E7
S214001440C3F8DC204322C3F88C201D4A936943F47A
S214001450007393611B4C0023009310231A4A1B4908
S21400146020461B4DA8471B4B93F8D82002F0FE02DF
S21400147042F0010283F8D82093F8BC2002F0F00274
S21400148042F0030283F8BC2093F8D92002F0FE0253
S21400149042F0010283F8D92093F8BC2002F00F0234
S2140014A042F0300283F8BC2020460B4B98470C22B3
S2140014B00A4920460A4B984703B030BD001C00403E
S2140014C0000800403C6C0020B400002000200141D1
S2140014D0CD190000008000415D1A000004000020C5
S2140014E0F5150000EFF31083036072B6BFF35F8F4D
S2140014F07047BFF35F8F036883F310887047000060
S21400150008B5024B1860024B984708BDC40000207F
S2140015103D1C000010B5044B1C68044B9847014660
S2140015202046034B984710BDC4000020051C000051
S214001530411C000010B5044B1C68044B984701463C
S2140015402046034B984710BDC40000201D1C000019
S214001550411C000010B584B014460389ADF8043071
S21400156002924FF40043ADF80630039101A91438F7
S214001570034B9847002808BF204604B010BD00BFA4
S214001580B520000010B584B014460389ADF80430C9
S214001590029248F20103ADF80630039101A914380F
S2140015A0034B9847002808BF204604B010BD00BF74
S2140015B0B520000038B50D4604465E2208490030C6
S2140015C018BF0120074B984729462046064B9847E8
S2140015D0034618B9054AA261054A6261184638BD35
S2140015E07CAF0100891A00008520000085150000E8
S2140015F05515000070B50D461646044660B1081C29
S21400160018BF012034220549054B98472368324607
S21400161029462046984770BD0020F3E798AF0100A2
S214001620891A0000F8B5844607682FB18D683C46D5
S2140016300026C2F1010E0BE00E4B9847F8BD73442E
S214001640A0680344AB420AD22368264653B11C4620
S21400165063689342F3D8A06803449B1AF2E7A74254
S21400166004D034462046044B9847F8BD6046014BEC
S2140016709847F8BDB11A0000DD1A00002DE9F047C2
S2140016804469076901370761037E13F0010F13D120
S214001690037E13F0020F0FD154B36368FB1AA268DF
S2140016A0934207D3064600F11408DFF84890DFF8A7
S2140016B048A012E0BDE8F087037E43F002030376FD
S2140016C0BDE8F0877569E3682046984785B12C46E3
S2140016D06B68FB1AAA6893420AD34046C847237C25
S2140016E0012BEFD167603A4621464046D047E9E7EE
S2140016F0BDE8F087E51A00002516000038B50D464F
S214001700044678B1081C18BF01203B220649074B47
S214001710984729462046064B984700202061054BEF
S214001720236038BD0020F0E7ACAF0100891A000046
S214001730812600007D16000010B504465322094994
S214001740003018BF0120084B98472046074B9847A3
S21400175020B92046064B9847002010BD6FF01000B9
S21400176010BD00BFACAF0100891A00003D28000084
S2140017702928000070B582B00D46044618B3081C30
S21400178018BF01207A221E491E4B9847237E43F03D
S2140017900103237604F11406294630461A4B98476F
S2140017A098B923696B60226929463046174B9847DB
S2140017B0237E03F0FE032376237E13F0020F10D160
S2140017C0002002B070BD0020DCE7237E03F0FE039D
S2140017D023767F220A4900200A4B98476FF01100B3
S2140017E0EFE701A80A4B9847237E03F0FD03237614
S2140017F02046084B984701A8074B98470020E0E78B
S214001800ACAF0100891A00008F1A000025160000F0
S214001810E514000055280000F314000008B5002366
S2140018208362C3691BB1A0F108021046984708BD41
S21400183008B500238362436A1BB1A0F10802104674
S214001840984708BD38B50446A0F108052C30034B70
S2140018509847236A0BB12846984738BD851B000079
S21400186070B50E4615460446E0B1E9B1101C18BF27
S214001870012040F23B120F490F4B9847B4F8442022
S214001880B4F84C309A4211D1A664A4F84C50002308
S214001890A4F844300123236304F10800074B98475B
S2140018A0284670BD0020E4E70020E2E76FF01B004A
S2140018B070BD00BFC4AF0100891A0000732000008D
S2140018C010B50446838FB0F844209A4209D0026CC3
S2140018D0591C8187D15C044B98472046034B984798
S2140018E010BD034B984710BD6D200000732000000C
S2140018F07B2000002DE9F04782B00F469046064652
S214001900A0B199B1002A2DD14FF4AC72294900201C
S214001910294B984701A8294B984706F13400284BD5
S214001920984701A8274B984700253EE04FF4AC7235
S21400193020490020204B984701A8204B984706F1E5
S214001940340A50461E4B9847814601A81D4B9847BF
S214001950B9F1000F04D0B8F1000F19D1002524E02A
S214001960002522E04FF4AC7212490120124B984732
S21400197001A8124B984706F1340A5046104B984778
S214001980814601A80F4B98470025B9F1000F0CD0EF
S21400199000240D4E601C85B239195046B0470134FC
S2140019A04C4502D2A3B29845F4D8284602B0BDE80A
S2140019B0F08700BFC4AF0100891A0000E5140000DC
S2140019C0C51B0000F3140000411B0000F8B50D46CF
S2140019D016461F46044620B329B332B3181C18BF58
S2140019E001203A221349144B98473A46314604F1EF
S2140019F03400124B9847D0B9294604F10800104B22
S214001A009847034658B90F4A62600F4A22600F4A49
S214001A10A2600F4AE2600F4A22610F4A62611846CE
S214001A20F8BD0020DDE70020DBE70020D9E76FF0F7
S214001A300C03F4E7C4AF0100891A0000F11A000095
S214001A40D51F0000F518000061180000C11800003E
S214001A50451800001D1800003118000010B5044697
S214001A6061220649003018BF0120054B984704F153
S214001A700800044B9847002010BD00BFC4AF01000B
S214001A80891A00005920000000B900BE704703689C
S214001A904BB18B4209D01B681BB19942FBD1012088
S214001AA070470020704700207047012070470000F4
S214001AB038B504460D46064B984780F0010039229B
S214001AC00449C0B2044B984723682B60256038BD94
S214001AD08F1A0000E4AF0100891A000003680B604B
S214001AE00160704703680BB11A68026018467047B9
S214001AF070B50E461546044678B181B1A2B10120F4
S214001B0028220D490D4B98476B1E1D4209D1636074
S214001B100020A060E060266070BD0020F0E7002096
S214001B20EEE76FF00C0070BD282203490020034B3F
S214001B3098476B1EEBE700BF04B00100891A00004F
S214001B4038B50D460446A0B1081C18BF0120402237
S214001B500A490B4B9847A368E2689A420BD0626822
S214001B6013402268D35C2B70A3680133A360002067
S214001B7038BD0020EBE76FF0090038BD04B0010067
S214001B80891A000038B50D46044651220B4900302C
S214001B9018BF01200A4B9847E36862681340226822
S214001BA0D554E3686168A2689A1A8A4284BF591AB3
S214001BB0A1600133E360002038BD00BF04B001001F
S214001BC0891A000010B5044667220549003018BF80
S214001BD00120044B9847E068A368C01A10BD00BFF8
S214001BE004B00100891A0000430900F01F0001221A
S214001BF002FA00F04033024A42F82300704700BF62
S214001C0000E100E0C0EBC00000EB00100230024B29
S214001C10A3FB003040087047ABAAAAAAC0EBC000DE
S214001C2000EB00100230044BA3FB003040084FF4DA
S214001C307A7303FB00F07047ABAAAAAA70470000AD
S214001C400139FDD8704700BF08B5094A13889BB212
S214001C5043F4A0631380074B9847074B9847074BFE
S214001C609847074B984740F6FF70064B984708BDC5
S214001C7000400041B91C0000D91C0000AD1C00004B
S214001C80DD1C0000891C000010F0010F08D0054A7A
S214001C90054B1A62194643F6FD724B681342FCD197
S214001CA0704700BF07010100001C00400122014BE5
S214001CB05A71704700080040064B42F28E329A82F4
S214001CC000229A75DA75DA6902F47C52DA6101222A
S214001CD01A74704700140040704700000E4A0F4BFD
S214001CE05A631A46D36B13F0060FFBD10B4B4FF417
S214001CF002629A63022283F830201A46D36B13F0EE
S214001D00020FFBD1054B1A6C12F0010F03D11A6CAF
S214001D1012F0020FF7D070474D0E01000010004081
S214001D2000B583B00D4B9B78DBB20193019B13F09B
S214001D30020F06D00A4B1B681BB1084A506898472A
S214001D4009E0019B13F0010F05D0054B5B6813B14A
S214001D50024A5068984703B05DF804FB0000024151
S214001D608C6C002070B489B006466C460D4D0FCDC5
S214001D700FC495E80F0084E80F00009BB3420DD017
S214001D80314601AB012053F8042B8A4207D00130BC
S214001D900828F8D1002009B070BC70470020C0B2F7
S214001DA0F9E700BF28B0010010B58469237E13F060
S214001DB0010F03D0A37D13F0010F12D1237E13F081
S214001DC0020F03D0A37D13F0020F0FD1237E13F072
S214001DD0040F15D0638B03F0370363B1FF236383CF
S214001DE010BD012323750368984710BD0223237591
S214001DF08368984710BDA16A4368C9B2984710BD6A
S214001E00237EDB0900D110BD80232376C368984764
S214001E10638B9BB26383F6E708B5034B9847800055
S214001E202E3000F0FE0008BD651D000010B504460B
S214001E30214B9847022805D040F26B221F4900200C
S214001E401F4B9847E36913F0010F19D1E36913F0AC
S214001E50030FFBD1236813F0020F0BD0236823F087
S214001E6002032360E36913F0030FFBD1E36913F069
S214001E70020FFBD105232360E36913F0030FFBD1A8
S214001E80E36913F0010FFBD10E4B2360E36913F0F7
S214001E90030FFBD14FF440336360E36913F01F0F69
S214001EA0FBD1094BA3604FF61143A3810020A0731A
S214001EB084F8300010BD00BF651D000060B0010052
S214001EC0891A0000040010400200700008B5074B95
S214001ED09847032808D040F2CE3205490020054B2B
S214001EE098474FF0FF3008BD002008BD651D000074
S214001EF060B00100891A000038B505460C46084651
S214001F00324B9847C0B2E36913F0010F22D100EBC1
S214001F1040032F4A02EBC3035A6A02F01C02E3692D
S214001F2013F0030FFBD1236813F0020F0BD02368C6
S214001F3023F002032360E36913F0030FFBD1E36988
S214001F4013F0020FFBD142F001022260E36913F0A6
S214001F50030FFBD1E36913F0010FFBD100EB400345
S214001F601B4A02EBC3035A6A2260E36913F0030FAD
S214001F70FBD100EB4003164901EBC3039B6A636089
S214001F80E36913F0040FFBD100EB4003104901EBAB
S214001F90C303DB6AE360C2F30163AB81626A22F4C7
S214001FA08042012B94BF0023012342EA83336362FD
S214001FB0E36913F0040FFBD100EB4000044B03EB86
S214001FC0C000438EEB81002038BD00BFCD1E000050
S214001FD028B0010070B50D460646CB2218490030E1
S214001FE018BF0120174B98472846174B98470446BA
S214001FF008B1204670BDB561144B9D4204BF144B1A
S2140020001E602846134B9847011DC9B2012500F0F3
S2140020101F0205FA02F243099B0003F1604303F531
S2140020206143C3F88020BFF34F8FBFF36F8FC3F8B1
S21400203080211A600130C0B28142E8D1D9E700BFE2
S21400204060B00100891A00002D1E0000002001412A
S214002050C8000020191E00008269136843F00203BE
S2140020601360D36913F0030FFBD17047836999623D
S2140020707047836901229A757047836902229A75B0
S2140020807047000038B50D4604464FF4A86206496E
S214002090003018BF0120054B984725612946204689
S2140020A0034B984738BD00BF60B00100891A000096
S2140020B0F91E00002DE9F84305460E46046910F1A6
S2140020C0000818BF4FF00108DFF8C4924FF4BF6253
S2140020D049464046AD4FB847286940F2F95249464E
S2140020E0003018BF0120B84740F2FA524946301C6B
S2140020F018BF0120B8476B8813F4807F40F0188221
S21400210073889BB243F48073738096E8070085E873
S2140021100700636843F480736360E36913F0040F99
S214002120FBD12F69D7F8009040F2CD52984940462F
S214002130964B98476B68012B5ED07B6823F4802310
S2140021407B60FB6913F0040FFBD12B8813F4806FC0
S2140021505ED06A8812F0010F04D06A8892B242F408
S21400216080626A8040F2FE7202EA4302FB6913F064
S214002170040FFBD17B6A03F4804343F4004313430C
S2140021807B62FB6913F0040FFBD129690B7EDBB27F
S2140021904FF6FF7213F0030F03D10B7EDBB2013A4A
S2140021A0F8D13968FA6912F0040FFBD17A8B92B233
S2140021B013F0010F00F0A38012F0020F3CD00123B1
S2140021C03B766B889BB243F480536B806B8823F41A
S2140021D080731B041B0C6B8002F00102002A14BFE4
S2140021E06FF004006FF003006B8823F480731B0409
S2140021F01B0C6B80BDE8F88319F0006F9DD07B68E0
S21400220043F480237B60FB6913F0040FFBD19CE74B
S21400221069885A00D2B201F001031A43FB6913F031
S214002220040FFBD17B6A03F480431A437A62FB698E
S21400223013F0040FFBD1A8E712F0040F1DD16B8832
S21400224013F4806F37D02B88DB0903F00602FB6996
S21400225013F0040FFBD17B6A03F4804343F0F103D1
S21400226013437B62FB6913F0040FFBD16B8823F4E6
S21400227080631B041B0C6B8069E06B68002B04DD1D
S2140022806B889BB243F480536B806B8813F4004FCB
S21400229008D16B8823F480731B041B0C6B806FF0D3
S2140022A00100A1E77B6843F440337B60FB6913F0D1
S2140022B0040FFBD1EDE76B689BB96B8813F4004FF6
S2140022C006D16B8823F480731B041B0C6B803EE0E6
S2140022D07B6843F440337B60FB6913F0040FFBD14B
S2140022E0EFE7AB681B78BB62FB6913F0040FFBD10A
S2140022F0AB680133AB606B68013B6B6027E013F0A3
S214002300020F24D06B68002B3AD012F0040F37D19E
S214002310C1F3C061013B6B60002B40F00D810029CA
S21400232000F010816B8813F4004F18D16B8823F4EB
S21400233080731B041B0C6B80AA68531CAB60FB6984
S21400234013F0040FFBD1BB6A137002233B76002206
S214002350104602276FF0010C4FF0010EB0E07B68CC
S21400236023F480737B60FB6913F0040FFBD17B685A
S21400237043F440337B60FB6913F0040FFBD1D5E7D1
S21400238002233B766FF001002EE700BF891A00009B
S21400239060B00100636843F440336360E36913F0A0
S2140023A0040FFBD1A1E012F0040F1ED16B8813F4CA
S2140023B0806F37D02B88DB0903F00602E36913F041
S2140023C0040FFBD1636A03F4804343F0F103134325
S2140023D06362E36913F0040FFBD16B8823F4806318
S2140023E01B041B0C6B8002466AE06B68002B04DD46
S2140023F06B889BB243F480536B806B8813F4004F5A
S21400240007D16B8823F480731B041B0C6B80624619
S21400241056E0636843F440336360E36913F0040FE7
S214002420FBD1EEE76B68A3B96B8813F4004F07D1B6
S2140024306B8823F480731B041B0C6B8002463FE002
S214002440636843F440336360E36913F0040FFBD121
S214002450EEE7AB681B78A362E36913F0040FFBD1C9
S214002460AB680133AB606B68013B6B60024627E0EC
S21400247013F0020F57D06B68002B51D012F0040FE8
S2140024804ED1C1F3C061013B6B60002B40F08C80E5
S214002490002900F08F806B8813F4004F2FD16B88D3
S2140024A023F480731B041B0C6B80AA68531CAB6060
S2140024B0E36913F0040FFBD1A36A13702776024674
S2140024C06B8813F4807F30D029690B7EDBB24FF621
S2140024D0FF7213F0030F42D10B7EDBB2013AF8D144
S2140024E0738813F4004F7FF455AF6B8823F4807322
S2140024F01B041B0C6B806FF00400BDE8F883636858
S21400250023F480736360E36913F0040FFBD1636800
S21400251043F440336360E36913F0040FFBD1BEE776
S21400252027766246CCE70246CAE71046BDE8F8833F
S2140025306FF00500BDE8F883012B7FF4FDAE00299F
S2140025403FF4FAAE7B6843F480237B60FB6913F0AC
S214002550040FFBD16B68002B3FF4E4AEECE6216879
S214002560E26912F0040FFBD1628B92B213F0010FF6
S2140025703FF47EAF12F0020F3FF415AF84F818E078
S2140025806B889BB243F480536B806B8823F4807314
S2140025901B041B0C6B8002F00102002A14BF6FF0B4
S2140025A004026FF003028BE7012B7FF47EAF002955
S2140025B03FF47BAF636843F480236360E36913F002
S2140025C0040FFBD16B68002B3FF465AF6DE700BFCF
S2140025D008B5024B1868024B984708BDC800002093
S2140025E0A91D000008B5024B1868024B984708BDA5
S2140025F0C8000020A91D000008B5024B1868024B51
S214002600984708BDC8000020A91D000008B5024B69
S2140026101868024B984708BDC8000020A91D000096
S21400262070B588B006466C46124D0FCD0FC495E8BF
S2140026300F0084E80F00009BB3420BD0304601AA7F
S214002640012352F8041B814205D00133082BF8D130
S21400265000200BE0002313F0FF0F09D04FF49E720A
S21400266005490020054B98474FF0FF3008B070BD75
S2140026700020FBE77CB00100B0B00100891A000022
S21400268070B506460C460846604B98470546F4600B
S2140026908D225F4901205F4B9847236913F0010F95
S2140026A019D1236913F0030FFBD1236813F0020F2F
S2140026B00BD0236823F002032360236913F0030F73
S2140026C0FBD1236913F0020FFBD10123236023699A
S2140026D013F0030FFBD1236913F0010FFBD105EBB9
S2140026E085034D4A02EB83035A6A2260236913F07E
S2140026F0030FFBD105EB8503474901EB830393F8F2
S2140027002A10E1731B8DE3800123237302F00C0271
S214002710082A48D0002A58D105EB85033E4A02EB2A
S21400272083039B8DA383236913F0C00FFBD1002383
S214002730E383236913F0C00FFBD101236372374B89
S2140027409C4204BF364B1E6005EB8503324A02EB03
S2140027508303B3F92230002B23DB5A0903F01F034F
S214002760012101FA03F320322E4941F82230BFF34B
S2140027704F8FBFF36F8F05EB8505274B03EB850562
S214002780B5F92230002B0CDB590903F01F03012298
S21400279002FA03F3234A01F1600042F8203042F8BF
S2140027A02130002070BD05EB85031B4A02EB830336
S2140027B0DB6AE361236913F0C00FFBD100232362B9
S2140027C0236913F0C00FFBD1B7E7042AB5D105EB98
S2140027D08503114A02EB830393F82C302377236991
S2140027E013F0C00FFBD100236377236913F0C00FEB
S2140027F0FBD105EB8503084A02EB830393F82B30E5
S214002800E376236913F0200FFBD196E7212600001C
S214002810B0B00100891A00007CB00100003800400A
S214002820CC00002000E100E0C268136843F0020319
S2140028301360136913F0030FFBD17047C268136966
S21400284013F0030FFBD11068C0F340007047002060
S2140028507047000010B5C068094B9847044640F220
S2140028600F1208490120084B984704EB8404074BD5
S21400287003EB840494F82200054B984710BD00BF74
S21400288021260000B0B00100891A00007CB00100CB
S214002890E91B000008B5064B1868C3689A7A12F060
S2140028A0010F00D108BD01229A7203689847F9E724
S2140028B0CC00002008B5024B9847024CA047FDE725
S2140028C0C92800007529000030B58DB0174B984711
S2140028D0174B9847174B9847174B9847174B9847EF
S2140028E0174B9847174B9847174C4FF496530022B0
S2140028F016492046164DA84701A8164B9847164B72
S2140029000493029401A8154B98470020144B98474F
S2140029100021144B9847044623225A21124B98470D
S21400292012492046124B98470DB030BD491C000096
S2140029303914000005130000C1110000C113000087
S214002940452F0000D102000050260020D0000020B5
S21400295019130100B9120100350C000039130100EB
S214002960292A000035A50100C53A0000C4B00100C0
S21400297035A2010008B50120024B9847024B984744
S21400298008BD00BF35150000753D0100003018BFBA
S21400299001207047F0B5C3B0054614461C4B984757
S2140029A0E5282CD8064602AF024629463846194B7B
S2140029B09847BD192023BB5528236B703023AB7076
S2140029C07823EB70291D1C22134824FA02F303F027
S2140029D00F0303441B7D01F8013B043A12F1040F78
S2140029E0F3D129232B7300236B7302AB00930B4B9D
S2140029F0BC220B4903200B4CA04743B0F0BD00950A
S214002A00064BBF2206490320064CA047F5E700BF49
S214002A104FAF0100FD2B0100D0B00100F8B001005F
S214002A200CB101000528010008B1C06B704710B555
S214002A3082B0084B984710B1C06B02B010BD064B71
S214002A400093064B2E2206490220064CA047002083
S214002A50F3E700BF89140100E8B2010014B20100D8
S214002A60BCB201000528010008B1006C704710B523
S214002A7082B0084B984710B1006C02B010BD064BF0
S214002A800093064B4B2206490220064CA047002026
S214002A90F3E700BF8914010024B3010028B2010047
S214002AA0BCB201000528010008B1406C704710B5A3
S214002AB082B0084B984710B1406C02B010BD064B70
S214002AC00093064B5C2206490220064CA0470020D5
S214002AD0F3E700BF8914010060B3010040B20100B3
S214002AE0BCB2010005280100A0B138B50346002499
S214002AF0094D93F8342002F02002002A18BF1C4625
S214002B001846A84703460028F3D114B12046034BC5
S214002B10984738BD704700BF053300003D3A0000B7
S214002B202DE9F84F037D13F0010F2AD117468A4688
S214002B300646C4684FF001090025DFF8C480AB469E
S214002B404AE0337D13F0100F00D1D5B9B9F1000F6C
S214002B5017D03046D0470446002D35D0D94646E03B
S214002B60F368A3420DD093B11868C36900221721F9
S214002B709847F36800220E2118681E4B98470128D4
S214002B8001D0BDE8F88FF36818681B4B9847F460CF
S214002B902068C369002216219847F36800220D2199
S214002BA01868144B98470128EBD1F3681868134B44
S214002BB09847F3681868104B98473369002BE0D0A5
S214002BC030469847BDE8F88F0028DAD00546D94643
S214002BD02068C0470028C3D0002CB2D0002D08BF04
S214002BE0254621463046B8470446A842C9D0002CA0
S214002BF0EED1F1E755310000A9390000E92A0000BE
S214002C002D38000008B518210148024B984708BD2A
S214002C10086E0020A124010008B5024A0249034BB1
S214002C20984708BD6525010051250100212B0000AD
S214002C3008B5024A0249034B984708BD9125010092
S214002C405B250100212B000038B50446037DC3F345
S214002C50001543F01003037513F0080F0CBF044B68
S214002C60044B9847237D65F30413237538BD00BFD6
S214002C70192C0000312C000000284FD0F0B583B08E
S214002C8005460C460746264B98470146A0B1036802
S214002C909C4207D0234E3846B047014660B10B68C9
S214002CA0A342F8D1204B0093204B752220490120E7
S214002CB0204CA04703B0F0BDA36B73B120461E4B5B
S214002CC0984750B1A06B1D4B98471D4B0093174B70
S214002CD07F2217490120174EB047A5632846194B97
S214002CE098470646184B984758B1002EE2D03460F5
S214002CF028460B4B98478642DCD128460F4B984710
S214002D00D8E70A4B0093852209490320094CA047BF
S214002D10324600230D480E498847FEE7704700BF3D
S214002D205125010065250100CCB401007CB40100EA
S214002D3090B401000528010081560000492C0000CF
S214002D4008B50100052501008D290000BCB401006E
S214002D50952900002DE9F041D0F83880B8F1000F31
S214002D6051D0D8F80C30002B4DD005461B68984241
S214002D701ED046464046254B98470446002842D07B
S214002D8003689D4209D0224F21463046B847044684
S214002D90002838D023689D42F6D1214640461D4B78
S214002DA0984720461C4B98470023AB63BDE8F0814C
S214002DB098F8143013F0010F05D098F814306FF31C
S214002DC0000388F814304046104B9847D8F80C306B
S214002DD083420BD04046114B9847D8F80C301B68FE
S214002DE09D4204BF0023C8F80C30C2E740460C4B97
S214002DF09847D8F80C309842ECD10068C369002296
S214002E0017219847E9E7BDE8F08100BF512501008A
S214002E10652501003D2601006D2A0100492C0000B1
S214002E205B25010018B1C3681BB118687047002005
S214002E3070470020704718B1007DC0F3400070470F
S214002E4000207047014B5868704700BF742600206A
S214002E50F8B5B0B1034690F8502042F0020280F870
S214002E605020184A5268904204D039B1DA6B914229
S214002E7004D0F8BD0020134A1060F6E70022DA639B
S214002E80F8BD0C460020104B984703460028F0D0AB
S214002E900C4D00270C4E05E0DF631846B04703468E
S214002EA00028E6D093F8502042F0020283F8502023
S214002EB06A689A4208BF2F60002CEDD0DA6B944205
S214002EC0EBD1E9E774260020C915010008B50021FA
S214002ED00846014B984708BD512E0000014B186864
S214002EE0704700BF742600202DE9F04789469046BB
S214002EF000F1040A5046114B9847E0B104461FFA09
S214002F0089F61FFA88F50E4F238A33442382638A94
S214002F102B446382A38A3344A382E38A2B44E3824E
S214002F20424649462046FFF7DFFF21465046B8474F
S214002F3004460028E8D1BDE8F08700BF512501000F
S214002F406525010030B585B0214B1B78002B36D1A6
S214002F50204B9847204B9847204B9847204B984744
S214002F60204B984710212048204CA047204B029326
S214002F700193009302224FF01F014FF600001D4DF3
S214002F80A8471D4B98471D4B98474FF4B8711C48EF
S214002F90A04760211B48A0471B4B98471B4B9847F0
S214002FA001201B4B98470120094B1870194B0093C2
S214002FB0194BA22219491A4CA04705B030BD194B2F
S214002FC00093154B782215490220154CA047F4E7CC
S214002FD07C26002065290100953B01002122010086
S214002FE045180100052C0000586D0020A1240100A2
S214002FF010000020F170010079470100FD63000019
S214003000B46C0020A86C0020CD2E000069050100DD
S214003010D5F9000000BD01003CB50100C0BC0100B0
S21400302005280100E8BC010030B583B004460D4613
S2140030300C4B984738B194F8343065F3000384F8A5
S214003040343003B030BD084B00934FF4B4620749E8
S2140030500320074DA847224600230648064988470E
S214003060FEE700BF8D290000B0B50100C0BC01001E
S2140030700528010020BD0100952900002DE9F0413A
S21400308086B0074615461E460C4621B10846284B14
S2140030909847002833D0039400238DF8103005930A
S2140030A0244B5B6803B10593224B03AA5A60D3F8FE
S2140030B008809E60204B984718B183680BB129465C
S2140030C0984717B129462046B8471A4BC3F80880D8
S2140030D05A6892685A609DF81030F3B90CB394F8A9
S2140030E0343013F0400F1ED02068F0B13246294627
S2140030F0124B9847012814BF002001200EE0104B09
S21400310000934FF4DB620F4903200F4DA847224679
S21400311000230E480E498847FEE7002006B0BDE8AB
S214003120F0810120FAE70120F8E70120F6E700BF6A
S2140031308D2900007C260020452E00005531000019
S21400314080B60100C0BC01000528010020BD0100BA
S21400315095290000E8B170B582B0044616460D46C3
S2140031600D4B984768B90D4B009340F2C4620C496A
S21400317003200C4DA847224600230B480B498847DE
S214003180FEE733462A462146A069094CA04702B00E
S21400319070BD0120704700BF8D29000094B6010065
S2140031A0C0BC01000528010020BD010095290000D3
S2140031B07D30000030B583B004460D46094B984775
S2140031C010B1E56103B030BD074B009340F21B72AF
S2140031D006490320064DA84722460023054806490F
S2140031E08847FEE78D290000A4B60100C0BC010098
S2140031F00528010020BD01009529000020B110B56A
S214003200C4691CB1A04710BD01207047012010BD45
S21400321030B583B004460D46094B984710B1256279
S21400322003B030BD074B009340F2377206490320C7
S214003230064DA84722460023054806498847FEE76C
S2140032408D290000BCB60100C0BC010005280100A5
S21400325020BD01009529000030B583B004460D4618
S2140032600D4B984768B90D4B009340F249720C49D4
S21400327003200C4DA847224600230B480B498847DD
S214003280FEE72946606A0A4B9847034600B160622B
S214003290184603B030BD00BF8D290000D4B601002B
S2140032A0C0BC01000528010020BD010095290000D2
S2140032B0412E010030B583B004460C4B984768B9E0
S2140032C00B4B009340F259720A4903200A4DA84757
S2140032D02246002309480A498847FEE700226286FC
S2140032E0E36906212046984703B030BD8D290000CB
S2140032F0F0B60100C0BC01000528010020BD010099
S2140033009529000030B583B004460A4B984710B1A3
S214003310206803B030BD084B009340F29F72074907
S2140033200320074DA847224600230648064988473B
S214003330FEE700BF8D2900000CB70100C0BC0100ED
S2140033400528010020BD01009529000030B583B096
S21400335004460E4B984708B10D4D0EE00D4B0093FA
S21400336040F26B720C4903200C4DA84722460023FE
S2140033700B480C498847FEE71C462046A8470346EC
S2140033800028F9D1204603B030BD00BF8D290000CB
S2140033900533000020B70100C0BC0100052801006D
S2140033A020BD0100952900002DE9F04383B00446B6
S2140033B0224B984780B123681BB12046204B984784
S2140033C004462048204B9847054660B3DFF87890BF
S2140033D01E4EDFF8708012E01D4B009340F27F72A5
S2140033E01C4903201C4DA847224600231B481C49A5
S2140033F08847FEE729464046B047054698B105F19E
S21400340030073846C84701460028F3D0844206D025
S2140034103846B04701460028ECD08C42F8D1284602
S21400342003B0BDE8F0830F4B0093094B4FF4F262F4
S21400343008490220084CA0470025F0E78D29000027
S2140034404D330000B46C00205125010065250100B5
S21400345034B70100C0BC01000528010020BD0100F2
S2140034609529000030BD010030B583B004460D46F6
S2140034700D4B984730B19DB12946201D0B4B984700
S21400348003B030BD0A4B009340F2AD7209490320E9
S214003490094DA84722460023084809498847FEE701
S2140034A0201D084B9847EBE78D2900006525010095
S2140034B044B70100C0BC01000528010020BD010082
S2140034C0952900005125010030B583B005460C460D
S2140034D00E4B984760B105F10F0204F10800234631
S2140034E012F8011F03F8011B8342F9D103B030BD67
S2140034F0074B009340F6010206490320064CA047FE
S2140035002A460023054806498847FEE78D2900001D
S214003510BCB70100C0BC01000528010020BD0100A9
S2140035209529000030B583B004460F4B984768B91C
S2140035300E4B009340F622020D4903200D4DA8477E
S214003540224600230C480D498847FEE720460C4BD0
S2140035509847034628B1208A1B8AC01A00B203B0D7
S21400356030BDB4F91000FAE78D290000D0B701008D
S214003570C0BC01000528010020BD010095290000FF
S2140035800533000030B583B004460F4B984768B942
S2140035900E4B009340F636020D4903200D4DA8470A
S2140035A0224600230C480D498847FEE720460C4B70
S2140035B09847034628B1608A5B8AC01A00B203B0F7
S2140035C030BDB4F91200FAE78D290000E0B701001B
S2140035D0C0BC01000528010020BD0100952900009F
S2140035E00533000030B583B004460C4B984730B125
S2140035F0A08A0130238AC01A00B203B030BD084B3F
S214003600009340F64A0207490320074DA847224682
S2140036100023064806498847FEE700BF8D290000BC
S214003620F0B70100C0BC01000528010020BD010064
S2140036309529000030B583B004460C4B984730B14E
S214003640E08A0130638AC01A00B203B030BD084B6E
S214003650009340F6560207490320074DA847224626
S2140036600023064806498847FEE700BF8D2900006C
S21400367004B80100C0BC01000528010020BD0100FF
S2140036809529000009B92830704700B583B08DF839
S2140036900010002301936A460821044B984701282E
S2140036A00CBF0198002003B05DF804FBFD3100005C
S2140036B02DE9F84F80468A4693461E461C481D4B09
S2140036C09847002831D00546B0422ED0DFF86090EB
S2140036D0194F09E0AB885B4514D0BBF1FF0F11D042
S2140036E01CB32546A64220D029464846B84704467D
S2140036F028684045F4D1A9795145EBD0BAF1FF0FBF
S214003700EED1E7E70D4B98470D4B9847A9880D4B30
S2140037109847002128460C4B9847294648460B4BAD
S214003720984728460A4B9847DAE7BDE8F88F00BF67
S214003730586D00205B2501009125010085360000AC
S2140037408F760000956D0000D11801003D2601001F
S2140037506D2A010030B583B004460D460B4B9847E2
S21400376048B10B4B98470023FF2229462046094CB8
S214003770A04703B030BD084B0093084B40F292427E
S21400378007490220074CA047F3E700BF8536000034
S214003790A1760000B13600007CBD0100C8B801006B
S2140037A0C0BC010005280100F8B504681748184B8E
S2140037B0984708B301460027144E164D03E03046DE
S2140037C0A847014678B18C42F9D00A6823689A4225
S2140037D0F5D14B6823F07F42636823F07F439A421B
S2140037E008BF0127EBE73FB1214608480A4B984738
S2140037F020460A4B9847F8BDA1792068084B9847A1
S214003800084B9847A188084B9847EDE7586D00206D
S21400381051250100652501003D2601006D2A0100A5
S214003820853600008F760000956D000030B583B0B9
S21400383004460B4B984728B194F83400C0F30010A8
S21400384003B030BD074B009340F6412206490320E3
S214003850064DA84722460023054806498847FEE746
S2140038608D29000018B90100C0BC01000528010020
S21400387020BD0100952900002DE9F04186B00446E0
S2140038800E463A4B984768B9394B00934FF4F0729E
S21400389038490320384DA847224600233748384980
S2140038A08847FEE72046374B984710B106B0BDE87C
S2140038B0F0812046344B98470746344B98470546D8
S2140038C0334B9847874209D02846324B9847874261
S2140038D004D02846304B98478742E7D1B4F93230B7
S2140038E004F10F0204F1170002A912F8017F01F893
S2140038F0017B8242F9D19BB2BDF80820D21AADF8FE
S2140039000820BDF80A20D21AADF80A20BDF80C200F
S2140039101A44ADF80C20BDF80E201344ADF80E3056
S21400392002AA314604A81D4B98470028BED0204660
S2140039301B4B9847044698B1DFF86080114F184E2D
S21400394004F1100204A90846C0470028AED020465D
S214003950B8470028AAD12046B04704460028EFD131
S21400396004A928460F4B9847A0E700BF8D29000002
S2140039702CB90100C0BC01000528010020BD0100D3
S214003980952900002D3800004D330000A9330000B3
S214003990292A0000692A0000A92A0000C11A01008D
S2140039A0053300000164000030B585B004461C4BAA
S2140039B0984738B3B4F9323004F10F0204F1170512
S2140039C002A912F8010F01F8010BAA42F9D19BB225
S2140039D0BDF80820D21AADF80820BDF80A20D21A81
S2140039E0ADF80A20BDF80C201A44ADF80C20BDF83E
S2140039F00E201344ADF80E3002A92046094B984716
S214003A0005B030BD084B009340F20D220749032055
S214003A10074DA84722460023064807498847FEE781
S214003A208D2900007938000044B90100C0BC0100AF
S214003A300528010020BD010095290000F0B583B0DF
S214003A400546164B984768B9154B009340F262221C
S214003A5014490320144CA0472A460023134814494F
S214003A608847FEE72846134B98470446061D30460F
S214003A70114B984785420FD02046104FB847012378
S214003A802A46314630460E4EB047E3692A460121A3
S214003A90204698472046B84703B0F0BD8D29000061
S214003AA058B90100C0BC01000528010020BD010076
S214003AB0952900000533000051250100A9390000B2
S214003AC0C92601002DE9F04784B004468A46174609
S214003AD02D4B984700283ED02668002E49D0338AC2
S214003AE0228A9B1A53441FFA83FA0FFA8AF8758AB9
S214003AF0638AED1A3D44ADB20FFA85F9B8F1000FAE
S214003B0002D1B9F1000F23D02046204FB84702A9B2
S214003B1020461F4B9847238A53442382638A2B44AC
S214003B206382A38A5344A382E38A1D44E5824A46FD
S214003B3041462046174B9847E36902AA02212046D1
S214003B409847F36922460121304698472046B847F1
S214003B5004B0BDE8F087104B009340F296220F4960
S214003B6003200F4DA847224600230E480E498847DB
S214003B70FEE70E4B0093084B4FF4277207490220CE
S214003B80074CA047E4E700BF8D290000A9390000D4
S214003B90C9340000E92E000088B90100C0BC01004D
S214003BA00528010020BD010095290000B4BD0100D4
S214003BB030B583B004460D460D4B984768B90D4B9B
S214003BC000934FF433720C4903200C4DA84722464D
S214003BD000230B480B498847FEE720460A4B9847C8
S214003BE0024629462046094B984703B030BD00BF21
S214003BF08D29000098B90100C0BC0100052801000D
S214003C0020BD01009529000085350000C53A00005A
S214003C1030B583B004460D460D4B984768B90D4B3A
S214003C2000934FF436720C4903200C4DA8472246E9
S214003C3000230B480B498847FEE720460A4B984767
S214003C402A4601462046094B984703B030BD00BFC0
S214003C508D290000A8B90100C0BC0100052801009C
S214003C6020BD01009529000025350000C53A00005A
S214003C702DE9F04385B004460D4690461F46BDF933
S214003C8030602C4B984768B92B4B009340F26D324E
S214003C902A4903202A4DA8472246002329482A49B4
S214003CA08847FEE78DB12846224B984790B9224BAD
S214003CB0009340F2713221490320214CA0472A4646
S214003CC00023204820498847FEE720461F4B984798
S214003CD00546E8E703AB424604F1100105F1100083
S214003CE0DFF87090C8472046184B9847B0F9123056
S214003CF0BDF80E203244BDF80C103944008A091A6B
S214003D0009B2ADF80C10D21A12B2ADF80E20204649
S214003D100F4B984784F84880A4F84470A4F846608F
S214003D20256494F849306FF3410384F8493005B0B0
S214003D30BDE8F0838D290000B8B90100C0BC0100C1
S214003D400528010020BD010095290000053300006C
S214003D50C53A0000CD1D01002DE9F04F85B0814623
S214003D600E4692460393BDF938B0A34B984768B900
S214003D70A24B009340F29532A1490320A14CA047E4
S214003D804A460023A048A1498847FEE74846A04B7C
S214003D909847054648469F4B9847044648469E4BDC
S214003DA0984700EBD07040F34F0848469B4B984727
S214003DB000EBD07040F34F07EEB130468E4B98477D
S214003DC0F0B1BAF1140F39D8DFE81AF028005C0019
S214003DD062006D0076007F008D009900A500B4009B
S214003DE0BA00C500CE00D700E500F100F7000301D9
S214003DF00C012E013D014846894B98470646DCE7F4
S214003E007E4B009340F2A1327D4903207D4CA047B3
S214003E10324600237C487D498847FEE730467E4B85
S214003E20984700EBD070C8EB60052DB230467B4B50
S214003E30984700EBD070C7EB600424B24846784B36
S214003E409847318A039F39442944038AC91A728ADB
S214003E505A442244438AD21A12B209B24846714BD7
S214003E60984789F848A0A9F84470A9F846B0C9F858
S214003E70406099F8493043F0020389F8493005B0AC
S214003E80BDE8F08FC8F100052DB27C4224B2D5E71C
S214003E903046614B984700EBD070C8EB60052DB2FA
S214003EA07C4224B2CAE730465B4B9847A0EB08003A
S214003EB005B27C4224B2C1E7C8F100052DB23046F7
S214003EC0564B9847C01B04B2B8E73046524B98474B
S214003ED000EBD070C8EB60052DB230464F4B9847CC
S214003EE0C01B04B2AAE730464B4B9847A0EB08002D
S214003EF005B23046494B9847C01B04B29EE7C8F14E
S214003F0000052DB23046454B984700EBD070C7EB06
S214003F10600424B292E730463F4B9847A0EB080077
S214003F2005B230463D4B984700EBD070C7EB6004B7
S214003F3024B283E7C8F100052DB27C4224B27DE7A7
S214003F403046354B984700EBD070C8EB60052DB275
S214003F507C4224B272E730462F4B9847A0EB08000D
S214003F6005B27C4224B269E7C8F100052DB230469E
S214003F702A4B9847C01B04B260E73046264B98474A
S214003F8000EBD070C8EB60052DB23046234B984747
S214003F90C01B04B252E730461F4B9847A0EB080000
S214003FA005B230461D4B9847C01B04B246E7C8F121
S214003FB000052DB27C4224B240E7C8F100052DB2C0
S214003FC03046164B984700EBD070C7EB600424B21F
S214003FD034E7C8F100052DB23046104B9847C01B99
S214003FE004B22BE730460C4B9847A0EB080005B20E
S214003FF07C4224B222E700BF8D290000C8B9010028
S214004000C0BC01000528010020BD01009529000064
S2140040102535000085350000E53500003536000002
S21400402005330000C53A000030460D4B9847A0EB1C
S214004030080005B230460B4B984700EBD070C7EB34
S214004040600424B2FAE63046054B9847A0EB080019
S21400405005B23046034B9847C01B04B2EEE600BFDD
S214004060E53500003536000030B583B00446124B07
S214004070984790B194F8493013F0020FB4F94430E1
S21400408094F84820B4F946100091216C204614BFDD
S2140040900A4C0B4CA04703B030BD0A4B009340F2CD
S2140040A02A4209490320094DA8472246002308480A
S2140040B008498847FEE700BF8D290000593D0000EB
S2140040C0713C0000DCB90100C0BC010005280100FD
S2140040D020BD0100952900002DE9F041064600218B
S2140040E00D4B9847B0B104460C4D4FF000080A4FF0
S2140040F02046A847E36942460421204698472046C2
S214004100A8472046FFF7E8FF21463046B847044652
S2140041100028EDD1BDE8F08169340000A93900001F
S21400412030B583B005460C46364B984798B1712C8F
S21400413046D8702C23D2412C1BD8402C1FD2022CE0
S21400414005D3072C1BD9A4F11003082B17D9284632
S2140041502D4B98472FE02D4B009340F21D522C49D3
S21400416003202C4CA0472A4600232B482B4988477F
S214004170FEE7532C21D8502C01D24C2CE7D12846F0
S214004180214B9847EB690022042128469847152CB6
S21400419009D3182C01D9FF2C05D1286818B1C3699A
S2140041A00022012198472846174B9847FF2C24D019
S2140041B014F4004F21D103B030BD5C2CC7D1DEE72C
S2140041C07F2C0CD948F281039C4211D848F2800318
S2140041D09C42D4D2902CD2D0FF2CB8D1CFE77E2CE4
S2140041E0CDD2732CB3D3752CC9D97C2CAFD1C6E7EE
S2140041F048F28E039C42AAD1C1E72846084B98474E
S214004200D9E700BF8D290000A9390000ECB90100EC
S214004210C0BC01000528010020BD01009529000052
S214004220D940000010B50446034B9847FF212046AE
S214004230024B984710BD00BF5537000021410000D3
S2140042402DE9F84304460F460026DFF888803546F9
S214004250DFF8849005E0FF213846C8470136402E37
S21400426022D0F1B23846C0478646E8B10179002927
S214004270F4D090F805C00CF0060C0023DAB2BCF1BE
S214004280060F04BF0132D2B28A423ABFDEF80000FF
S21400429050F822202A469442DDD0002CDBD0013391
S2140042A0DAB28A42EAD3D9E700213846084B984763
S2140042B0054650B1064E29462046FFF7C1FF29465F
S2140042C03846B04705460028F5D1BDE8F88300BF5C
S2140042D06934000085360000214100002DE9F047D2
S2140042E0804600200F4B9847C8B18146DFF840A0B3
S2140042F00D4F0E4E09F130052846D047044640B112
S21400430021464046B84721462846B047044600287E
S214004310F6D14846034B984781460028EAD1BDE8C7
S214004320F08700BF611501004142000065250100CD
S21400433051250100F8B504460D4681790068424BC8
S2140043409847424B9847A18801F00F03082B19DCC9
S21400435045B9B4F908203E4B9847A18820683D4BE4
S2140043609847F8BDFF2D0AD0B4F90820B4F90C30F0
S2140043709B1A05FB03F502EB252212B2EBE7B4F914
S2140043800C20E8E70B2B43DC002D05DDFE2D05DDBC
S214004390A289314B9847E0E72289FAE7EDB2C5F1EA
S2140043A0FF02637BDB08667AF60802FB06F605FB6F
S2140043B0036303EB032703EBC713C3F3C457A389B5
S2140043C0C3F345132689C6F3451602FB06F605FB1E
S2140043D0036303EB032603EBC613C3F3C556237B25
S2140043E003F01F0394F808E00EF01F0E02FB0EF217
S2140043F005FB032505EB052305EBC315ED0D4FF077
S214004400000265F3040266F34A1267F3CF22C0E7A0
S2140044100D2B12DC002D05DDFE2D05DD227B0F4B5E
S21400442098479AE7227AFAE7227A237B9B1A05FBBB
S21400443003F502EB2522D2B2F1E77F2DD4BFA268A6
S214004440E268074B984788E7853600008F760000BD
S214004450896E000021410000CD6F00001171000040
S2140044604172000030B583B004460A4B984710B13D
S214004470002003B030BD084B009340F6B122074938
S2140044800320074DA84722460023064806498847CA
S214004490FEE700BF8D290000BCBA0100C0BC0100C9
S2140044A00528010020BD010095290000F0B583B065
S2140044B00D46064688B19D4B9847002840F064811B
S2140044C09B4B0093ED229B4903209B4CA047324612
S2140044D000239A489A498847FEE79A4B984748B976
S2140044E0994B0093924BCF2292490220924CA047C0
S2140044F03446F5E13030954B984704468B4B984749
S21400450060B98B4B0093D4228A4903208A4DA84772
S214004510224600238E488A498847FEE7002C00F092
S214004520DF814C2120468B4B984794F835306FF34B
S214004530051384F83530884BE361884B23620027E7
S214004540A761278267823846854B98470138A08244
S2140045503846844B98470138E0824C21201D824B18
S21400456098470023638684F8303084F8313084F826
S2140045704830A4F84430A4F84630236494F8492020
S21400458063F3000284F84920A36394F8342002F011
S2140045907F0242F0010294F83510032060F34301D5
S2140045A084F83C3002F0C10263F3861284F83420AB
S2140045B041F0010184F8351084F83D30636204F15F
S2140045C028073846694B9847002D00F06C8105F1A6
S2140045D028013846664B984705F10F0204F118018A
S2140045E004F1100312F8010F03F8010B8B42F9D106
S2140045F0B5F93230638695F8303084F8303095F867
S214004600313084F8313095F8483084F84830B5F9C0
S2140046104430A4F84430B5F94630A4F846302B6C44
S214004620236495F8492094F8493062F3000384F82F
S2140046304930AB69A36195F83430DB0994F834202F
S21400464063F3C71284F8342095F8342094F8343095
S21400465062F3000384F8343095F83430C3F3400333
S21400466094F8342063F3410284F8342095F835300A
S214004670C3F3420394F8352063F3430284F83520ED
S21400468095F83430C3F3800394F8342063F3820241
S21400469084F8342095F83430C3F3C003D2B263F301
S2140046A0C30284F8342095F83430C3F30013D2B232
S2140046B063F3041284F8342095F83430C3F34013BF
S2140046C0D2B263F3451284F8342095F83430C3F33D
S2140046D08013D2B263F3861284F8342095F83C3007
S2140046E084F83C3095F8352094F8353062F30003B2
S2140046F084F83530A86B10B121461E4B98472846E3
S2140047001D4B9847002800F0D980002E00F0DF806F
S21400471028461A4B984707462846194B984702469C
S21400472039462046174B9847C9E000BF8D29000040
S214004730D0BA0100C0BC01000528010020BD010060
S21400474095290000891401001CBE0100B92401004F
S214004750BCB40100DF300100AD5F0000715A0000FC
S21400476095140100BD140100A1240100916A000007
S21400477011770000792C0000053300002535000075
S21400478085350000C53A0000301D574B9847044653
S214004790564B9847002847D0002C00F0A1804C21AB
S2140047A02046534B9847266094F835306FF3051330
S2140047B084F835304F4BE3614F4B23620020A061F5
S2140047C0B6F912306382778A4C4B9847322303FB44
S2140047D000F35033B3F5A07F33DA01233B44E38282
S2140047E02046474B984701283AD0B6F91030238226
S2140047F0378A0020414B9847642303FB00F350336D
S214004800B3F5A07F4DDB00203C4B9847642303FBA9
S21400481000F350333B4A82FB0312DB17C3EBA213B1
S2140048209BB23B44A38298E6374B0093F02237496D
S2140048300320374DA8472246002336483649884786
S214004840FEE700202D4B9847322303FB00F350333E
S2140048502C4A82FB0312DB17C3EBA2139BB2BDE705
S214004860B6F91430A382B78A0020244B98476423F5
S21400487003FB00F35033B3F5A07F10DB00201F4B83
S2140048809847642303FB00F350331E4A82FB03124F
S214004890DB17C3EBA2139BB2FB1A23825DE6012350
S2140048A0FAE70123BDE726B1022120461B4B9847B5
S2140048B005E001212046194B984708E03EB1F36910
S2140048C022460121304698472046154B9847154BFF
S2140048D000930D4B40F287120C4901200C4DA8475F
S2140048E0204603B0F0BD00BFB92401008D290000AA
S2140048F0DF300100AD5F0000715A0000E5140100D2
S2140049006544000067666666D0BA0100C0BC010058
S21400491005280100BCB4010095290000914701005C
S214004920A93900006CBE01002DE9F04184B00446B0
S2140049300D461646324B984768B9324B009340F204
S214004940E52231490320314DA8472246002330484E
S21400495030498847FEE720462F4B9847A8423FD06D
S21400496020462E4B984702A920462D4B9847731E8B
S214004970628A1344E38220462A4B9847012835D0A2
S2140049806B1E228A1344A382E36902AA02212046F0
S21400499098472046244B984718B1C56922460121FE
S2140049A0A847261D3046214B9847054668B14FF06C
S2140049B003081F4FEB6902AA414628469847294636
S2140049C03046B84705460028F4D12046134B984792
S2140049D094F8493013F0010F0ED104B0BDE8F08111
S2140049E02046144B9847B042BAD1F6E7C5F101030A
S2140049F0A28A13442382C7E720460F4B9847ECE76A
S214004A008D290000F4BA0100C0BC01000528010091
S214004A1020BD010095290000E5350000A9390000F9
S214004A20C93400006544000005330000512501002C
S214004A3065250100353600006940000030B583B0BA
S214004A4004460D460D4B984768B90D4B009340F24F
S214004A5027320C4903200C4DA847224600230B485A
S214004A600B498847FEE720460A4B98472A460146E8
S214004A702046094B984703B030BD00BF8D29000083
S214004A8018BB0100C0BC01000528010020BD0100C4
S214004A9095290000E53500002949000030B583B0AF
S214004AA004460D460C4B984738B194F83C301D42EE
S214004AB014BF0120002003B030BD084B009340F621
S214004AC0D72207490320074DA84722460023064859
S214004AD006498847FEE700BF8D29000040BB01005D
S214004AE0C0BC01000528010020BD0100952900007A
S214004AF030B585B004460D46114B984728B13F2D7A
S214004B0011D894F83D0005B030BD0E4B009340F62A
S214004B10DE220D4903200D4DA847224600230C48EF
S214004B200C498847FEE78DF80C5000238DF80D30B1
S214004B3003AA09212046084B98479DF80D00E2E796
S214004B408D29000054BB0100C0BC010005280100EF
S214004B5020BD010095290000FD3100002DE9F04F31
S214004B6085B0174660B30D464FEA122B0646DFF8AF
S214004B708CA0DFF88C90DFF88C8006E0BDF90E0084
S214004B8005B0BDE8F08F0025DEB129463046D04797
S214004B90019029463046C84707EB002084B20DF145
S214004BA00E0221460198C0470128E7D01BF0800F6F
S214004BB007D0002DE7D130460F4B98470646E2E770
S214004BC0144624F4FE44A4B2222C0FD006D8032C9C
S214004BD00AD0072C0CD14FF48070D1E7312C09D0C5
S214004BE0C02C05D11020CBE70620C9E7FF20C7E779
S214004BF00020C5E70F20C3E7053300008536000018
S214004C00F14A00008D7800002DE9F04F85B0174678
S214004C1048B30D464FEA122B0646DFF86CA0DFF8C5
S214004C206C90DFF86C8004E0BDF80C0025E00025F1
S214004C30D6B129463046D047019029463046C84767
S214004C4007EB002084B203AA21460198C04701283A
S214004C50EAD01BF0800F07D0002DE8D13046084B75
S214004C6098470646E3E7144624F4FE44293C012C04
S214004C709ABF044BB3F87406002005B0BDE8F08F69
S214004C80053300003CB5010085360000F14A0000FF
S214004C90517900002DE9F04F85B0174650B30D4608
S214004CA04FEA122B0646DFF874A0DFF87490DFF8A0
S214004CB0748004E09DF80F0029E00025DEB1294647
S214004CC03046D047019029463046C84707EB0020BB
S214004CD084B20DF10F0221460198C0470128E9D0A1
S214004CE01BF0800F07D0002DE7D130460A4B9847BF
S214004CF00646E2E7144624F4FE44A4B26D2C09D01E
S214004D0048F2AD039C4205D02C2C03D0FF2005B002
S214004D10BDE8F08F0020FAE7053300008536000076
S214004D20F14A0000157A00002DE9F04F85B01746CD
S214004D3050B30D464FEA122B0646DFF880A0DFF888
S214004D408090DFF8808005E0039805B0BDE8F08F1E
S214004D500025D6B129463046D04701902946304630
S214004D60C84707EB002084B203AA21460198C04733
S214004D700128E9D01BF0800F07D0002DE8D130467F
S214004D800B4B98470646E3E7144624F4FE44A4B2C9
S214004D90BE2C0AD048F28E039C4203D07E2C01D053
S214004DA00020D2E7034B9847CFE70348CDE700BF84
S214004DB00533000085470100E40602008536000042
S214004DC0F14A0000D97A000070B50468A58805F09D
S214004DD00F03082B13DD0B2B18DD0D2B1DDD2A46CC
S214004DE0A1792068104B9847A0600023A380234633
S214004DF02A46A17920680D4EB047A58070BD2A4688
S214004E00A17920680A4B98472081EEE72A46A179C7
S214004E102068084B98472081E7E72A46A179206852
S214004E20054B98472072E0E7294D0000B136000098
S214004E305D4B0000094C0000954C000090F83D309A
S214004E408B4200F052822DE9F04FA1B0894682468F
S214004E50AB4B984740B19AF83DB08AF83D90002396
S214004E600693A84DD846D2E1A74B009340F237628E
S214004E70A6490320A64CA04752460023A548A649AB
S214004E808847FEE7737943F0040373718AF83D8020
S214004E902246DDF80CB059465046A84707468AF821
S214004EA03D902246CDF80CB059465046A84783465A
S214004EB073796FF38203737187424AD08AF83D8014
S214004EC0224603995046A84706468AF83D90024671
S214004ED021460498914B9847012C00F09480904806
S214004EE0904B98470746864B9847002800F0A280CC
S214004EF0002F2ED03E81A7F80CB0C7F800A0BC80CB
S214004F009DF80C30BB7110A8874B98471097874BBD
S214004F101193874B1293874B139300231693FF230B
S214004F2017930A9B1893099B5B421993089A531E82
S214004F30D01D14AA13F8011F02F8011B8342F9D1F1
S214004F409DF876306FF300038DF8763010A87A4B14
S214004F509847059B10AA934200F05481059B33F8AE
S214004F60024B0593002CF4D00798744B984703998E
S214004F705046734B98470646724B9847049004F089
S214004F800F03082B7FF77EAF0B2B61DD0D2B00F395
S214004F90E980737943F0040373718AF83D802246F2
S214004FA0DDF80CB059465046674FB8470B908AF864
S214004FB03D902246CDF80CB059465046B847834639
S214004FC073796FF3820373710B9B8342C1D08AF8A7
S214004FD03D80224603995046B84706468AF83D90DB
S214004FE0024621460498594B98474D484D4B9847E2
S214004FF00746434B9847002874D0002FA9D03E722E
S21400500087F80CB079E747F6FF739E4200F04C81B4
S2140050109B457FF464AF5046DFF844B1D84700EBB9
S214005020D07040F34F075046D84700EBD07040F39F
S2140050304F0351E1464B009340F6B26233490320DA
S214005040334CA0473A460023424833498847FEE798
S214005050737943F0040373718AF83D8022460399FE
S21400506050463D4FB84783468AF83D9022460399FE
S2140050705046B847ADF82C0073796FF3820373710E
S2140050801FFA8BFB83B29B453FF463AF8AF83D80E3
S214005090224603995046B84783468AF83D90024612
S2140050A0214604982D4B98471D481E4B98470746A7
S2140050B0134B984740B1002F3FF44BAFA7F808B00A
S2140050C0BDF82C30BB8118E7214B009340F6C66232
S2140050D00E4903200E4CA0473A4600231D480E49B1
S2140050E08847FEE71A4B009340F6DB620749032029
S2140050F0074CA0473A460023164807498847FEE76C
S2140051008D2900005D4B0000B4BB0100C0BC01004F
S2140051100528010020BD010095290000896E0000C9
S214005120586D0020B92401008D1801003543000099
S214005130C94D0000A937000049190100DD770000BD
S214005140853600008F760000954C00001171000037
S214005150C8BB0100BCB40100094C0000CD6F0000C4
S214005160E53500008AF83D80737943F004037371D7
S2140051702246DDF80CB0594650465C4FB8470C90B6
S2140051808AF83D902246CDF80CB059465046B847AE
S214005190834620A941F8400D73796FF3820373713B
S2140051A004220CA8524B984700283FF4D2AE8AF847
S2140051B03D80224603995046B84706460C908AF82A
S2140051C03D900246214604984A4B98474A484B4B26
S2140051D0984707464A4B984730B1002F3FF4B9AE80
S2140051E0BE60C7F80CB088E6464B009340F6EF6208
S2140051F045490320454CA0473A46002344484549C4
S2140052008847FEE7069B01330693402B45D09DF862
S21400521018300393194650463F4B9847079000288E
S2140052203BD0437913F0080FECD1B022039C214603
S2140052305046A8470A90B12221465046A8470990F2
S214005240BE2221465046294B98470890B222214656
S2140052505046A847ADF83400B32221465046A8472A
S214005260ADF83600B42221465046A847ADF83800BF
S214005270B52221465046A847ADF83A00B622214648
S2140052805046A847ADF83C00B72221465046A847EE
S214005290ADF83E000DAB059360E6FF2150461F4B70
S2140052A0984721B0BDE8F08F50461D4EB04700EB42
S2140052B0D07040F34F075046B04700EBD07040F335
S2140052C04F035E1C7A1C9642A8BF164636B247F6B7
S2140052D0FF7293457FF403AE03F1010B0137BB4524
S2140052E0A8BFBB460FFA8BFBF9E57047294D0000B7
S2140052F00DAF010041720000586D0020B924010076
S2140053008D290000C8BB0100C0BC010005280100B3
S214005310BCB401009529000085360000214100003C
S214005320E535000030B583B005460C460D4B984772
S21400533050B195F83D3043EA04018B4202D028462E
S214005340094B984703B030BD084B009340F27E628D
S21400535007490320074CA0472A460023064807496A
S2140053608847FEE78D2900003D4E0000D8BB0100AF
S214005370C0BC01000528010020BD010095290000E1
S21400538030B583B005460C460D4B984750B195F89E
S2140053903D3023EA04018B4202D02846094B984749
S2140053A003B030BD084B009340F28F6207490320DC
S2140053B0074CA0472A460023064807498847FEE7C9
S2140053C08D2900003D4E0000ECBB0100C0BC010072
S2140053D00528010020BD01009529000030B583B0E6
S2140053E004460A4B984710B1E06903B030BD084B3D
S2140053F0009340F6F52207490320074DA8472246AA
S2140054000023064806498847FEE700BF8D290000AE
S21400541000BC0100C0BC01000528010020BD010041
S2140054209529000030B583B004460A4B984710B162
S214005430606A03B030BD084B009340F61E32074941
S2140054400320074DA84722460023064806498847FA
S214005450FEE700BF8D29000044BC0100C0BC01006F
S2140054600528010020BD01009529000030B583B055
S21400547004460A4B984710B1A06B03B030BD084BEA
S214005480009340F66F3207490320074DA84722468F
S2140054900023064806498847FEE700BF8D2900001E
S2140054A068BC0100C0BC01000528010020BD010049
S2140054B0952900002DE9F8430546002215213C4BAE
S2140054C0984728463B4B9847074610B128463A4B24
S2140054D0984700212846394B98470023FF2211465B
S2140054E02846374CA04705F104084046354B9847F8
S2140054F0044658B1DFF8E89021464046C8470646BD
S2140055002046FFF7D7FF3446002EF5D12E4B5B68BA
S2140055103BB101211A68954208BF19719B68002BA0
S214005520F8D10020294B9847044610B3DFF8B48022
S214005530DFF8B490254E0EE029462046C047E36BC0
S2140055409D4204BF0023E363A36D9F420AD020461A
S214005550B047044668B1636B9D42EDD0A36B9D4295
S214005560EDD1E9E7C8478542F1D129462046C04734
S214005570EDE7EB6900221146284698472846144B6B
S214005580984760B129460430124B9847686A08B1BC
S214005590114B98472846104B9847BDE8F883284695
S2140055A00E4B9847294630300A4B9847EEE700BF27
S2140055B0553100006D540000552D0000D118010033
S2140055C0B1360000512501007C260020C9150100D7
S2140055D0053300003D2601006D2A0100A9330000B6
S2140055E065250100512E0000DD2E000070B582B04A
S2140055F00446194B984768B9184B009340F293122B
S21400560017490320174DA847224600231648174976
S2140056108847FEE72046164B98472046154B984786
S214005620054640B12046144B9847EB6900220121FD
S214005630284698470CE02046104B9847054638B158
S214005640C66B20460C4B9847B44201D10023EB634F
S214005650002002B070BD00BF8D2900007CBC010098
S214005660C0BC01000528010020BD010095290000EE
S214005670A939000005330000B5540000A933000026
S21400568030B583B004460E4B984748B1A06BA8B11E
S2140056900C4B9847844214BF0020012003B030BD55
S2140056A0094B00934FF4386208490320084DA84779
S2140056B022460023074808498847FEE70020EDE712
S2140056C08D290000252E0000ACBC0100C0BC0100E6
S2140056D00528010020BD01009529000003687BB164
S2140056E010B4021D012352F8044B1CB10133DBB287
S2140056F0072BF8D140F8231001205DF8044B7047C3
S214005700002340F823100120704700002DE9F041E7
S21400571005460E4614460122A84B9847208048F2BC
S2140057200C0231462846A64B9847052842D907461C
S214005730237B002B49D1237D002B76D1237F002BA2
S21400574040F0988094F83630002B40F0B88094F8FB
S2140057502830052B00F2018194F84430052B00F226
S2140057603781F92F24D8BFB2237B13FB07F3C3F38B
S21400577007232373237D13FB07F3C3F30723237544
S21400578094F8283013FB07F3C3F3072384F8283074
S21400579094F8363013FB07F3C3F3072384F8363048
S2140057A094F8443013FB07F7C7F3072784F84470D0
S2140057B0BDE8F08100232373237584F8283084F82D
S2140057C0363084F84430BDE8F0812C223146284635
S2140057D07B4B984720730528ADD9292231462846A9
S2140057E0784B98476080232231462846734B98476B
S2140057F0C0B2A07130B92022314628466F4B984778
S214005800607398E72A22314628466E4B9847A08058
S214005810212231462846DFF8A481C0472081222273
S21400582031462846C0476081E5E7302231462846A3
S214005830624B98472082002880D03C22314628467A
S2140058405F4B98472075052806D8322231462846F1
S2140058505A4B9847607571E7312231462846574BB8
S2140058609847C0B26082392231462846554B984741
S214005870E081EAE7402231462846504B984720838D
S21400588000283FF45FAF4C22314628464C4B9847E1
S2140058902077052806D8422231462846474B9847A7
S2140058A060774FE7412231462846444B984760834D
S2140058B0492231462846434B9847E082EBE76E2262
S2140058C031462846404B9847E06200283FF43FAFF9
