S01F000070726F6A6563745F6F7261636C655F746573745F70726A2E737265636F
S21400000010AE0120010F0000FD0E0000FD0E0000E6
S214000010FD0E0000FD0E0000FD0E000000000000BA
S214000020000000000000000000000000FD0E0000C0
S214000030FD0E000000000000FD0E0000FD0E00009A
S214000040FD0E0000FD0E0000FD0E0000FD0E00007F
S214000050FD0E0000FD0E0000FD0E0000FD0E00006F
S214000060FD0E0000FD0E0000FD0E0000FD0E00005F
S214000070FD0E0000FD0E0000FD0E0000FD0E00004F
S214000080FD0E0000FD0E0000FD0E0000FD0E00003F
S214000090FD0E0000FD0E0000FD0E0000FD0E00002F
S2140000A0FD0E0000FD0E0000FD0E0000FD0E00001F
S2140000B0FD0E0000FD0E0000FD0E0000FD0E00000F
S2140000C0FD0E0000FD0E0000FD0E0000FD0E0000FF
S2140000D0FD0E0000FD0E0000FD0E0000FD0E0000EF
S2140000E0FD0E0000FD0E00000000000000000000F5
S2140000F000000000F91C0000FD0E0000FD0E0000D0
S214000100FD0E0000FD0E0000FD0E0000FD0E0000BE
S214000110FD0E0000FD0E0000A9250000BD25000014
S214000120D1250000E5250000FD0E0000FD0E0000B4
S214000130FD0E0000FD0E0000FD0E0000FD0E00008E
S214000140FD0E0000FD0E0000FD0E0000FD0E00007E
S214000150FD0E0000FD0E0000FD0E0000FD0E00006E
S214000160FD0E0000FD0E0000FD0E0000FD0E00005E
S214000170FD0E0000FD0E0000FD0E0000FD0E00004E
S214000180FD0E0000FD0E0000FD0E0000FD0E00003E
S214000190FD0E0000FD0E0000FD0E0000FD0E00002E
S2140001A0FD0E0000FD0E0000FD0E0000FD0E00001E
S2140001B0FD0E0000FD0E0000FD0E0000FD0E00000E
S2140001C0FD0E0000FD0E0000FD0E0000FD0E0000FE
S2140001D0FD0E0000FD0E0000FD0E0000FD0E0000EE
S2140001E0FD0E0000FD0E0000FD0E00006D28000054
S2140001F0FD0E0000FD0E0000FD0E0000FD0E0000CE
S214000200FD0E0000FD0E0000FD0E0000FD0E0000BD
S214000210FD0E0000FD0E0000FD0E0000FD0E0000AD
S214000220FD0E0000FD0E0000FD0E0000FD0E00009D
S214000230FD0E0000FD0E0000FD0E0000FD0E00008D
S214000240FD0E0000FD0E0000FD0E0000FD0E00007D
S214000250FD0E0000FD0E0000FD0E0000FD0E00006D
S214000260FD0E000010B5054C237833B9044B13B1CE
S2140002700448AFF300800123237010BD78000020EF
S2140002800000000044B501000C4B43B10C480D497A
S21400029010B5AFF300800C48036823B910BD0A48B8
S2140002A0036833B97047094B002BF7D0BDE8104000
S2140002B01847064B002BF5D0184700BF000000007B
S2140002C044B501007C00002044B501000000000099
S2140002D070B5894D40266E61884C01232370FA2044
S2140002E0874B98476E6123781BB92B465E610122C7
S2140002F02270E22283498448844B98477E4B4022F2
S2140003009A615A617D4B1B7823B17B4B9A61002220
S2140003107A4B1A7023227B497B487C4B9847764B56
S21400032040229A615A61754B1B7823B1724B9A61D1
S2140003300022724B1A70022272497348734B984718
S2140003406D4B40229A615A616C4B1B7823B16A4B05
S2140003509A610022694B1A7004226A496A486B4BFC
S2140003609847654B40229A615A61644B1B7823B9C3
S214000370614B5A610122614B1A70E0226149624862
S214000380624B98475C4B40229A615A615B4B1B78E4
S21400039023B1594B9A610022584B1A7001225949D1
S2140003A059485A4B9847544C4025A5610120544B58
S2140003B098476561514B1B7823B923465D6101223E
S2140003C04E4B1A70E0224F494F48504B98474A4BC5
S2140003D040229A615A61494B1B7823B1464B9A6179
S2140003E00022464B1A70032246494748474B984717
S2140003F0414C4025A5610120414B984765613F4B24
S2140004001B7823B923465D6101223C4B1A700122FA
S2140004103C493D483D4B9847374C4025A561012057
S214000420374B98476561354B1B7823B923465D618A
S2140004300122324B1A70E62232493348334B984732
S2140004402D4B40229A615A612C4B1B7823B12A4BC4
S2140004509A610022294B1A7001222A492A482B4BFE
S2140004609847254B40229A615A61244B1B7823B14A
S214000470214B9A610022214B1A70332221492248CF
S214000480224B98471C4B40229A615A611B4B1B78A3
S21400049023B1194B9A610022184B1A70332219495E
S2140004A019481A4B9847144B40229A615A61134BCD
S2140004B01B7823B9104B5A610122104B1A70B022D8
S2140004C010491148114B98470B4B40229A615A61CC
S2140004D00A4B1B7823B1084B9A610022074B1A700F
S2140004E0202208490848094B9847034B40229A6146
S2140004F05A61024B1B780BE0008000410000002090
S21400050009150000F7C3031C80800041990F000006
S21400051023B1894B9A610022884B1A7000228849C1
S2140005208848894B9847844C4025A561874B984757
S214000530874B9847421E12126561804B1B7823B189
S21400054023469D6100217D4B1970D2B27C497D48BF
S2140005507D4B9847784C4025A5617C4B98477C4B53
S2140005609847421ED2B26561744B1B7823B123466E
S2140005709D610021714B197071497248724B984702
S2140005806D4C4025A561714B9847724B9847421EAB
S21400059012126561694B1B7823B123469D610021C9
S2140005A0664B1970D2B266496648674B9847624CEC
S2140005B04025A561654B9847664B9847421ED2B2C8
S2140005C065615E4B1B7823B123469D6100215B4B22
S2140005D019705B495B485C4B9847574B40229A61C1
S2140005E05A61564B1B7823B1534B9A610022534BEA
S2140005F01A70002252495348534B98474E4C402598
S214000600A5610120544B984765614C4B1B7823B974
S21400061023465D610122494B1A70B4224849494875
S214000620494B9847444B40229A615A61434B1B788A
S21400063023B1414B9A610022404B1A700222404976
S2140006404048414B98473C4B40229A615A613B4B8D
S2140006501B7823B1384B9A610022384B1A700D2252
S21400066037493848384B9847334B40229A615A618D
S214000670324B1B7823B1304B9A6100222F4B1A70F5
S21400068000222F492F48304B98472B4B40229A6127
S2140006905A612A4B1B7823B1274B9A610022274BBD
S2140006A01A70282226492748274B9847224B402273
S2140006B09A615A61214B1B7823B11F4B9A61002225
S2140006C01E4B1A70E0221E491E481F4B98471A4BB5
S2140006D040229A615A61194B1B7823B1164B9A61D6
S2140006E00022164B1A70002215491648164B9847DA
S2140006F0114B40229A615A61104B1B7823B10E4B66
S2140007009A6100220D4B1A7005220D490D480E4BBA
S2140007109847094B40229A615A61084B1B7823B1CF
S214000720054B9A610022054B1A70002204490548C1
S214000730054B984712E000BF0080004100000020F3
S214000740F7C3031C80800041990F000025010100BB
S214000750310101005901010009150000864B4022B5
S2140007609A615A61854B1B7823B9834B5A610122E3
S214000770824B1A70B62282498248834B98477E4B3A
S21400078040229A615A617D4B1B7823B17A4B9A615D
S21400079000227A4B1A70012279497A487A4B984798
S2140007A0754B40229A615A61744B1B7823B1724B89
S2140007B09A610022714B1A70202271497148724B5F
S2140007C098476D4B40229A615A616C4B1B7823B157
S2140007D0694B9A610022694B1A7000226849694881
S2140007E0694B9847644B40229A615A61634B1B7869
S2140007F023B1614B9A610022604B1A70082260494F
S2140008006048614B98475C4B40229A615A615B4B4B
S2140008101B7823B1584B9A610022584B1A7010224D
S21400082057495848584B9847534B40229A615A614B
S214000830524B1B7823B1504B9A6100224F4B1A70D3
S21400084000224F494F48504B98474B4B40229A61E5
S2140008505A614A4B1B7823B1474B9A610022474B9B
S2140008601A70082246494748474B9847424B402251
S2140008709A615A61414B1B7823B93F4B5A6101225A
S2140008803E4B1A70B8223E493E483F4B98473A4B7B
S21400089040229A615A61394B1B7823B1364B9A61D4
S2140008A00022364B1A700F2235493648364B984789
S2140008B0314B40229A615A61304B1B7823B12E4B44
S2140008C09A6100222D4B1A7001222D492D482E4B7D
S2140008D09847294B40229A615A61284B1B7823B9C6
S2140008E0254B5A610122254B1A70BA222449254805
S2140008F0254B9847204B40229A615A611F4B1B7824
S21400090023B11D4B9A6100221C4B1A7001221C4910
S2140009101C481D4B9847184B40229A615A61174B4A
S2140009201B7823B9144B5A610122144B1A703622D5
S21400093013491448144B98470F4B40229A615A614A
S2140009400E4B1B7823B10C4B9A6100220B4B1A708E
S21400095008220B490B480C4B9847074B40229A61DC
S2140009605A61064B1B7823B9034B5A610122034B8D
S2140009701A703A22024909E0008000410000002077
S214000980F7C3031C80800041990F00008648874B00
S2140009909847874B40229A615A61864B1B7823B151
S2140009A0834B9A610022834B1A70502282497E48FC
S2140009B07E4B98477E4B40229A615A617D4B1B784E
S2140009C023B97B4B5A6101227A4B1A70F0227A497E
S2140009D07548764B9847764B40229A615A61754B1C
S2140009E01B7823B1724B9A610022724B1A70032255
S2140009F071496D486D4B98476D4B40229A615A611C
S214000A006C4B1B7823B96A4B5A610122694B1A70EA
S214000A10BC2269496448654B9847654B40229A61F9
S214000A205A61644B1B7823B1614B9A610022614B7B
S214000A301A70402260495C485C4B98475C4B4022E9
S214000A409A615A615B4B1B7823B1594B9A6100221D
S214000A50584B1A70802258495348544B9847544B69
S214000A6040229A615A61534B1B7823B1504B9A61CE
S214000A700022504B1A7040224F494B484B4B984728
S214000A804B4B40229A615A614A4B1B7823B1484B24
S214000A909A610022474B1A70012247494248434B4D
S214000AA09847434C4025A5610120444B9847656113
S214000AB0404B1B7823B923465D6101223D4B1A70DB
S214000AC029223D493848394B9847394B40229A618C
S214000AD05A61384B1B7823B9354B5A610122354B86
S214000AE01A70BE2234493048304B9847304B40226B
S214000AF09A615A612F4B1B7823B12D4B9A610022C5
S214000B002C4B1A7006222C492748284B9847284B0E
S214000B1040229A615A61274B1B7823B1244B9A6175
S214000B200022244B1A70802223491F481F4B9847E7
S214000B301F4B40229A615A611E4B1B7823B11C4BF7
S214000B409A6100221B4B1A7001221B491648174B4C
S214000B509847174B40229A615A61164B1B7823B16F
S214000B60134B9A610022134B1A70F02212490E485A
S214000B700E4B98470E4B40229A615A610D4B1B78DC
S214000B8023B10B4B9A6100220A4B1A7000220A49C5
S214000B900548064B9847064B40229A615A61054B1A
S214000BA01B7893B10CE000BF80800041990F0000D5
S214000BB00080004100000020F7C3031C0915000058
S214000BC0194B9A610022194B1A70002218491948CD
S214000BD0194B9847144B40229A615A61134B1B7865
S214000BE023B9114B5A610122104B1A70D0221049BA
S214000BF01048114B98470C4B40229A615A610B4B98
S214000C001B7823B1084B9A610022084B1A700D22FC
S214000C1007490848084B98474022034B9A611E2014
S214000C20064B984770BD00BF0080004100000020C2
S214000C30F7C3031C80800041990F000009150000CF
S214000C402DE9F84FB1F90430002B0FDB81468A46B8
S214000C501546B1F90630002B08DBB1F90040934B7E
S214000C609847934B98470138844201DDBDE8F88FDA
S214000C70BAF902408D4B98478E4B9847013884420C
S214000C80F4DCBAF9006026EAE676BAF9024024EA0D
S214000C90E474A346BAF90470844B9847844B98478B
S214000CA00138874200F31681BAF90470BAF9068053
S214000CB07E4B98477F4B98470138804500F310815C
S214000CC0BAF9068040227C4B5A617C4B1B7823B9CC
S214000CD0794B5A610122794B1A702A227849794851
S214000CE0794B9847744B4021996132125961734B86
S214000CF01B7823B1704B99610021704B1970D2B2EA
S214000D006F497048704B98476B4B40219961F2B21F
S214000D1059616A4B1B7823B1674B99610021674B79
S214000D20197067496748684B9847634B402199613B
S214000D303A125961614B1B7823B15F4B99610021D0
S214000D405E4B1970D2B25E495E485F4B98475A4B6D
S214000D5040229A615A61594B1B7823B1564B9A61CF
S214000D600022564B1A70FAB255495648564B9847C9
S214000D70514B40229A615A61504B1B7823B94E4B17
S214000D805A6101224D4B1A702B224D494D484E4B4D
S214000D909847494B402199614FEA2B225961474BAE
S214000DA01B7823B1444B99610021444B1970D2B291
S214000DB043494448444B98473F4B40219961E2B22F
S214000DC059613E4B1B7823B13B4B996100213B4B4D
S214000DD019703B493B483C4B9847374B402199613B
S214000DE04FEA28225961354B1B7823B1324B996163
S214000DF00021324B1970D2B231493248324B9847F3
S214000E002D4B40229A615A612C4B1B7823B12A4BFA
S214000E109A610022294B1A705FFA88F228492948FD
S214000E20294B9847244B40229A615A61234B1B78E2
S214000E3023B9214B5A610122204B1A702C222049DB
S214000E402048214B984740221B4B9A61BAF8043041
S214000E500133BAF800209B1A9BB2184A12782AB1BE
S214000E604021154A91610021144A11704021124A0E
S214000E705161C6F101063E44B6B2D8450EDB5F00AE
S214000E80DFF83CB0DFF848A033462A4659460D48FE
S214000E90D0473D44013424B2A045F5DA4022064B43
S214000EA09A614846094B9847E0E600BF25010100D5
S214000EB031010100590101000080004100000020BE
S214000EC0F7C3031C80800041990F0000F101010068
S214000ED0C50F0000064B9847064B9847471EE5E6A9
S214000EE0034B9847044B984700F1FF38EAE600BFEB
S214000EF0250101003101010059010100FEE7000053
S214000F0008B51C4B1C4A9A4210D01C4B194A9A42F0
S214000F100CD2013B9B1A23F00303043313441649F7
S214000F2051F8040B42F8040B9A42F9D1144B154AB7
S214000F309A420AD2013B9B1A23F00303043313445C
S214000F40002142F8041B9342FBD10F4B0F4A22F0BC
S214000F507F029A60D3F8882042F47002C3F8882093
S214000F60BFF34F8FBFF36F8F094B9847094B9847D6
S214000F70FEE700BF0000002044B50100740000201A
S214000F800CAE00207800002000ED00E0000000001D
S214000F90057401008D28000070B501EA0203836124
S214000FA021EA02014161054D80266E610120044C54
S214000FB0A047AE610120A04770BD00BF0080004181
S214000FC0E91400008BB12DE9F8431D4690460F4604
S214000FD006460024DFF81490424639463046C84795
S214000FE00134AC42F8D1BDE8F8837047990F000091
S214000FF02DE9F04F83B08B4600924001C3B20193B7
S2140010000026DFF8949165E009EBC7135D60AAB28D
S21400101042F080429A622A0C42F040429A62009B5A
S2140010201B78012B77D023B3022B00F08480892213
S21400103057490020574B984724E009EBC7125560E4
S214001040ABB243F0804343F4003393622B0C43F07F
S214001050404343F400339362E1E709EBC7139D6016
S214001060AAB242F080429A622A0C42F040429A6249
S214001070D5E709EBC713434493F8402002F0FB0280
S21400108083F84020009B5A686409B2F1FF3F62D0A3
S214001090E4B209EBC411414491F8403003F0FE037A
S2140010A043F0010381F840301AF0010F5ED109EBDE
S2140010B0C41404EB580898F8303003F0F00302F03C
S2140010C00F021A4388F8302009EBC7177D610136F6
S2140010D0202E59D0F4B22BFA06F313F0010FF6D0F7
S2140010E004F01F04019B1C445FFA84FA4FEA5A1767
S2140010F00AF01F08012505FA08F5009B5B78012B0E
S2140011009BD0002B80D0022BA7D04622204900205F
S214001110204B984783E7012303FA08F309EBC7122D
S214001120536002EB080090F8401041F0040180F88C
S21400113040109361A6E7012303FA08F309EBC712F0
S214001140536002EB080090F8401041F0040180F86C
S2140011504010536196E7E4B209EBC414A04498F833
S214001160403003F0FE0388F84030ADE709EBC414C6
S21400117004EB580898F8303003F00F0343EA0212E5
S214001180D2B288F830209FE703B0BDE8F08F00BFEA
S214001190A07401005D1A00000080004170B582B0A6
S2140011A00023009302238DF801304FF0FF330193A4
S2140011B06A4642490120424B9847424B40229A6079
S2140011C0414D9D624FF0404199625A6093F8460047
S2140011D040F0040083F846009A6193F8460000F059
S2140011E0FE0083F8460010269E6038489862996292
S2140011F093F8440000F0FB0083F8440093F84400A2
S21400120000F0FE0083F8440008249C603048986292
S21400121099625C6093F8430040F0040083F8430052
S2140012209C6193F8430000F0FE0083F843009A6048
S2140012309D6299625A6093F8460040F0040083F875
S21400124046009A6193F8460000F0FE0083F84600D8
S2140012508020986040359D629962586093F84710E8
S21400126041F0040183F84710986193F8471001F0A5
S214001270FE0183F847104FF48071C3F8841105F51A
S21400128000358035C3F8A851124DC3F8A851C3F8ED
S214001290841193F8C85145F0040583F8C851C3F883
S2140012A0941193F8C81101F0FE0183F8C8119A61F1
S2140012B09E619C619A61986102B070BDF7C3031C81
S2140012C0F10F000000800041400000401000004088
S2140012D008000040000002C008B51F4B4022C3F8BB
S2140012E0E0204322C3F88C201C4A936943F48063B1
S2140012F093611B491B481C4B98471C4B93F8562080
S21400130002F0FB0283F8562093F8562002F0FE0205
S21400131042F0010283F8562093F83B2002F0F002D8
S21400132042F0020283F83B2093F8572002F0FB02BB
S21400133083F8572093F8572002F0FE0242F001028D
S21400134083F8572093F83B2002F00F0242F0200269
S21400135083F83B2008BD00BF001C0040000800408A
S21400136000400141F8AB00208915000000800041D4
S21400137008B50649D1E90023013243F10003C1E96B
S21400138000230120024B984708BD00BF98000020AC
S2140013908902010010B51148114B9847114A53694C
S2140013A043F48043536140220F4BC3F8A4200F4BF5
S2140013B098470F4C02460F4920460F4B98470F4957
S2140013C001230B610E4A4A610B76083120460D4B0D
S2140013D0984720460C4B984710BD00BF10E000E031
S2140013E0D514000000080040001C0040272800001C
S2140013F018AC002000380040D116000098000020ED
S21400140071130000491700000D17000030B583B0B7
S2140014101F4B4022C3F8DC204322C3F88C201D4A11
S214001420936943F4007393611B4C002300931023CD
S2140014301A4A1B4920461B4DA8471B4B93F8D82039
S21400144002F0FE0242F0010283F8D82093F8BC2096
S21400145002F0F00242F0030283F8BC2093F8D92091
S21400146002F0FE0242F0010283F8D92093F8BC2075
S21400147002F00F0242F0300283F8BC2020460B4BED
S21400148098470C220A4920460A4B984703B030BDBD
S214001490001C00400008004034AC0020B4000020CF
S2140014A000200141A119000000800041311A00000F
S2140014B004000020C9150000EFF31083036072B625
S2140014C0BFF35F8F7047BFF35F8F036883F31088A7
S2140014D07047000008B5024B1860024B984708BDDD
S2140014E0C4000020111C000010B5044B1C68044BFF
S2140014F0984701462046034B984710BDC40000207D
S214001500D91B0000191C000010B5044B1C68044BC6
S214001510984701462046034B984710BDC40000205C
S214001520F11B0000191C000010B584B01446038996
S214001530ADF8043002924FF40043ADF80630039144
S21400154001A91438034B9847002808BF204604B06A
S21400155010BD00BF8D20000010B584B0144603896E
S214001560ADF80430029248F20103ADF8063003915C
S21400157001A91438034B9847002808BF204604B03A
S21400158010BD00BF8D20000038B50D4604465E2213
S2140015900849003018BF0120074B984729462046C7
S2140015A0064B9847034618B9054AA261054A626188
S2140015B0184638BDBC7401005D1A00005D200000AE
S2140015C0591500002915000070B50D46164604464C
S2140015D060B1081C18BF012034220549054B984706
S2140015E02368324629462046984770BD0020F3E718
S2140015F0D87401005D1A0000F8B5844607682FB15C
S2140016008D683C460026C2F1010E0BE00E4B984753
S214001610F8BD7344A0680344AB420AD2236826464A
S21400162053B11C4663689342F3D8A06803449B1AE0
S214001630F2E7A74204D034462046044B9847F8BD4C
S2140016406046014B9847F8BD851A0000B11A0000A5
S2140016502DE9F0474469076901370761037E13F0F7
S214001660010F13D1037E13F0020F0FD154B363683A
S214001670FB1AA268934207D3064600F11408DFF867
S2140016804890DFF848A012E0BDE8F087037E43F0FC
S21400169002030376BDE8F0877569E368204698473D
S2140016A085B12C466B68FB1AAA6893420AD340465B
S2140016B0C847237C012BEFD167603A462146404657
S2140016C0D047E9E7BDE8F087B91A0000F915000031
S2140016D038B50D46044678B1081C18BF01203B22D9
S2140016E00649074B984729462046064B9847002050
S2140016F02061054B236038BD0020F0E7EC74010044
S2140017005D1A0000592600005116000010B5044668
S21400171053220949003018BF0120084B984720463D
S214001720074B984720B92046064B9847002010BD27
S2140017306FF0100010BD00BFEC7401005D1A0000D1
S214001740152800000128000070B582B00D4604463A
S21400175018B3081C18BF01207A221E491E4B984752
S214001760237E43F00103237604F11406294630460F
S2140017701A4B984798B923696B6022692946304608
S214001780174B9847237E03F0FE032376237E13F041
S214001790020F10D1002002B070BD0020DCE7237ECF
S2140017A003F0FE0323767F220A4900200A4B98475F
S2140017B06FF01100EFE701A80A4B9847237E03F06D
S2140017C0FD0323762046084B984701A8074B984709
S2140017D00020E0E7EC7401005D1A0000631A0000C8
S2140017E0F9150000B91400002D280000C7140000E9
S2140017F008B500238362C3691BB1A0F10802104636
S214001800984708BD08B500238362436A1BB1A0F160
S21400181008021046984708BD38B50446A0F10805EA
S2140018202C30034B9847236A0BB12846984738BD9F
S214001830591B000070B50E4615460446E0B1E9B1E6
S214001840101C18BF012040F23B120F490F4B98475F
S214001850B4F84420B4F84C309A4211D1A664A4F8E7
S2140018604C500023A4F844300123236304F10800FD
S214001870074B9847284670BD0020E4E70020E2E7C3
S2140018806FF01B0070BD00BF047501005D1A0000FC
S2140018904B20000010B50446838FB0F844209A42CF
S2140018A009D0026C591C8187D15C044B98472046AE
S2140018B0034B984710BD034B984710BD45200000CA
S2140018C04B200000532000002DE9F04782B00F4661
S2140018D090460646A0B199B1002A2DD14FF4AC72BD
S2140018E029490020294B984701A8294B984706F11B
S2140018F03400284B984701A8274B984700253EE020
S2140019004FF4AC7220490020204B984701A8204B8A
S214001910984706F1340A50461E4B9847814601A860
S2140019201D4B9847B9F1000F04D0B8F1000F19D13C
S214001930002524E0002522E04FF4AC721249012075
S214001940124B984701A8124B984706F1340A5046A6
S214001950104B9847814601A80F4B98470025B9F1D0
S214001960000F0CD000240D4E601C85B2391950466D
S214001970B04701344C4502D2A3B29845F4D8284665
S21400198002B0BDE8F08700BF047501005D1A0000D4
S214001990B9140000991B0000C7140000151B0000B6
S2140019A0F8B50D4616461F46044620B329B332B393
S2140019B0181C18BF01203A221349144B98473A4680
S2140019C0314604F13400124B9847D0B9294604F149
S2140019D00800104B9847034658B90F4A62600F4AF2
S2140019E022600F4AA2600F4AE2600F4A22610F4A45
S2140019F062611846F8BD0020DDE70020DBE7002026
S214001A00D9E76FF00C03F4E7047501005D1A0000D7
S214001A10C51A0000AD1F0000C918000035180000E8
S214001A209518000019180000F117000005180000AE
S214001A3010B5044661220649003018BF0120054B48
S214001A40984704F10800044B9847002010BD00BFDB
S214001A50047501005D1A00003120000000B900BEC8
S214001A60704703684BB18B4209D01B681BB1994283
S214001A70FBD10120704700207047002070470120EE
S214001A807047000038B504460D46064B984780F070
S214001A90010039220449C0B2044B984723682B60E2
S214001AA0256038BD631A0000247501005D1A000029
S214001AB003680B600160704703680BB11A68026028
S214001AC01846704770B50E461546044678B181B183
S214001AD0A2B1012028220D490D4B98476B1E1D42CE
S214001AE009D163600020A060E060266070BD002021
S214001AF0F0E70020EEE76FF00C0070BD28220349E7
S214001B000020034B98476B1EEBE700BF44750100AF
S214001B105D1A000038B50D460446A0B1081C18BF73
S214001B20012040220A490B4B9847A368E2689A4274
S214001B300BD0626813402268D35C2B70A368013315
S214001B40A360002038BD0020EBE76FF0090038BD29
S214001B50447501005D1A000038B50D460446512252
S214001B600B49003018BF01200A4B9847E3686268AB
S214001B7013402268D554E3686168A2689A1A8A42BC
S214001B8084BF591AA1600133E360002038BD00BF4E
S214001B90447501005D1A000010B504466722054929
S214001BA0003018BF0120044B9847E068A368C01AAD
S214001BB010BD00BF447501005D1A0000430900F027
S214001BC01F00012202FA00F04033024A42F82300C6
S214001BD0704700BF00E100E0C0EBC00000EB001063
S214001BE00230024BA3FB003040087047ABAAAAAAFB
S214001BF0C0EBC00000EB00100230044BA3FB00302B
S214001C0040084FF47A7303FB00F07047ABAAAAAA09
S214001C1070470000000000000139FDD8704700BF83
S214001C2008B5094A13889BB243F4A0631380074B98
S214001C309847074B9847074B9847074B984740F6F7
S214001C40FF70064B984708BD00400041911C0000FD
S214001C50B11C0000851C0000B51C0000611C0000C3
S214001C6010F0010F08D0054A054B1A62194643F6D4
S214001C70FD724B681342FCD1704700BF070101009C
S214001C80001C00400122014B5A71704700080040BA
S214001C90064B42F28E329A8200229A75DA75DA691B
S214001CA002F47C52DA6101221A7470470014004074
S214001CB0704700000E4A0F4B5A631A46D36B13F058
S214001CC0060FFBD10B4B4FF402629A63022283F895
S214001CD030201A46D36B13F0020FFBD1054B1A6C5B
S214001CE012F0010F03D11A6C12F0020FF7D07047F2
S214001CF04D0E01000010004000B583B00D4B9B78E0
S214001D00DBB20193019B13F0020F06D00A4B1B684F
S214001D101BB1084A5068984709E0019B13F0010F71
S214001D2005D0054B5B6813B1024A5068984703B06C
S214001D305DF804FB0000024184AC002070B489B05A
S214001D4006466C460D4D0FCD0FC495E80F0084E88F
S214001D500F00009BB3420DD0314601AB012053F873
S214001D60042B8A4207D001300828F8D1002009B099
S214001D7070BC70470020C0B2F9E700BF687501006C
S214001D8010B58469237E13F0010F03D0A37D13F0F2
S214001D90010F12D1237E13F0020F03D0A37D13F0A0
S214001DA0020F0FD1237E13F0040F15D0638B03F0C0
S214001DB0370363B1FF23638310BD012323750368D4
S214001DC0984710BD022323758368984710BDA16A03
S214001DD04368C9B2984710BD237EDB0900D110BD09
S214001DE080232376C3689847638B9BB26383F6E7AA
S214001DF008B5034B984780002E3000F0FE0008BD63
S214001E003D1D000010B50446214B9847022805D01A
S214001E1040F26B221F4900201F4B9847E36913F0DE
S214001E20010F19D1E36913F0030FFBD1236813F0F8
S214001E30020F0BD0236823F002032360E36913F03C
S214001E40030FFBD1E36913F0020FFBD105232360D8
S214001E50E36913F0030FFBD1E36913F0010FFBD125
S214001E600E4B2360E36913F0030FFBD14FF44033AE
S214001E706360E36913F01F0FFBD1094BA3604FF6B5
S214001E801143A3810020A07384F8300010BD00BF6A
S214001E903D1D0000A07501005D1A00000400104002
S214001EA00200700008B5074B9847032808D040F298
S214001EB0CE3205490020054B98474FF0FF3008BD4D
S214001EC0002008BD3D1D0000A07501005D1A000041
S214001ED038B505460C460846324B9847C0B2E3690B
S214001EE013F0010F22D100EB40032F4A02EBC3038D
S214001EF05A6A02F01C02E36913F0030FFBD1236851
S214001F0013F0020F0BD0236823F002032360E3696B
S214001F1013F0030FFBD1E36913F0020FFBD142F07D
S214001F2001022260E36913F0030FFBD1E36913F0AB
S214001F30010FFBD100EB40031B4A02EBC3035A6AB6
S214001F402260E36913F0030FFBD100EB4003164950
S214001F5001EBC3039B6A6360E36913F0040FFBD1D4
S214001F6000EB4003104901EBC303DB6AE360C2F3F6
S214001F700163AB81626A22F48042012B94BF002386
S214001F80012342EA83336362E36913F0040FFBD153
S214001F9000EB4000044B03EBC000438EEB810020B7
S214001FA038BD00BFA51E00006875010070B50D465F
S214001FB00646CB221849003018BF0120174B984719
S214001FC02846174B9847044608B1204670BDB561B1
S214001FD0144B9D4204BF144B1E602846134B984773
S214001FE0011DC9B2012500F01F0205FA02F24309DD
S214001FF09B0003F1604303F56143C3F88020BFF301
S2140020004F8FBFF36F8FC3F880211A600130C0B2C4
S2140020108142E8D1D9E700BFA07501005D1A000033
S214002020051E000000200141C8000020F11D000030
S2140020308269136843F002031360D36913F0030F39
S214002040FBD17047836999627047836901229A754C
S2140020507047836902229A757047000038B50D46AE
S21400206004464FF4A8620649003018BF0120054B0D
S2140020709847256129462046034B984738BD00BF40
S214002080A07501005D1A0000D11E00002DE9F8437E
S21400209005460E46046910F1000818BF4FF0010807
S2140020A0DFF8C4924FF4BF6249464046AD4FB8478A
S2140020B0286940F2F9524946003018BF0120B84757
S2140020C040F2FA524946301C18BF0120B8476B88C8
S2140020D013F4807F40F0188273889BB243F48073B9
S2140020E0738096E8070085E80700636843F480730A
S2140020F06360E36913F0040FFBD12F69D7F80090F3
S21400210040F2CD5298494046964B98476B68012B53
S2140021105ED07B6823F480237B60FB6913F0040F9A
S214002120FBD12B8813F4806F5ED06A8812F0010F03
S21400213004D06A8892B242F480626A8040F2FE72EC
S21400214002EA4302FB6913F0040FFBD17B6A03F437
S214002150804343F4004313437B62FB6913F0040F90
S214002160FBD129690B7EDBB24FF6FF7213F0030F2B
S21400217003D10B7EDBB2013AF8D13968FA6912F066
S214002180040FFBD17A8B92B213F0010F00F0A380FC
S21400219012F0020F3CD001233B766B889BB243F4CF
S2140021A080536B806B8823F480731B041B0C6B803E
S2140021B002F00102002A14BF6FF004006FF0030063
S2140021C06B8823F480731B041B0C6B80BDE8F883BC
S2140021D019F0006F9DD07B6843F480237B60FB6919
S2140021E013F0040FFBD19CE769885A00D2B201F0C5
S2140021F001031A43FB6913F0040FFBD17B6A03F457
S21400220080431A437A62FB6913F0040FFBD1A8E7F8
S21400221012F0040F1DD16B8813F4806F37D02B8813
S214002220DB0903F00602FB6913F0040FFBD17B6A9F
S21400223003F4804343F0F10313437B62FB6913F01E
S214002240040FFBD16B8823F480631B041B0C6B808C
S21400225069E06B68002B04DD6B889BB243F4805307
S2140022606B806B8813F4004F08D16B8823F480735F
S2140022701B041B0C6B806FF00100A1E77B6843F426
S21400228040337B60FB6913F0040FFBD1EDE76B680E
S2140022909BB96B8813F4004F06D16B8823F48073C8
S2140022A01B041B0C6B803EE07B6843F440337B6072
S2140022B0FB6913F0040FFBD1EFE7AB681B78BB623A
S2140022C0FB6913F0040FFBD1AB680133AB606B689E
S2140022D0013B6B6027E013F0020F24D06B68002BE5
S2140022E03AD012F0040F37D1C1F3C061013B6B60E6
S2140022F0002B40F00D81002900F010816B8813F44C
S214002300004F18D16B8823F480731B041B0C6B8062
S214002310AA68531CAB60FB6913F0040FFBD1BB6AC1
S214002320137002233B760022104602276FF0010C42
S2140023304FF0010EB0E07B6823F480737B60FB698E
S21400234013F0040FFBD17B6843F440337B60FB69DA
S21400235013F0040FFBD1D5E702233B766FF00100A4
S2140023602EE700BF5D1A0000A0750100636843F405
S21400237040336360E36913F0040FFBD1A1E012F071
S214002380040F1ED16B8813F4806F37D02B88DB09BF
S21400239003F00602E36913F0040FFBD1636A03F44B
S2140023A0804343F0F10313436362E36913F0040FC1
S2140023B0FBD16B8823F480631B041B0C6B800246E6
S2140023C06AE06B68002B04DD6B889BB243F4805395
S2140023D06B806B8813F4004F07D16B8823F48073EF
S2140023E01B041B0C6B80624656E0636843F4403364
S2140023F06360E36913F0040FFBD1EEE76B68A3B9E3
S2140024006B8813F4004F07D16B8823F480731B048A
S2140024101B0C6B8002463FE0636843F44033636006
S214002420E36913F0040FFBD1EEE7AB681B78A362F9
S214002430E36913F0040FFBD1AB680133AB606B6844
S214002440013B6B60024627E013F0020F57D06B6823
S214002450002B51D012F0040F4ED1C1F3C061013BE6
S2140024606B60002B40F08C80002900F08F806B881A
S21400247013F4004F2FD16B8823F480731B041B0CBE
S2140024806B80AA68531CAB60E36913F0040FFBD1A2
S214002490A36A1370277602466B8813F4807F30D0C9
S2140024A029690B7EDBB24FF6FF7213F0030F42D1A1
S2140024B00B7EDBB2013AF8D1738813F4004F7FF439
S2140024C055AF6B8823F480731B041B0C6B806FF076
S2140024D00400BDE8F883636823F480736360E369EF
S2140024E013F0040FFBD1636843F440336360E36981
S2140024F013F0040FFBD1BEE727766246CCE7024610
S214002500CAE71046BDE8F8836FF00500BDE8F8831B
S214002510012B7FF4FDAE00293FF4FAAE7B6843F44E
S21400252080237B60FB6913F0040FFBD16B68002BE4
S2140025303FF4E4AEECE62168E26912F0040FFBD14A
S214002540628B92B213F0010F3FF47EAF12F0020FCF
S2140025503FF415AF84F818E06B889BB243F48053C1
S2140025606B806B8823F480731B041B0C6B8002F05B
S2140025700102002A14BF6FF004026FF003028BE71B
S214002580012B7FF47EAF00293FF47BAF636843F4F2
S21400259080236360E36913F0040FFBD16B68002BA4
S2140025A03FF465AF6DE700BF08B5024B1868024BF5
S2140025B0984708BDC8000020811D000008B5024BE2
S2140025C01868024B984708BDC8000020811D00000F
S2140025D008B5024B1868024B984708BDC800002093
S2140025E0811D000008B5024B1868024B984708BDCD
S2140025F0C8000020811D000070B588B006466C46F5
S214002600124D0FCD0FC495E80F0084E80F00009B15
S214002610B3420BD0304601AA012352F8041B814274
S21400262005D00133082BF8D100200BE0002313F06F
S214002630FF0F09D04FF49E7205490020054B9847BE
S2140026404FF0FF3008B070BD0020FBE7BC750100FE
S214002650F07501005D1A000070B506460C46084687
S214002660604B98470546F4608D225F4901205F4B1A
S2140026709847236913F0010F19D1236913F0030F4C
S214002680FBD1236813F0020F0BD0236823F002035C
S2140026902360236913F0030FFBD1236913F0020FA5
S2140026A0FBD101232360236913F0030FFBD12369B9
S2140026B013F0010FFBD105EB85034D4A02EB8303B4
S2140026C05A6A2260236913F0030FFBD105EB8503DA
S2140026D0474901EB830393F82A10E1731B8DE380CF
S2140026E00123237302F00C02082A48D0002A58D18E
S2140026F005EB85033E4A02EB83039B8DA383236988
S21400270013F0C00FFBD10023E383236913F0C00F3F
S214002710FBD101236372374B9C4204BF364B1E60CD
S21400272005EB8503324A02EB8303B3F92230002B14
S21400273023DB5A0903F01F03012101FA03F32032B9
S2140027402E4941F82230BFF34F8FBFF36F8F05EB52
S2140027508505274B03EB8505B5F92230002B0CDBEE
S214002760590903F01F03012202FA03F3234A01F179
S214002770600042F8203042F82130002070BD05EBA2
S21400278085031B4A02EB8303DB6AE361236913F0CC
S214002790C00FFBD100232362236913F0C00FFBD1C7
S2140027A0B7E7042AB5D105EB8503114A02EB83038C
S2140027B093F82C302377236913F0C00FFBD1002346
S2140027C06377236913F0C00FFBD105EB8503084A36
S2140027D002EB830393F82B30E376236913F0200F84
S2140027E0FBD196E7F9250000F07501005D1A0000A0
S2140027F0BC75010000380040CC00002000E100E07D
S214002800C268136843F002031360136913F0030FE2
S214002810FBD17047C268136913F0030FFBD1106831
S214002820C0F34000704700207047000010B5C06835
S214002830094B9847044640F20F1208490120084BFE
S214002840984704EB8404074B03EB840494F82200B7
S214002850054B984710BD00BFF9250000F075010034
S2140028605D1A0000BC750100BD1B000008B5064BD4
S2140028701868C3689A7A12F0010F00D108BD0122C9
S2140028809A7203689847F9E7CC00002008B5024B17
S2140028909847024CA047FDE7A12800001D2900002C
S2140028A030B58DB0104B9847104B9847104B984753
S2140028B0104B9847104B9847104B9847104C4FF4C6
S2140028C0965300220F4920460F4DA84701A80F4BEC
S2140028D098470F4B0493029401A80E4B98470E4B53
S2140028E098470DB030BD00BF211C00000D1400003D
S2140028F0D91200009D11000095130000D1020000BF
S21400290050260020D0000020E1FF000081FF0000DC
S214002910410C000001000100DD2C00007047003073
S21400292018BF01207047000010B5C0B00446064B23
S2140029309847E52801D940B010BD024621466846B2
S214002940024B9847F7E700BF8F7401006917010034
S21400295008B5034608B1D86B08BD034B9847034635
S2140029600028F8D1002008BD2501010008B503465F
S21400297008B1186C08BD034B984703460028F8D1E9
S214002980002008BD2501010008B5034608B1586CB3
S21400299008BD034B984703460028F8D1002008BD21
S2140029A025010100A0B138B503460024094D93F86F
S2140029B0342002F02002002A18BF1C461846A847FA
S2140029C003460028F3D114B12046034B984738BD80
S2140029D0704700BF012F0000813400002DE9F84F3A
S2140029E0037D13F0010F2AD117468A460646C468AF
S2140029F04FF001090025DFF8C480AB464AE0337D7E
S214002A0013F0100F00D1D5B9B9F1000F17D030462A
S214002A10D0470446002D35D0D94646E0F368A34299
S214002A200DD093B11868C369002217219847F36840
S214002A3000220E2118681E4B9847012801D0BDE8D9
S214002A40F88FF36818681B4B9847F4602068C369D2
S214002A50002216219847F36800220D211868144BAF
S214002A6098470128EBD1F3681868134B9847F3682A
S214002A701868104B98473369002BE0D030469847CB
S214002A80BDE8F88F0028DAD00546D9462068C0474A
S214002A900028C3D0002CB2D0002D08BF2546214602
S214002AA03046B8470446A842C9D0002CEED1F1E71C
S214002AB07D2E000009340000A5290000C932000060
S214002AC008B518210148024B984708BDF4AD002010
S214002AD09D10010008B5024A0249034B984708BDFD
S214002AE0611101004D110100DD29000008B5024A00
S214002AF00249034B984708BD8D110100571101008C
S214002B00DD29000038B50446037DC3F3001543F005
S214002B101003037513F0080F0CBF044B044B9847C3
S214002B20237D65F30413237538BD00BFD52A000046
S214002B30ED2A0000002836D0F8B505460C460746B4
S214002B40194B9847014658B103689C4207D0174E68
S214002B503846B047014618B10B68A342F8D1F8BD15
S214002B60A36B33B12046124B984710B1A06B114BA4
S214002B709847A5632846104B984706460F4B98473C
S214002B8058B1002EEBD034602846074B9847864253
S214002B90E5D12846074B9847E1E732460023084828
S214002BA008498847FEE770474D1101006111010092
S214002BB095490000052B0000011101001F290000A7
S214002BC0047601002929000018B1C3681BB11868F3
S214002BD07047002070470020704718B1007DC0F392
S214002BE04000704700207047014B5868704700BF90
S214002BF074260020F8B5B0B1034690F8502042F095
S214002C00020280F85020184A5268904204D039B127
S214002C10DA6B914204D0F8BD0020134A1060F6E744
S214002C200022DA63F8BD0C460020104B9847034696
S214002C300028F0D00C4D00270C4E05E0DF63184648
S214002C40B04703460028E6D093F8502042F0020230
S214002C5083F850206A689A4208BF2F60002CEDD097
S214002C60DA6B9442EBD1E9E7742600206502010096
S214002C7008B500210846014B984708BDF52B000013
S214002C802DE9F0478946904600F1040A5046114B5C
S214002C909847E0B104461FFA89F61FFA88F50E4FEA
S214002CA0238A33442382638A2B446382A38A334471
S214002CB0A382E38A2B44E382424649462046FFF736
S214002CC0DFFF21465046B84704460028E8D1BDE855
S214002CD0F08700BF4D110100611101001A4B1B78EF
S214002CE003B1704730B585B0184B9847184B9847D6
S214002CF0184B9847184B9847184B98471021184878
S214002D00184CA047184B02930193009302224FF0F1
S214002D101F014FF60000154DA847154B9847154B59
S214002D2098474FF4B8711448A04760211348A0474D
S214002D30134B9847134B98470120134B9847012293
S214002D40014B1A7005B030BD7C2600201915010015
S214002D504D1D01003D0E0100E1040100C12A0000E6
S214002D6050AD00209D100100100000204D4F0100C6
S214002D708926010039560000ACAC0020A0AC00202B
S214002D80712C000079F20000B1E8000038B5044666
S214002D900D46084B984730B194F8343065F300037D
S214002DA084F8343038BD2246002303480349884758
S214002DB0FEE700BF1F290000187601002929000041
S214002DC02DE9F04184B0074615461E460C4621B153
S214002DD00846244B9847002833D0019400238DF8EA
S214002DE008300393204B5B6803B103931E4B01AA84
S214002DF05A60D3F808809E601C4B984718B18368C9
S214002E000BB12946984717B129462046B847164BB6
S214002E10C3F808805A6892685A609DF80830B3B9BB
S214002E20CCB194F8343013F0400F16D02068B0B10F
S214002E30324629460E4B9847012814BF0020012031
S214002E4006E0224600230B480B498847FEE7002091
S214002E5004B0BDE8F0810120FAE70120F8E7012080
S214002E60F6E700BF1F2900007C260020E92B0000A3
S214002E707D2E0000187601002929000098B170B553
S214002E80044616460D46094B984728B922460023A5
S214002E90074808498847FEE733462A462146A06980
S214002EA0054CA04770BD0120704700BF1F290000D9
S214002EB01876010029290000C12D000020B110B5A8
S214002EC0C4691CB1A04710BD01207047012010BD89
S214002ED010B50446074B984728B9224600230648F3
S214002EE006498847FEE700226286E36906212046F7
S214002EF0984710BD1F2900001876010029290000F8
S214002F0010B50446054B984708B1206810BD224608
S214002F100023034803498847FEE700BF1F29000037
S214002F20187601002929000038B50446094B984751
S214002F3008B1094D06E0224600230848084988479C
S214002F40FEE71C462046A84703460028F9D120463F
S214002F5038BD00BF1F290000012F000018760100B1
S214002F60292900002DE9F8430446194B984780B1FB
S214002F7023681BB12046174B984704461648174B44
S214002F809847074600B3DFF85490154DDFF84880A1
S214002F900AE022460023134813498847FEE73946CD
S214002FA04046A847074678B107F130063046C8477E
S214002FB001460028F3D0844206D03046A847014692
S214002FC00028ECD08C42F8D13846BDE8F88300BF24
S214002FD01F290000292F0000ACAC00204D11010075
S214002FE061110100187601002929000038B5044651
S214002FF00D46094B984728B155B12946201D074B69
S214003000984738BD22460023054806498847FEE70C
S214003010201D054B984738BD1F290000611101008F
S21400302018760100292900004D11010038B5054623
S2140030300C460A4B984758B105F10F0204F10800F8
S214003040234612F8011F03F8011B8342F9D138BD4D
S2140030502A460023024803498847FEE71F29000046
S214003060187601002929000010B504460A4B984737
S21400307028B922460023094809498847FEE7204622
S214003080084B9847034620B1208A1B8AC01A00B214
S21400309010BDB4F9100010BD1F29000018760100FD
S2140030A029290000012F000010B504460A4B984756
S2140030B028B922460023094809498847FEE72046E2
S2140030C0084B9847034620B1608A5B8AC01A00B254
S2140030D010BDB4F9120010BD1F29000018760100BB
S2140030E029290000012F000010B50446074B984719
S2140030F028B1A08A0130238AC01A00B210BD224629
S2140031000023034803498847FEE700BF1F29000045
S214003110187601002929000010B50446074B984789
S21400312028B1E08A0130638AC01A00B210BD224678
S2140031300023034803498847FEE700BF1F29000015
S214003140187601002929000009B92830704700B513
S21400315083B08DF80010002301936A460821044BC3
S214003160984701280CBF0198002003B05DF804FBC7
S214003170BD2E00002DE9F84F80468A4693461E462F
S2140031801C481D4B9847002831D00546B0422ED02B
S214003190DFF86090194F09E0AB885B4514D0BBF1AF
S2140031A0FF0F11D01CB32546A64220D0294648461C
S2140031B0B847044628684045F4D1A9795145EBD074
S2140031C0BAF1FF0FEED1E7E70D4B98470D4B984746
S2140031D0A9880D4B9847002128460C4B984729464E
S2140031E048460B4B984728460A4B9847DAE7BDE80F
S2140031F0F88F00BF50AD0020571101008D1101005F
S2140032004931000093670000095F00006D0501006A
S21400321039120100FD15010038B504460D46064B6F
S214003220984738B1054B98470023FF222946204689
S214003230034CA04738BD00BF49310000A567000019
S21400324075310000F8B504681748184B984708B35E
S21400325001460027144E164D03E03046A8470146A7
S21400326078B18C42F9D00A6823689A42F5D14B6847
S21400327023F07F42636823F07F439A4208BF01270A
S214003280EBE73FB1214608480A4B984720460A4BD1
S2140032909847F8BDA1792068084B9847084B98478F
S2140032A0A188084B9847EDE750AD00204D1101006E
S2140032B06111010039120100FD15010049310000BD
S2140032C093670000095F000010B50446064B984758
S2140032D020B194F83400C0F3001010BD224600233D
S2140032E0024803498847FEE71F29000018760100B8
S2140032F0292900002DE9F04184B004460E46364BDD
S214003300984728B922460023344835498847FEE7BF
S2140033102046344B984710B104B0BDE8F0812046F3
S214003320314B98470746314B98470546304B9847F0
S214003330874209D028462F4B9847874204D0284614
S2140033402D4B98478742E7D1B4F9323004F10F028B
S21400335004F11700694612F8017F01F8017B8242EA
S214003360F9D19BB2BDF80020D21AADF80020BDF806
S2140033700220D21AADF80220BDF804201A44ADF897
S2140033800420BDF806201344ADF806306A463146E0
S21400339002A81A4B98470028BED02046184B9847DC
S2140033A0044698B1DFF854800E4F154E04F1100213
S2140033B002A90846C0470028AED02046B8470028D5
S2140033C0AAD12046B04704460028EFD102A92846D5
S2140033D00C4B9847A0E700BF1F2900001876010095
S2140033E029290000C9320000292F0000652F00009F
S2140033F0512900006D29000089290000DD06010022
S214003400012F00003D56000030B583B00446184B2F
S214003410984738B3B4F9323004F10F0204F11705B7
S214003420694612F8010F01F8010BAA42F9D19BB2C6
S214003430BDF80020D21AADF80020BDF80220D21A3E
S214003440ADF80220BDF804201A44ADF80420BDF8FB
S21400345006201344ADF8063069462046054B9847CB
S21400346003B030BD22460023034804498847FEE7E0
S2140034701F290000F53200001876010029290000F7
S214003480F8B50546114B984728B92A460023104838
S21400349010498847FEE728460F4B98470446061D06
S2140034A030460E4B984785420FD020460C4FB84703
S2140034B001232A46314630460A4EB047E3692A467B
S2140034C00121204698472046B847F8BD1F2900002E
S2140034D01876010029290000012F00004D11010077
S2140034E009340000C51201002DE9F04782B00446F9
S2140034F08A461746244B984700283ED02668002E5A
S21400350038D0338A228A9B1A53441FFA83FA0FFA5A
S2140035108AF8758A638AED1A3D44ADB20FFA85F9CA
S214003520B8F1000F02D1B9F1000F23D02046174F93
S214003530B84769462046164B9847238A5344238249
S214003540638A2B446382A38A5344A382E38A1D447E
S214003550E5824A46414620460E4B9847E3696A464E
S214003560022120469847F3692246012130469847B3
S2140035702046B84702B0BDE8F0872246002306483A
S21400358006498847FEE700BF1F29000009340000EF
S2140035902D300000812C000018760100292900003B
S2140035A02DE9F04383B004460D4690461F46BDF90C
S2140035B02860244B984728B92246002322482349EE
S2140035C08847FEE74DB128461E4B984750B92A4615
S2140035D000231D481D498847FEE720461C4B984798
S2140035E00546F0E701AB424604F1100105F1100074
S2140035F0DFF86490C8472046154B9847B0F912305C
S214003600BDF806203244BDF804103944008A091A71
S21400361009B2ADF80410D21A12B2ADF80620204650
S2140036200C4B984784F84880A4F84470A4F8466089
S214003630256494F849306FF3410384F8493003B0A9
S214003640BDE8F0831F290000187601002929000034
S214003650012F0000E9340000E90901002DE9F04FD0
S21400366083B081460E4692460193BDF930B0A24B18
S214003670984728B94A460023A048A1498847FEE74C
S2140036804846A04B9847054648469F4B98470446F1
S21400369048469E4B984700EBD07040F34F0848468C
S2140036A09B4B984700EBD07040F34F07EEB1304687
S2140036B0914B9847F0B1BAF1140F31D8DFE81AF001
S2140036C0200054005A0065006E00770085009100C7
S2140036D09D00AC00B200BD00C600CF00DD00E900D2
S2140036E0EF00FB0004010D012E014846894B984768
S2140036F00646DCE732460023804881498847FEE7D5
S2140037003046824B984700EBD070C8EB60052DB270
S21400371030467F4B984700EBD070C7EB600424B26E
S21400372048467C4B9847318A019F39442944038A8E
S214003730C91A728A5A442244438AD21A12B209B269
S2140037404846754B984789F848A0A9F84470A9F8E8
S21400375046B0C9F8406099F8493043F0020389F84A
S214003760493003B0BDE8F08FC8F100052DB27C42A9
S21400377024B2D5E73046654B984700EBD070C8EBCF
S21400378060052DB27C4224B2CAE730465F4B9847AC
S214003790A0EB080005B27C4224B2C1E7C8F10005E0
S2140037A02DB230465A4B9847C01B04B2B8E7304695
S2140037B0564B984700EBD070C8EB60052DB23046EC
S2140037C0534B9847C01B04B2AAE730464F4B984766
S2140037D0A0EB080005B230464D4B9847C01B04B21C
S2140037E09EE7C8F100052DB23046494B984700EBDE
S2140037F0D070C7EB600424B292E73046434B98473C
S214003800A0EB080005B23046414B984700EBD0705D
S214003810C7EB600424B283E7C8F100052DB27C42F2
S21400382024B27DE73046394B984700EBD070C8EBA2
S21400383060052DB27C4224B272E73046334B98477F
S214003840A0EB080005B27C4224B269E7C8F1000587
S2140038502DB230462E4B9847C01B04B260E7304668
S2140038602A4B984700EBD070C8EB60052DB2304667
S214003870274B9847C01B04B252E73046234B984765
S214003880A0EB080005B23046214B9847C01B04B297
S21400389046E7C8F100052DB27C4224B240E7C8F1E5
S2140038A000052DB230461A4B984700EBD070C7EB98
S2140038B0600424B234E7C8F100052DB23046144B3C
S2140038C09847C01B04B22BE73046104B9847A0EB36
S2140038D0080005B27C4224B222E730460B4B9847DC
S2140038E0A0EB080005B23046094B984700EBD070B5
S2140038F0C7EB600424B213E71F2900001876010006
S2140039002929000069300000A9300000E9300000D5
S21400391019310000012F0000E93400003046054B45
S2140039209847A0EB080005B23046034B9847C01BEB
S21400393004B2F5E6E93000001931000010B582B097
S21400394004460E4B984790B194F8493013F0020F96
S214003950B4F9443094F84820B4F946100091216C2C
S214003960204614BF064C074CA04702B010BD2246A6
S2140039700023054805498847FEE700BF1F290000C9
S2140039805D360000A13500001876010029290000E8
S2140039902DE9F041064600210D4B9847B0B104468C
S2140039A00C4D4FF000080A4F2046A847E3694246F0
S2140039B00421204698472046A8472046FFF7E8FF00
S2140039C021463046B84704460028EDD1BDE8F081D0
S2140039D0ED2F00000934000038B505460C46324B82
S2140039E0984798B1712C3DD8702C1BD2412C13D817
S2140039F0402C17D2022C05D3072C13D9A4F11003A0
S214003A00082B0FD92846294B984727E02A4600233B
S214003A10274828498847FEE7532C20D8502C01D247
S214003A204C2CEFD12846214B9847EB690022042105
S214003A3028469847152C09D3182C01D9FF2C05D1F8
S214003A40286818B1C3690022012198472846174BF9
S214003A509847FF2C23D014F4004F20D138BD5C2C9F
S214003A60D0D1DFE77F2C0CD948F281039C4211D8D5
S214003A7048F280039C42D5D2902CD3D0FF2CC1D1E3
S214003A80D0E77E2CCED2732CBCD3752CCAD97C2C16
S214003A90B8D1C7E748F28E039C42B3D1C2E72846A6
S214003AA0054B984738BD00BF1F29000009340000A9
S214003AB018760100292900009139000010B5044647
S214003AC0034B9847FF212046024B984710BD00BF86
S214003AD019320000D93900002DE9F84304460F4694
S214003AE00026DFF888803546DFF8849005E0FF2161
S214003AF03846C8470136402E22D0F1B23846C04775
S214003B008646E8B101790029F4D090F805C00CF09B
S214003B10060C0023DAB2BCF1060F04BF0132D2B2A3
S214003B208A423ABFDEF8000050F822202A46944225
S214003B30DDD0002CDBD00133DAB28A42EAD3D9E7F3
S214003B4000213846084B9847054650B1064E294690
S214003B502046FFF7C1FF29463846B04705460028ED
S214003B60F5D1BDE8F88300BFED2F00004931000015
S214003B70D93900002DE9F047804600200F4B9847C2
S214003B80C8B18146DFF840A00D4F0E4E09F1300552
S214003B902846D047044640B121464046B84721460D
S214003BA02846B04704460028F6D14846034B9847B7
S214003BB081460028EAD1BDE8F08700BFFD0101007C
S214003BC0D93A0000611101004D110100F8B5044614
S214003BD00D4681790068424B9847424B9847A1882A
S214003BE001F00F03082B19DC45B9B4F908203E4B49
S214003BF09847A18820683D4B9847F8BDFF2D0AD00E
S214003C00B4F90820B4F90C309B1A05FB03F502EB57
S214003C10252212B2EBE7B4F90C20E8E70B2B43DCC5
S214003C20002D05DDFE2D05DDA289314B9847E0E726
S214003C302289FAE7EDB2C5F1FF02637BDB08667AFC
S214003C40F60802FB06F605FB036303EB032703EB0C
S214003C50C713C3F3C457A389C3F345132689C6F312
S214003C60451602FB06F605FB036303EB032603EB90
S214003C70C613C3F3C556237B03F01F0394F808E06E
S214003C800EF01F0E02FB0EF205FB032505EB0523C7
S214003C9005EBC315ED0D4FF0000265F3040266F365
S214003CA04A1267F3CF22C0E70D2B12DC002D05DD8C
S214003CB0FE2D05DD227B0F4B98479AE7227AFAE71E
S214003CC0227A237B9B1A05FB03F502EB2522D2B250
S214003CD0F1E77F2DD4BFA268E268074B984788E7D4
S214003CE04931000093670000FD5F0000D9390000ED
S214003CF0256100004D6200006163000010B50446B7
S214003D00054B984708B1002010BD22460023034803
S214003D1003498847FEE700BF1F2900001876010008
S214003D2029290000F8B50D46064650B1C24B984703
S214003D30002840F01F8132460023C048C04988470B
S214003D40FEE7C04B9847002800F0D9813030BE4BC4
S214003D5098470446B84B984728B922460023BB48E4
S214003D60B7498847FEE7002C00F0C7814C21204663
S214003D70B74B984794F835306FF3051384F8353011
S214003D80B44BE361B44B23620027A76127826782A6
S214003D903846B24B98470138A0823846B04B984711
S214003DA00138E0824C21201DAE4B984700236386E5
S214003DB084F8303084F8313084F84830A4F8443041
S214003DC0A4F84630236494F8492063F3000284F88C
S214003DD04920A36394F8342002F07F0242F00102E7
S214003DE094F83510032060F3430184F83C3002F069
S214003DF0C10263F3861284F8342041F0010184F88E
S214003E00351084F83D30636204F128073846964B37
S214003E109847002D00F05D8105F128013846934B48
S214003E20984705F10F0204F1180104F1100312F887
S214003E30010F03F8010B8B42F9D1B5F932306386D6
S214003E4095F8303084F8303095F8313084F83130D9
S214003E5095F8483084F84830B5F94430A4F8443032
S214003E60B5F94630A4F846302B6C236495F8492003
S214003E7094F8493062F3000384F84930AB69A361D3
S214003E8095F83430DB0994F8342063F3C71284F8CD
S214003E90342095F8342094F8343062F3000384F824
S214003EA0343095F83430C3F3400394F8342063F389
S214003EB0410284F8342095F83530C3F3420394F871
S214003EC0352063F3430284F8352095F83430C3F385
S214003ED0800394F8342063F3820284F8342095F843
S214003EE03430C3F3C003D2B263F3C30284F8342081
S214003EF095F83430C3F30013D2B263F3041284F897
S214003F00342095F83430C3F34013D2B263F345122D
S214003F1084F8342095F83430C3F38013D2B263F3B8
S214003F20861284F8342095F83C3084F83C3095F8B6
S214003F30352094F8353062F3000384F83530A86BEA
S214003F4010B121464A4B984728464A4B98470028C6
S214003F5000F0CA80002E00F0D0802846464B9847D6
S214003F6007462846454B9847024639462046444B66
S214003F709847BAE0301D344B984704462E4B984776
S214003F80002845D0002C00F0B8804C212046304B4D
S214003F909847266094F835306FF3051384F835306B
S214003FA02C4BE3612C4B23620020A061B6F9123043
S214003FB06382778A334B9847322303FB00F35033F0
S214003FC0B3F5A07F2AD201233B44E38220462E4B42
S214003FD0984701285CD0B6F910302382378A002033
S214003FE0284B9847642303FB00F35033B3F5A07FB8
S214003FF06DD30020234B9847642303FB00F3503314
S214004000224AA2FB0323C3F3CF133B44A382C9E691
S214004010224600230D480A498847FEE70020194B30
S2140040209847322303FB00F35033184AA2FB0323BE
S214004030C3F3CF13C8E700BF1F290000187601009E
S2140040402929000025010100B510010004760100B1
S214004050DB1B0100E9510000654D00003101010045
S214004060590101009D100100AD5C000015680000BC
S214004070352B0000012F000069300000A930000039
S214004080E934000081010100FD3C0000CDCCCCCC21
S214004090B6F91430A382B78A00201A4B98476423D7
S2140040A003FB00F35033B3F5A07F0ED30020154B6F
S2140040B09847642303FB00F35033134AA2FB032301
S2140040C0C3F3CF13FB1A23826CE60123FAE701231E
S2140040D09BE726B1022120460C4B984705E00121BC
S2140040E020460A4B984708E03EB1F3692246012174
S2140040F0304698472046064B98472046F8BD34463B
S214004100FBE700BF81010100CDCCCCCCA12601008D
S2140041100934000038B504460D46084B984730B1C0
S21400412094F83C301D4214BF0120002038BD2246C2
S2140041300023034803498847FEE700BF1F29000005
S214004140187601002929000030B583B004460D46D4
S2140041500D4B984728B13F2D09D894F83D0003B081
S21400416030BD22460023094809498847FEE78DF8F6
S214004170045000238DF8053001AA09212046054B7E
S21400418098479DF80500EAE71F2900001876010009
S21400419029290000BD2E00002DE9F04F85B01746F6
S2140041A060B30D464FEA122B0646DFF88CA0DFF808
S2140041B08C90DFF88C8006E0BDF90E0005B0BDE8F7
S2140041C0F08F0025DEB129463046D04701902946BB
S2140041D03046C84707EB002084B20DF10E02214698
S2140041E00198C0470128E7D01BF0800F07D0002DAC
S2140041F0E7D130460F4B98470646E2E7144624F4CC
S214004200FE44A4B2222C0FD006D8032C0AD0072CCA
S2140042100CD14FF48070D1E7312C09D0C02C05D1D9
S2140042201020CBE70620C9E7FF20C7E70020C5E738
S2140042300F20C3E7012F000049310000494100006C
S2140042405D6900002DE9F04F85B0174648B30D466E
S2140042504FEA122B0646DFF86CA0DFF86C90DFF80A
S2140042606C8004E0BDF80C0024E00025D6B1294699
S2140042703046D047019029463046C84707EB002015
S21400428084B203AA21460198C0470128EAD01BF051
S214004290800F07D0002DE8D13046084B98470646D9
S2140042A0E3E7144624F4FE44293C012C9ABF044B51
S2140042B01888002005B0BDE8F08F00BF012F000071
S2140042C0147601004931000049410000216A0000CF
S2140042D02DE9F04F85B0174650B30D464FEA122B26
S2140042E00646DFF874A0DFF87490DFF8748004E008
S2140042F09DF80F0029E00025DEB129463046D0475C
S214004300019029463046C84707EB002084B20DF1DD
S2140043100F0221460198C0470128E9D01BF0800F04
S21400432007D0002DE7D130460A4B98470646E2E70D
S214004330144624F4FE44A4B26D2C09D048F2AD0312
S2140043409C4205D02C2C03D0FF2005B0BDE8F08F92
S2140043500020FAE7012F0000493100004941000023
S214004360E56A00002DE9F04F85B0174650B30D46BC
S2140043704FEA122B0646DFF880A0DFF88090DFF8C1
S214004380808005E0039805B0BDE8F08F0025D6B123
S21400439029463046D047019029463046C84707EBA5
S2140043A0002084B203AA21460198C0470128E9D01C
S2140043B01BF0800F07D0002DE8D130460B4B9847F6
S2140043C00646E3E7144624F4FE44A4B2BE2C0AD004
S2140043D048F28E039C4203D07E2C01D00020D2E708
S2140043E0034B9847CFE70348CDE700BF012F0000F7
S2140043F09526010050B401004931000049410000F3
S214004400A96B000070B50468A58805F00F03082B9B
S21400441013DD0B2B18DD0D2B1DDD2A46A179206838
S214004420104B9847A0600023A38023462A46A17914
S21400443020680D4EB047A58070BD2A46A179206839
S2140044400A4B98472081EEE72A46A1792068084B58
S21400445098472081E7E72A46A1792068054B9847C8
S2140044602072E0E7654300007531000099410000C6
S21400447045420000D142000090F83D308B4200F0EB
S21400448022822DE9F04F9FB0894682469B4B984783
S21400449040B19AF83DB08AF83D9000230493984DB9
S2140044A0D846A2E152460023964897498847FEE739
S2140044B0737943F0040373718AF83D802246DDF871
S2140044C004B059465046A84707468AF83D9022460B
S2140044D0CDF804B059465046A847834673796FF323
S2140044E08203737187424AD08AF83D80224601993A
S2140044F05046A84706468AF83D900246214602984E
S214004500824B9847012C00F094808148814B984755
S21400451007467A4B9847002800F0A280002F2ED03E
S2140045203E81A7F80CB0C7F800A0BC809DF8043008
S214004530BB710EA8784B98470E97784B0F93784B25
S2140045401093784B119300231493FF231593089B25
S2140045501693079B5B421793069A531ED01D12AA0A
S21400456013F8011F02F8011B8342F9D19DF86E3043
S2140045706FF300038DF86E300EA86B4B9847039BC5
S2140045800EAA934200F02C81039B33F8024B039350
S214004590002CF4D00598654B984701995046644B1B
S2140045A098470646634B9847029004F00F03082B83
S2140045B07FF77EAF0B2B59DD0D2B00F3C980737987
S2140045C043F0040373718AF83D802246DDF804B098
S2140045D059465046584FB84709908AF83D902246AB
S2140045E0CDF804B059465046B847834673796FF302
S2140045F082037371099B8342C1D08AF83D802246AC
S21400460001995046B84706468AF83D90024621462C
S21400461002984A4B98473E483E4B98470746374BCA
S2140046209847002864D0002FA9D03E7287F80CB0B7
S21400463079E747F6FF739E4200F024819B457FF49E
S21400464064AF5046DFF804B1D84700EBD07040F3B3
S2140046504F075046D84700EBD07040F34F0329E190
S2140046603A460023364828498847FEE7737943F0E0
S214004670040373718AF83D80224601995046314FF3
S214004680B84783468AF83D90224601995046B84777
S214004690ADF8240073796FF3820373711FFA8BFBF6
S2140046A083B29B453FF46BAF8AF83D802246019962
S2140046B05046B84783468AF83D90024621460298FF
S2140046C0214B98471248134B984707460B4B984781
S2140046D040B1002F3FF453AFA7F808B0BDF8243020
S2140046E0BB8120E73A460023154807498847FEE77E
S2140046F03A460023124804498847FEE71F2900006F
S214004700994100001876010029290000FD5F00008D
S21400471050AD0020B510010029050100CD3B00007A
S2140047200544000045320000E5050100E168000090
S2140047304931000093670000D14200004D6200003E
S214004740047601004542000025610000E9300000C3
S2140047508AF83D80737943F0040373712246DDF8CE
S21400476004B059465046584FB8470A908AF83D90CC
S2140047702246CDF804B059465046B84783461EA98F
S21400478041F8400D73796FF38203737104220AA80F
S2140047904E4B984700283FF4F2AE8AF83D802246FA
S2140047A001995046B84706460A908AF83D90024658
S2140047B021460298464B98474648474B9847074637
S2140047C0464B984730B1002F3FF4D9AEBE60C7F8CD
S2140047D00CB0A8E63A460023414842498847FEE71F
S2140047E0049B01330493402B45D09DF81030019371
S2140047F0194650463C4B9847059000283BD04379D5
S21400480013F0080FECD1B022019C21465046A84771
S2140048100890B12221465046A8470790BE2221465E
S2140048205046294B98470690B22221465046A84744
S214004830ADF82C00B32221465046A847ADF82E000E
S214004840B42221465046A847ADF83000B52221468E
S2140048505046A847ADF83200B62221465046A84733
S214004860ADF83400B72221465046A847ADF83600CA
S2140048700BAB039388E6FF2150461C4B98471FB0AE
S214004880BDE8F08F50461A4EB04700EBD07040F3AC
S2140048904F075046B04700EBD07040F34F035E1C06
S2140048A07A1C9642A8BF164636B247F6FF72934564
S2140048B07FF42BAE03F1010B0137BB45A8BFBB4607
S2140048C00FFA8BFB21E67047654300004D7401002C
S2140048D06163000050AD0020B51001001F290000E4
S2140048E0047601002929000049310000D93900006A
S2140048F0E930000038B505460C46094B984748B1E4
S21400490095F83D3043EA04018B4202D02846054B19
S214004910984738BD2A460023034804498847FEE7DF
S2140049201F2900007944000018760100292900009C
S21400493038B505460C46094B984748B195F83D30C2
S21400494023EA04018B4202D02846054B984738BD1F
S2140049502A460023034804498847FEE71F2900002B
S21400496079440000187601002929000010B5044695
S214004970054B984708B1A06B10BD2246002303489C
S21400498003498847FEE700BF1F290000187601008C
S2140049902929000010B50446094B984740B1A06B82
S2140049A060B1084B9847844214BF0020012010BD18
S2140049B022460023044805498847FEE7002010BD2C
S2140049C01F290000C92B00001876010029290000C5
S2140049D003687BB110B4021D012352F8044B1CB1CE
S2140049E00133DBB2072BF8D140F8231001205DF825
S2140049F0044B7047002340F8231001207047000046
S214004A002DE9F04105460E4614460122A84B98476C
S214004A10208048F20C0231462846A64B98470528C7
S214004A2042D90746237B002B49D1237D002B76D124
S214004A30237F002B40F0988094F83630002B40F00F
S214004A40B88094F82830052B00F2018194F84430A1
S214004A50052B00F23781F92F24D8BFB2237B13FB36
S214004A6007F3C3F307232373237D13FB07F3C3F373
S214004A700723237594F8283013FB07F3C3F30723A3
S214004A8084F8283094F8363013FB07F3C3F3072373
S214004A9084F8363094F8443013FB07F7C7F307273B
S214004AA084F84470BDE8F08100232373237584F8EE
S214004AB0283084F8363084F84430BDE8F0812C2263
S214004AC0314628467B4B984720730528ADD92922C6
S214004AD031462846784B9847608023223146284640
S214004AE0734B9847C0B2A07130B920223146284691
S214004AF06F4B9847607398E72A22314628466E4BDC
S214004B009847A080212231462846DFF8A481C04776
S214004B102081222231462846C0476081E5E73022C0
S214004B2031462846624B98472082002880D03C2297
S214004B30314628465F4B98472075052806D832220E
S214004B40314628465A4B9847607571E73122314600
S214004B502846574B9847C0B26082392231462846CD
S214004B60554B9847E081EAE7402231462846504BAD
S214004B709847208300283FF45FAF4C2231462846F2
S214004B804C4B98472077052806D8422231462846BF
S214004B90474B984760774FE7412231462846444BBB
S214004BA098476083492231462846434B9847E0821F
S214004BB0EBE76E2231462846404B9847E0620028D5
S214004BC03FF43FAF6C22314628463A4B984784F86C
S214004BD0360005287FF635AF6D2231462846354B20
S214004BE0984784F83700612231462846304B98476C
S214004BF0003018BF012094F8383060F3000384F8C2
S214004C003830E06A2E4B984702280BD094F837309D
S214004C10052B15D8602231462846254B984784F840
S214004C2039000EE7692231462846234B9847A0866E
S214004C3048F28E0231462846204B98472063E9E723
S214004C406922314628461C4B9847A086E2E7502248
S214004C5031462846164B9847208400283FF4F6AE87
S214004C605C2231462846134B984784F828000528CE
S214004C707FF6ECAE512231462846DFF83480C04736
S214004C806084522231462846C047A08453223146CB
S214004C902846C047E084592231462846064B9847A6
S214004CA0E083542231462846C04784F82900CDE6E2
S214004CB099410000D14200004542000065430000D3
S214004CC0358F00007F2231462846224B9847E06306
S214004CD000283FF4C0AE7C22314628461E4B98473B
S214004CE084F8440005287FF6B6AE7322314628467F
S214004CF0DFF86C80C047A4F8480074223146284686
S214004D00C047A4F84A00792231462846134B9847F4
S214004D10A4F846007E22314628460E4B984720646B
S214004D20702231462846C047A4F84C00712231460E
S214004D302846C047A4F84E00752231462846C0478C
S214004D4084F85000722231462846C04784F8510045
S214004D5081E600BF65430000D142000045420000E6
S214004D60994100002DE9F04198B004460E46022A0B
S214004D7008D0002A6CD0012A00F0CC80002018B0A1
S214004D80BDE8F08100218E4B984708B10320F6E776
S214004D900122002120468A4DA8470746042200210A
S214004DA02046A8478046052200212046A84704F151
S214004DB00F0304F1170503AA13F8011F02F8011BDD
S214004DC09D42F9D11FFA88F8BDF80C30A3EB080312
S214004DD0ADF80C30BDF810309844ADF8108080B2B5
S214004DE0BDF80E301B1AADF80E30BDF81230184460
S214004DF0ADF812003A4603A93046724B984708B9F8
S214004E000220BCE72C22002120466F4B9847F92849
S214004E1001D80220B3E7202200212046684B98479D
S214004E20C0B208B10220AAE7322200212046644B15
S214004E309847C0B208B10220A1E748F20C02002150
S214004E402046614B9847FA2834BF0220012096E797
S214004E5003A85E4B9847332200212046584B9847BC
S214004E6010B100238DF8203003AA00212046584BAD
S214004E709847042200212046514DA8478046052227
S214004E8000212046A84704F1100704F10F0304F19F
S214004E90170501AA13F8011F02F8011BAB42F9D14E
S214004EA01FFA88F8BDF80430A3EB0803ADF8043009
S214004EB0BDF808309844ADF8088080B2BDF80630DA
S214004EC01B1AADF80630BDF80A301844ADF80A00D3
S214004ED003AA314601A83F4B9847022200212046EC
S214004EE0374B984708B9002049E71C203A4B9847AB
S214004EF00546012200212046314B984700230246F2
S214004F0039462846354EB04704F518712846344BC6
S214004F109847E8E702220021294B984738B9332200
S214004F2000212046264B984740B9002027E704F585
S214004F3018702C4B98472C4B9847F0E703A8234B48
S214004F40984700278DF818708DF842708DF83470E9
S214004F5003AA394620461E4B984704223946204667
S214004F60174DA8478046052239462046A84704F133
S214004F700F03173401AA13F8011F02F8011BA342FE
S214004F80F9D11FFA88F3BDF80420D21AADF8042030
S214004F90BDF808201344ADF8083080B2BDF80630DE
S214004FA01B1AADF80630BDF80A301844ADF80A00F2
S214004FB003AA314601A8074B98470020DFE600BF4A
S214004FC09941000031090100D142000089B7000074
S214004FD0014A000051B80000291A01004DB5000032
S214004FE001B30000B1B30000A91601002DE9F04F8F
S214004FF089B004460E465022764B9847074668BB53
S2140050007F2231462046744B9847804630B17C223A
S21400501031462046714B984705284CD840223146E9
S21400502020466C4B98470546002840F0BF80042277
S21400503031462046DFF89C81C047054605223146AA
S2140050402046C047A842B8BF284600B20028C4BFC2
S214005050C01907B2384609B0BDE8F08F5C22314669
S21400506020465E4B9847052801D80027C8E75322FC
S21400507031462046574DA84707EBD77700EB670722
S2140050800137BFB2512231462046A84780465222F9
S21400509031462046A8470028B8BF4042B8F1000F66
S2140050A0B8BFC8F100084045ACBF3F18474438B207
S2140050B020EAE077A4E7702231462046454DA8470F
S2140050C08246702231462046A84783467E223146D5
S2140050D02046414B98474FF00009CDF8089047F618
S2140050E018430193CDF800B053460246414604A843
S2140050F0DFF8EC80C047ADF81890ADF81A90BDF810
S2140051001030013BADF81C30BDF81230013BADF855
S2140051101E30752231462046A84781467322314606
S2140051202046A8478046742231462046A8470546B2
S21400513005AB5FFA89F206A904F11000DFF8A49027
S214005140C847BDF8143043449BB2BDF816202A4425
S21400515092B2B4F91000BDF81810194409B2401AFA
S214005160B842B8BF3846B4F91210BDF81A701744E2
S2140051703FB2CF1B00B28742B8BF0746BDF81C003F
S21400518003441BB2B4F91400181A3BB28342B8BFEA
S2140051900346BDF81E00104400B2B4F91670C71BD3
S2140051A018B2B842B8BF384607B237E74C22314685
S2140051B020460A4B984705287FF639AF41223146EC
S2140051C02046044B98472844B842B8BF384607B232
S2140051D02DE700BF9941000065430000D142000062
S2140051E059250100E909010008291AD010B504461E
S2140051F0072920D0012923D0062927D0032930D01B
S214005200042939D00B293BD0A1F10D03DBB2012BC9
S2140052103BD916293ED0172951D0002954D0012059
S21400522010BD13781BB9283050600120704700234A
S21400523053600120704726491046264B984710BDFC
S214005240254B984780F00100C0B210BD0021234BCB
S2140052509847B4F932309842B8BF184660860120A5
S21400526010BD90F8493013F0010F01D1012010BD98
S2140052701B4B9847012010BD1A4B9847012010BDC4
S2140052801021194B9847012010BD1021174B984745
S214005290012010BD164B9847164B984728B106219B
S2140052A02046114B9847012010BD022120460E4B88
S2140052B09847042120460D4B9847012010BD062133
S2140052C00A4B9847012010BD0B4B9847012010BD94
S2140052D028760100D149000015410000ED4F00007E
S2140052E03D390000D12E0000F5480000314900008D
S2140052F06D490000DB2B0000193200002DE9F84351
S21400530005468846002210311F4B984750B398F840
S214005310343013F0100F27D1D8F8203043B30222D0
S214005320294640469847814603281FD008F10406C0
S2140053303046164B9847044660B1154F214628461E
S214005340FFF7DCFF034650B921463046B84704460F
S2140053500028F3D1B9F1010F0CBF434600231846CD
S214005360BDE8F8830023FAE70023F8E70023F6E712
S21400537008F104063046054B984704464FF00209EC
S2140053800028DAD10346EAE7310901004D11010091
S2140053906111010090F8343013F0100F00D0704700
S2140053A02DE9F0438BB00E460546B0F9324004A90D
S2140053B0354B9847A3B2BDF81020D21AADF810208E
S2140053C0BDF81220D21AADF81220BDF814201A44E7
S2140053D0ADF81420BDF816201344ADF8163004AA14
S2140053E0314606A8294B9847A8B12B6A1BB1002264
S2140053F006A92846984704A92846234B984704AA96
S214005400314608A8214B984740B92B6A1BB10122A8
S21400541006A9284698470BB0BDE8F08305F10408B6
S21400542040461B4B984704460028EED0DFF85890BD
S214005430164E184F05E021464046B8470446002859
S214005440E3D002A92046C847638EBDF80820D21ACA
S214005450ADF80820BDF80A20D21AADF80A20BDF82B
S2140054600C201A44ADF80C20BDF80E201344ADF8FD
S2140054700E3002AA08A96846B0470028DBD0694665
S2140054802046FFF787FFD6E72D300000DD06010037
S214005490571101008D1101002DE9F0470F46044613
S2140054A070B1394620461A4B98472046194B984704
S2140054B0814660B1184EDFF85880DFF858A00EE03D
S2140054C0164B1868164B984704460028E9D1BDE8E5
S2140054D0F0874846D0474C4681460028F7D009F169
S2140054E0040521462846B047044640B139462046C2
S2140054F0C04721462846B04704460028F6D1D9F8CA
S2140055002030002BE5D00122394648469847E0E790
S21400551095530000012F00008D1101008826002001
S2140055205129000038B51A4D28681A4B984704468A
S2140055302868194B984778B90123A361144B18685B
S21400554043681A6A12F0010F10D01B6A13F0020F9C
S2140055500CD00123E3610BE00D4D2868A369002BF6
S214005560EAD0C369002BF9D09847F6E70023E36139
S214005570C3681BB1A26804F110019847236833B1D1
S214005580626822B1A1688B4208BF1346A36038BD8B
S21400559088260020210201002502010070B582B095
S2140055A006461A4D28681A4B984704462868194B31
S2140055B0984738B92868A36923B1C369002BFAD085
S2140055C09847F7E704F1100231466846124B9847B1
S2140055D00E4C2068114B984701466846104B98477A
S2140055E06946104DA84720680F4B98476946A8475C
S2140055F020680E4B98476946A84720680C4B98478A
S21400560008B102B070BD0B4B9847FAE78826002019
S2140056102102010025020100DD06010051290000DB
S214005620FD520000995400006D29000089290000F1
S214005630390201002555000070470000F0B585B01E
S2140056400C460546002854D0002C57D00023ADF851
S2140056500830ADF80A302846364B98470138ADF882
S2140056600C002846344B98470138ADF80E0002AAC5
S21400567021466846314B9847002845D02B6913B120
S214005680694628469847B5F86831C3F309039BB1C5
S21400569000210C460F462A4E09313A4605EBC10159
S2140056A06846B04780BB0134A4B22146B5F86831DD
S2140056B0C3F309039C42EFDB1F2B27DC093305EB02
S2140056C0C3030DF1FF3203F1080012F8011F03F8BF
S2140056D0011B8342F9D1B5F86831C3F309020132E0
S2140056E062F30903A5F868310321E86A154B984769
S2140056F00AE0154B9847054630B1A5E7B5F868317E
S2140057006FF30903A5F8683105B0F0BDB5F8683148
S2140057106FF30903A5F868310DF1070205F1500093
S21400572005F1480312F8011F03F8011B8342F9D163
S214005730D1E700BF3101010059010100DD0601007B
S21400574031090100551E010025010100014B1868B2
S214005750704700BF882600202DE9F04F8BB0054625
S214005760B34B98470790B34CEB682360002128465C
S214005770B14B98472068C36B7BB1B0F86831C3F370
S2140057800903002B00F068824FF048080027A94D57
S214005790DFF8C4A2DFF8B8B24DE0B0F868316FF3B6
S2140057A00903A0F8683152E22644012386F84831FE
S2140057B001342868B0F86831C3F309039C4230D23C
S2140057C0031993F84831002BF2D1A742F0D004F128
S2140057D00906F60081194044D0470028E8D0296819
S2140057E08A19414408A8954B984708A8D8470190BD
S2140057F028684044D847814628683044D8474844FB
S214005800019B8342D4D22E6806EB08030DF11F02DB
S21400581003F1080012F8011F03F8011B8342F9D1B7
S214005820C2E701372868B0F86831C3F3090308F106
S21400583008089F420ED2384490F84831002BF0D129
S2140058402868B0F86831C3F30903002B00F0EA813A
S2140058500024B5E70021774A5160002B00F0EA816A
S2140058605A1E1146059232D4821892F848217AB10F
S21400587003F2471303440A46013AB2F1FF3F05D04C
S21400588013F8011D0029F7D1059201E000230593C6
S214005890426892F820306FF3000382F820304268A6
S2140058A092F820306FF3410382F82030614B1C6879
S2140058B0B4F86831C3F30903002B00F0BB8148231A
