S01700006F7261636C655F746573745F6432312E7372656352
S214000000386E002075130000711300007113000095
S21400001000000000000000000000000000000000DB
S2140000200000000000000000000000007113000047
S21400003000000000000000007113000045010000F1
S214000040711300007113000071130000711300009B
S214000050711300007113000071130000711300008B
S214000060711300004D0C00005D0C00006D0C0000CC
S2140000707D0C00008D0C00009D0C0000711300002C
S214000080711300007113000071130000711300005B
S214000090711300007113000071130000711300004B
S2140000A0711300007113000071130000711300003B
S2140000B00000000010B5064C2378002B07D1054B36
S2140000C0002B02D0044800E000BF0123237010BDBF
S2140000D0C80000200000000018CB0100084B10B537
S2140000E0002B03D00749084800E000BF0748036814
S2140000F0002B00D110BD064B002BFBD09847F9E72C
S21400010000000000CC00002018CB010018CB010036
S2140001100000000010B5084A00201060074B53602E
S214000120074C236A1B021B0AC02109060B432362E5
S21400013090600723136010BD10E000E03F1F000032
S21400014000ED00E070B506490A684B6801240025FA
S21400015012196B410A604B600120024B984770BD34
S214000160E800002071F7000030B58DB0144B9847BA
S2140001700122144B1A70BFF35F8F62B6124B98477A
S214000180124B9847124B9847124B9847124B98477A
S214000190124B9847124C96235B010022114920000F
S2140001A0114DA84701A8114B9847114B0493029490
S2140001B001A8104B9847104B98470DB030BDC0466D
S2140001C0451300000C000020C97801005978010092
S2140001D0A577010015010000611800006D69010097
S2140001E070260020F0000020C1F400005DF400003E
S2140001F089740100E1F40000C579010010B5002003
S214000200084B9847020000230748002180185941F0
S214000210064A0023064CA047064B9847064B9847CD
S21400022010BDC046CD100000571B0000581B000034
S214000230DD7C0100010000205D130100F0B5DE4604
S21400024057464E464546E0B587B0804604911600B0
S2140002501F000022002300218B463F24012021009E
S214000260009601975C4603944446059413E02024C8
S214000270641A0500E540A84614E0009C019D121B88
S214000280AB415C464D462C43A346039C45462C4357
S2140002900394013925D3202464420C19E7D40500C1
S2140002A0A540A84604008C40A14692185B41140065
S2140002B01D00059E4F463E40B446049E47463E40BF
S2140002C0B246664657463E4303D0060026433200F3
S2140002D02B00009C019D9D42DBD8CED19442D8D8FD
S2140002E0CBE7039B5846190007B03CBC904699469E
S2140002F0A246AB46F0BD10B5490840230024814213
S21400030002D2180010BD1C00091A631C9BB288425A
S214000310F9D94023FF2CF4D814800023F1E700001D
S214000320F0B583B00F00160008AA117804004C43FD
S2140003304022BC4202D9100003B0F0BD002B14D1FD
S214000340020008000021194CA04701003A000023D3
S2140003500020174CA04700220123121A8B41120CD2
S2140003601B041A4332800022E5E70022012BF9D154
S2140003700A00002300210D4CA04702000B0000924B
S2140003800193380000210A4CA047050080239B01FA
S21400039040229842CFD8790FF800009A019BA047D8
S2140003A0EA00821AD2B252032A43DBE71D7D01001F
S2140003B03D02000010B582B004000E4B1B78002BE7
S2140003C007D0002905D10B4B5B78834210D01D2047
S2140003D00CE001A90C701320074B98471320074B1D
S2140003E09847044B5C7001221A70002002B010BDC2
S2140003F00020FBE794260020E511000059110000BC
S214000400404B984231D00AD93F4B98424DD03F4B93
S21400041098425AD03E4B984237D0002070473D4B0A
S21400042098420CD03C4B9842F7D1012917D00029AE
S2140004305DD0022915D0032915D00020EEE701294A
S21400044007D0002951D0022905D0032905D0002065
S214000450E4E73248E2E73248E0E73248DEE732488F
S214000460DCE73248DAE73248D8E7012907D0002926
S2140004703FD0022905D0032905D00020CEE72D481D
S214000480CCE72D48CAE72D48C8E7012907D0002940
S21400049031D0022905D0032905D00020BEE7284820
S2140004A0BCE72848BAE72848B8E7012907D000295A
S2140004B023D0022905D0032905D00020AEE7234823
S2140004C0ACE72348AAE72348A8E7012907D0002974
S2140004D015D0022905D0032905D000209EE71E4826
S2140004E09CE71E489AE71E4898E71E4896E70320B2
S2140004F094E71D4892E71D4890E71D488EE71D4883
S2140005008CE7C0460010004200180042001C004263
S2140005100014004200080042000C004203000500E0
S21400052003000600030007000300010003001E008E
S21400053003001F000300090003000A0003000B006D
S21400054003001100030012000300130003000D0057
S21400055003000E0003000F0003001700030018003E
S2140005600300190003000400030008000300100045
S21400057003000C000300160030B587B00B4B6A462C
S21400058032CB32C232CB32C2009B83420BD0012325
S2140005909A0069465258824206D00133062BF7D19C
S2140005A0002007B030BD0023D8B2FAE73488010037
S2140005B0F0B5DE4657464E464546E0B591B00500D6
S2140005C00C00160029600800BA4B98470200236802
S2140005D00520DB0706D511B03CBC90469946A246DE
S2140005E0AB46F0BD236817309B07F4D4B249086ABF
S2140005F0971C0123BB4003430B620FA92D27F35D15
S2140006000B701432D3B202931800AC4B9847029882
S214000610AB4B9847F05D0021AA4B9847F37A6B7175
S2140006202423F35CAB712523F35CEB71F37E2B7212
S214000630337F6B722B68984618009E4B9847143091
S21400064000220E2306A98C4663441A80328A029240
S2140006508023DB019A4200D19AE00FD9C023DB0148
S214000660029A9A4200D18EE080231B029A4200D062
S2140006701BE1032306930023079308E080239B01D6
S2140006809A4200D011E1102306930F3B079333687C
S2140006900593F3689B4673690393337E049326237E
S2140006A0F35C9A4673689946002B00D19CE0802341
S2140006B05B05994500D180E0737E002B02D0B37EA7
S2140006C0424693730E2306AA944663441B8842460A
S2140006D09381059B5A461343039A13434A46134392
S2140006E0029F1F43049B1B021F4353465B071F4387
S2140006F02723F35C002B01D104331F43737E9B0238
S214000700327F52021343727F120213432422B25CDA
S214000710520413432522B25C12041343B17AF27AD0
S214000720114319433389FF2B00D181E08022520404
S214000730174319432C23F35C002B03D1624B9B78A1
S2140007409B0701D580231F432A68D369002BFCD161
S214000750434659602A68D369002BFCD143461F6084
S2140007600EAB80221A7000225A70DA709A70336BC1
S2140007700A93736B0B93B36B0C93F36B02930D930B
S21400078000270AAE63E008230693073B07937EE73D
S21400079033680593F3689B4673690393337E04932B
S2140007A02623F35C9A4673689946002B18D080235C
S2140007B05B05994501D0002025E02723F35C002B3C
S2140007C000D079E7336A1F00C0B2404B984701005B
S2140007D00E2206AB9C46624438003D4B984712E01A
S2140007E008230693002307932723F35C002B0ED0E1
S2140007F0069B0093079B0E2206A98C466244B16AAC
S214000800306A344FB847002800D0E4E654E7336A2D
S2140008101F00C0B22D4B98470100069B0093079B14
S2140008200E2206A88446624438002A4FB847EAE7F4
S214000830F37E002B00D17DE78023DB041F4379E79E
S2140008402000254B984707E00137042F0DD0F9B25A
S214000850BB0098590028F3D0431CF5D00EA90870A9
S214000860000CC0B21D4B9847EEE70023EB602B61EF
S2140008706B61AB61EB612B62AB626B620022EB8556
S214000880AB853033EA540133EA540133EA5401337A
S214000890EA542868074B984704001149114B9847BB
S2140008A0A400114BE550002095E610230693002384
S2140008B00793ECE67905000000040040E51100000F
S2140008C059110000B503000000200041011200008D
S2140008D0F70200002103000001040000DD12000002
S2140008E0490A0000E10B0000944C0020C2791C234A
S2140008F0002A01D118007047C28D92B2173B002A19
S214000900F8D1026811850221137E0B42FCD0002329
S214000910F0E70000F0B5CE46474680B583B0050048
S21400092001911720002A04D103B00CBC90469946CA
S214000930F0BDEB790530002BF6D02C68013A93B267
S214000940994600260127204B984611E0731C9BB25F
S214000950019A915D6A79012A17D089B21E00280093
S2140009601A4B98474B46013B9BB29946434513D0DA
S214000970237E3B42EAD1144B227E3A42E6D1012B3B
S21400098019D0013B002BF7D1E0E70236B6B2019A48
S214000990D35C1B021943E2E7237E9B070DD40A4B68
S2140009A00221227E0A420AD1012B0AD0013B002BEB
S2140009B0F7D10020B8E71220B6E70020B4E7002001
S2140009C0B2E71220B0E7C046FFFF0000ED080000C7
S2140009D0F8B504000D00160007680F4B9847A38D66
S2140009E09BB2002B03D00D4B98470520F8BDA6857B
S2140009F00A4B9847656205223223E2542E3BBB75AC
S214000A00237A002B01D02023BB75637A0020002BAD
S214000A10ECD00823BB75E9E7AD0C0000ED0C000038
S214000A20931C9B00C31859603021012393401A0081
S214000A30435C13434354704710B50122014B98475B
S214000A4010BDC046D1090000F8B58000624BC558FD
S214000A502C68E369002BFCD1237EA67D1E40302344
S214000A60EB5C3122AF5C1F40F30722D5EB8D9BB2C7
S214000A70002B1CD0AA6A1378DBB2511CA9626979D4
S214000A8001290ED09BB2DB05DB0D2385EB8D013BE8
S214000A909BB2EB85002B0CD1013323750133A37574
S214000AA007E0517809020B430232AA62EBE7012302
S214000AB02375B30706D50223237500223133EA5483
S214000AC0FB071AD4730765D5AB8D9BB2002B5FD09E
S214000AD0638BDBB21A0714D43F221340002B34D0AA
S214000AE09A0711D51A223223EA54303B63837B07D8
S214000AF050D528006B6998474CE02800EB6898476B
S214000B00E0E737221340E9E75A0705D51E223223CD
S214000B10EA542E3B6383EAE7DA0705D5132232232D
S214000B20EA54313B6383E2E7DA0605D542223223F4
S214000B30EA54223B6383DAE720221A42D7D02132D6
S214000B403223EA54123B6383D1E7238DDB05DB0DAA
S214000B50DAB2696A0A706A6A511C6962697901299F
S214000B6010D0AB8D013B9BB2AB85002B12D104336A
S214000B70237500222E33EA54BB070BD528002B69B9
S214000B80984707E01B0A53706B6A01336B62E8E70D
S214000B9004232375F30604D5102323752376FB065A
S214000BA00ED4B30604D52023237523763B070BD437
S214000BB0330704D5082323752376BB0608D4F8BD6F
S214000BC02800EB699847ECE72800AB699847EFE701
S214000BD02B6A28009847F2E7944C002070470000E4
S214000BE0F0B50A4B1B78002B0CD1094F094E0A4D65
S214000BF00024DE515A1914600433182BF9D101224F
S214000C00024B1A708000024BC150F0BD96260020A1
S214000C1098260020DD0B0000944C002000B583B021
S214000C2009236A46137001335370013393700133FE
S214000C30D3700133137101335371034B98476B46DE
S214000C40185603B000BDC0467905000010B5024B2B
S214000C501B680020984710BD9826002010B5024B50
S214000C605B680120984710BD9826002010B5024BFF
S214000C709B680220984710BD9826002010B5024BAE
S214000C80DB680320984710BD9826002010B5024B5D
S214000C901B690420984710BD9826002010B5024B0B
S214000CA05B690520984710BD982600200C4B1B68F2
S214000CB0002B06D1EFF31083002B07D00022094B40
S214000CC01A70074A136801331360704772B6BFF391
S214000CD05F8F0022044B1A700132024B1A70F0E745
S214000CE0B0260020B42600200C000020084B1A680E
S214000CF0013A1A601B68002B09D1064B1B78002BA3
S214000D0005D00122044B1A70BFF35F8F62B670479E
S214000D10B0260020B42600200C000020F0B583B0DA
S214000D2001AC012565700027A770257021003E20C4
S214000D30064EB0478022D205054B9A612770657033
S214000D4021000F20B04703B0F0BDC046550D00008F
S214000D508044004100B583B001AB80221A700A7847
S214000D605A704A789A708A78DA701900014B984758
S214000D7003B000BDDD12000010B582B001AB8024C8
S214000D801C7014785C7054789C709278DA701A0034
S214000D90014B984702B010BD0D13000010B508288F
S214000DA003D880001C4B1B589F46002032E01B4B8C
S214000DB018692FE01A4B1B6A9B059B0F1948D840F1
S214000DC028E0164B586925E0144B1B6800209B074B
S214000DD020D513491022CB681A42FCD00F4B1A6854
S214000DE024231340042B01D00F4813E000200F4BA0
S214000DF098470A4B9B681B041B0C58430AE0502379
S214000E00074AD35C00205B0704D5044BD86801E092
S214000E108020000210BDC0464C880100B826002085
S214000E200008004000127A00006CDC02011200008C
S214000E3070B50C490B6A047885784078012210401A
S214000E4080014026B34303432A40D20180208343D7
S214000E5013430322224012020348034013430B624B
S214000E6070BDC04600080040FFFCFFFF082803D8FE
S214000E708000254B1B589F46172044E0234A136AE0
S214000E8002210B43136200203DE0204A93690221B1
S214000E900B439361002036E01C4A138A02210B4361
S214000EA0138200202FE0194A938A02210B43938273
S214000EB0002028E016490B68022213430B60134BF0
S214000EC09A8419000E32CB681A42FCD0104A9168F8
S214000ED00E4BD96252689A6200229A841900103228
S214000EE0CB681A42FCD00A4B1B689BB2074A938415
S214000EF0002008E0054944228B5C022003438B5403
S214000F00002000E0002070477088010000080040C4
S214000F10B826002030B585B0C222D2001A4B9A609F
S214000F201A4A53681E218B43536001236A46137086
S214000F300024174DE0B26946A8470134252CF9D1A4
S214000F4003A800244470012585700470114B98474F
S214000F500620114B9847114B9847114B1C725C7238
S214000F609C72DC7201956B465C7006236A461370B1
S214000F7014725472694600200A4B984700200A4BA8
S214000F80984705B030BDC04600080040004000410C
S214000F90E5110000310E00006D0E0000AD0F0000E0
S214000FA000040040D10F000089100000064A936933
S214000FB008210B4393610122044B1A7019000B7829
S214000FC01342FCD17047C04600040040000C0040AD
S214000FD070B5060004000D782D0205434B78002BF3
S214000FE002D08023DB021D434B7A002B02D08023E5
S214000FF01B031D434868012810D9431E184234D1EC
S214001000022830D90223002201325B009842FBD826
S21400101012023243140080235B031D430B7A002B1D
S21400102002D080239B031D43134A53785BB2002BE8
S214001030FBDB124B9847124B1E700F4A53785BB27D
S214001040002BFBDB0C4B9C601A0053785BB2002B2A
S214001050FBDB094A5368802149020B401D4355605B
S214001060084B984770BD0022D2E704023443802321
S2140010709B021D43D2E7C046000C0040AD0C0000AA
S214001080080C0040ED0C000010B504000B4A537825
S2140010905BB2002BFBDB0A4B98470A4B1C70074AD7
S2140010A053785BB2002BFBDB044A516880235B025B
S2140010B00B435360044B984710BDC046000C0040DD
S2140010C0AD0C0000040C0040ED0C000070B50400F0
S2140010D01A4A53785BB2002BFBDB194B9847194B27
S2140010E01C70164A53785BB2002BFBDB134E7068FD
S2140010F0C004C00E144B98470500124B1C7076684F
S214001100F602F60F114B1C700C4A53785BB2002B9C
S214001110FBDB0A4B9C682402240C0D4B9847002EE0
S21400112007D1012C07D9210028000A4B9847050053
S21400113001E00134E540280070BDC046000C0040C8
S214001140AD0C0000040C00409D0D0000080C004093
S214001150ED0C0000F179010010B50400064B98472D
S214001160064B1C70064A53888021C9010B435380E6
S214001170044B984710BDC046AD0C0000020C004062
S214001180000C0040ED0C000010B504000F4B984713
S2140011900F4B1C700F4A53881B05180F53880E49B7
S2140011A00B40538053880D490B405380110080221A
S2140011B0D2014B881342FCD106494A8803020648EE
S2140011C0024013434B80064B984710BDAD0C000001
S2140011D0020C0040000C0040FFF0FFFFFFBFFFFFC7
S2140011E0ED0C000010B50C7824020443024B98471F
S2140011F0A4B2024B5C8010BD89110000000C0040B8
S21400120010B50400064B9847064B1C70064B5C88CE
S2140012102405240F054B98472000054B984710BD22
S214001220AD0C0000020C0040000C0040ED0C00006D
S214001230CD10000030B5D378002B35D11378802B35
S21400124029D01B0680246402234354780225AC432D
S21400125006D19478002C20D18024A4022343416038
S2140012605478013C012C1CD90D042D0CA024E40557
S2140012702C431C4384620D0CD02424062C431C43B0
S2140012808462D478002C22D15B031CD59378012B82
S2140012901ED0416117E00023D7E7C024E4022343B1
S2140012A0DDE70D4C2340DFE741600C04240CA0234F
S2140012B0DB05234383620C0CD0231B062343836287
S2140012C0D378002B03D15378013B012B02D930BDD4
S2140012D08161F8E78160FAE7FFFFFBFF10B50A00BF
S2140012E0C1090023002904D14309DB0105498C46C6
S2140012F063441F242040012181401800024B984778
S21400130010BDC0460044004135120000F0B583B061
S21400131000900E00019200240127084D02E00134DF
S214001320202C09D03300E3401F42F8D0019A390040
S214001330A1400098A847F2E703B0F0BD35120000C0
S2140013407047000010B5054B9847054B9847054B6E
S2140013509847054B9847054B984710BD150F00005A
S2140013601D0D000041130000411300004113000052
S214001370FEE70000F8B52A4A2A4B9A4211D01A0016
S214001380294B9A420DD2294A03339B1A9B080133F4
S2140013909B000022234822498C58845004329A42EB
S2140013A0FAD1234A234B9A420AD2D34321495B18E7
S2140013B003218B4304339B18002102C29342FCD1C5
S2140013C01D4AFF211D4B8B439360FD3990235B0024
S2140013D01B4AD1501B4AD3780325AB430224234330
S2140013E0D370D3780C27BB4308263343D370164BF1
S2140013F0987B30229043202210439873997BB94300
S214001400314399739A7BAA4322439A730F4A5368CF
S21400141080210B4353600E4B98470E4B9847FEE7D0
S21400142018CB010000000020C400002004000020AB
S214001430C8000020384E002000ED00E0000000004C
S214001440007000410050004100480041004000414B
S214001450457F0100DD7901000300064A1268002A74
S21400146004D0044A1068C318136070470249014A42
S2140014701160F6E7D0260020386E0020431E984103
S214001480C0B2704710B5C0B00400064B9847E528B8
S21400149001D940B010BD020021006846024B9847B3
S2140014A0F7E7C046F17F01008D0C010010B500285B
S2140014B001D0C06B10BD034B98470028F9D100201F
S2140014C0F8E7C04609F6000010B5002801D0006C09
S2140014D010BD034B98470028F9D10020F8E7C04616
S2140014E009F6000010B5002801D0406C10BD034B73
S2140014F098470028F9D10020F8E7C04609F6000012
S214001500F8B5002811D0002534272026074C02E025
S214001510A047002804D0C35D1E42F9D00500F7E7B7
S214001520002D02D02800024B9847F8BDA11A0000F3
S21400153019200000F8B5DE4657464E464546E0B54B
S21400154006008A469046037DDB073CD4C468012328
S21400155099460025324F0F339B4615E0337D5A4699
S2140015601A4201D1002D2ED14B46002B2BD0300035
S214001570D0470400002D4CD000239946002C03D001
S2140015802068B84700280CD0002CE7D0002D06D0E5
S21400159021003000C0470400A842EFD113E0250028
S2140015A0F6E7F368A3420ED0002B16D01868C3697E
S2140015B0002217219847F368186800220E21194B5D
S2140015C09847012805D03CBC90469946A246AB46B3
S2140015D0F8BDF3681868144B9847F4602068C36930
S2140015E0002216219847F368186800220D210D4B3B
S2140015F098470128E7D1F36818680C4B9847F368BA
S2140016001868094B98473369002BDCD030009847A0
S214001610D9E70028D7D0050000239946B0E7C04692
S214001620851E0000111A0000B11F00000115000001
S21400163010B518210148024B984710BD184E0020DF
S214001640B905010010B5024A0249034B984710BD80
S214001650850601006D0601003515000010B5024A2A
S2140016600249034B984710BDAD06010079060100FC
S2140016703515000070B50400037DDD06ED0F102261
S214001680134303751B0708D5054B98472D01237D8B
S214001690102293432B43237570BD024B9847F5E702
S2140016A05D16000045160000F8B505000C00002881
S2140016B010D006001B4B984700280CD003689C42AD
S2140016C008D0194F01003000B847002803D003683F
S2140016D0A342F7D1F8BDA36B002B07D02000134B15
S2140016E09847002802D0A06B114B9847A5632800A6
S2140016F0104B98470600104B984700280BD0002E3A
S214001700E8D034602800074B98478642E2D128008C
S214001710074B9847DEE73200002308480849884709
S214001720FEE7C0466D06010085060100293600006A
S214001730751600001D0601007D1400009488010047
S21400174085140000002804D0C368002B03D0186856
S21400175070470020FCE70020FAE7002803D0007D51
S2140017608007C00F70470020FCE70000014B186898
S2140017707047C046D4260020F8B50C00002815D0C7
S2140017805022835C02210B438354184B1B689842FB
S21400179005D0002C07D0C36B9C4204D0F8BD0022B5
S2140017A0134B1A60F5E70023C363F7E70020114BDD
S2140017B098470028F2D00D4F0D4D0E4E07E000233F
S2140017C02B600CE00023C363B0470028E6D050220D
S2140017D0835C02210B4383543B688342EFD0002C8A
S2140017E0F0D0C36B9C42EFD1ECE7C046D426002075
S2140017F0D82600204DF7000010B500210020014B30
S214001800984710BD79170000F0B585B00D0002911D
S21400181016000392031D019318000F4B9847041EF1
S21400182018D0ADB2B7B20D4E238AEB182382638A66
S214001830FB186382A38AEB18A382E38AFB18E38271
S214001840039A02992000FFF7DFFF21000198B047B6
S214001850041EE9D105B0F0BD6D0601008506010045
S21400186030B585B0194B1B78002B01D005B030BDC4
S214001870174B9847174B9847174B9847174B98475F
S214001880174B984710211748174CA047174B029341
S2140018900193009302221F2115480088154DA84782
S2140018A0154B9847154B9847B82149001448A04750
S2140018B060211448A047144B9847144B98470120C2
S2140018C0134B98470122014B1A70CFE7E4260020FD
S2140018D0490A01009911010049030100F9F90000C5
S2140018E031160000684D0020B905010030000020C8
S2140018F0A288010091440100511C01009D42000095
S214001900C44C0020B84C0020F9170000F9E600008F
S21400191059DC000070B504000D00094B98470028FC
S21400192008D0342201231D40A35C012083432B43AF
S214001930A35470BD22000023024803498847FEE7EF
S2140019407D140000FC88010085140000F0B587B007
S21400195007000C0001921E00002904D00800254B49
S214001960984700283CD003AB039400221A710592D6
S214001970214B1B68002B00D0059303AA1E4B1A6050
S2140019801E4B1D681E601E4B9847002804D08368B7
S214001990002B01D001999847002F02D00199200012
S2140019A0B847164B1D60144B1A6892681A6003AB52
S2140019B01B790020002B11D1002C17D03433E35CA8
S2140019C001305B060AD52068002811D03200019944
S2140019D00C4B9847013842424241D0B207B0F0BDA6
S2140019E022000023084809498847FEE70120F5E75A
S2140019F00120F3E77D140000E0260020DC2600200E
S214001A006D170000111A0000FC8801008514000004
S214001A1070B504000D001600002810D0094B98473A
S214001A20002805D122000023074808498847FEE71A
S214001A30A06933002A002100054CA04770BD012094
S214001A40FCE7C0467D140000FC88010085140000F9
S214001A504D19000010B5002804D0C369002B03D030
S214001A60984710BD0120FCE70120FAE710B50400F6
S214001A70084B9847002805D122000023064807494E
S214001A808847FEE700236386E369002206212000DC
S214001A90984710BD7D140000FC88010085140000E6
S214001AA010B50400054B9847002801D0206810BDEB
S214001AB022000023024803498847FEE77D14000001
S214001AC0FC8801008514000070B50400094B984797
S214001AD0002801D0084D06E02200002307480849E8
S214001AE08847FEE704002000A8470028FAD1200017
S214001AF070BDC0467D140000A11A0000FC880100DD
S214001B0085140000F0B5C64600B50400194B98478A
S214001B1000280FD02368002B03D02000164B9847D0
S214001B2004001648164B9847071E1ED0144B9846BE
S214001B30144E0BE022000023134814498847FEE7A2
S214001B4039000E480F4B9847071E0ED03D00303523
S214001B502800C0470028F3D0844206D001002800A1
S214001B60B0470028ECD08442F8D1380004BC904638
S214001B70F0BDC0467D140000C91A0000C44C002009
S214001B806D06010085060100FC8801008514000032
S214001B9070B504000D000A4B9847002806D0002DAB
S214001BA00AD0201D2900074B984770BD220000234D
S214001BB0054806498847FEE7201D054B9847F4E789
S214001BC07D14000085060100FC88010085140000D5
S214001BD06D06010070B504000D000A4B98470028FA
S214001BE009D02000183010342178297001350134CE
S214001BF0A042F9D170BD220000230348034988475C
S214001C00FEE7C0467D140000FC8801008514000035
S214001C1010B504000B4B9847002805D1220000237E
S214001C2009480A498847FEE72000094B98470028DC
S214001C3004D0238A008A181A00B210BD1023E05E72
S214001C40FBE7C0467D140000FC88010085140000F8
S214001C50A11A000010B504000B4B9847002805D1C8
S214001C602200002309480A498847FEE72000094B5E
S214001C709847002804D0638A408A181A00B210BD1C
S214001C801223E05EFBE7C0467D140000FC880100DE
S214001C9085140000A11A000010B50400074B9847F1
S214001CA0002805D0A08A0130238AC01A00B210BDD1
S214001CB022000023024803498847FEE77D140000FF
S214001CC0FC8801008514000010B50400074B9847F7
S214001CD0002805D0E08A0130638AC01A00B210BD21
S214001CE022000023024803498847FEE77D140000CF
S214001CF0FC8801008514000000B583B0002902D1DD
S214001D00283003B000BD6B461970002301936A4665
S214001D100821044B9847012801D10198F1E70020DB
S214001D20EFE7C046551A0000F0B5DE465746464671
S214001D30C0B580468A4693461E001D481D4B9847F0
S214001D40041E2FD0B0422DD01B4F0AE0A3885B455F
S214001D5015D05B46FF2B12D0002D23D02C00AE42B0
S214001D6020D021001248B847050020684045F3D12E
S214001D70A1795145EAD05346FF2BEDD1E6E70F4B4C
S214001D8098470F4B9847A1880E4B98470021200094
S214001D900D4B9847210006480C4B984720000C4BEB
S214001DA09847D9E71CBC90469A46A346F0BDC04665
S214001DB0684D002079060100AD060100F91C000000
S214001DC021560000D14B000091FA00005507010093
S214001DD0390B010070B504000D00064B984700282B
S214001DE007D0054B98470023FF2229002000034C0C
S214001DF0A04770BDF91C000031560000291D0000E8
S214001E00F8B504681748184B9847002820D00026D5
S214001E10144D164F04E001002800B84700280DD0E6
S214001E208442F8D0036822689342F4D143681B02C8
S214001E30626812029A42EED10126ECE7002E07D025
S214001E40210008480A4B984720000A4B9847F8BDDF
S214001E50A1792068084B9847084B9847A188084BFB
S214001E609847EDE7684D00206D06010085060100E5
S214001E7055070100390B0100F91C0000215600002F
S214001E80D14B000010B50400074B9847002804D03B
S214001E903423E05CC006C00F10BD220000230348B8
S214001EA003498847FEE7C0467D140000FC88010011
S214001EB085140000F0B585B004000E00304B98473E
S214001EC0002805D1220000232E482F498847FEE728
S214001ED020002E4B9847002801D005B0F0BD20000A
S214001EE02B4B984707002B4B984705002A4B9847E3
S214001EF0874209D02800294B9847874204D02800FB
S214001F00274B98478742E8D13222A35E2100103142
S214001F100022885C6F46D0550132082AF9D19BB260
S214001F203A88D21A3A807A88D21A7A80BA889A1868
S214001F30BA80FA889B186A46FB80310002A8194BC3
S214001F4098470028C9D02000174B9847041E11D088
S214001F50144E2200103202A90800B0470028BCD058
S214001F6020000A4B98470028B7D120000E4B984710
S214001F70041EEED102A928000C4B9847ADE7C046D8
S214001F807D140000FC88010085140000851E0000FA
S214001F90C91A0000051B0000AD140000C91400009B
S214001FA0E51400000FFC0000A11A0000A14200008A
S214001FB030B583B00400144B984700281DD0322358
S214001FC0E25E200010300023C15C6D465955013397
S214001FD0082BF9D193B22A88D21A69462A806A88D1
S214001FE0D21A6A80AA889A18AA80EA889B18EB8078
S214001FF02000064B984703B030BD2200002304485B
S21400200004498847FEE7C0467D140000B51E000060
S214002010FC88010085140000F8B50400124B9847B0
S214002020002805D122000023104811498847FEE702
S2140020302000104B98470500061D30000E4B9847B1
S21400204084420FD028000D4FB847012322003100EC
S21400205030000B4EB047220001212800EB6998475C
S2140020602800B847F8BDC0467D140000FC88010073
S21400207085140000A11A00006D060100B11F0000C3
S214002080E5070100F0B5D6464F464646C0B582B0D5
S21400209004000D001700264B9847002841D02668FC
S2140020A0002E38D0338A228A9B1A5B199BB29A4636
S2140020B01BB29846758A638AED1AED19ADB22BB23B
S2140020C099464346002B02D14B46002B23D02000D6
S2140020D0184FB84769462000174B9847238A534441
S2140020E02382638AEB186382A38A5344A382E38A1B
S2140020F0ED18E5824A4641462000104B98476A464E
S21400210002212000E3699847F3692200012130008C
S21400211098472000B84702B01CBC90469946A24695
S214002120F0BD22000023064806498847FEE7C04661
S2140021307D140000B11F0000D51B00000918000028
S214002140FC88010085140000F0B5D6464F4646468A
S214002150C0B584B004000F00019299460CAB002273
S2140021609A5E9046264B9847002805D12200002309
S214002170244825498847FEE7002F0AD03800204B20
S214002180984700280AD13A0000231E481E4988476F
S214002190FEE720001D4B98470700EFE703AD210040
S2140021A01031380010302B00019A194EB04720002D
S2140021B0164B98471222835E6A884244298849440F
S2140021C0008A091A09B22980D21A12B26A8020003F
S2140021D0104B984748236A461279E254043B4A4615
S2140021E0E25202334246E25227644922A35C0221AD
S2140021F08B43A35404B01CBC90469946A246F0BD3F
S2140022007D140000FC88010085140000A11A00005F
S21400221041FF000085200000F0B5DE4657464E46DA
S2140022204546E0B583B080460191924699460CAB90
S21400223000229B5E9B46A14B9847002805D142464C
S21400224000239F489F498847FEE740469E4B984795
S214002250050040469D4B9847040040469C4B9847D7
S214002260C30F1B185B101EB240469A4B9847C70F09
S2140022703F187F103FB2019B002B0BD001988F4B6D
S214002280984700280BD05346142B1FD89B00924A21
S214002290D3589F464046914B98470190EEE7019AE7
S2140022A00023874887498847FEE7019C2000884B23
S2140022B09847C50F2D186D10AD1B2DB22000854B0D
S2140022C09847C40F24186410E41B24B24046834B7E
S2140022D09847019A138A4B445D19018A691A1500BA
S2140022E0528A5A441219448A121B12B209B2404644
S2140022F07B4B9847482342465146D154043B4946B7
S214002300D15202335946D1521564492243469B5C4A
S21400231002210B4341468B5403B03CBC9046994681
S214002320A246AB46F0BD75422DB27C4224B2CDE744
S2140023300198674B9847C50F2D186D10AD1B2DB231
S2140023407C4224B2C2E70198614B9847851B2DB2A8
S2140023507C4224B2BAE775422DB201985D4B98478D
S214002360C41B24B2B2E7019C2000594B9847C50F06
S2140023702D186D10AD1B2DB22000564B9847C41B70
S21400238024B2A3E7019C2000514B9847851B2DB231
S2140023902000504B9847C41B24B297E775422DB2D5
S2140023A001984C4B9847C40F24186410E41B24B2C1
S2140023B08CE7019C2000464B9847851B2DB22000D9
S2140023C0444B9847C40F24186410E41B24B27DE7DE
S2140023D075422DB27C4224B278E701983C4B984770
S2140023E0C50F2D186D10AD1B2DB27C4224B26DE7C3
S2140023F00198374B9847851B2DB27C4224B265E77F
S21400240075422DB20198334B9847C41B24B25DE742
S214002410019C20002E4B9847C50F2D186D10AD1B44
S2140024202DB220002B4B9847C41B24B24EE7019CCC
S2140024302000274B9847851B2DB22000254B984738
S214002440C41B24B242E775422DB27C4224B23DE75B
S21400245075422DB201981F4B9847C40F241864107C
S214002460E41B24B232E775422DB20198194B984707
S214002470C41B24B22AE70198154B9847851B2DB23A
S2140024807C4224B222E7019C2000114B9847851B12
S2140024902DB220000F4B9847C40F24186410E41B7D
S2140024A024B213E7019C2000094B9847851B2DB2E8
S2140024B02000084B9847C41B24B207E77D14000091
S2140024C0FC88010085140000111C0000551C00004B
S2140024D0991C0000C91C0000A4880100A11A000075
S2140024E08520000010B582B00400134B98470028E2
S2140024F010D04923E35C9B0712D54423E35E4822B1
S214002500A25C4621615E0091216C20000B4CA04726
S21400251002B010BD2200002309480A498847FEE79A
S2140025204423E35E4822A25C4621615E0091216C52
S2140025302000054CA047EBE77D14000019220000A0
S214002540FC8801008514000049210000F8B506004B
S21400255000210C4B9847041E12D00B4D094F20004B
S214002560A847002204212000E36998472000A847D6
S2140025702000FFF7EBFF21003000B847041EEED125
S214002580F8BDC046911B0000B11F000070B50500E5
S2140025900C00314B9847002813D0712C3ED8702C75
S2140025A01BD2412C13D8402C17D2022C05D3072C53
S2140025B013D92300103B082B0FD92800274B984728
S2140025C028E02A000023264826498847FEE7532CA1
S2140025D021D8502C01D24C2CEFD128001F4B984705
S2140025E0002204212800EB699847152C0AD3182CE2
S2140025F001D9FF2C06D12868002803D0C369002221
S214002600012198472800154B9847FF2C20D024B26C
S214002610002C1DDB70BD5C2CCFD1DEE77F2C0AD9E9
S214002620114B9C4210D8114B9C42D6D2902CD4D041
S214002630FF2CC2D1D1E77E2CCFD2732CBDD3752C04
S214002640CBD97C2CB9D1C8E7094B9C42B5D1C4E79D
S2140026502800084B9847DDE77D140000B11F0000F6
S214002660FC88010085140000818000008080000046
S2140026708E8000004D25000010B50400034B9847DF
S214002680FF212000024B984710BDC046D51D000014
S2140026908D250000F0B5C64600B582B00700019152
S2140026A00025214B9846002300931CE05A1CD2B20A
S2140026B00AE0A7420FD0002F0DD00133DBB28B42C9
S2140026C00DD01A000628F1D0009C8A42F1D2920062
S2140026D034681459EDE7FF210198144B98470135EB
S2140026E0EDB2402D0CD029000198C047061E07D039
S2140026F001790029F3D04379062018400023E0E74B
S214002700002101980A4B9847041E09D0084E210064
S2140027103800FFF7BFFF21000198B047041EF6D12E
S21400272002B004BC9046F0BDF91C00008D250000E8
S214002730911B0000F0B5D6464F4680B583B0019099
S2140027400020114B98478146002817D00F4B9A4619
S2140027500F4F104E4D4630352800D047041E07D088
S21400276021000198B84721002800B047041EF7D181
S2140027704846054B984781460028EBD103B00CBC71
S21400278091469A46F0BDC046E5F600006D0601008B
S2140027909526000085060100F8B504000D00817935
S2140027A000683F4B98473F4B9847A1880F230B4044
S2140027B0082B19DC002D08D10823E25E3A4B984717
S2140027C0A1882068394B9847F8BDFF2D09D008230B
S2140027D0E65E0C23E25E921B6A431212921912B254
S2140027E0ECE70C23E25EE9E70B2B3CDC002D05DD75
S2140027F0FE2D05DDA2892E4B9847E1E72289FAE7F0
S214002800EDB2FF22521B637BDB086B43667AF60849
S21400281056439E1933029B19DB019B191B01DB0EE5
S214002820A7897F05BF0E6F4326897605B60E5643E9
S214002830BF193E02F619F601F619F600277BFF06C9
S214002840FF0E7D43277AFF06FF0E7A43AD182A0255
S2140028505219D20152191201B60E7601D20EDB02BF
S21400286032431A43C7E70D2B11DC002D05DDFE2D84
S21400287005DD227B0F4B9847A2E7227AFAE7227AF9
S214002880237B9B1A5D432D125219D2B2F2E77F2D9D
S21400289003DCA268084B984792E7E268FAE7C0466E
S2140028A0F91C000021560000F54C00008D250000A4
S2140028B0554E0000B54F00000951000010B5040049
S2140028C0054B9847002801D0002010BD22000023A9
S2140028D0024803498847FEE77D140000FC88010093
S2140028E085140000F8B5DE4657464E464546E0B528
S2140028F082460D0000280AD0E94B9847002800D0F1
S2140029003AE152460023E748E7498847FEE7E74BA7
S2140029109847002800D104E23030E54B9847040081
S214002920DF4B9847002805D122000023E148DE4906
S2140029308847FEE7002C00D1ECE14C212000DE4B5E
S214002940984722003432537830218B435370DB4B48
S214002950E361DB4B23620023A361238263820020B2
S214002960D84B98470138A0820020D74B98470138AB
S214002970E082201D4C21D54B98470021002061861F
S21400298000233022A0540132A3541732A354442308
S214002990E1520233E15221640132A35C0127BB43BA
S2140029A0A354A16334239846E25C4B3313400122C0
S2140029B09446624613437D221340793A9343270098
S2140029C034377A780E26B2430626B1464E46324350
S2140029D00826B3430836B3432C36A0551C3EB343F3
S2140029E02036B3434646A35563461A437A703D23C2
S2140029F0E05461620C3F3800B54B9847002D00D17B
S214002A0040E1290028313800B24B98472900183198
S214002A10220010322B001033187810700132013368
S214002A208B42F9D13222AB5E63863023EA5CE254F5
S214002A300133EA5CE2541733EA5CE254043BEA5E94
S214002A40E2520233EA5EE2522B6C23644922A95C0E
S214002A5001239B4601273940A35C584683430B431A
S214002A60A354AB69A3613423EA5CD209D101E25CCA
S214002A7094467F22664632400A43E254EA5CD20716
S214002A80D20FE15C81430A43E254EA5C52083A40C2
S214002A905200E15C0226B1430A43E25435229446D2
S214002AA0AA5C210034310C361640B0464A780E2611
S214002AB0B243464632434A70EA5C92083A40920075
S214002AC0E65CB0460426B146464648468643324350
S214002AD0E254EA5CD2083A40D200E05C8046082025
S214002AE0464686433243E254EA5C12093A401201F3
S214002AF0E05C80461020464686433243E254EA5C59
S214002B0052093A405201E05C804620204646864301
S214002B103243E254EA5C92093A409201E75C402074
S214002B2087433A43E2540833EA5CE2546346EB5C7C
S214002B30DB07DB0F4A785846824313434B70A86B7B
S214002B40002802D02100644B98472800634B984722
S214002B50002800D1D2E05346002B00D1DAE028004E
S214002B605F4B9847070028005E4B984702003900E5
S214002B7020005D4B9847C4E05346181D4C4B9847C1
S214002B800400474B984700284BD0002C00D1C1E0EA
S214002B904C212000484B984753462360220034328D
S214002BA0537830218B435370444BE361444B23628C
S214002BB00023A361534612229B5E638253465F8ABC
S214002BC000204A4B98473223434350334022FF327B
S214002BD0012093422BD8C019E0822000444B98472E
S214002BE0012830D0534610229B5E238253461F8A0C
S214002BF000203E4B98476423434350334022FF3225
S214002C00012093420AD90020384B984703006420DD
S214002C1058435030A021374B984780B2C019A08245
S214002C20A7E62200002323481F498847FEE7002026
S214002C302E4B98470300322058435030A0212D4B8E
S214002C40984780B2C7E7534614229B5EA38253463A
S214002C509F8A0020254B98476423434350334022E5
S214002C60FF32012093420AD90020204B98470300E8
S214002C70642058435030A0211E4B984780B2381A23
S214002C80208276E65346002B04D0022120001A4B01
S214002C90984736E001212000174B98473AE0C04697
S214002CA07D140000FC8801008514000009F6000071
S214002CB0CD050100948801004D100100413E000042
S214002CC0E139000015F600003DF60000B9050100E8
S214002CD05D490000A1560000A9160000A11A0000D8
S214002CE0111C0000551C00008520000065F6000041
S214002CF0BD280000F1790100691C01005346002B35
S214002D0008D05346DB692200012150469847200030
S214002D10054B984720003CBC90469946A246AB46D9
S214002D20F8BD5446F6E7C046B11F000070B5040073
S214002D300D00084B9847002806D03C23E05C28404E
S214002D40431E9841C0B270BD2200002302480349CA
S214002D508847FEE77D140000FC880100851400000B
S214002D6070B582B005000E000D4B9847002805D0C0
S214002D703F2E09D83D23E85C02B070BD2A00002330
S214002D80084809498847FEE701AC267000236370AF
S214002D90220009212800054B98476078ECE7C046DA
S214002DA07D140000FC88010085140000551A000000
S214002DB0F0B5DE4657464E46C0B584B006000D0058
S214002DC01700130A0193002830D0244B9B46244B4F
S214002DD09A46244B99460CE002AB06330020185E58
S214002DE004B01CBC91469A46A346F0BD0025002EB2
S214002DF01DD029003000D847009029003000D04769
S214002E0004023C19A4B202AB9A1D21000098C847E0
S214002E100128E1D06B461B795BB2002B07DA002D48
S214002E20E4D13000104B98470600DFE714000F4B44
S214002E301C40222C10D007D80620032CD0D0072CFC
S214002E4008D180204000CBE70F20312CC8D00130BD
S214002E50C02CC5D00020C3E7FF20C1E7F91C000046
S214002E60612D0000E1570000A11A0000FF80FFFF5F
S214002E70F0B5DE4657464E46C0B584B006000D0097
S214002E801700130A0193002828D01C4B9B461C4BA6
S214002E909A461C4B994605E003AB188825E00025AA
S214002EA0002E1CD029003000D847009029003000A2
S214002EB0D04704023C19A4B203AA21000098C847D0
S214002EC00128E9D06B461B795BB2002B07DA002D90
S214002ED0E5D130000C4B98470600E0E714000B4B9A
S214002EE01C40293C0020012C05D904B01CBC91468E
S214002EF09A46A346F0BD064B1888F6E7F91C000074
S214002F00612D0000B5580000A11A0000FF80FFFFE9
S214002F10F8880100F0B5DE4657464E46C0B584B088
S214002F2006000D001700130A0193002829D01E4B37
S214002F309B461E4B9A461E4B994605E002ABD87937
S214002F402AE00025002E1DD029003000D84700902A
S214002F5029003000D04704023C19A4B202ABDA1DA7
S214002F6021000098C8470128E8D06B461B795BB261
S214002F70002B07DA002DE4D130000E4B98470600F0
S214002F80DFE714000C4B1C406D2C0BD00B4B9C4207
S214002F9008D02C2C06D0FF2004B01CBC91469A46C4
S214002FA0A346F0BD0020F7E7F91C0000612D0000E5
S214002FB081590000A11A0000FF80FFFFAD800000CD
S214002FC0F0B5DE4657464E46C0B584B006000D0046
S214002FD01700130A019300282CD01F4B9B461F4B4B
S214002FE09A461F4B994609E0039804B01CBC9146CC
S214002FF09A46A346F0BD0025002E1CD029003000BE
S214003000D847009029003000D04704023C19A4B2EB
S21400301003AA21000098C8470128E5D06B461B7913
S2140030205BB2002B07DA002DE5D130000D4B984738
S2140030300600E0E714000C4B1C40BE2C09D00B4BDE
S2140030409C4203D07E2C01D00020CEE7084B984748
S214003050CBE70848C9E7C046F91C0000612D000010
S214003060555A0000A11A0000FF80FFFF8E80000066
S2140030705D1C0100D8C8010070B50468A5880F2340
S2140030802B40082B13DD0B2B18DD0D2B1DDDA17936
S2140030902A002068104B9847A0600023A380A179DF
S2140030A023002A0020680D4EB047A58070BDA17988
S2140030B02A0020680A4B98472081EEE7A1792A006B
S2140030C02068084B98472081E7E7A1792A00206806
S2140030D0054B98472072E0E7C12F0000291D00002D
S2140030E0B12D0000712E0000152F0000F0B5DE4651
S2140030F057464E464546E0B59DB004008B463D23F8
S214003100C35C8B4200D108E2C34B9847002808D026
S2140031103D23E25C91465A46E25400230093CA4699
S214003120B2E122000023BD48BD498847FEE7737917
S2140031300422134373713D2399465246E2542A00F3
S21400314000992000B74FB84707904B465A46E254BE
S2140031502A0000992000B8478046737904229343DA
S2140031607371079B83424BD03D265346A3552A00D6
S21400317000992000AB4B9847020081465B46A3555A
S21400318029000198A84B9847012D00D194E0A74844
S214003190A74B98470600A04B9847002800D1A0E010
S2140031A0002E2DD04B4633814346B3813460B58024
S2140031B06B461B78B3710CA89E4B98470C969E4B9B
S2140031C00D939E4B0E939E4B0F9300231293FF334B
S2140031D01393069B1493059B5B421593049B180060
S2140031E0083010AA19781170013201338342F9D1E0
S2140031F00CA83622835C01218B438354914B98475D
S214003200029B023302930C2B00D137E109AB029AE2
S214003210D55A002DF4D003988B4B98470099200080
S2140032208A4B984706008A4B984701900F232B40FD
S214003230082B00DC7BE70B2B59DD0D2B00DDA3E014
S21400324073790422134373713D2399465246E25420
S2140032502A00009920007F4FB84780464B465A46C2
S214003260E2542A0000992000B84707007379042228
S2140032709343737143468342C2D03D265346A355BB
S2140032802A0000992000734B9847020007905B467F
S214003290A35529000198704B98476448644B98479B
S2140032A006005D4B9847002868D0002EA8D06B46D5
S2140032B01B7F3372377379E7684B994500D133E14A
S2140032C0984500D063E72000654FB847C60F36180C
S2140032D0761036B22000B847C30F1B185B101BB21F
S2140032E03AE1320000235F484D498847FEE773798C
S2140032F00422134373713D2399465246E2542A0032
S21400330000992000584B98469847071C4B465A464B
S214003310E2542A0000992000C0476B4698837379D0
S214003320042293437371BFB283B29F4200D167E712
S2140033303D265346A3552A00009920004A4B98473D
S214003340071C5B46A355021C29000198474B98476B
S2140033503648374B984706002F4B9847002807D02B
S214003360002E00D14CE737816B469B8BB3811DE75F
S214003370320000233B482A498847FEE732000023F4
S214003380384827498847FEE73D2399465246E25487
S21400339073790422134373712A0000992000344F76
S2140033A0B84708904B465A46E2542A000099200037
S2140033B0B84707000C9073790422934373710CA9E5
S2140033C008A82C4B9847002800D119E73D265346FD
S2140033D0A3552A0000992000254B9847814608905F
S2140033E05B46A355020029000198234B98470F48D7
S2140033F00F4B98470600084B9847002806D0002E2B
S21400340000D1FDE64B46B360F760CFE632000023FE
S214003410144803498847FEE77D140000FC88010035
S21400342085140000B12D0000F54C0000684D00200A
S214003430CD0501004DFA0000992700007930000004
S214003440011E00000DFB000069570000F91C00007B
S21400345021560000152F0000B54F0000FF7F00002A
S214003460991C000094880100712E0000554E000043
S214003470C12F00008D7F010009510000009B013321
S214003480DBB20093402B44D000992000364B98477F
S214003490039000283DD043791B07EFD4B022009E4E
S2140034A031002000314B98470690B12231002000B1
S2140034B02E4B98470590BE22310020002C4B984793
S2140034C00490B22231002000284B984709AD28808E
S2140034D0B32231002000254B98476880B422310083
S2140034E02000224B9847A880B522310020001F4BB1
S2140034F09847E880B622310020001C4B9847288168
S214003500B72231002000194B9847688100230293A8
S2140035107CE6FF212000174B98471DB03CBC904628
S2140035209946A246AB46F0BD2000134FB847C60FDB
S2140035303618761036B22000B847C30F1B185B103B
S2140035401BB2711C5A1C8A4200DD0A0012B2914658
S2140035500A4A904500D01AE601360133B34200DD30
S21400356033001BB2984612E6F91C0000B12D00008D
S214003570C12F00008D250000991C0000FF7F000071
S21400358070B504000D000A4B9847002809D03D236B
S214003590E35C290019438B4202D02000054B984774
S2140035A070BD22000023044804498847FEE7C04651
S2140035B07D140000ED300000FC880100851400003A
S2140035C070B504000D000A4B9847002809D03D232B
S2140035D0E35C1900A9438B4202D02000054B9847B4
S2140035E070BD22000023044804498847FEE7C04611
S2140035F07D140000ED300000FC88010085140000FA
S21400360010B50400054B9847002801D0A06B10BDEC
S21400361022000023024803498847FEE77D14000085
S214003620FC8801008514000010B504000A4B98477A
S214003630002809D0A06B00280CD0084B9847201A09
S21400364044426041C0B210BD220000230448054930
S2140036508847FEE70020F6E77D14000045170000C7
S214003660FC8801008514000010B50368002B0DD0FF
S214003670021D01231468002C04D00133DBB204328F
S214003680072BF7D19B001950012010BD0023F9E746
S214003690F0B5CE4600B582B005000E00140001223B
S2140036A0C84B98472080C84A31002800C74B984727
S2140036B001900700052835D9237B002B3FD1237DB9
S2140036C0002B00D06CE0237F002B00D08FE0362349
S2140036D0E35C002B00D0AFE02823E35C052B00D989
S2140036E0F7E04423E35C052B00D923E1F92F22D829
S2140036F06B469B88227B5A43120A2273227D5A43CA
S214003700120A22752821625C5A43120A62540E314C
S214003710625C5A43120A62544422A75C5F433F0A23
S214003720A75408E00023237323752822A3540E32DF
S214003730A3540E32A35402B004BC9146F0BD2C2212
S21400374031002800A14B984720730528B7D92922B5
S214003750310028009E4B98476080232231002800C5
S214003760984B9847C0B2A071002806D1202231009D
S2140037702800944B98476073A1E72A22310028005E
S214003780934B9847A0802122310028008D4B994604
S21400379098472081222231002800C8476081E5E74B
S2140037A0302231002800874B98472082002800D11D
S2140037B089E73C2231002800844B9847207505286D
S2140037C006D83222310028007E4B984760757AE78B
S2140037D03122310028007B4B9847FF231840608237
S2140037E03922310028007A4B9847E081E9E74022E9
S2140037F031002800734B98472083002800D166E7E5
S2140038004C2231002800714B98472077052806D8AF
S2140038104222310028006B4B9847607757E74122D9
S21400382031002800674B9847608349223100280002
S214003830674B9847E082EBE76E2231002800654B25
S2140038409847E062002800D146E76C223100280045
S2140038505E4B98473623E054052800D83CE76D2297
S21400386031002800594B98473723E0546122310035
S2140038702800544B98470300581E83413822A05C0A
S214003880012188431843A054E06A534B9847022806
S2140038900BD03723E35C052B14D8602231002800B8
S2140038A0484B98473923E05416E769223100280030
S2140038B0474B9847A086494A31002800454B984711
S2140038C02063EAE7692231002800414B9847A0862A
S2140038D0E3E75022310028003A4B9847208400281E
S2140038E000D1FEE65C2231002800384B984728239A
S2140038F0E054052800D8F4E6512231002800314B68
S214003900994698476084522231002800C847A08410
S214003910532231002800C847E0845922310028008D
S2140039202B4B9847E083542231002800C8472923B0
S214003930E054D6E67F2231002800264B9847E06305
S214003940002800D1D2E67C22310028001F4B984781
S2140039504423E054052800D8C8E673223100280026
S214003960184B994698474823E052742231002800A5
S214003970C8474A23E052792231002800144B984762
S2140039804623E0527E2231002800124B98472064DE
S214003990702231002800C8474C23E05271223100C3
S2140039A02800C8474E23E052752231002800C84739
S2140039B05023E054722231002800C8475123E054B7
S2140039C094E6C046B12D00000C800000152F0000C4
S2140039D0712E0000C12F0000618100008E80000063
S2140039E0F0B59BB004000E00022A07D0002A61D072
S2140039F00020012A00D1B5E01BB0F0BD0021814BAC
S214003A00984703000320002BF6D101220021200056
S214003A107C4FB8470190042200212000B8470500DB
S214003A20052200212000B84727001037002305A9EB
S214003A30FA5C5A540133082BFAD1ADB205A90B88AB
S214003A405B1B0B808B88ED188D8080B24B881B1A11
S214003A504B80CB88C018C880019A30006A4B9847C4
S214003A6003000220002BC7D02C2200212000674B29
S214003A70984703000220F92BBED9202200212000FF
S214003A80604B9847C3B20220002BB5D132220021EA
S214003A9020005C4B9847C3B20220002BACD15C4A96
S214003AA000212000594B98470023F92282425B41AF
S214003AB0581CA1E705A8574B984733220021200041
S214003AC0504B9847002802D0002205AB1A7505AA6D
S214003AD000212000504B9847042200212000494F27
S214003AE0B8470500052200212000B84727001037F8
S214003AF0002303A9FA5C5A540133082BFAD1ADB25D
S214003B0003AB1A88521B1A809A88AD189D8080B223
S214003B105A88121A5A80DA888018D88005AA310086
S214003B2018003E4B9847022200212000354B98474C
S214003B30002801D100205FE71C20394B984705007C
S214003B400122002120002F4B984702000023390055
S214003B502800344EB04798239B00E1182800324BCB
S214003B609847E7E7013200212000264B98470028B7
S214003B7040D1332200212000224B9847030000202A
S214003B80002B00D138E705AD2800224B98470023CC
S214003B902B733622AB540E3AAB542A000021200079
S214003BA01D4B9847042200212000164FB8470500F9
S214003BB0052200212000B8471034002303A9E25C48
S214003BC05A540133082BFAD1ADB203AB1A88521BF4
S214003BD01A809A88AD189D8080B25A88121A5A8028
S214003BE0DA888018D88005AA310018000B4B984751
S214003BF0002001E798239B00E0180C4B98470C4BDD
S214003C009847B6E7B12D00009DFE0000152F000076
S214003C100C80000021AB000091360000C5AB000010
S214003C20C10E010055A80000EDA5000095A60000F5
S214003C30D50B0100F0B5DE4657464E46C0B58AB0F5
S214003C40040004915022784B98470600051E30D198
S214003C507F22049F39002000744B9847061E06D02A
S214003C607C2239002000724B9847052850D8402205
S214003C70049920006C4B9847061E00D0C0E0042232
S214003C8004992000684FB8470600052204992000D2
S214003C90B847031CB04200DA331C1AB2002A01DD12
S214003CA0ED182DB228000AB01CBC91469A46A346D1
S214003CB0F0BD5C22049920005D4B9847002505283E
S214003CC0C6D95322049D29002000574FB847F30F4A
S214003CD09E19761001363618B6B251220495290080
S214003CE02000B8470500522204992000B847EA177A
S214003CF0AB185340C21780185040984200DA18009C
S214003D003018031C020401D41DB2A1E70023FBE710
S214003D107022049F39002000434B9946984705902F
S214003D20702239002000C84783467E220497390057
S214003D3020003E4B9847020006AF00218A460291BB
S214003D403C4B019359460091059B310038003A4E92
S214003D50B04708AE5346338073803B88013BB38040
S214003D607B88013BF3807522049F39002000C847FA
S214003D700590732239002000C84782467422390015
S214003D802000C847814607AA13006A46127D200015
S214003D90103005933100294FB847059A13885344CD
S214003DA09BB252884A4492B21020215E36889E19F1
S214003DB036B28E1BAE4200DA2E001221605E08A9D3
S214003DC04988511809B236B2411AB14200DA3100B8
S214003DD008A880881B181BB21425605F09B21B1A3E
S214003DE08B4200DA0B0008A9C988521812B21620B6
S214003DF0215E1BB2521A9A4200DA1A0015B236E752
S214003E004C22049920000A4B9847052800D836E72C
S214003E10412204992000044B98478619AE4200DAE6
S214003E202E0035B22BE7C046B12D0000C12F000092
S214003E30152F0000187C0000E51A010041FF000065
S214003E4010B5040008291BD0072924D0012927D043
S214003E5006292BD0032935D004293DD00B293FD085
S214003E600B000D3B012B40D9162943D0172957D0FC
S214003E70012000290AD120002C4B9847012005E09C
S214003E801378002B03D128345460012010BD002382
S214003E9053600120FAE726491000264B9847F5E7BD
S214003EA0254B984701235840C0B2EFE70021234B2B
S214003EB09847638E1A1C1BB2834200DA021C628685
S214003EC00120E3E74923C35C0120DB07DED52000A1
S214003ED01B4B98470120D9E71A4B98470120D5E796
S214003EE00531194B98470120D0E71021174B98470A
S214003EF00120CBE7164B9847164B9847002805D06D
S214003F0006212000104B98470120BFE70221200021
S214003F100D4B9847042120000C4B98470120B5E72D
S214003F2011390A4B98470120B0E7C046D51D00005E
S214003F300C890100693600002D2D0000353C00007C
S214003F40E52400006D1A000081350000C135000030
S214003F50013600005B170000F0B5CE4600B582B013
S214003F60040001900D00103100221F4B98470028D6
S214003F7027D03423EB5CDB0625D42B6A002B28D015
S214003F800222210028009847814603281DD02E1DB6
S214003F903000164B9847041E0BD0154F2100019891
S214003FA0FFF7DAFF002808D121003000B847041ECA
S214003FB0F4D100204B46012B09D002B004BC914638
S214003FC0F0BD0020F9E70020F7E70020F5E728001D
S214003FD0F3E72E1D3000054B984704000223994650
S214003FE00028DAD1E9E7C0469DFE00006D06010014
S214003FF085060100F0B5D6464F4680B58DB0070061
S2140040000D003423C35CDB0604D50DB00CBC914612
S2140040109A46F0BD3223C65E06AC21002E4B98476A
S214004020B3B22288D21A22806288D21A6280A2880C
S2140040309A18A280E2889B18E3802200290008A82C
S214004040264B98470028E0D03B6A002B03D000227E
S21400405008A93800984706A938001F4B984706AAB3
S21400406029000AA81D4B9847002807D13B6A002B59
S214004070CBD0012208A938009847C6E73B1D01931C
S2140040801800174B9847051EF0D0134B9A46134B53
S2140040909946144E04E029000198B047051EE5D065
S2140040A004AC21002800D0476B8E2288D21A2280CA
S2140040B06288D21A6280A2889A18A280E2889B1828
S2140040C0E38022000AA902A8C8470028E3D002A974
S2140040D02800FFF78FFFDEE7D51B00000FFC00006F
S2140040E079060100AD060100F0B5D64600B582B0EF
S2140040F0041E01910DD0019920001A4B984720000C
S214004100194B9847051E0AD0184B9A46154E1F00A5
S21400411010E0174B1868174B9847041EEBD102B0F7
S21400412004BC9246F0BD28000F4B98472C00002890
S214004130F5D005002B1D009321001800D047041E63
S21400414007D001992000B04721000098B847041E08
S214004150F7D12B6A002BE6D0012201992800984758
S214004160E1E7C046F53F0000A11A0000AD060100D9
S214004170E8260020AD14000070B51C4D28681C4BC6
S2140041809847040028681B4B984700280DD1012348
S214004190A361164B186843681A6AD2070FD51B6AC4
S2140041A09B070CD50123E3610BE0104D2868A3693B
S2140041B0002BECD0C369002BF9D09847F6E7002314
S2140041C0E361C368002B03D021001031A268984732
S2140041D02368002B06D06268002A03D0A1688B42B1
S2140041E001D0A36070BDA260FCE7C046E8260020B0
S2140041F009F700000DF7000070B582B005001C4EF0
S21400420030681C4B9847040030681B4B98470028C2
S21400421009D1174E3068A369002B04D0C369002B60
S214004220F9D09847F6E72200103229006846134B6B
S21400423098470F4C2068124B984701006846114B70
S21400424098476946104DA8472068104B984769461E
S214004250A84720680E4B98476946A84720680D4B2C
S2140042609847002801D002B070BD0B4B9847FAE77C
S214004270E826002009F700000DF700000FFC0000FC
S214004280AD140000593F0000E9400000C9140000CA
S214004290E514000025F70000794100007047000093
S2140042A0F0B585B005000E00002857D0002E5AD075
S2140042B002AC0023238063802800374B98470138E0
S2140042C0A0802800354B98470138E0802200310056
S2140042D06846334B984700284BD02B69002B02D0FA
S2140042E0694628009847B4235B00EB5A9B059B0D54
S2140042F0002B14DD002100242A4EB4277F0009314C
S214004300C900691800226846B047002831D1013438
S214004310A4B22100EB5B9B059B0D9C42EFDB1F2BA1
S21400432029DC0933DB00EB1800226946515C9954FE
S2140043300132082AF9D1B42149006B5A9A05802027
S214004340C00384466244920D9B0A9B0213436B5241
S214004350E86A6639FF39144B98470AE0134B9847CA
S214004360051E06D0A2E7B4225200AB5A9B0A9B0257
S214004370AB5205B0F0BDB4225200AB5A9B0A9B026A
S214004380AB5228004830002302A95A5CC2540133BD
S214004390082BFAD1CFE7C04615F600003DF6000020
S2140043A00FFC00009DFE00004915010009F6000004
S2140043B0014B18687047C046E8260020F0B5DE4678
S2140043C057464E464546E0B589B00500C74B984768
S2140043D00590C74CEB68236000212800C54B984722
S2140043E02068C36B002B0ED0B4235B00C35A9B051A
S2140043F048270026002B00D184E2BD4B9846BE4BD2
S2140044009A46C34656E0B4225200835A9B0A9B0241
S21400441083526DE200194930FF30073B03700134C8
S214004420B34B1868B4235B00C35A9B059B0D9C4294
S21400443035D203194933FF331B78002BEFD1A64240
S214004440EDD025000935ED004119C019D0470028E8
S214004450E5D05B4619684A19C91906A8A74B9847BC
S21400446006A8A74B9946984700905B461B68D81944
S214004470C84701905B461B685819C847019B9C4675
S2140044806044009B8342CAD2994B1868C119002326
S21400449006AA9A5CCA540133082BF9D1BAE701364A
S2140044A0934B1868B4235B00C35A9B059B0D0837D3
S2140044B09E420FD280194930FF300378002BEED190
S2140044C043461868B4235B00C35A9B0500D1FBE142
S2140044D00024AEE700218B4A1160B4225200825AB3
S2140044E0920500D1F8E11A00013A04922DD40499FD
S2140044F042184932FF321278002A0DD04733FF3374
S214004500C3180A00013A05D3013B59780029F9D1AE
S214004510049201E00023049341682023CA5C01242E
S214004520A243CA544168CA5C02208243CA54704BF4
S2140045301C68B4235B00E35A9B0500D1CCE14823FA
S214004540019300239B46270044E000230493E3E7FF
S214004550796820228B5C012003438B5444E0644C32
S2140045602068694B98470500002606822068674B3E
S21400457098470138A8826E822068654B98470138B4
S214004580E8822368596820228B5C022003438B5400
S2140045900098604B9847564B18688369002B09D0E3
S2140045A0019B9C466044564B9847564B1A68944667
S2140045B06044186001239C46E3444D4B1F68019BF2
S2140045C008330193B4235B00FB5A9B059B0D9B4568
S2140045D000DB81E15B46FB184933FF331B78002B79
S2140045E0E8D1049B5B45B3D0796820228B5C02201F
S2140045F083438B54019B9C46BC446346009338001F
S214004600454B98470028AAD1394B9A4618683E4B26
S214004610984706005B46DB00FF184C23FC5A013423
S214004620043BFB5AE41A23B298464E23FC5E651CF4
S2140046304A23FB5AED1A2DB253461868344B984756
S214004640844231DA4E23FB5E99464146F068334B8E
S2140046509847A846854200DD8046254B1B681B69A7
S214004660002B2FD0002306AA138093805380434646
S2140046701DB21F4B9A464346B0461E006C1E24B21F
S21400468006ABDC8053461868036906A9984706AB54
S2140046900621595E4B1C06AA52889B1A1BB29E42E4
S2140046A00ADA251EEADC76E7114B1868184B98479D
S2140046B0013803B29946C8E74646002D00DC6AE793
S2140046C04B1C98464A23FC5E4B4602934346E3182F
S2140046D0013B4B4567DC43466A46938193899A467D
S2140046E0013B03934B46B9461F0026E08DF70000BA
S2140046F0E82600204915010059FE00007DFC000058
S214004700F3FB0000EC26002009F7000015F6000079
S2140047103DF60000F941000025F70000F1790100A0
S214004720AF421CD000987D4B9847544424B2434671
S214004730E318013B029A93421ADC48234A46D35EAA
S21400474033824C234A46D35EB3827482A4B2039B60
S214004750E5182DB2F582AF42E2DAF7823D00704BE3
S2140047601B68596820228B5C022003438B54D9E7D0
S2140047703B004F469946A94500D10CE74823FB5E0F
S21400478033824C23FB5EB38274824B46F382644BC7
S2140047901B68596820228B5C022003438B540098C8
S2140047A05E4B9847F7E60025E5E75E4B98470028FE
S2140047B004D05B4B18684369002B1FD0584C206808
S2140047C0483080214900584DA84720684930FF30BE
S2140047D02021A8472168B42252008B5A9B0A9B02CC
S2140047E08B520598514B9847010020688369002B2F
S2140047F000D179E04E4A1268984775E04D4B9847CD
S21400480004004D4B9847A369002BFCD1A3689B4638
S214004810236899469B4501D163689946404C2068B9
S214004820464B984700902368B42252009A5A920545
S214004830C4D042009246002635000BE00136B6B2E0
S2140048403500374B1B68B42252009A5A9205920DD7
S2140048509642B3DA5A194932FF321278002AEDD15D
S214004860EA009B184A229F5E48229A5E009C7C4380
S214004870A41864004C215B5A01339B1A1BB25B00E0
S21400488001932B000933DB00254A126802929446F6
S214004890634406229B5EBB42D0DBA046D8444C4411
S2140048A00935ED00019A21004046254B984701370F
S2140048B03FB2D04454441A4B1B6802935B1906223D
S2140048C09B5EBB42EEDAB9E70022194B1A60B423AE
S2140048D05B00C35A9B0512D1114B1868B4235B00CA
S2140048E0C35A9B0500D060E7164B9847164B98476F
S2140048F009B03CBC90469946A246AB46F0BD0023A4
S214004900049309E600220A4B1A60B4235B00C35ADC
S2140049109B05E9D000230493FEE5C046F94100005C
S214004920E826002025F700004D100100A9F700003A
S214004930EC26002009F700007941000015F600007B
S2140049408D0C0100350C01003DF4000010B504216B
S214004950014B984710BDC0464D10010010B5082108
S214004960014B984710BDC0464D10010070B50400BD
S2140049700D000679002E45D00068036899420CD0D9
S214004980031D721ED2B20132920082189A4239D0AA
S2140049900433191F0968A942F8D1012E10D0711EE0
S2140049A08900194B98470600184B9847002811D0E5
S2140049B0002E27D02279002A21D00021002314E0DF
S2140049C0134B984700232360237163790122934396
S2140049D0637117E0320000230E480F498847FEE750
S2140049E00133DBB222799A4209D99A00206812581C
S2140049F09542F5D0880082510131C9B2F0E7013AFC
S214004A002271266070BDC046450E01007D14000070
S214004A10390B0100948801008514000070B505006C
S214004A200C00002830D01F4B98472B79002B2CD138
S214004A3004201D4B9847060030001C4B9847002862
S214004A402AD0002E20D06B795908012211401A4234
S214004A5000D001312A79914210D2154BD3189B0011
S214004A60F31814481018013A521AD2B2821A920059
S214004A70B21818685860043B9342FAD189008C51EA
S214004A802B7901332B712E6070BD01339900286895
S214004A90094B98470600CFE732000023074808492D
S214004AA08847FEE76D490000710A01007D1400008A
S214004AB0FFFFFF3FFEFFFF3F450E01009488010009
S214004AC08514000070B505004279D3070FD506237C
S214004AD01340063B5A425341DBB20279002A22D0E9
S214004AE09A4222D902689B009C58200070BD042080
S214004AF00F4B984704000F4B984700280DD0002C0A
S214004B00F3D020000C4B9847210028000B4B984709
S214004B106B79012213436B71E7E7220000230848F4
S214004B2008498847FEE70024DFE70024DDE7C046A3
S214004B30710A01007D1400004D4900001D4A000066
S214004B40948801008514000010B504000068024B2C
S214004B5098470023236010BD390B010010B501688B
S214004B60002919D00B78FF2B12D000200F2403E069
S214004B70901C0B5CFF2B0CD02340821C082BF7DD0F
S214004B80821C0B2BF4DD021D0D2BF1DC421CEFE723
S214004B900020023080B210BD0020FCE770B5060091
S214004BA00C1E0DD00B68002B0AD00800054B98474A
S214004BB00500054B9847306021682A00034B98474C
S214004BC070BDC0465D4B0000710A01008D0C0100EF
S214004BD0F0B5DE4657464E464546E0B585B0061E5D
S214004BE0039100D17BE00068002800D17BE0CCB2C6
S214004BF00B0A9846191C0378FF2B4ED0012252420E
S214004C000292934600227F25AA464906490E8C4604
S214004C10703DC146B0461CE0811849784F464F406B
S214004C2056463E420DD04906490E01910F00664693
S214004C30B74310D159450EDD09B28B4611B2029129
S214004C4009E04346C8461E0015E08A1C835CFF2B1D
S214004C500DD09C42E0D02B40911C082BF5DD911C1A
S214004C600B2BF2DD111D0D2BEFDC511CEDE743463F
S214004C70C8461E00029A002A33DB140080184378C8
S214004C8042465A40130000205B060AD005B03CBCE2
S214004C9090469946A246AB46F0BD01235B4202937E
S214004CA0E8E73000114B98470F23039A134004217E
S214004CB00B2B03DD01390D2B00DD03310D00411AEE
S214004CC08C4206D233685A19125D1A5501348C424A
S214004CD0F8D13068064B984730600120D6E70020B0
S214004CE0D4E70020D2E70020D0E7C0465D4B0000A6
S214004CF0450E0100F0B5DE4657464E464546E0B541
S214004D0087B0060002ABD98003AB1A800468002C7B
S214004D1058D0CDB20B0A9A46191C2378FF2B4DD0DB
S214004D20012252429046944600227F20834649063E
S214004D30490E8946703802961AE0A11849785646F8
S214004D404E405F4637420DD04906490E01910E008F
S214004D504F46BE430ED161450CDD09B28C4611B2FA
S214004D60884607E0029E13E08A1CA35CFF2B0DD04A
S214004D709D42E2D00340911C082BF5DD911C0B2BC5
S214004D80F2DD111D0D2BEFDC511CEDE7029E4246B5
S214004D90002A17DBA3185B7855465D406B0611D1D9
S214004DA00232A41803AB1A7822705B78637007B0DF
S214004DB03CBC90469946A246AB46F0BD01235B42FA
S214004DC09846E4E7FF220E2302A98C4663441A8025
S214004DD030001B4B9847002800D10230043085B2C3
S214004DE029002000174B98473060174B984700283B
S214004DF020D0002EDBD0AB1F32689446634402AA54
S214004E0091790632197052785A702B1F3268944680
S214004E10634403AA1178197052785A70023D3368B9
S214004E205D190E2302AA944663441A782A705B78AA
S214004E306B70BCE732680023044805498847FEE7E4
S214004E405D4B0000450E01007D14000094880100B3
S214004E5085140000F0B5DE4657464E464546E0B59A
S214004E6087B0060003AB1A8002ABD9800468002C1A
S214004E7058D0CDB20B0A9A46191C2378FF2B4DD07A
S214004E80012252429046944600227F2083464906DD
S214004E90490E8946703802961AE0A1184978564697
S214004EA04E405F4637420DD04906490E01910E002E
S214004EB04F46BE430ED161450CDD09B28C4611B299
S214004EC0884607E0029E13E08A1CA35CFF2B0DD0E9
S214004ED09D42E2D00340911C082BF5DD911C0B2B64
S214004EE0F2DD111D0D2BEFDC511CEDE7029E424654
S214004EF0002A17DBA3185B7855465D406B0611D178
S214004F000232A41803AB1A7822705B78637007B07D
S214004F103CBC90469946A246AB46F0BD01235B4298
S214004F209846E4E7FF220E2302A98C4663441A80C3
S214004F3030001B4B9847002800D10230043085B261
S214004F4029002000174B98473060174B98470028D9
S214004F5020D0002EDBD0AB1F32689446634402AAF2
S214004F6091790632197052785A702B1F326894461F
S214004F70634403AA1178197052785A70023D336858
S214004F805D190E2302AA944663441A782A705B7849
S214004F906B70BCE732680023044805498847FEE783
S214004FA05D4B0000450E01007D1400009488010052
S214004FB085140000F0B5DE4657464E464546E0B539
S214004FC087B00600019202ABD9800468002C55D049
S214004FD0C8B20B0A9A46191C2378FF2B4AD0012226
S214004FE052429046944600227F25AB464906490E1B
S214004FF08946703D02961AE0A118497856464E40FA
S2140050005F4637420DD04906490E00910E004F46C6
S214005010BE430ED161450CDD09B28C4611B28846FE
S21400502007E0029E13E08A1CA35CFF2B0DD098427B
S214005030E2D02B40911C082BF5DD911C0B2BF2DDEA
S214005040111D0D2BEFDC511CEDE7029E4246002A97
S21400505014DBA3185B785046584043060ED1A218BE
S2140050606B461B79937007B03CBC90469946A246A7
S214005070AB46F0BD01235B429846E7E7FF220E23CE
S21400508002A98C4663441A8030001A4B98470028C1
S21400509000D10230033085B229002000164B984715
S2140050A03060164B984700281DD0002EDBD06B1FB3
S2140050B032689446634402AA91790632197052788F
S2140050C05A7033685B19033B6A4612791A70023DC0
S2140050D033685D190E2302AA944663441A782A7030
S2140050E05B786B70BFE73268002305480549884740
S2140050F0FEE7C0465D4B0000450E01007D14000033
S2140051009488010085140000F0B5DE4657464E46EA
S2140051104546E0B587B00600029202ABD980046827
S214005120002C5FD0CDB20B0A9A46181C2378FF2BB2
S21400513054D0012252429046944600227F218B464C
S2140051404006410E89460F2101961AE0A0184078C5
S214005150564646405F4637420DD04006400E009009
S21400516006004F46BE430ED160450CDD00B28446B5
S21400517010B2804607E0019E13E0821CA35CFF2B62
S2140051800DD09D42E2D00B40901C082BF5DD901C04
S2140051900B2BF2DD101D0D2BEFDC501CEDE7019EF6
S2140051A04246002A1EDBA3185B7855465D406B0618
S2140051B018D10232A41802AB1B78237002AB5B78BE
S2140051C0637002AB9B78A37002ABDB78E37007B02A
S2140051D03CBC90469946A246AB46F0BD01235B42D6
S2140051E09846DDE7FF220E2302A98C4663441A8008
S2140051F030001F4B9847002800D10230063085B299
S214005200290020001B4B984730601B4B984700280E
S21400521028D0002EDBD02B00083B3268944663442F
S21400522002AA91790632197052785A70AB1F32680A
S2140052309446634402AA12781A7002AA52785A70E8
S21400524002AA92789A7002AAD278DA70023D33687F
S2140052505D190E2302AA944663441A782A705B7876
S2140052606B70B4E732680023044805498847FEE7B8
S2140052705D4B0000450E01007D140000948801007F
S21400528085140000F0B5DE4657464E464546E0B566
S21400529085B08146039200285BD00568002D5BD060
S2140052A0CEB2090A081C2B78FF2B4ED001225242A0
S2140052B00292934600227F24A2464006400E844671
S2140052C00F2788461AE0A8184078444644405146BE
S2140052D021420DD04006400E0190040061468C43EA
S2140052E00ED158450CDD01B28B4611B2029107E093
S2140052F0414613E0821CAB5CFF2B0DD09E42E2D0F1
S2140053003B40901C082BF5DD901C0B2BF2DD101D8E
S2140053100D2BEFDC501CEDE74146029A002A1EDBFF
S214005320931CED182B78039803706B7843704B46EC
S2140053301B689A1850784906490E084005B03CBCD0
S21400534090469946A246AB46F0BD01235B420293C7
S214005350E3E701204042F1E701204042EEE701206A
S2140053604042EBE7F0B5DE4657464E464546E0B5CA
S21400537085B081460392002858D00568002D58D085
S214005380CEB2090A081C2B78FF2B4BD001225242C2
S2140053900292934600227F24A2464006400E844690
S2140053A00F2788461AE0A8184078444644405146DD
S2140053B021420DD04006400E0190040061468C4309
S2140053C00ED158450CDD01B28B4611B2029107E0B2
S2140053D0414613E0821CAB5CFF2B0DD09E42E2D010
S2140053E03B40901C082BF5DD901C0B2BF2DD101DAE
S2140053F00D2BEFDC501CEDE74146029A002A1BDB22
S214005400AD18AB78039803704B461B689A18507813
S2140054104906490E084005B03CBC90469946A2464F
S214005420AB46F0BD01235B420293E6E70120404213
S214005430F1E701204042EEE701204042EBE7F0B5FD
S214005440DE4657464E464546E0B585B08146039251
S21400545000285BD00568002D5BD0CEB2090A081C78
S2140054602B78FF2B4ED00122524202929346002206
S2140054707F24A2464006400E84460F2788461AE040
S214005480A818407844464440514621420DD0400674
S214005490400E0190040061468C430ED158450CDD49
S2140054A001B28B4611B2029107E0414613E0821C1E
S2140054B0AB5CFF2B0DD09E42E2D03B40901C082BED
S2140054C0F5DD901C0B2BF2DD101D0D2BEFDC501CB8
S2140054D0EDE74146029A002A1EDB931CED182B7856
S2140054E0039803706B7843704B461B689A18507885
S2140054F04906490E084005B03CBC90469946A2466F
S214005500AB46F0BD01235B420293E3E70120404235
S214005510F1E701204042EEE701204042EBE7F0B51C
S214005520DE4657464E464546E0B585B0814693462C
S21400553000285FD00668002E5FD0CFB20A0A111C82
S2140055403378FF2B52D00120404203900290002473
S214005550803082464906490E8C460F2190461BE055
S2140055603219507842464240554615420ED0400603
S214005570400E01900500624695430FD1029A904274
S2140055800CDD02B2029222B2039207E0424613E01A
S214005590941C335DFF2B0DD09F42E1D00B40A21C24
S2140055A0082BF5DDA21C0B2BF2DD221D0D2BEFDCEC
S2140055B0621CEDE74246039C002C21DB20000234EF
S2140055C0361900235C46F15CE1540133042BFAD112
S2140055D04B461B681B1858785206520E104005B0F2
S2140055E03CBC90469946A246AB46F0BD01235B42C2
S2140055F00393E0E701204042F1E701204042EEE756
S21400560001204042EBE74379DA0707D59B0702D42F
S21400561003681868704703685868FBE70020F9E7D6
S21400562043799B0702D50368186870470020FCE79B
S21400563070B5041E26D04379DB0708D5144B98476F
S214005640051E04D0134B98472800134B98476379E0
S2140056509B0709D52000114B9847051E04D00D4B1B
S214005660984728000C4B98472379002B0BD1002332
S21400567023602371637901229343013293430232FC
S2140056809343637170BD2068034B9847EFE7C046AD
S21400569007560000494B0000390B01002156000058
S2140056A070B505000C002B4B98472368002B3ED0A6
S2140056B06379DA071FD49B0710D52079013880005C
S2140056C0254B984728602279013A92002368191DD5
S2140056D0224B98472379013B2B7128E020798000E4
S2140056E01D4B984728602279920021681B4B9847EB
S2140056F023792B711BE09B071AD52079023880008E
S214005700154B984728602279023A920021680831A2
S214005710124B98472379023B2B712800104DA8475F
S21400572006002000A847010030000E4B984770BDC9
S214005730207901388000084B984728602279013A82
S21400574092002368191D054B98472379013B2B715E
S214005750E3E7C04631560000710A01008D0C0100D7
S214005760C54A00009D4B000070B5050043799B07B5
S21400577004D5144B98470400200070BD0420124B3B
S21400578098470400114B9847002815D0002CF3D0FA
S21400579020000F4B9847210028000E4B98476B7946
S2140057A0022213436B71DB07E6D52B681A6859682B
S2140057B019602B685A60DFE7220000230648074975
S2140057C08847FEE721560000710A01007D1400009C
S2140057D04D4900001D4A0000948801008514000011
S2140057E0F0B5D6464F464646C0B584B0051E019174
S2140057F0914658D00368002B57D00B0A98460022D3
S21400580002ABDA800279002A42DD002401267642C5
S21400581006239A46264F16E00131C9B219E002ABBC
S21400582006331B884A461380012036E0B34205DD66
S21400583002AB06331B884A4613800600013424B2A6
S2140058402A79944226DAE1B26B7950460340062B59
S214005850E2D00020002A04D0914202D289002B68B0
S214005860C85802AB9A1D0199B84703008045D6D0A8
S2140058706A799107DAD50028D8DB002CD6D15207F2
S214005880D4D402AB06331B884A461380012004E0BA
S21400589001267642F04380B2C00B04B01CBC904692
S2140058A09946A246F0BD0020F7E70020F5E7C0467F
S2140058B085520000F0B5D6464F464646C0B584B081
S2140058C0051E0191914654D00368002B53D00B0A55
