S01700006F7261636C655F746573745F6432312E7372656352
S214000000986E0020A5160000A1160000A11600009C
S21400001000000000000000000000000000000000DB
S214000020000000000000000000000000A116000014
S2140000300000000000000000A116000059010000AA
S214000040A1160000A1160000A1160000A1160000CF
S214000050A1160000A1160000A1160000A1160000BF
S214000060A1160000710D0000810D0000910D00002A
S214000070A10D0000B10D0000C10D0000A11600008A
S214000080A1160000A1160000A1160000A11600008F
S214000090A1160000A1160000A1160000A11600007F
S2140000A0A1160000A1160000A1160000A11600006F
S2140000B00000000010B5064C2378002B07D1054B36
S2140000C0002B02D0044800E000BF0123237010BDBF
S2140000D0D80000200000000060B10200084B10B5F8
S2140000E0002B03D00749084800E000BF0748036814
S2140000F0002B00D110BD064B002BFBD09847F9E72C
S21400010000000000DC00002060B1020060B10200C8
S2140001100000000010B5402200210A480A4B98470C
S2140001200A4A002010600A4B53600A4C236A1B02DE
S2140001301B0AC02109060B43236290600723136045
S21400014010BDC046B04C002071C6010010E000E0B3
S2140001503F1F000000ED00E070B506490A684B68D6
S2140001600124002512196B410A604B600120024BE6
S214000170984770BDF8000020DD0E0100F0B5DE46A1
S2140001804F464646C0B586B0214B1E685F68186865
S2140001905968204B9B46FA2292000023D847040059
S2140001A0402200211C481D4B98471D4B99461D496F
S2140001B005942000984708001B4DE1210901A84737
S2140001C0FF2420408046FA229200002330003900A7
S2140001D0D84792B202923C21059E3000C847214083
S2140001E00191E12109013000C84708003C21A847D9
S2140001F00440009443460D4A402107480C4CA04753
S214000200054806B01CBC90469946A346F0BDC046BD
S214000210F800002091C30100B04C002071C6010018
S214000220B1C1010080510100A5C001004CCF010002
S21400023081C6010030B58DB0224B98470122224B73
S2140002401A70BFF35F8F62B6204B9847204B9847D3
S214000250204B9847204B9847204B9847204B984771
S214000260204C96235B0100221F4920001F4DA84703
S21400027001A81F4B98471F4B0493029401A81E4BDE
S214000280984700201D4B9847040000211C4B9847B8
S21400029005001C491C4B98470022002128001B4DD6
S2140002A0A847002120001A4B9847040023225A2111
S2140002B0A84718492000184B9847184B98470DB088
S2140002C030BDC046751600000C00002035BF01008A
S2140002D0C5BE0100FDBD010015010000651D000042
S2140002E051AF01008026002000010020010C010013
S2140002F09D0B0100DDBA0100210C0100451800002D
S2140003005D95010064CF0100C992010079290000C3
S214000310C5A80100CC5402009DA5010079C00100CB
S21400032010B50020084B984702000023074800211C
S21400033080185941064A0023064CA047064B9847AA
S214000340064B984710BDC046FD130000571B000023
S214000350581B000091C3010001000020A1360100D7
S214000360F0B5DE4657464E464546E0B587B0804671
S214000370049116001F000022002300218B463F2414
S21400038001202100009601975C460394444605949C
S21400039013E02024641A0500E540A84614E0009CFB
S2140003A0019D121BAB415C464D462C43A346039C65
S2140003B045462C430394013925D3202464420C1966
S2140003C0E7D40500A540A84604008C40A146921834
S2140003D05B4114001D00059E4F463E40B446049EF9
S2140003E047463E40B246664657463E4303D0060062
S2140003F0264332002B00009C019D9D42DBD8CED1C7
S2140004009442D8D8CBE7039B5846190007B03CBCAB
S21400041090469946A246AB46F0BD10B54908402323
S2140004200024814202D2180010BD1C00091A631C69
S2140004309BB28842F9D94023FF2CF4D814800023BD
S214000440F1E70000F0B583B00F00160008AA117897
S21400045004004C434022BC4202D9100003B0F0BD59
S214000460002B14D1020008000021194CA0470100FF
S2140004703A0000230020174CA04700220123121A3E
S2140004808B41120C1B041A4332800022E5E700223F
S214000490012BF9D10A00002300210D4CA0470200D1
S2140004A00B0000920193380000210A4CA04705007B
S2140004B080239B0140229842CFD8790FF800009AFB
S2140004C0019BA047EA00821AD2B252032A43DBE716
S2140004D0D1C301006103000010B582B004000E4BCA
S2140004E01B78002B07D0002905D10B4B5B78834285
S2140004F010D01D200CE001A90C701320074B984764
S2140005001320074B9847044B5C7001221A7000209A
S21400051002B010BD0020FBE7A42600201515000041
S21400052089140000404B984231D00AD93F4B98427C
S2140005304DD03F4B98425AD03E4B984237D0002081
S21400054070473D4B98420CD03C4B9842F7D101295E
S21400055017D000295DD0022915D0032915D0002018
S214000560EEE7012907D0002951D0022905D003293A
S21400057005D00020E4E73248E2E73248E0E73248B8
S214000580DEE73248DCE73248DAE73248D8E70129C6
S21400059007D000293FD0022905D0032905D0002026
S2140005A0CEE72D48CCE72D48CAE72D48C8E70129F5
S2140005B007D0002931D0022905D0032905D0002014
S2140005C0BEE72848BCE72848BAE72848B8E7012924
S2140005D007D0002923D0022905D0032905D0002002
S2140005E0AEE72348ACE72348AAE72348A8E7012953
S2140005F007D0002915D0022905D0032905D00020F0
S2140006009EE71E489CE71E489AE71E4898E71E4845
S21400061096E7032094E71D4892E71D4890E71D489B
S2140006208EE71D488CE7C0460010004200180042C6
S214000630001C00420014004200080042000C004269
S2140006400300050003000600030007000300010086
S21400065003001E0003001F000300090003000A0039
S21400066003000B0003001100030012000300130038
S21400067003000D0003000E0003000F000300170028
S214000680030018000300190003000400030008001C
S2140006900300100003000C000300160030B587B0FE
S2140006A00B4B6A4632CB32C232CB32C2009B8342FD
S2140006B00BD001239A0069465258824206D0013375
S2140006C0062BF7D1002007B030BD0023D8B2FAE7DA
S2140006D0D8540200F0B5DE4657464E464546E0B5CD
S2140006E091B005000C00160029600800BA4B984728
S2140006F0020023680520DB0706D511B03CBC9046F7
S2140007009946A246AB46F0BD236817309B07F4D443
S214000710B249086A971C0123BB4003430B620FA92A
S2140007202D27F35D0B701432D3B202931800AC4B36
S21400073098470298AB4B9847F05D0021AA4B984724
S214000740F37A6B712423F35CAB712523F35CEB71B6
S214000750F37E2B72337F6B722B68984618009E4B85
S2140007609847143000220E2306A98C4663441A804C
S214000770328A02928023DB019A4200D19AE00FD996
S214000780C023DB01029A9A4200D18EE080231B022E
S2140007909A4200D01BE1032306930023079308E048
S2140007A080239B019A4200D011E1102306930F3B51
S2140007B0079333680593F3689B4673690393337E08
S2140007C004932623F35C9A4673689946002B00D15F
S2140007D09CE080235B05994500D180E0737E002B6A
S2140007E002D0B37E424693730E2306AA9446634411
S2140007F01B8842469381059B5A461343039A13432C
S2140008004A461343029F1F43049B1B021F43534643
S2140008105B071F432723F35C002B01D104331F43E0
S214000820737E9B02327F52021343727F120213437F
S2140008302422B25C520413432522B25C12041343F2
S214000840B17AF27A114319433389FF2B00D181E044
S21400085080225204174319432C23F35C002B03D148
S214000860624B9B789B0701D580231F432A68D36978
S214000870002BFCD1434659602A68D369002BFCD173
S21400088043461F600EAB80221A7000225A70DA7040
S2140008909A70336B0A93736B0B93B36B0C93F36B77
S2140008A002930D9300270AAE63E008230693073BE6
S2140008B007937EE733680593F3689B467369039353
S2140008C0337E04932623F35C9A4673689946002B7E
S2140008D018D080235B05994501D0002025E027230A
S2140008E0F35C002B00D079E7336A1F00C0B2404BA0
S2140008F0984701000E2206AB9C46624438003D4BEA
S214000900984712E008230693002307932723F35CF7
S214000910002B0ED0069B0093079B0E2206A98C4642
S2140009206244B16A306A344FB847002800D0E4E623
S21400093054E7336A1F00C0B22D4B98470100069B50
S2140009400093079B0E2206A88446624438002A4F6E
S214000950B847EAE7F37E002B00D17DE78023DB046F
S2140009601F4379E72000254B984707E00137042FFF
S2140009700DD0F9B2BB0098590028F3D0431CF5D02F
S2140009800EA90870000CC0B21D4B9847EEE7002376
S214000990EB602B616B61AB61EB612B62AB626B62F0
S2140009A00022EB85AB853033EA540133EA54013339
S2140009B0EA540133EA542868074B98470400114963
S2140009C0114B9847A400114BE550002095E61023E4
S2140009D0069300230793ECE69D0600000004004003
S2140009E01515000089140000D904000000200041FD
S2140009F0311500001B04000045040000250500001A
S214000A000D1600006D0B0000050D0000F04C0020D8
S214000A10C2791C23002A01D118007047C28D92B2F9
S214000A20173B002AF8D1026811850221137E0B427B
S214000A30FCD00023F0E70000F0B5CE46474680B570
S214000A4083B0050001911720002A04D103B00CBC26
S214000A5090469946F0BDEB790530002BF6D02C6811
S214000A60013A93B2994600260127204B984611E09A
S214000A70731C9BB2019A915D6A79012A17D089B2DC
S214000A801E0028001A4B98474B46013B9BB29946DE
S214000A90434513D0237E3B42EAD1144B227E3A4292
S214000AA0E6D1012B19D0013B002BF7D1E0E7023647
S214000AB0B6B2019AD35C1B021943E2E7237E9B077A
S214000AC00DD40A4B0221227E0A420AD1012B0AD0FB
S214000AD0013B002BF7D10020B8E71220B6E7002034
S214000AE0B4E70020B2E71220B0E7C046FFFF0000E0
S214000AF0110A0000F8B504000D00160007680F4B39
S214000B009847A38D9BB2002B03D00D4B984705202A
S214000B10F8BDA6850A4B9847656205223223E25443
S214000B202E3BBB75237A002B01D02023BB75637A3E
S214000B300020002BECD00823BB75E9E7D10D0000A0
S214000B40110E0000931C9B00C3185960302101232E
S214000B5093401A00435C13434354704710B5012278
S214000B60014B984710BDC046F50A0000F8B5800056
S214000B70624BC5582C68E369002BFCD1237EA67D0A
S214000B801E403023EB5C3122AF5C1F40F30722D5BA
S214000B90EB8D9BB2002B1CD0AA6A1378DBB2511CDB
S214000BA0A962697901290ED09BB2DB05DB0D23858E
S214000BB0EB8D013B9BB2EB85002B0CD101332375EB
S214000BC00133A37507E0517809020B430232AA628B
S214000BD0EBE701232375B30706D50223237500220E
S214000BE03133EA54FB071AD4730765D5AB8D9BB235
S214000BF0002B5FD0638BDBB21A0714D43F2213405E
S214000C00002B34D09A0711D51A223223EA54303BEF
S214000C1063837B0750D528006B6998474CE0280013
S214000C20EB689847E0E737221340E9E75A0705D50F
S214000C301E223223EA542E3B6383EAE7DA0705D501
S214000C4013223223EA54313B6383E2E7DA0605D502
S214000C5042223223EA54223B6383DAE720221A42F6
S214000C60D7D021323223EA54123B6383D1E7238D57
S214000C70DB05DB0DDAB2696A0A706A6A511C6962C2
S214000C806979012910D0AB8D013B9BB2AB85002B57
S214000C9012D10433237500222E33EA54BB070BD53A
S214000CA028002B69984707E01B0A53706B6A0133CC
S214000CB06B62E8E704232375F30604D51023237537
S214000CC02376FB060ED4B30604D52023237523769D
S214000CD03B070BD4330704D5082323752376BB06BE
S214000CE008D4F8BD2800EB699847ECE72800AB6904
S214000CF09847EFE72B6A28009847F2E7F04C002069
S214000D0070470000F0B50A4B1B78002B0CD1094F3A
S214000D10094E0A4D0024DE515A1914600433182B6C
S214000D20F9D10122024B1A708000024BC150F0BD6F
S214000D30A6260020A8260020010D0000F04C00206A
S214000D4000B583B009236A4613700133537001332C
S214000D5093700133D3700133137101335371034B16
S214000D6098476B46185603B000BDC0469D06000067
S214000D7010B5024B1B680020984710BDA82600201F
S214000D8010B5024B5B680120984710BDA8260020CE
S214000D9010B5024B9B680220984710BDA82600207D
S214000DA010B5024BDB680320984710BDA82600202C
S214000DB010B5024B1B690420984710BDA8260020DA
S214000DC010B5024B5B690520984710BDA826002089
S214000DD00C4B1B68002B06D1EFF31083002B07D0BB
S214000DE00022094B1A70074A1368013313607047D4
S214000DF072B6BFF35F8F0022044B1A700132024BAB
S214000E001A70F0E7C0260020C42600200C00002040
S214000E10084B1A68013A1A601B68002B09D1064B6A
S214000E201B78002B05D00122044B1A70BFF35F8F8E
S214000E3062B67047C0260020C42600200C000020A2
S214000E40F0B583B001AC012565700027A77025704A
S214000E5021003E20064EB0478022D205054B9A61FF
S214000E602770657021000F20B04703B0F0BDC04664
S214000E70790E00008044004100B583B001AB8022AB
S214000E801A700A785A704A789A708A78DA70190056
S214000E90014B984703B000BD0D16000010B582B098
S214000EA001AB80241C7014785C7054789C70927827
S214000EB0DA701A00014B984702B010BD3D160000CC
S214000EC010B5082803D880001C4B1B589F460020EE
S214000ED032E01B4B18692FE01A4B1B6A9B059B0FD1
S214000EE01948D84028E0164B586925E0144B1B6873
S214000EF000209B0720D513491022CB681A42FCD04D
S214000F000F4B1A6824231340042B01D00F4813E01C
S214000F1000200F4B98470A4B9B681B041B0C58433A
S214000F200AE05023074AD35C00205B0704D5044B35
S214000F30D86801E08020000210BDC046F0540200D0
S214000F40C82600200008004000127A00006CDC0270
S214000F503115000070B50C490B6A04788578407826
S214000F600122104080014026B34303432A40D201A9
S214000F708020834313430322224012020348034087
S214000F8013430B6270BDC04600080040FFFCFFFF25
S214000F90F0B5DE4657464E464546E0B50100264BC0
S214000FA09B469B8A45780078424242419146887823
S214000FB0CA7894460A7990464E7B0F7B8C7B8A686B
S214000FC01E494A6101214A469200914604229343F3
S214000FD04A46134342460A40D200904608229343AC
S214000FE04246134362460A40120194461022934337
S214000FF062461343084040012022934303430F40B8
S214001000BF01402083433B430E40F60140308343FC
S2140010103343793805402D02094803402B432140CD
S2140010200903084803400B435A4693823CBC90464B
S2140010309946A246AB46F0BD00080040C8260020F0
S214001040FFF8FFFFFFEFFFFF10B5037A9B061B0CB0
S21400105042899205920D134318494B608379C279F1
S214001060134342888488224313434278D2011343B1
S2140010700B600378042B11D0202B0ED1037B9B062C
S214001080028A1343C28912040D490A4013430B4ACD
S214001090936011680B4B0B43136010BD037B9B06DC
S2140010A0028A1343C289120405490A401343034ABD
S2140010B09360136804210B431360EEE7C8260020F4
S2140010C00000FF0324040000082803D88000254BF6
S2140010D01B589F46172044E0234A136A02210B43FD
S2140010E0136200203DE0204A936902210B4393617E
S2140010F0002036E01C4A138A02210B43138200208C
S2140011002FE0194A938A02210B439382002028E09D
S21400111016490B68022213430B60134B9A8419007E
S2140011200E32CB681A42FCD0104A91680E4BD96238
S21400113052689A6200229A8419001032CB681A42CA
S214001140FCD00A4B1B689BB2074A9384002008E039
S214001150054944228B5C022003438B54002000E0A8
S214001160002070471455020000080040C8260020E2
S214001170F0B58FB0C222D2004A4B9A604A4A5368F2
S2140011801E218B431A390B435360022201AB1A709F
S2140011900024464DE0B201A9A8470134252CF9D118
S2140011A00AA800230370802212028260C370012204
S2140011B002718373032141708270437302733C4B48
S2140011C0984705203B4B984736490222CB681A427F
S2140011D0FCD0344A938A80210B43938205AB0021CE
S2140011E00022598099809A71DA713F3159813B39D2
S2140011F019705A70304B1B689B0E3F2B4FD005A8BA
S21400120003722E4B0382072303733833C3812C4BA0
S214001210984704A80025457005708570294B9847A7
S2140012200620244FB847284B984701AC0126029663
S2140012306570657205232370267221000120234BFA
S21400124098470120224B9847267021000020174B14
S214001250984700201F4B98470720B8471149D022CF
S214001260CB681340D02BFBD10E4A938C80210B43C6
S2140012709384194A0023137253729372D37201A98E
S21400128001224A604B700B724B7207330B700020C2
S2140012900E4B984700200E4B98470FB0F0BD203BF2
S2140012A0ADE7C046000800400040004115150000AC
S2140012B0910F0000C910000024608000B9050000EE
S2140012C049100000550F0000DD1200000113000059
S2140012D0B91300008914000000040040064A936910
S2140012E008210B4393610122044B1A7019000B78F6
S2140012F01342FCD17047C04600040040000C00407A
S21400130070B5060004000D782D0205434B78002BBF
S21400131002D08023DB021D434B7A002B02D08023B1
S2140013201B031D434868012810D9431E184234D1B8
S214001330022830D90223002201325B009842FBD8F3
S21400134012023243140080235B031D430B7A002BEA
S21400135002D080239B031D43134A53785BB2002BB5
S214001360FBDB124B9847124B1E700F4A53785BB24A
S214001370002BFBDB0C4B9C601A0053785BB2002BF7
S214001380FBDB094A5368802149020B401D43556028
S214001390084B984770BD0022D2E7040234438023EE
S2140013A09B021D43D2E7C046000C0040D10D000052
S2140013B0080C0040110E000010B504000B4A5378CC
S2140013C05BB2002BFBDB0A4B98470A4B1C70074AA4
S2140013D053785BB2002BFBDB044A516880235B0228
S2140013E00B435360044B984710BDC046000C0040AA
S2140013F0D10D0000040C0040110E000070B5040072
S2140014001A4A53785BB2002BFBDB194B9847194BF3
S2140014101C70164A53785BB2002BFBDB134E7068C9
S214001420C004C00E144B98470500124B1C7076681B
S214001430F602F60F114B1C700C4A53785BB2002B69
S214001440FBDB0A4B9C682402240C0D4B9847002EAD
S21400145007D1012C07D9210028000A4B9847050020
S21400146001E00134E540280070BDC046000C004095
S214001470D10D0000040C0040C10E0000080C004016
S214001480110E0000A5C0010010B50400064B9847D9
S214001490064B1C70064A53888021C9010B435380B3
S2140014A0044B984710BDC046D10D0000020C00400A
S2140014B0000C0040110E000010B504000F4B9847BA
S2140014C00F4B1C700F4A53881B05180F53880E4984
S2140014D00B40538053880D490B40538011008022E7
S2140014E0D2014B881342FCD106494A8803020648BB
S2140014F0024013434B80064B984710BDD10D0000A9
S214001500020C0040000C0040FFF0FFFFFFBFFFFF93
S214001510110E000010B50C7824020443024B9847C5
S214001520A4B2024B5C8010BDB9140000000C004051
S21400153010B50400064B9847064B1C70064B5C889B
S2140015402405240F054B98472000054B984710BDEF
S214001550D10D0000020C0040000C0040110E0000EF
S214001560FD13000030B5D378002B35D11378802BCF
S21400157029D01B0680246402234354780225AC43FA
S21400158006D19478002C20D18024A4022343416005
S2140015905478013C012C1CD90D042D0CA024E40524
S2140015A02C431C4384620D0CD02424062C431C437D
S2140015B08462D478002C22D15B031CD59378012B4F
S2140015C01ED0416117E00023D7E7C024E40223437E
S2140015D0DDE70D4C2340DFE741600C04240CA0231C
S2140015E0DB05234383620C0CD0231B062343836254
S2140015F0D378002B03D15378013B012B02D930BDA1
S2140016008161F8E78160FAE7FFFFFBFF10B50A008B
S214001610C1090023002904D14309DB0105498C4692
S21400162063441F242040012181401800024B984744
S21400163010BDC0460044004165150000F0B583B0FB
S21400164000900E00019200240127084D02E00134AC
S214001650202C09D03300E3401F42F8D0019A39000D
S214001660A1400098A847F2E703B0F0BD651500005A
S2140016707047000010B5054B9847054B9847054B3B
S2140016809847054B9847054B984710BD71110000C9
S214001690410E000071160000711600007116000061
S2140016A0FEE70000F8B52A4A2A4B9A4211D01A00E3
S2140016B0294B9A420DD2294A03339B1A9B080133C1
S2140016C09B000022234822498C58845004329A42B8
S2140016D0FAD1234A234B9A420AD2D34321495B18B4
S2140016E003218B4304339B18002102C29342FCD192
S2140016F01D4AFF211D4B8B439360FD3990235B00F1
S2140017001B4AD1501B4AD3780325AB4302242343FC
S214001710D370D3780C27BB4308263343D370164BBD
S214001720987B30229043202210439873997BB943CC
S214001730314399739A7BAA4322439A730F4A53689C
S21400174080210B4353600E4B98470E4B9847FEE79D
S21400175060B1020000000020D40000200400002039
S214001760D8000020944E002000ED00E000000000AD
S2140017700070004100500041004800410040004118
S214001780F9C5010091C001000300064A1268002A4C
S21400179004D0044A1068C318136070470249014A0F
S2140017A01160F6E7E0260020986E0020431E984160
S2140017B0C0B2704770B5C2B0040015001B4B984706
S2140017C00600E52829D80200210002A8184B9847F1
S2140017D002AB9819202303700833437008338370D4
S2140017E04833C370041D5C3B124E0F222900D940BB
S2140017F01140715C21700134043B191DF6D12D3364
S21400180003730023437302AB00930B4BBC220B49BC
S21400181003200B4CA04742B070BD0094064BBF227D
S21400182006490320064CA047F5E7C04609C7010055
S214001830452501004C55020038550200605502004F
S2140018405921010010B582B0002802D0C06B02B04A
S21400185010BD074B98470028F8D1064B0093064B5F
S2140018602E2206490230064CA0470020EFE7C0466D
S214001870750D010060570200705602002C570200DA
S2140018805921010010B582B0002802D0006C02B0C9
S21400189010BD074B98470028F8D1064B0093064B1F
S2140018A04B2206490230064CA0470020EFE7C04610
S2140018B0750D0100F0560200845602002C570200F7
S2140018C05921010010B582B0002802D0406C02B049
S2140018D010BD074B98470028F8D1064B0093064BDF
S2140018E05C2206490230064CA0470020EFE7C046BF
S2140018F0750D0100B45602009C5602002C570200DB
S21400190059210100F8B5002811D0002534272026DB
S214001910074C02E0A047002804D0C35D1E42F9D061
S2140019200500F7E7002D02D02800024B9847F8BDC7
S214001930A5210000ED280000F8B5DE4657464E46C5
S2140019404546E0B506008A469046037DDB073CD454
S214001950C468012399460025324F0F339B4615E095
S214001960337D5A461A4201D1002D2ED14B46002B0C
S2140019702BD03000D0470400002D4CD000239946D1
S214001980002C03D02068B84700280CD0002CE7D0E5
S214001990002D06D021003000C0470400A842EFD139
S2140019A013E02500F6E7F368A3420ED0002B16D00E
S2140019B01868C369002217219847F3681868002240
S2140019C00E21194B9847012805D03CBC90469946F5
S2140019D0A246AB46F8BDF3681868144B9847F46007
S2140019E02068C369002216219847F3681868002209
S2140019F00D210D4B98470128E7D1F36818680C4B6A
S214001A009847F3681868094B98473369002BDCD071
S214001A1030009847D9E70028D7D00500002399461C
S214001A20B0E7C04601270000DD1F0000692800005F
S214001A300519000010B518210148024B984710BD43
S214001A40744E0020D11D010010B5024A0249034B16
S214001A50984710BD9D1E0100851E01003919000023
S214001A6010B5024A0249034B984710BDC51E010037
S214001A70911E01003919000070B50400037DDD06D3
S214001A80ED0F1022134303751B0708D5054B984727
S214001A902D01237D102293432B43237570BD024BEB
S214001AA09847F5E7611A0000491A0000F0B583B0C0
S214001AB005000C00002818D00600274B9847002881
S214001AC015D003689C4208D0244F01003000B84768
S214001AD000280CD00368A342F7D1214B0093214B7A
S214001AE0752221490120214CA04703B0F0BDA36B0D
S214001AF0002B0FD020001E4B984700280AD0A06B62
S214001B001C4B98471C4B0093164B7F22164901200E
S214001B10164EB047A5632800184B98470600184B8A
S214001B20984700280BD0002EDFD0346028000A4BE0
S214001B3098478642D9D128000E4B9847D5E7094BDF
S214001B400093852208490330084CA0473200002342
S214001B500C480D498847FEE7851E01009D1E0100C2
S214001B60B05702009C57020020580200592101007D
S214001B703D460000791A0000EC570200351E0100B1
S214001B80AD17000054580200B5170000F0B583B03A
S214001B900500866B002E20D0F368002B1DD01B6836
S214001BA098421CD0019630001E4B9847041E14D055
S214001BB003689D4208D01C4F21000198B847041EB8
S214001BC00BD023689D42F7D121003000174B984771
S214001BD02000174B98470023AB6303B0F0BD337D5E
S214001BE0DB0703D5337D01229343337530000D4B5D
S214001BF09847F368984209D030000E4B9847F36830
S214001C001B689D42CED10023F360CBE730000A4B21
S214001C109847F3689842EFD10068C36900221721FD
S214001C209847ECE7851E01009D1E01006D1F010010
S214001C30C9230100791A0000911E0100002804D073
S214001C40C368002B03D0186870470020FCE700200C
S214001C50FAE7002803D0007D8007C00F70470020F9
S214001C60FCE70000014B18687047C046E4260020D9
S214001C70F8B50C00002815D05022835C02210B43D7
S214001C808354184B1B68984205D0002C07D0C36BB2
S214001C909C4204D0F8BD0022134B1A60F5E70023DF
S214001CA0C363F7E70020114B98470028F2D00D4F8A
S214001CB00D4D0E4E07E000232B600CE00023C3639F
S214001CC0B0470028E6D05022835C02210B438354A1
S214001CD03B688342EFD0002CF0D0C36B9C42EFD120
S214001CE0ECE7C046E4260020E8260020B90E0100F6
S214001CF010B500210020014B984710BD711C000054
S214001D00014B18687047C046E8260020F0B585B03D
S214001D100D00029116000392031D019318000F4B4D
S214001D209847041E18D0ADB2B7B20D4E238AEB18F2
S214001D302382638AFB186382A38AEB18A382E38A52
S214001D40FB18E382039A02992000FFF7DFFF2100C9
S214001D500198B047041EE9D105B0F0BD851E01000C
S214001D609D1E010030B585B0214B1B78002B36D167
S214001D70204B9847204B9847204B9847204B984736
S214001D80204B984710212048204CA047204B029318
S214001D900193009302221F211E4800881E4DA8476B
S214001DA01E4B98471E4B9847B82149001D48A04730
S214001DB060211D48A0471D4B98471D4B98470120A2
S214001DC01C4B984701220A4B1A701B4B00931B4B67
S214001DD0A1321B4901201B4CA04705B030BD1A4B51
S214001DE00093164B782216490220164CA047F4E7BB
S214001DF0F4260020B5220100A5340100451B010091
S214001E0065110100351A0000C44D0020D11D0100E7
S214001E1030000020625802000D690100CD4001002C
S214001E207D540000204D0020144D0020F11C0000C1
S214001E30EDFD00009DF10000745C0200BC5802003D
S214001E402C5C0200592101005C5C020030B583B0B6
S214001E5004000D000C4B9847002808D03422ED01F2
S214001E60A15C7F230B402B43A35403B030BD074B2C
S214001E700093074A07490330074DA847220000236E
S214001E80064807498847FEE7AD170000DC59020000
S214001E90940500002C5C020059210100205D020020
S214001EA0B517000030B583B004000D000D4B984701
S214001EB0002809D0342201231D40A35C012083435F
S214001EC02B43A35403B030BD074B0093B422D2007B
S214001ED006490330064DA847220000230548064958
S214001EE08847FEE7AD170000F45902002C5C02009C
S214001EF059210100205D0200B5170000F0B589B039
S214001F0007000C0003921E00002904D00800294B8D
S214001F10984700283CD005AB059400221A7107921A
S214001F20254B1B68002B00D0079305AA224B1A608E
S214001F30224B1D681E60224B9847002804D08368F9
S214001F40002B01D003999847002F02D00399200058
S214001F50B8471A4B1D60184B1A6892681A6005AB92
S214001F601B790020002B11D1002C1FD03433E35CEA
S214001F7001305B060AD52068002819D03200039984
S214001F80104B9847013842424241D0B209B0F0BDEA
S214001F900D4B0093DB22D2000C4903300C4DA847B2
S214001FA0220000230B480C498847FEE70120EDE796
S214001FB00120EBE7AD170000F0260020EC260020FD
S214001FC0651C0000DD1F0000545A02002C5C020055
S214001FD059210100205D0200B517000070B582B0DF
S214001FE004000D001600002818D00D4B9847002856
S214001FF00CD10C4B00930C4A0C4903300C4DA847EF
S214002000220000230B480C498847FEE7A0693300EE
S2140020102A002100094CA04702B070BD0120FBE752
S214002020AD170000445A0200C40600002C5C0200F3
S21400203059210100205D0200B5170000FD1E0000BA
S21400204030B583B004000D00094B9847002802D035
S214002050E56103B030BD074B0093074A07490330DC
S214002060074DA84722000023064807498847FEE791
S214002070AD170000685A02001B0700002C5C020027
S21400208059210100205D0200B517000010B5002898
S21400209004D0C369002B03D0984710BD0120FCE78D
S2140020A00120FAE730B583B004000D00094B9847CD
S2140020B0002802D0256203B030BD074B0093074AC4
S2140020C007490330074DA847220000230648074962
S2140020D08847FEE7AD170000805A02003707000069
S2140020E02C5C020059210100205D0200B51700009B
S2140020F030B583B004000D000C4B984700280CD177
S2140021000B4B00930B4A0C4903300C4DA84722009A
S21400211000230B480B498847FEE72900606A0A4BF4
S2140021209847002800D0606203B030BDAD170000AD
S214002130985A0200490700002C5C02005921010051
S214002140205D0200B5170000FD26010030B583B003
S21400215004000D4B984700280CD10C4B00930C4AFA
S2140021600C4903300C4DA847220000230B480C49AD
S2140021708847FEE700236386E369002206212000E5
S214002180984703B030BDC046AD170000B45A0200F1
S214002190590700002C5C020059210100205D020056
S2140021A0B517000030B583B004000A4B98470028E6
S2140021B002D0206803B030BD074B0093074A084999
S2140021C00330084DA84722000023074807498847E0
S2140021D0FEE7C046AD170000F45A02009F07000055
S2140021E02C5C020059210100205D0200B51700009A
S2140021F030B583B004000D4B9847002801D00C4D35
S2140022000DE00C4B00930C4A0C4903300C4DA847CC
S214002210220000230B480C498847FEE704002000F4
S214002220A8470028FAD1200003B030BDAD17000043
S214002230A5210000D05A02006B0700002C5C0200AB
S21400224059210100205D0200B5170000F0B5C64612
S21400225000B582B00400234B984700280FD02368AF
S214002260002B03D02000204B984704001F48204B2B
S2140022709847071E2AD01E4B98461E4E12E01E4B4D
S21400228000931E4A1E4903301E4DA8472200002315
S2140022901D481E498847FEE739001448154B9847E5
S2140022A0071E13D03D0030352800C0470028F3D065
S2140022B0844206D001002800B0470028ECD08442B3
S2140022C0F8D1380002B004BC9046F0BD104B009325
S2140022D0094BF222D2000A4902200A4CA0470027E6
S2140022E0EFE7C046AD170000F1210000204D0020AA
S2140022F0851E01009D1E0100E45A02007F070000B3
S2140023002C5C020059210100205D0200B517000078
S214002310305D020030B583B004000D000E4B9847C8
S214002320002807D0002D12D0201D29000B4B9847FF
S21400233003B030BD0A4B00930A4A0B4903300B4DDD
S214002340A847220000230A480A498847FEE7201DBE
S214002350094B9847ECE7C046AD1700009D1E0100EC
S214002360085B0200AD0700002C5C0200592101004A
S214002370205D0200B5170000851E010030B583B051
S21400238004000D000D4B984700280AD02000183096
S21400239010342178297001350134A042F9D103B0F8
S2140023A030BD074B0093074A07490330074DA8473F
S2140023B022000023064807498847FEE7AD170000BD
S2140023C01C5B0200010800002C5C02005921010081
S2140023D0205D0200B517000030B583B004000F4B37
S2140023E0984700280CD10E4B00930E4A0E49033036
S2140023F00E4DA847220000230D480E498847FEE7E9
S21400240020000D4B9847002805D0238A008A181A0A
S21400241000B203B030BD1023E05EFAE7AD1700004F
S214002420305B0200220800002C5C020059210100EB
S214002430205D0200B5170000A521000030B583B06E
S21400244004000F4B984700280CD10E4B00930E4A01
S2140024500E4903300E4DA847220000230D480E49B2
S2140024608847FEE720000D4B9847002805D0638A72
S214002470408A181A00B203B030BD1223E05EFAE7B5
S214002480AD170000405B0200360800002C5C02001E
S21400249059210100205D0200B5170000A5210000AB
S2140024A030B583B004000C4B9847002806D0A08AAD
S2140024B00130238AC01A00B203B030BD074B009328
S2140024C0074A08490330084DA8472200002307485A
S2140024D007498847FEE7C046AD170000505B02007C
S2140024E04A0800002C5C020059210100205D020011
S2140024F0B517000030B583B004000C4B9847002891
S21400250006D0E08A0130638AC01A00B203B030BD3C
S214002510074B0093074A08490330084DA847220096
S2140025200023074807498847FEE7C046AD17000066
S214002530645B0200560800002C5C02005921010072
S214002540205D0200B517000000B583B0002902D157
S214002550283003B000BD6B461970002301936A460D
S2140025600821044B9847012801D10198F1E7002083
S214002570EFE7C0468D200000F0B5DE4657464646DB
S214002580C0B580468A4693461E001D481D4B984798
S214002590041E2FD0B0422DD01B4F0AE0A3885B4507
S2140025A015D05B46FF2B12D0002D23D02C00AE4258
S2140025B020D021001248B847050020684045F3D1D6
S2140025C0A1795145EAD05346FF2BEDD1E6E70F4BF4
S2140025D098470F4B9847A1880E4B9847002120003C
S2140025E00D4B9847210006480C4B984720000C4B93
S2140025F09847D9E71CBC90469A46A346F0BDC0460D
S214002600C44D0020911E0100C51E01004925000092
S21400261065690000895E0000FD1101006D1F010064
S214002620C923010030B583B004000D000B4B98475A
S214002630002809D00A4B98470023FF2229002000D3
S214002640084CA04703B030BD074B0093074B084A21
S21400265008490230084CA047F4E7C0464925000068
S2140026607569000079250000845C0200AC59020000
S214002670920400002C5C020059210100F8B50468A1
S2140026801748184B9847002820D00026144D164FA0
S21400269004E001002800B84700280DD08442F8D096
S2140026A0036822689342F4D143681B0262681202F0
S2140026B09A42EED10126ECE7002E07D0210008480A
S2140026C00A4B984720000A4B9847F8BDA179206826
S2140026D0084B9847084B9847A188084B9847EDE762
S2140026E0C44D0020851E01009D1E01006D1F0100C7
S2140026F0C92301004925000065690000895E0000C5
S21400270030B583B004000B4B9847002805D034231F
S214002710E05CC006C00F03B030BD074B0093074A0D
S21400272007490330074DA8472200002306480749FB
S2140027308847FEE7AD170000785B0200410A0000FC
S2140027402C5C020059210100205D0200B517000034
S214002750F0B587B004000E00344B984700280DD122
S214002760334B0093F022520032490330324DA847D3
S21400277022000023314832498847FEE72000314BCB
S2140027809847002801D007B0F0BD20002E4B984790
S21400279007002E4B984705002D4B9847874209D0D7
S2140027A028002C4B9847874204D028002A4B98478D
S2140027B08742E8D13222A35E20001030002202A910
S2140027C0875C57540132082AFAD19BB202AA1188B4
S2140027D0C91A11805188C91A518091885918918058
S2140027E0D1885B18D380310004A81C4B984700287A
S2140027F0C9D020001A4B9847041E11D0174E22004D
S214002800103204A90800B0470028BCD020000D4BA9
S21400281098470028B7D12000114B9847041EEED1E8
S21400282004A928000F4B9847ADE7C046AD17000037
S214002830E05802002C5C020059210100205D0200D5
S214002840B517000001270000F12100004D2200000E
S2140028504518000085180000C51800000B1401007C
S214002860A52100008154000030B585B00400174B48
S214002870984700281DD03223E25E2500103500233D
S21400288002A8E95C19540133082BFAD193B202A9C5
S2140028900A88D21A0A804A88D21A4A808A889A18DF
S2140028A08A80CA889B18CB802000094B984705B0C1
S2140028B030BD084B0093084A08490330084DA84726
S2140028C022000023074808498847FEE7AD170000A6
S2140028D051270000F85802000D0200002C5C020090
S2140028E059210100205D0200B5170000F0B583B045
S2140028F00400164B984700280CD1154B0093154A38
S21400290015490330154DA8472200002314481549E1
S2140029108847FEE72000144B98470500061D300048
S214002920124B984784420FD02800114FB847012316
S2140029302200310030000F4EB0472200012128004F
S214002940EB6998472800B84703B0F0BDAD17000004
S2140029500C590200620200002C5C020059210100A2
S214002960205D0200B5170000A5210000851E0100AD
S21400297069280000FD1F0100F0B5D6464F464646C2
S214002980C0B584B004000D0017002E4B98470028F1
S21400299041D02668002E4BD0338A228A9B1A5B19B8
S2140029A09BB29A461BB29846758A638AED1AED1951
S2140029B0ADB22BB299464346002B02D14B46002BB4
S2140029C023D02000204FB84702A920001F4B98476D
S2140029D0238A53442382638AEB186382A38A534470
S2140029E0A382E38AED18E5824A4641462000184B4A
S2140029F0984702AA02212000E3699847F36922005B
S214002A000121300098472000B84704B01CBC90460F
S214002A109946A246F0BD0F4B00930F4A0F4903306C
S214002A200F4DA847220000230E480F498847FEE7AF
S214002A300E4B0093074BA722920008490220084C31
S214002A40A047E2E7AD170000692800007D230000DC
S214002A500D1D000024590200960200002C5C0200A6
S214002A6059210100205D0200B5170000545D0200E8
S214002A7030B583B004000D000D4B984700280DD1EB
S214002A800C4B0093B32292000B4903300B4DA84722
S214002A90220000230A480B498847FEE720000A4B1D
S214002AA09847020029002000084B984703B030BD25
S214002AB0AD170000345902002C5C020059210100B9
S214002AC0205D0200B51700003D24000079290000B3
S214002AD030B583B004000D000D4B984700280DD18B
S214002AE00C4B0093B62292000B4903300B4DA847BF
S214002AF0220000230A480B498847FEE720000A4BBD
S214002B00984701002A002000084B984703B030BDC4
S214002B10AD170000445902002C5C02005921010048
S214002B20205D0200B5170000D923000079290000B7
S214002B30F0B5D6464F464646C0B586B004000F00F0
S214002B40039299460EAB00229A5E90462D4B98470C
S214002B5000280CD12C4B00932C4A2D4903302D4DC8
S214002B60A847220000232C482C498847FEE7002F60
S214002B7011D03800234B9847002811D1224B0093E0
S214002B80274A23490330234CA0473A000023224813
S214002B9022498847FEE72000224B98470700E8E7CF
S214002BA005AD21001031380010302B00039A1E4E60
S214002BB0B04720001B4B98471222835E6A88424427
S214002BC029884944008A091A09B22980D21A12B201
S214002BD06A802000154B984748236A46127BE254C9
S214002BE0043B4A46E25202334246E25227644922F6
S214002BF0A35C02218B43A35406B01CBC90469946A6
S214002C00A246F0BDAD170000785902006D03000023
S214002C102C5C020059210100205D0200B51700005F
S214002C2071030000A52100003D170100792900006E
S214002C30F0B5DE4657464E464546E0B585B080467A
S214002C400391924699460EAB00229B5E9B46A84B8C
S214002C50984700280CD1A74B0093A74AA7490330F2
S214002C60A74CA04742460023A648A7498847FEE748
S214002C704046A64B984705004046A54B984704009B
S214002C804046A44B9847C30F1B185B101EB2404625
S214002C90A14B9847C70F3F187F103FB2039B002BEE
S214002CA00BD00398924B984700280BD05346142B12
S214002CB026D89B00994AD3589F464046984B98473B
S214002CC00390EEE78B4B0093964A8C4903308C4C6E
S214002CD0A047039A00238B488B498847FEE7039C4E
S214002CE020008C4B9847C50F2D186D10AD1B2DB2CC
S214002CF02000894B9847C40F24186410E41B24B2A4
S214002D004046874B9847039A138A4B445D19018ABD
S214002D10691A1500528A5A441219448A121B12B2B2
S214002D2009B24046804B9847482342465146D15404
S214002D30043B4946D15202335946D15215644922C2
S214002D4043469B5C02210B4341468B5405B03CBC7A
S214002D5090469946A246AB46F0BD75422DB27C42DF
S214002D6024B2CDE703986B4B9847C50F2D186D100E
S214002D70AD1B2DB27C4224B2C2E70398654B984740
S214002D80851B2DB27C4224B2BAE775422DB2039859
S214002D90614B9847C41B24B2B2E7039C20005D4BEE
S214002DA09847C50F2D186D10AD1B2DB220005A4B3D
S214002DB09847C41B24B2A3E7039C2000554B9847B2
S214002DC0851B2DB22000544B9847C41B24B297E7AE
S214002DD075422DB20398504B9847C40F24186410C0
S214002DE0E41B24B28CE7039C20004A4B9847851BC3
S214002DF02DB22000484B9847C40F24186410E41BDB
S214002E0024B27DE775422DB27C4224B278E703985F
S214002E10404B9847C50F2D186D10AD1B2DB27C4248
S214002E2024B26DE703983B4B9847851B2DB27C4236
S214002E3024B265E775422DB20398374B9847C41BFA
S214002E4024B25DE7039C2000324B9847C50F2D182F
S214002E506D10AD1B2DB220002F4B9847C41B24B21B
S214002E604EE7039C20002B4B9847851B2DB2200075
S214002E70294B9847C41B24B242E775422DB27C42C8
S214002E8024B23DE775422DB20398234B9847C40FF2
S214002E9024186410E41B24B232E775422DB203985E
S214002EA01D4B9847C41B24B22AE70398194B984732
S214002EB0851B2DB27C4224B222E7039C2000154BD2
S214002EC09847851B2DB22000134B9847C40F241833
S214002ED06410E41B24B213E7039C20000D4B9847B4
S214002EE0851B2DB220000C4B9847C41B24B207E765
S214002EF0AD17000088590200950300002C5C020004
S214002F0059210100205D0200B5170000D9230000FA
S214002F103D240000A1240000F524000064580200AF
S214002F20A5210000A10300007929000030B583B078
S214002F300400174B9847002810D04923E35C9B07F2
S214002F4019D54423E35E4822A25C4621615E0091C7
S214002F50216C20000F4CA04703B030BD0E4B0093F1
S214002F600E4A0F4903300F4DA847220000230E4893
S214002F700E498847FEE74423E35E4822A25C4621CA
S214002F80615E0091216C2000094CA047E4E7C04632
S214002F90AD170000312C00009C5902002A040000E6
S214002FA02C5C020059210100205D0200B5170000CC
S214002FB0312B0000F8B5060000210C4B9847041E84
S214002FC012D00B4D094F2000A847002204212000F4
S214002FD0E36998472000A8472000FFF7EBFF210091
S214002FE03000B847041EEED1F8BDC04615230000D9
S214002FF06928000030B583B005000C00354B9847B3
S214003000002813D0712C46D8702C22D2412C1AD806
S214003010402C1ED2022C05D3072C1AD92300103BB5
S214003020082B16D928002C4B98472FE02B4B0093E3
S2140030302B4A2C4903302C4CA0472A0000232B484F
S2140030402B498847FEE7532C22D8502C01D24C2C13
S214003050E8D12800204B9847002204212800EB697D
S2140030609847152C0AD3182C01D9FF2C06D12868AE
S214003070002803D0C3690022012198472800164B78
S2140030809847FF2C21D024B2002C1EDB03B030BDA5
S2140030905C2CC7D1DDE77F2C0AD9164B9C4210D892
S2140030A0154B9C42D5D2902CD3D0FF2CBAD1D0E76A
S2140030B07E2CCED2732CB5D3752CCAD97C2CB1D12C
S2140030C0C7E70E4B9C42ADD1C3E728000C4B984790
S2140030D0DCE7C046AD17000069280000C4590200AE
S2140030E01D0500002C5C020059210100205D020035
S2140030F0B517000081800000808000008E800000F0
S214003100B52F000010B50400034B9847FF212000A0
S214003110024B984710BDC04625260000F52F00003C
S214003120F0B5C64600B582B0070001910025214BD8
S2140031309846002300931CE05A1CD2B20AE0A7422D
S2140031400FD0002F0DD00133DBB28B420DD01A000A
S2140031500628F1D0009C8A42F1D2920034681459B5
S214003160EDE7FF210198144B98470135EDB2402D4D
S2140031700CD029000198C047061E07D00179002907
S214003180F3D04379062018400023E0E70021019899
S2140031900A4B9847041E09D0084E21003800FFF756
S2140031A0BFFF21000198B047041EF6D102B004BC50
S2140031B09046F0BD49250000F52F000015230000BD
S2140031C0F0B5D6464F4680B583B001900020114B2F
S2140031D098478146002817D00F4B9A460F4F104E3F
S2140031E04D4630352800D047041E07D021000198F0
S2140031F0B84721002800B047041EF7D14846054BC3
S214003200984781460028EBD103B00CBC91469A46FD
S214003210F0BDC046510E0100851E010021310000A0
S2140032209D1E0100F8B504000D00817900683F4B33
S21400323098473F4B9847A1880F230B40082B19DC73
S214003240002D08D10823E25E3A4B9847A1882068F3
S214003250394B9847F8BDFF2D09D00823E65E0C23AE
S214003260E25E921B6A431212921912B2ECE70C232A
S214003270E25EE9E70B2B3CDC002D05DDFE2D05DDCF
S214003280A2892E4B9847E1E72289FAE7EDB2FF22A2
S214003290521B637BDB086B43667AF60856439E191F
S2140032A033029B19DB019B191B01DB0EA7897F05E7
S2140032B0BF0E6F4326897605B60E5643BF193E02EB
S2140032C0F619F601F619F600277BFF06FF0E7D437A
S2140032D0277AFF06FF0E7A43AD182A025219D2014A
S2140032E052191201B60E7601D20EDB0232431A4391
S2140032F0C7E70D2B11DC002D05DDFE2D05DD227B3D
S2140033000F4B9847A2E7227AFAE7227A237B9B1A8A
S2140033105D432D125219D2B2F2E77F2D03DCA2686C
S214003320084B984792E7E268FAE7C046492500004E
S21400333065690000AD5F0000F52F000035610000F4
S214003340BD6200003164000030B583B004000A4B53
S2140033509847002802D0002003B030BD074B0093EA
S214003360074A08490330084DA847220000230748AB
S21400337007498847FEE7C046AD1700008C5B020091
S214003380B10A00002C5C020059210100205D0200F9
S214003390B5170000F0B5DE4657464E464546E0B542
S2140033A083B082460D00002811D0E24B98470028D3
S2140033B000D051E1E04B0093ED22E0490330E04CB1
S2140033C0A04752460023DF48DF498847FEE7DF4B29
S2140033D09847002809D1DE4B0093D74BCF22D74918
S2140033E00230D74CA047544619E23030D94B9847A4
S2140033F00400D04B984700280CD1CF4B0093D42222
S214003400CE490330CE4DA84722000023D248CE49ED
S2140034108847FEE7002C00D101E24C212000CF4B6C
S214003420984722003432537830218B435370CC4B6C
S214003430E361CC4B23620023A361238263820020D6
S214003440C94B98470138A0820020C84B98470138DE
S214003450E082201D4C21C64B984700210020618643
S21400346000233022A0540132A3541732A35444231D
S214003470E1520233E15221640132A35C0127BB43CF
S214003480A354A16334239846E25C4B3313400122D5
S2140034909446624613437D221340793A93432700AD
S2140034A034377A780E26B2430626B1464E46324365
S2140034B00826B3430836B3432C36A0551C3EB34308
S2140034C02036B3434646A35563461A437A703D23D7
S2140034D0E05461620C3F3800A64B9847002D00D19F
S2140034E07BE1290028313800A34B98472900183182
S2140034F0220010322B00103318781070013201337E
S2140035008B42F9D13222AB5E63863023EA5CE2540A
S2140035100133EA5CE2541733EA5CE254043BEA5EA9
S214003520E2520233EA5EE2522B6C23644922A95C23
S21400353001239B4601273940A35C584683430B432F
S214003540A354AB69A3613423EA5CD209D101E25CDF
S21400355094467F22664632400A43E254EA5CD2072B
S214003560D20FE15C81430A43E254EA5C52083A40D7
S2140035705200E15C0226B1430A43E25435229446E7
S214003580AA5C210034310C361640B0464A780E2626
S214003590B243464632434A70EA5C92083A4092008A
S2140035A0E65CB0460426B146464648468643324365
S2140035B0E254EA5CD2083A40D200E05C804608203A
S2140035C0464686433243E254EA5C12093A40120108
S2140035D0E05C80461020464686433243E254EA5C6E
S2140035E052093A405201E05C804620204646864317
S2140035F03243E254EA5C92093A409201E75C40208A
S21400360087433A43E2540833EA5CE2546346EB5C91
S214003610DB07DB0F4A785846824313434B70A86B90
S214003620002802D02100554B98472800544B984755
S214003630002800D1DEE05346002B00D1E6E028004B
S214003640504B9847070028004F4B98470200390018
S21400365020004E4B9847D0E05346181D3D4B9847E8
S2140036600400344B984700284BD0002C00D1D6E0FD
S2140036704C212000394B98475346236022003432B1
S214003680537830218B435370354BE361354B2362BF
S2140036900023A361534612229B5E638253465F8AD1
S2140036A000203B4B98473223434350334022FF329F
S2140036B00120934232D8C019E0822000354B98474B
S2140036C001286BD0534610229B5E238253461F8AE6
S2140036D000202F4B98476423434350334022FF3249
S2140036E0012093420AD90020294B98470300642002
S2140036F058435030A021284B984780B2C019A0826A
S214003700A7E60D4B0093F0220C4903300C4DA8475A
S2140037102200002310480C498847FEE700201C4B77
S21400372098470300322058435030A0211A4B984740
S21400373080B2C0E7AD170000C45802002C5C02003F
S21400374059210100205D0200B5170000750D01002B
S214003750BC5C0200E51D01005458020075290100FA
S21400376021500000514A0000810D0100A90D010002
S214003770D11D0100715B0000E5690000AD1A000074
S214003780A5210000D92300003D240000792900006F
S214003790D10D010049330000A5C001005346142294
S2140037A09B5EA38253469F8A0020214B9847642342
S2140037B0434350334022FF32012093420AD900206F
S2140037C01B4B98470300642058435030A021194BE8
S2140037D0984780B2381A20823BE65346002B04D026
S2140037E002212000144B984707E001212000124BCD
S2140037F098470BE05346002B08D05346DB6922005F
S21400380001215046984720000C4B98470C4B0093DC
S2140038100C4B8822FF320C4901200C4DA847200093
S21400382003B03CBC90469946A246AB46F0BDC046A7
S214003830D10D0100A5C00100E54001006928000087
S2140038400C5D0200C45802002C5C020059210100E5
S214003850F0B585B004000D001600314B98470028DF
S2140038600CD1304B0093304A30490330304DA847D6
S214003870220000232F4830498847FEE720002F4BC0
S2140038809847A8423BD020002D4B984702A920001D
S2140038902C4B9847013E638A9E19E68220002A4BED
S2140038A09847012831D0013D238AED18A58202AA47
S2140038B002212000E36998472000244B98470028FF
S2140038C003D0C369220001219847261D3000204BF3
S2140038D09847051E0AD01F4F02AA03212800EB694D
S2140038E0984729003000B847051EF5D12000144B34
S2140038F098474923E35CDB070DD405B0F0BD2000F4
S214003900154B9847B042BED1F7E701235B1BA58A4B
S214003910ED182582CBE72000104B9847EDE7C04610
S214003920AD17000054590200E50200002C5C0200AE
S21400393059210100205D0200B5170000A1240000F7
S214003940692800007D23000049330000A5210000FF
S214003950851E01009D1E0100F52400002D2F00008D
S21400396030B583B004000D000D4B984700280CD1ED
S2140039700C4B00930C4A0D4903300D4DA84722000E
S21400398000230C480C498847FEE720000B4B98475D
S21400399001002A0020000A4B984703B030BDC046FD
S2140039A0AD17000064590200270300002C5C0200DB
S2140039B059210100205D0200B5170000A124000077
S2140039C05138000030B583B004000D000C4B98470A
S2140039D0002807D03C23E05C2840431E9841C0B234
S2140039E003B030BD074B0093074A08490330084D23
S2140039F0A84722000023074807498847FEE7C04635
S214003A00AD170000A05B0200D70A00002C5C020085
S214003A1059210100205D0200B517000070B584B082
S214003A2005000E00104B9847002805D03F2E10D8F2
S214003A303D23E85C04B070BD0C4B00930C4A0D4966
S214003A4003300D4CA0472A0000230C480C49884739
S214003A50FEE703AC267000236370220009212800CD
S214003A60084B98476078E5E7AD170000B45B0200A6
S214003A70DE0A00002C5C020059210100205D0200D5
S214003A80B51700008D200000F0B5DE4657464E46BE
S214003A90C0B584B006000D001700130A0193002875
S214003AA030D0244B9B46244B9A46244B99460CE038
S214003AB002AB06330020185E04B01CBC91469A4642
S214003AC0A346F0BD0025002E1DD029003000D847A3
S214003AD0009029003000D04704023C19A4B202AB83
S214003AE09A1D21000098C8470128E1D06B461B7933
S214003AF05BB2002B07DA002DE4D13000104B98475C
S214003B000600DFE714000F4B1C40222C10D007D80D
S214003B100620032CD0D0072C08D180204000CBE70D
S214003B200F20312CC8D00130C02CC5D00020C3E7F0
S214003B30FF20C1E7492500001D3A0000616B000028
S214003B40A5210000FF80FFFFF0B5DE4657464E4633
S214003B50C0B584B006000D001700130A01930028B4
S214003B6028D01C4B9B461C4B9A461C4B994605E09E
S214003B7003AB188825E00025002E1CD02900300055
S214003B80D847009029003000D04704023C19A4B260
S214003B9003AA21000098C8470128E9D06B461B7984
S214003BA05BB2002B07DA002DE5D130000C4B9847AE
S214003BB00600E0E714000B4B1C40293C0020012CBB
S214003BC005D904B01CBC91469A46A346F0BD064BE8
S214003BD01888F6E7492500001D3A0000356C0000FD
S214003BE0A5210000FF80FFFFB8580200F0B5DE46B2
S214003BF057464E46C0B584B006000D001700130A9F
S214003C000193002829D01E4B9B461E4B9A461E4BFE
S214003C10994605E002ABD8792AE00025002E1DD093
S214003C2029003000D847009029003000D047040211
S214003C303C19A4B202ABDA1D21000098C84701283F
S214003C40E8D06B461B795BB2002B07DA002DE4D177
S214003C5030000E4B98470600DFE714000C4B1C4064
S214003C606D2C0BD00B4B9C4208D02C2C06D0FF2082
S214003C7004B01CBC91469A46A346F0BD0020F7E768
S214003C80492500001D3A0000016D0000A521000036
S214003C90FF80FFFFAD800000F0B5DE4657464E467B
S214003CA0C0B584B006000D001700130A0193002863
S214003CB02CD01F4B9B461F4B9A461F4B994609E03C
S214003CC0039804B01CBC91469A46A346F0BD002556
S214003CD0002E1CD029003000D84700902900300064
S214003CE0D04704023C19A4B203AA21000098C84792
S214003CF00128E5D06B461B795BB2002B07DA002D56
S214003D00E5D130000D4B98470600E0E714000C4B59
S214003D101C40BE2C09D00B4B9C4203D07E2C01D0FD
S214003D200020CEE7084B9847CBE70848C9E7C046CF
S214003D30492500001D3A0000D56D0000A5210000B1
S214003D40FF80FFFF8E800000D94001004CA70200D4
S214003D5070B50468A5880F232B40082B13DD0B2BAA
S214003D6018DD0D2B1DDDA1792A002068104B984721
S214003D70A0600023A380A17923002A0020680D4EAE
S214003D80B047A58070BDA1792A0020680A4B9847E5
S214003D902081EEE7A1792A002068084B9847208109
S214003DA0E7E7A1792A002068054B98472072E0E7EC
S214003DB0993C000079250000893A0000493B000044
S214003DC0ED3B0000F0B5DE4657464E464546E0B5AC
S214003DD09FB004008B463D23C35C8B4200D13EE27D
S214003DE0D64B9847002808D03D23E25C91465A46B9
S214003DF0E25400230293CA46E8E1D14B0093D14A2D
S214003E00D1490330D14DA84722000023D048D149DC
S214003E108847FEE773790422134373713D2399465E
S214003E205246E2542A0002992000CB4FB847099028
S214003E304B465A46E2542A0002992000B84780466C
S214003E407379042293437371099B83424BD03D26BA
S214003E505346A3552A0002992000BF4B98470200FC
S214003E6081465B46A35529000398BC4B9847012D15
S214003E7000D196E0BA48BB4B98470600AF4B984730
S214003E80002800D1A2E0002E2DD04B4633814346B9
S214003E90B3813460B5806B461B7AB3710EA8B24B03
S214003EA098470E96B14B0F93B14B1093B14B1193AD
S214003EB000231493FF331593089B1693079B5B42CE
S214003EC01793069B1800083012AA19781170013251
S214003ED001338342F9D10EA83622835C01218B433D
S214003EE08354A54B9847049B023304930C2B00D1B4
S214003EF066E10BAB049AD55A002DF4D005989F4B7B
S214003F009847029920009E4B984706009D4B98477D
S214003F1003900F232B40082B00DC7BE70B2B63DD85
S214003F200D2B00DDBBE073790422134373713D2330
S214003F3099465246E2542A0002992000924FB8470A
S214003F4080464B465A46E2542A0002992000B8475B
S214003F500700737904229343737143468342C2D0A9
S214003F603D265346A3552A0002992000864B9847C3
S214003F70020009905B46A35529000398834B984797
S214003F807748784B984706006C4B9847002879D0BE
S214003F90002EA8D06B4624229B181B7833723773EA
S214003FA077E77B4B994500D160E1984500D061E703
S214003FB02000784FB847C60F3618761036B2200065
S214003FC0B847C30F1B185B101BB267E1724B009318
S214003FD0EB2212015C4903305C4CA0473200002300
S214003FE06E485C498847FEE7737904221343737171
S214003FF03D2399465246E2542A0002992000684B17
S21400400098469847071C4B465A46E2542A0002999F
S2140040102000C0476B4698847379042293437371DB
S214004020BFB283B29F4200D15DE73D265346A355FB
S2140040302A00029920005A4B9847071C5B46A35556
S214004040021C29000398574B98474548454B98470C
S21400405006003A4B9847002807D0002E00D142E7CA
S21400406037816B469B8CB38113E74B4B00934E4ACC
S21400407035490330354CA0473200002347483549C0
S2140040808847FEE7444B0093484A2F4903302F4C9D
S214004090A0473200002341482E498847FEE73D23CB
S2140040A099465246E25473790422134373712A00E8
S2140040B0029920003E4FB8470A904B465A46E254B3
S2140040C02A0002992000B84707000E907379042250
S2140040D0934373710EA90AA8364B9847002800D15F
S2140040E001E73D265346A3552A0002992000304B8F
S2140040F0984781460A905B46A3550200290003981C
S2140041002D4B98471648174B984706000B4B984779
S214004110002806D0002E00D1E5E64B46B360F760D7
S214004120B7E61D4B0093254A07490330074CA047C6
S21400413032000023194807498847FEE7AD170000FC
S214004140085A0200370600002C5C020059210100C4
S214004150205D0200B5170000893A0000AD5F000040
S214004160C44D0020E51D0100B911010025320000F4
S214004170513D00007D26000079120100AD6A000066
S2140041804925000065690000ED3B0000BD620000A7
S214004190FF7F0000A12400001C5C020054580200AF
S2140041A0493B000035610000C40E0000D90E000037
S2140041B0993C000041C6010031640000ED0E00008D
S2140041C0029B0133DBB20293402B44D002992000BD
S2140041D0364B9847059000283DD043791B07EFD40F
S2140041E0B022029E31002000314B98470890B12241
S2140041F0310020002E4B98470790BE223100200049
S2140042002C4B98470690B22231002000284B984746
S2140042100BAD2880B32231002000254B98476880DC
S214004220B42231002000224B9847A880B5223100E6
S21400423020001F4B9847E880B622310020001C4B18
S21400424098472881B72231002000194B984768818B
S214004250002304934DE6FF212000174B98471FB01C
S2140042603CBC90469946A246AB46F0BD2000134F94
S214004270B847C60F3618761036B22000B847C30FB8
S2140042801B185B101BB2711C5A1C8A4200DD0A0008
S21400429012B291460A4A904500D0EBE5013601334A
S2140042A0B34200DD33001BB29846E3E54925000023
S2140042B0893A0000993C0000F52F0000A124000078
S2140042C0FF7F000030B583B004000D000D4B98470B
S2140042D000280AD03D23E35C290019438B4202D014
S2140042E02000094B984703B030BD084B0093084A9E
S2140042F008490330084DA84722000023074808490C
S2140043008847FEE7AD170000C53D00001C5A0200B6
S2140043107E0600002C5C020059210100205D020090
S214004320B517000030B583B004000D000D4B98475C
S21400433000280AD03D23E35C1900A9438B4202D033
S2140043402000094B984703B030BD084B0093084A3D
S21400435008490330084DA8472200002307480849AB
S2140043608847FEE7AD170000C53D0000305A020042
S2140043708F0600002C5C020059210100205D02001F
S214004380B517000030B583B004000A4B98470028E4
S21400439002D0E06903B030BD074B0093074A0849D6
S2140043A00330084DA84722000023074807498847DE
S2140043B0FEE7C046AD170000C85B0200F50A000025
S2140043C02C5C020059210100205D0200B517000098
S2140043D030B583B004000A4B9847002802D0606AC4
S2140043E003B030BD074B0093074A08490330084D19
S2140043F0A84722000023074807498847FEE7C0462B
S214004400AD170000E05B02001E0B00002C5C0200F3
S21400441059210100205D0200B517000030B583B0B9
S21400442004000A4B9847002802D0A06B03B030BDAA
S214004430074B0093074A08490330084DA847220057
S2140044400023074807498847FEE7C046AD17000027
S214004450F45B02006F0B00002C5C02005921010087
S214004460205D0200B5170000F0B583B005000022FD
S21400447015213E4B984728003D4B9847071E02D013
S21400448028003C4B9847002128003B4B98470023C8
S214004490FF22FF212800394CA0472B1D019318004E
S2140044A0374B9847041E0AD0364E21000198B04775
S2140044B000902000FFF7D8FF009C002CF5D1324B6F
S2140044C01B68002B09D0012202E09B68002B04D059
S2140044D019688D42F9D11A71F7E700202B4B9847DF
S2140044E0041E22D02A4E0DE029002000B047E36BC0
S2140044F09D420ED0A36D9F420ED02000234B9847BE
S214004500041E12D0636B9D42EED0A36B9D42EED18B
S214004510EAE70023E363EDE71E4B98478542ECD1BC
S214004520290020001A4B9847E7E7002200212800C0
S214004530EB6998472800184B984700280DD00430A0
S2140045402900164B9847686A002801D0144B9847F4
S2140045502800134B984703B0F0BD2800114B98472E
S214004560303029000D4B9847EDE7C046DD1F0000B0
S2140045701D4400008D1B0000FD1101007925000080
S214004580851E01009D1E0100F0260020B90E0100C8
S214004590711C0000011D0000A52100006D1F010018
S2140045A0C92301004D22000070B582B00400194BEB
S2140045B0984700280DD1184B00939422FF321749D4
S2140045C00330174DA847220000231648164988478F
S2140045D0FEE72000154B98472000154B9847051E10
S2140045E008D02000134B9847EB69002201212800D1
S2140045F098470CE02000104B9847051E07D0C66B66
S21400460020000C4B9847B44201D10023EB630020F6
S21400461002B070BDAD170000D45802002C5C02003A
S21400462059210100205D0200B5170000692800002E
S214004630A5210000694400004D22000030B583B07B
S21400464004000F4B984700280AD0A06B002814D00F
S2140046500C4B9847201A44426041C0B203B030BDAC
S214004660094B0093094A0A4903300A4DA84722001D
S2140046700023094809498847FEE70020EEE7C046C0
S214004680AD1700003D1C0000085C02007F0B000018
S2140046902C5C020059210100205D0200B5170000C5
S2140046A010B582B03023C35C028AD21A6C462280D0
S2140046B0828A9B18A3803123C35C428AD21A628006
S2140046C0C28A9B18E38000226846024B984702B0D5
S2140046D010BDC046C514010010B50368002B0DD0F0
S2140046E0021D01231468002C04D00133DBB204320F
S2140046F0072BF7D19B001950012010BD0023F9E7C6
S214004700F0B5CE4600B582B005000E0014000122BA
S214004710C84B98472080C84A31002800C74B9847A6
S21400472001900700052835D9237B002B3FD1237D38
S214004730002B00D06CE0237F002B00D08FE03623C8
S214004740E35C002B00D0AFE02823E35C052B00D908
S214004750F7E04423E35C052B00D923E1F92F22D8A8
S2140047606B469B88227B5A43120A2273227D5A4349
S214004770120A22752821625C5A43120A62540E31CC
S214004780625C5A43120A62544422A75C5F433F0AA3
S214004790A75408E00023237323752822A3540E325F
S2140047A0A3540E32A35402B004BC9146F0BD2C2292
S2140047B031002800A14B984720730528B7D9292235
S2140047C0310028009E4B9847608023223100280045
S2140047D0984B9847C0B2A071002806D1202231001D
S2140047E02800944B98476073A1E72A2231002800DE
S2140047F0934B9847A0802122310028008D4B994684
S21400480098472081222231002800C8476081E5E7CA
S214004810302231002800874B98472082002800D19C
S21400482089E73C2231002800844B984720750528EC
S21400483006D83222310028007E4B984760757AE70A
S2140048403122310028007B4B9847FF2318406082B6
S2140048503922310028007A4B9847E081E9E7402268
S21400486031002800734B98472083002800D166E764
S2140048704C2231002800714B98472077052806D82F
S2140048804222310028006B4B9847607757E7412259
S21400489031002800674B9847608349223100280082
S2140048A0674B9847E082EBE76E2231002800654BA5
S2140048B09847E062002800D146E76C2231002800C5
S2140048C05E4B98473623E054052800D83CE76D2217
S2140048D031002800594B98473723E05461223100B5
S2140048E02800544B98470300581E83413822A05C8A
S2140048F0012188431843A054E06A534B9847022886
S2140049000BD03723E35C052B14D860223100280037
S214004910484B98473923E05416E7692231002800AF
S214004920474B9847A086494A31002800454B984790
S2140049302063EAE7692231002800414B9847A086A9
S214004940E3E75022310028003A4B9847208400289D
S21400495000D1FEE65C2231002800384B9847282319
S214004960E054052800D8F4E6512231002800314BE7
S214004970994698476084522231002800C847A08490
S214004980532231002800C847E0845922310028000D
S2140049902B4B9847E083542231002800C847292330
S2140049A0E054D6E67F2231002800264B9847E06385
S2140049B0002800D1D2E67C22310028001F4B984701
S2140049C04423E054052800D8C8E6732231002800A6
S2140049D0184B994698474823E05274223100280025
S2140049E0C8474A23E052792231002800144B9847E2
S2140049F04623E0527E2231002800124B984720645E
S214004A00702231002800C8474C23E0527122310042
S214004A102800C8474E23E052752231002800C847B8
S214004A205023E054722231002800C8475123E05436
S214004A3094E6C046893A00000C800000ED3B00007A
S214004A40493B0000993C0000899500008E800000DC
S214004A50F0B59BB004000E00022A07D0002A61D0F1
S214004A600020012A00D1B5E01BB0F0BD0021814B2B
S214004A70984703000320002BF6D1012200212000D6
S214004A807C4FB8470190042200212000B84705005B
S214004A90052200212000B84727001037002305A96B
S214004AA0FA5C5A540133082BFAD1ADB205A90B882B
S214004AB05B1B0B808B88ED188D8080B24B881B1A91
S214004AC04B80CB88C018C880019A30006A4B984744
S214004AD003000220002BC7D02C2200212000674BA9
S214004AE0984703000220F92BBED92022002120007F
S214004AF0604B9847C3B20220002BB5D1322200216A
S214004B0020005C4B9847C3B20220002BACD15C4A15
S214004B1000212000594B98470023F92282425B412E
S214004B20581CA1E705A8574B9847332200212000C0
S214004B30504B9847002802D0002205AB1A7505AAEC
S214004B4000212000504B9847042200212000494FA6
S214004B50B8470500052200212000B8472700103777
S214004B60002303A9FA5C5A540133082BFAD1ADB2DC
S214004B7003AB1A88521B1A809A88AD189D8080B2A3
S214004B805A88121A5A80DA888018D88005AA310006
S214004B9018003E4B9847022200212000354B9847CC
S214004BA0002801D100205FE71C20394B98470500FC
S214004BB00122002120002F4B9847020000233900D5
S214004BC02800344EB04798239B00E1182800324B4B
S214004BD09847E7E7013200212000264B9847002837
S214004BE040D1332200212000224B984703000020AA
S214004BF0002B00D138E705AD2800224B984700234C
S214004C002B733622AB540E3AAB542A0000212000F8
S214004C101D4B9847042200212000164FB847050078
S214004C20052200212000B8471034002303A9E25CC7
S214004C305A540133082BFAD1ADB203AB1A88521B73
S214004C401A809A88AD189D8080B25A88121A5A80A7
S214004C50DA888018D88005AA310018000B4B9847D0
S214004C60002001E798239B00E0180C4B98470C4B5C
S214004C709847B6E7893A000099160100ED3B000018
S214004C800C800000CDBF00000147000071C000008E
S214004C90A127010001BD000075BA000041BB00005D
S214004CA065240100F8B505000E001400214A224BC9
S214004CB098472072052800D8F8BD204A3100280001
S214004CC01D4B9847F92803D8237A5843000A2072C8
S214004CD0237A052BF0D91A4A31002800194B984739
S214004CE02080194A31002800184FB847A081184A7A
S214004CF031002800B8476081164A31002800B847BE
S214004D002076154A31002800B8476076134A3100ED
S214004D102800134B98476060E289124B9A42CBD02A
S214004D20228A9A42C8D0104A31002800054B98477C
S214004D302080C1E78C800000ED3B00000C80000066
S214004D4089800000493B000080800000893A00000E
S214004D508180000082800000838000008E8000003A
S214004D60993C0000FFFF00008A80000070B5050037
S214004D700E0014001F4A204B98472070052800D8C4
S214004D8070BD1E4A310028001B4B9847F92803D8EF
S214004D9023785843000A20702378052BF0D9002387
S214004DA063800133FF332381AB8A01332A8A9B1A3F
S214004DB01BB2DA0FD3185B10A380EB8A01336A8A22
S214004DC09B1A1BB2DA0FD3185B10E3800C4A310033
S214004DD02800094B9847A0720A4A310028000A4B5F
S214004DE09847A081094A31002800094B9847A073CC
S214004DF0C6E7C046AC800000ED3B00000C8000001B
S214004E00AD800000A9800000493B0000A0800000A3
S214004E10893A0000F0B5DE4657464E46C0B58AB021
S214004E20040004915022784B98470600051E30D1A6
S214004E307F22049F39002000744B9847061E06D038
S214004E407C2239002000724B9847052850D8402213
S214004E50049920006C4B9847061E00D0C0E0042240
S214004E6004992000684FB8470600052204992000E0
S214004E70B847031CB04200DA331C1AB2002A01DD20
S214004E80ED182DB228000AB01CBC91469A46A346DF
S214004E90F0BD5C22049920005D4B9847002505284C
S214004EA0C6D95322049D29002000574FB847F30F58
S214004EB09E19761001363618B6B25122049529008E
S214004EC02000B8470500522204992000B847EA1788
S214004ED0AB185340C21780185040984200DA1800AA
S214004EE03018031C020401D41DB2A1E70023FBE71F
S214004EF07022049F39002000434B9946984705903E
S214004F00702239002000C84783467E220497390065
S214004F1020003E4B9847020006AF00218A460291C9
S214004F203C4B019359460091059B310038003A4EA0
S214004F30B04708AE5346338073803B88013BB3804E
S214004F407B88013BF3807522049F39002000C84708
S214004F500590732239002000C84782467422390023
S214004F602000C847814607AA13006A46127D200023
S214004F70103005933100294FB847059A13885344DB
S214004F809BB252884A4492B21020215E36889E19FF
S214004F9036B28E1BAE4200DA2E001221605E08A9E1
S214004FA04988511809B236B2411AB14200DA3100C6
S214004FB008A880881B181BB21425605F09B21B1A4C
S214004FC08B4200DA0B0008A9C988521812B21620C4
S214004FD0215E1BB2521A9A4200DA1A0015B236E760
S214004FE04C22049920000A4B9847052800D836E73B
S214004FF0412204992000044B98478619AE4200DAF5
S2140050002E0035B22BE7C046893A0000993C0000D6
S214005010ED3B0000187C00003D3F01003D170100FD
S21400502010B5040008291BD0072924D0012927D051
S21400503006292BD0032935D004293DD00B293FD093
S2140050400B000D3B012B40D9162943D0172957D00A
S214005050012000290AD120002C4B9847012005E0AA
S2140050601378002B03D128345460012010BD002390
S21400507053600120FAE726491000264B9847F5E7CB
S214005080254B984701235840C0B2EFE70021234B39
S2140050909847638E1A1C1BB2834200DA021C628693
S2140050A00120E3E74923C35C0120DB07DED52000AF
S2140050B01B4B98470120D9E71A4B98470120D5E7A4
S2140050C00531194B98470120D0E71021174B984718
S2140050D00120CBE7164B9847164B9847002805D07B
S2140050E006212000104B98470120BFE70221200030
S2140050F00D4B9847042120000C4B98470120B5E73C
S21400510011390A4B98470120B0E7C0462526000013
S2140051108C5D0200D9460000C5390000154E00001F
S2140051202D2F00004D210000C54200002543000041
S2140051301D440000531C0000F0B5CE4600B582B0FA
S214005140040001900D00103100221F4B98470028E4
S21400515027D03423EB5CDB0625D42B6A002B28D023
S2140051600222210028009847814603281DD02E1DC4
S2140051703000164B9847041E0BD0154F210001989F
S214005180FFF7DAFF002808D121003000B847041ED8
S214005190F4D100204B46012B09D002B004BC914646
S2140051A0F0BD0020F9E70020F7E70020F5E728002B
S2140051B0F3E72E1D3000054B98470400022399465E
S2140051C00028DAD1E9E7C04699160100851E0100DD
S2140051D09D1E0100F0B5D6464F4680B58DB007003F
S2140051E00D003423C35CDB0604D50DB00CBC914621
S2140051F09A46F0BD3223C65E06AC21002E4B984779
S214005200B3B22288D21A22806288D21A6280A2881A
S2140052109A18A280E2889B18E3802200290008A83A
S214005220264B98470028E0D03B6A002B03D000228C
S21400523008A93800984706A938001F4B984706AAC1
S21400524029000AA81D4B9847002807D13B6A002B67
S214005250CBD0012208A938009847C6E73B1D01932A
S2140052601800174B9847051EF0D0134B9A46134B61
S2140052709946144E04E029000198B047051EE5D073
S21400528004AC21002800D0476B8E2288D21A2280D8
S2140052906288D21A6280A2889A18A280E2889B1836
S2140052A0E38022000AA902A8C8470028E3D002A982
S2140052B02800FFF78FFFDEE77D2300000B140100B8
S2140052C0911E0100C51E0100F0B5D64600B582B09D
S2140052D0041E01910DD0019920001A4B984720001A
S2140052E0194B9847051E0AD0184B9A46154E1F00B4
S2140052F010E0174B1868174B9847041EEBD102B006
S21400530004BC9246F0BD28000F4B98472C0000289E
S214005310F5D005002B1D009321001800D047041E71
S21400532007D001992000B04721000098B847041E16
S214005330F7D12B6A002BE6D0012201992800984766
S214005340E1E7C046D5510000A5210000C51E0100BA
S214005350F82600204518000070B51C4D28681C4B28
S2140053609847040028681B4B984700280DD1012356
S214005370A361164B186843681A6AD2070FD51B6AD2
S2140053809B070CD50123E3610BE0104D2868A36949
S214005390002BECD0C369002BF9D09847F6E7002322
S2140053A0E361C368002B03D021001031A268984740
S2140053B02368002B06D06268002A03D0A1688B42BF
S2140053C001D0A36070BDA260FCE7C046F8260020AE
S2140053D0750E0100790E010070B582B005001C4EF6
S2140053E030681C4B9847040030681B4B98470028D1
S2140053F009D1174E3068A369002B04D0C369002B6F
S214005400F9D09847F6E72200103229006846134B79
S21400541098470F4C2068124B984701006846114B7E
S21400542098476946104DA8472068104B984769462C
S214005430A84720680E4B98476946A84720680D4B3A
S2140054409847002801D002B070BD0B4B9847FAE78A
S214005450F8260020750E0100790E01000B140100DD
S2140054604518000039510000C95200008518000098
S214005470C5180000910E0100595300007047000047
S214005480F0B585B005000E00002857D0002E5AD083
S21400549002AC0023238063802800374B98470138EE
S2140054A0A0802800354B98470138E0802200310064
S2140054B06846334B984700284BD02B69002B02D008
S2140054C0694628009847B4235B00EB5A9B059B0D62
S2140054D0002B14DD002100242A4EB4277F0009315A
S2140054E0C900691800226846B047002831D1013447
S2140054F0A4B22100EB5B9B059B0D9C42EFDB1F2BB0
S21400550029DC0933DB00EB1800226946515C99540C
S2140055100132082AF9D1B42149006B5A9A05802035
S214005520C00384466244920D9B0A9B0213436B524F
S214005530E86A6639FF39144B98470AE0134B9847D8
S214005540051E06D0A2E7B4225200AB5A9B0A9B0265
S214005550AB5205B0F0BDB4225200AB5A9B0A9B0278
S214005560AB5228004830002302A95A5CC2540133CB
S214005570082BFAD1CFE7C046810D0100A90D010026
S2140055800B140100991601008D380100750D0100FD
S214005590014B18687047C046F8260020F0B5DE4676
S2140055A057464E464546E0B58DB00500D04B984769
S2140055B00990D04CEB68236000212800CE4B98471A
S2140055C02068C36B002B0ED0B4235B00C35A9B0528
S2140055D048270026002B00D19EE2C64B9846C74BB4
S2140055E09A46C34656E0B4225200835A9B0A9B0250
S2140055F0835287E22D194935FF35073B2B7001345E
S214005600BC4B1868B4235B00C35A9B059B0D9C4299
S21400561035D203194933FF331B78002BEFD1A6424E
S214005620EDD025000935ED004119C019D0470028F6
S214005630E5D05B4619684A19C9190AA8B04B9847BD
S2140056400AA8B04B9946984703905B461B68D81942
S214005650C84704905B461B685819C847049B9C467D
S2140056606044039B8342CAD2A24B1D68E8190023FC
S2140056700AA95A5CC2540133082BFAD1BAE701369C
S2140056809C4B1868B4235B00C35A9B059B0D0837D8
S2140056909E420FD280194930FF300378002BEED19E
S2140056A043461868B4235B00C35A9B0500D115E235
S2140056B00024AEE70021944A1160B4225200825AB8
S2140056C0920500D112E21A00013A07922DD40799EA
S2140056D042184932FF321278002A0DD04733FF3382
S2140056E0C3180A00013A05D3013B59780029F9D1BD
S2140056F0079201E00023079341682023CA5C012437
S214005700A243CA544168CA5C02208243CA54794BF9
S2140057101C68B4235B00E35A9B0500D1E6E14823EE
S214005720069300230493270045E000230793E3E74E
S214005730796820228B5C012003438B5446E06D4C35
S2140057402068724B98470500002606822068704B3A
S21400575098470138A8826E8220686E4B98470138B9
S214005760E8822368596820228B5C022003438B540E
S2140057700398694B98475F4B18688369002B09D0DC
S214005780069B9C4660445F4B98475F4B1A6894465E
S21400579060441860049B01331A000493554B1F683D
S2140057A0069B08330693B4235B00FB5A9B059B0DB0
S2140057B09A4200DB9AE1049ABB184933FF331B7800
S2140057C0002BE7D1079B19009142B1D079682022BF
S2140057D08B5C022083438B54069B9C46BC446346EA
S2140057E0039338004D4B98470028A8D1414B9A4662
S2140057F01868464B98470600049BDB00FF184C23AE
S214005800FC5A0134043BFB5AE41A23B298464E2352
S214005810FC5E651C4A23FB5AED1A2DB253461868E7
S2140058203C4B984784423CDA4E23FB5E9946414601
S214005830F0683B4B9847A846854200DD80462D4BD6
S2140058401B681B69002B3DD00AAB00221A809A8089
S2140058505A8043461BB29A460AAD264B9B46534691
S214005860B2464246B84617001E00741E24B2EC80AC
S2140058705B4618680369290098470623E95E4B1CB7
S2140058806A889B1A1BB29F4213DA261EEDDC254B54
S2140058900093254BA022FF3224490220244CA04727
S2140058A069E7144B18681B4B9847013803B29946B2
S2140058B0BDE74746330056469A464B1C9846534625
S2140058C0002BE4DD4A23FC5E4B4605934346E31873
